:020000040800F2
:10000000C07200200902000831150008E114000840
:100010002F150008A90C0008272100080000000087
:100020000000000000000000000000006501000862
:10003000FB0D000800000000A9010008D519000808
:1000400023020008230200082302000823020008FC
:1000500023020008230200082302000823020008EC
:100060002302000823020008FD0D000823020008F7
:1000700023020008230200082302000823020008CC
:1000800023020008230200082302000823020008BC
:10009000230200082302000823020008590F000869
:1000A000230200082302000823020008230200089C
:1000B0002302000823020008851B00082302000811
:1000C000230200082302000823020008230200087C
:1000D00023020008911F00082302000823020008E1
:1000E0002302000823020008230200080000000089
:1000F0000000000000000000000000000000000000
:100100000000000000000000230200082302000895
:10011000230200082302000823020008230200082B
:10012000230200082302000823020008230200081B
:10013000230200082302000823020008230200080B
:1001400023020008230200082302000823020008FB
:10015000DFF80CD000F02CFB004800478D6300084E
:10016000C0720020204B19680868B0E8F00F80F3D7
:100170000988BFF36F8F4FF0000080F311884EF0B5
:100180000D0E70470000000006480068006880F30C
:10019000088862B661B6BFF34F8FBFF36F8F00DF81
:1001A00000BF00BF08ED00E0EFF30980BFF36F8FE1
:1001B0000D4B1A6820E9F00F106008B54FF01000E1
:1001C00080F3118807F028FC4FF0000080F31188BD
:1001D000BDE8084019680868B0E8F00F80F30988A6
:1001E000BFF36F8F704700BF58000020EFF31180FE
:1001F0004FF0100181F31188704780F31188704728
:10020000EFF3058070470000064880470648004726
:10021000FEE7FEE7FEE7FEE7FEE7FEE7FEE7FEE7B6
:10022000FEE7FEE7F919000851010008F0B480EA82
:100230000102D40F4200B2EB410F02D2024608463F
:1002400011464A0042D0C30DDDB2C1F3C752AD1A08
:10025000202D35DAC1F3160141F4000204B15242F7
:10026000C5F1200602FA06F12A411044B3EBD05F33
:1002700023D0C4B1012DA0EBC35009DCF0BC4FF07A
:10028000004202EAC352DBB200F5000000F004BAFB
:10029000400000F1807000EBC350A0F1807040EA94
:1002A000D170490009E0490841EAC071A0EBC35090
:1002B00000F50000400800EBC350F0BC00F0E3B9CB
:1002C0006142012202EB4101001BF6E7F0BC7047DE
:1002D00081F00041AAE780F00040A7E780EA010230
:1002E00010B502F00043400022D04A001FD0010E9A
:1002F00001EB1261C0F35600C2F3560240F4000055
:1003000042F40002A0FB022000047F39140400D054
:10031000401C50EA124001D44000491EC2B20C06F3
:1003200004EBD010401C4008802A02D003E00020DB
:1003300010BD20F00100002900DA0020184310BD94
:10034000420005D0C0F3C7525242914201DC002066
:10035000704700EBC15070472DE9FE4F804681EA9F
:100360000300C00F0C46009021F0004123F000452F
:10037000B8EB0200A94105D24046214690461C46F2
:100380000B46024623F00040104347D0270DC7F329
:100390000A00C3F30A510290401A019040286BDA18
:1003A000C3F3130040F4801B0098924620B1002351
:1003B000D2EB030A63EB0B0B01985946C0F14002E4
:1003C000504600F03FF906460D4650465946019A00
:1003D00000F047F910EB08006141002487EA115250
:1003E00084EAE7731A4340D0009A62B3019A012A63
:1003F0004FEA075215DC001B61EB02014FF000428F
:1004000002EA0752CDE90042001C41F58011324654
:100410002B4600F07EF903B0BDE8F08F4046214640
:10042000F9E7001B61EB0201001C41F58013001885
:100430005B412018A2F5001747EB030140EAD57095
:10044000B6196D4111E06D084FEA360645EAC075F0
:100450004FEA0752001B61EB0201001C41F58011BD
:1004600049084FEA30000019514132462B4603B08B
:10047000BDE8F04F00F03EB9009801224000002393
:10048000D0EB020263EBE073009821464FEAE07480
:10049000B8EB000061EB0401E9E783F000435BE7A0
:1004A00081F0004158E72DE9FE4F81EA030404F092
:1004B000004421F0004100944FF0000B23F0004372
:1004C00050EA01045ED052EA03045BD0C3F30A543D
:1004D000C1F30A552C44A4F2F3340194A0FB025456
:1004E000C1F3130141F48011C3F3130343F48013E8
:1004F00001FB024400FB034E840A970A44EA81543C
:1005000047EA8357A4FB076802958D0A05FB078518
:100510004FEA932C04FB0C542705029D4FEA065822
:1005200047EA1637B5EB08056EEB070C870E920EFF
:1005300047EA811742EA8312A7FB0201B6EB0B01DF
:1005400064EB00042B0D43EA0C335E1844EB1C50A3
:10055000DA465146E7FB0201C5F313044FEA0B33B9
:1005600043EA14534FEA0432019C43EA0603A4F120
:100570000C040294009CCDE900B400F0CAF803B06A
:10058000BDE8F08F00200146F9E7962300221146CE
:1005900000F082B820F00040C10DC0F3160040F416
:1005A00000007F2901DA00207047962903DCC1F1A1
:1005B0009601C840704796398840704700F0004265
:1005C00030F000400AD0C10D01F56071C0F3160093
:1005D00042EA0151C208400711437047002001461A
:1005E000704701F0004330B421F0004150EA0102AD
:1005F00006D00A0DA2F56072C1F31301002A02DCD5
:1006000030BC00207047440F44EAC104C100E01828
:1006100030BC00EBC25000F036B80000002801DB0F
:10062000C0F10040002901DBC1F100418142704767
:10063000002801DBC0F10040002901DBC1F10041CD
:1006400088427047202A04DB203A00FA02F1002099
:1006500070479140C2F1200320FA03F31943904000
:100660007047202A06DBCB17203A41FA02F043EA12
:10067000E07306E041FA02F3D040C2F1200291405B
:100680000843194670470029A8BF7047401C49001D
:1006900008BF20F00100704710B4B0FA80FC00FAE7
:1006A0000CF050EA010404BF10BC704749B1CCF112
:1006B000200421FA04F411FA0CF118BF012121439E
:1006C0000843A3EB0C01CB1D4FEA00614FEA102059
:1006D00042BF002010BC704700EBC35010440029FB
:1006E000A4BF10BC7047401C490008BF20F00100A7
:1006F00010BC704710B5141E73F1000408DA401CDA
:1007000041F1000192185B411A4301D120F0010030
:1007100010BD2DE9F04D92469B4611B1B1FA81F220
:1007200002E0B0FA80F220329046FFF78BFF0446D9
:100730000F4640EA0A0041EA0B0153465A46084375
:1007400013D0114653EA010019D0C8F140025046B7
:1007500000F040F805460E46504659464246FFF71F
:1007600071FF084305D0012004E020463946BDE86A
:10077000F08D0020054346EAE0762C4337430A9883
:100780006305E40AA0EB08000022FD0A44EA47548E
:100790000A3002D500200146E9E701051019694138
:1007A000DDE9084500196941BDE8F04DA2E7000008
:1007B000064C074D06E0E06840F0010394E80700AE
:1007C00098471034AC42F6D3FFF7C6FC5C870008AC
:1007D0007C870008202A04DB203A21FA02F000215D
:1007E000704721FA02F3D040C2F120029140084341
:1007F00019467047002904D0816841F001018160E9
:100800007047816821F001018160704730B591B077
:100810000121084600F0EEFF3E4D284600F054FA54
:100820003D4801903D480290002403942821049102
:1008300005948021069149000791880008902020A6
:10084000099000020A900B9401A9284600F0B8FA1A
:100850000121284600F02AFA0121480200F0E6FFB3
:1008600000212F4800F029F900212E4800F025F939
:1008700000212D4800F021F900212C4800F01DF93D
:100880000C9401208DF834008DF835004FF4602071
:100890000E900F9402208DF840001F4C0CA94C3C88
:1008A000204600F05FF8052301220A21204600F0CF
:1008B0007DF8052302220B21204600F077F805235E
:1008C00003220C21204600F071F8052304220D219B
:1008D000204600F06BF80121204600F029F80121A4
:1008E0002046FFF787FF204600F09AF8204600F0E8
:1008F00032F80028FAD1204600F0A3F8204600F094
:1009000023F80028FAD10121204600F08EF811B01A
:1009100030BD0000080002404C240140BC0600200D
:10092000B4860008BC860008C4860008CC8600088F
:10093000002904D0816841F480718160704781682A
:1009400021F4807181607047014600208968490761
:1009500000D501207047014600208968090700D5AD
:100960000120704710B542680E4B1A400C790B6895
:1009700042EA04221343436082680B4B1A40D1E9D8
:10098000024323434C7942EA440213438360C26A20
:1009900022F47002097C491EC9B242EA0151C162C7
:1009A00010BD0000FFFEF0FFFDF7F1FF70B5072658
:1009B00009290AD9C568A1F10A0404EB4404A64038
:1009C000B543A3401D43C56007E0056901EB410441
:1009D000A640B543A3401D4305611F23072A09D242
:1009E000446B521E02EB820293409C4391400C43A5
:1009F000446370BD0D2A09D2046BD21F02EB820240
:100A000093409C4391400C43046370BDC46A0D3A0B
:100A100002EB820293409C4391400C43C46270BD40
:100A2000816841F0080181607047002904D0816825
:100A300041F4A00181607047816821F4A0018160C8
:100A40007047816841F00401816070472DE9FE43E1
:100A50000746884616461D462821384600F02DF8E0
:100A60000121084600F0E2FE384600F02EFCC4B238
:100A7000384600F077FC214600F036FB384600F09F
:100A8000D4FB009000208DF804008DF8058001242F
:100A90008DF80640684600F077FA384600F094FC7E
:100AA0008DF808008DF809608DF80A508DF80B401C
:100AB00002A800F03FFDBDE8FE8338B504460D46B0
:100AC000204600F00DF8A088ADF800008DF8035026
:100AD00003208DF802006946206800F019FB38BD3C
:100AE000124A0168914201D104201CE0104A91424F
:100AF00001D1082017E00F4A914201D1102012E0E5
:100B00000D4A914201D120200DE00C4A914201D1C1
:100B1000402008E00A4A914201D1802003E0094ABE
:100B2000914200D18815012100F080BE00080140EB
:100B3000000C014000100140001401400018014069
:100B4000001C0140002001402DE9FF4180460A9F22
:100B50000C4616461D46404600F028F8ADF8084001
:100B6000ADF804600021ADF80610ADF80A1001A937
:100B7000404601F0BFF901221146404601F056F807
:100B80000121404601F03AF8404601F07BF98DF82A
:100B900000008DF801508DF8027001208DF80300DF
:100BA000684600F0C7FCBDE8FF810000314988427B
:100BB00003D10121C01400F039BEB0F1804F06D03E
:100BC0002D49884207D10121022000F021BE0121D8
:100BD000084600F01DBE2949884203D101210420A6
:100BE00000F016BE2649884203D10121082000F0FA
:100BF0000FBE2449884203D10121102000F008BE15
:100C00002149884203D10121202000F001BE1F4963
:100C1000884203D10121401400F008BE1C498842DB
:100C200003D10121C80400F001BE1A49884203D152
:100C30000121080500F0FABD1749884203D10121BE
:100C4000480500F0F3BD1549884203D10121402039
:100C500000F0DEBD1249884203D10121802000F05E
:100C6000D7BD1049884203D10121801500F0D0BDC5
:100C700070470000002C01400004004000080040C4
:100C8000000C0040001000400014004000340140FF
:100C9000004C014000500140005401400018004049
:100CA000001C004000200040FEE77047002904D0EF
:100CB000016841F001010160704701684FF6FE7262
:100CC000114001607047000001684FF6FE7211404C
:100CD00001600021016041608160C1603649364A8F
:100CE0000839904204D1486840F00F0048607047CE
:100CF000314A1432904204D1486840F0F000486014
:100D000070472D4A2832904204D1486840F4706000
:100D100048607047284A3C32904204D1486840F409
:100D2000704048607047244A5032904204D148686D
:100D300040F47020486070471F4A6432904204D1EA
:100D4000486840F47000486070471B4A783290420F
:100D500004D1486840F0706048607047174A111F1E
:100D6000904204D1086840F00F0008607047134AB1
:100D70001432904204D1086840F0F00008607047D7
:100D80000E4A2832904204D1086840F4706008602E
:100D900070470A4A3C32904204D1086840F47040DF
:100DA00008607047054A50329042FAD1086840F412
:100DB00070200860704700000800024008040240EC
:100DC00030B5026847F6F0739A430C6A8B68234388
:100DD000D1E904452C4323438C692343CC69234345
:100DE0004C6A23438C6A234313430360CA684260FE
:100DF0000A6882604968C16030BD704710B50C4810
:100E000000F013FA00F0B0F8002810D0094800787C
:100E1000012805D10849094801F0AEFB0649886060
:100E2000034800F002FABDE8104000F097B810BD8A
:100E3000FC8600082C000020A405002000080040CB
:100E400070B53D4800F0F1F900F08EF83B4C3C4D98
:100E500078B12078022805D13A49284601F08CFB68
:100E600038498860344800F0E0F9BDE8704000F08F
:100E700075B8354800F0D9F900F076F888B12078D7
:100E8000032807D12F492846283101F075FB2D4949
:100E9000283188602C4800F0C8F9BDE8704000F0A7
:100EA0005DB82A4800F0C1F900F05EF888B12078FA
:100EB000042807D123492846503101F05DFB214920
:100EC00050318860214800F0B0F9BDE8704000F072
:100ED00045B81F4800F0A9F900F046F888B120781D
:100EE000052807D117492846783101F045FB1549F7
:100EF00078318860164800F098F9BDE8704000F03D
:100F00002DB8144800F091F900F02EF8002811D007
:100F10002078062807D10B492846A03101F02CFB88
:100F20000849A03188600B4800F07FF9BDE87040A7
:100F300000F014B870BD0000048700082C000020E9
:100F400000080040CC0500200C870008148700082A
:100F50001C87000824870008FFF772BF014908605A
:100F6000704700001404014001460020054A126841
:100F70000A40044B14331B680B4202D0002A00D0F5
:100F8000012070470004014030B51B4A8379016895
:100F9000002B2AD013688B431360111D0B68046863
:100FA000A3430B60017911440B68046823430B6071
:100FB000114C08342168036899432160231D196886
:100FC0000568A94319604179102905D011440A68C0
:100FD000006802430A6030BD216802681143216045
:100FE000196800680143196030BD00791044026837
:100FF0008A43026030BD0000000401400149C8601E
:10100000704700000020024070B505464FF43026BE
:10101000304600F059F8042811D1094C206940F0FD
:10102000020020616561206940F040002061304687
:1010300000F04AF8216941F6FD721140216170BD4E
:101040000020024004200849CA68D20701D00120CC
:101050007047CA68520701D502207047C968C9069F
:10106000FBD50320704700000020024002480169C0
:1010700041F080010161704700200240F0B5064652
:101080000D464FF40057384600F01EF804280CD1E6
:10109000064C206940F0010020613580384600F0A0
:1010A00013F82169BA1E11402161F0BD00200240F1
:1010B0000348024941600349416070472301674585
:1010C00000200240AB89EFCD00B50346FFF7BAFF21
:1010D00002E0FFF7B7FF5B1E012801D1002BF8D11A
:1010E000002B00D1052000BD10B58A07120F0F2379
:1010F000934021F00304054921448C689C438C6093
:101100008B68904003438B6010BD000000000140DD
:101110002DE9F0410022CC7804F00F03E40601D55C
:101120008C7823430C784FF00F0714F0FF0F4FF02B
:10113000010C1CD005680CFA02F40E882640A64269
:1011400011D1960007FA06F825EA080503FA06F811
:1011500048EA0505CE78282E02D0482E02D002E0BB
:10116000446100E00461521C082AE4D305600A8847
:10117000FF2A1ED94568002202F108060CFA06F47F
:101180000E882640A64210D1960007FA06F825EAF6
:10119000080503FA06F848EA0505CE78282E00D19E
:1011A0004461CE78482E00D10461521C082AE3D352
:1011B0004560BDE8F0810000F0B5154C002801DA6B
:1011C000E36900E06368C0F30346420D120185B293
:1011D000C0F301579540032F07D0C2020CD503225C
:1011E000B240934343F0706209E023F07062636899
:1011F00023F07063636002E0AB4343F0706201B1BF
:101200002A43002801DAE261F0BD6260F0BD00000F
:10121000000001400246002092680A4200D00120EE
:101220007047416170470161704741684FF48072B7
:1012300091423ED014DC102935D009DC01292CD094
:1012400002292CD004292CD0082900D1082070476D
:1012500020292AD040292AD08029F8D1802070471F
:101260004FF4805291422AD00BDC4FF4007291422D
:1012700021D05200914220D052009142EFD110462D
:1012800070474FF4005291421BD0520091421AD045
:1012900052009142F4D1104670470120704702205D
:1012A000704704207047102070472020704740206E
:1012B00070471046704710467047104670471046FA
:1012C000704710467047104670474168B1F5807FFF
:1012D0003BD014DC102932D009DC012929D00229A5
:1012E00029D0042929D0082900D1032070472029BA
:1012F00027D0402927D08029F8D107207047B1F5A1
:10130000805F28D00ADCB1F5007F20D0B1F5806F76
:101310001FD0B1F5006FF1D10B207047B1F5005F20
:101320001BD0B1F5804F1AD0B1F5004FF5D10F2089
:10133000704700207047012070470220704704204A
:101340007047052070470620704708207047092025
:1013500070470A2070470C2070470D2070470E2000
:1013600070470000114A0168914201D10020704786
:101370000F4A914201D1012070470E4A914201D19A
:10138000022070470C4A914201D1032070470B4A5A
:10139000914201D104207047094A914201D10520B0
:1013A0007047084A9142FBD106207047000801406F
:1013B000000C0140001001400014014000180140E1
:1013C000001C0140002001404168B1F5807F3BD006
:1013D00014DC102932D009DC012929D0022929D0B6
:1013E000042929D0082900D109207047202927D0B5
:1013F000402927D08029F8D117207047B1F5805FA8
:1014000028D00ADCB1F5007F20D0B1F5806F1FD065
:10141000B1F5006FF1D128207047B1F5005F1BD006
:10142000B1F5804F1AD0B1F5004FF5D128207047A3
:101430000620704707207047082070470A20704731
:1014400017207047172070471720704717207047E4
:101450002820704728207047282070472820704790
:1014600008B506F05BFC00900B4D0C4E0C4F0D4C7C
:101470006421684606F05CFAD5F89C01C043C5F8C3
:101480009C01D4E9000132463B46FEF765FFC4E902
:10149000000105F087FAEBE7008022429A999999BA
:1014A0009999B93F000000201FB500F017F80020FF
:1014B0000649CDE901100222034600920390120270
:1014C00003A1054806F0B0FB1FBD0000E8000020A6
:1014D000574F524B000000006114000804F096BF03
:1014E00006A30020104C211F1A5C22800A88520695
:1014F000FCD5401CC0B22A28F6D3FEE70D0A456E83
:1015000074657220486172644661756C745F4861ED
:101510006E646C65722C2053797374656D2048611C
:101520006C742E0D0A000000043801407047FEE77D
:101530007047000070B50F23C27801260178002A99
:101540001ED0144A126802F4E062C2F5E062120A88
:10155000C2F10404D3404578A54082781A402A435A
:10156000120101F1E02181F80024007800F01F0150
:101570008E404009800000F1E020C0F8006170BD9D
:1015800001F01F0086404809800000F1E020C0F80B
:10159000806170BD0CED00E002490843024908601B
:1015A000704700000000FA050CED00E010B50021C6
:1015B000054B0022814202D003EB8104E260491C0A
:1015C000C9B20629F6D310BDBC00002070B50025B5
:1015D00005F1B000C0B2002100F0D2F800210846A9
:1015E00000F0CEF80021102000F0CAF800240121FC
:1015F000002000F0C5F8641CE4B2802CF7D36D1C09
:10160000EDB2082DE4D370BD002205E00021491C95
:10161000C9B20629FBD3521C8242F7D3704710B5DA
:101620000446B031C8B2002100F0AAF8102040EA08
:101630001410002100F0A4F804F00F00BDE81040E1
:10164000002100F09DB800002DE9F04180460F46D2
:101650000024203AD5B2B8F17F0F02D9A046BF1CB2
:10166000FFB2102B12D039464046FFF7D8FF184979
:1016700005EB450001EB40050121285D00F080F8F5
:10168000641CE4B2062CF7D3BDE8F081394640462D
:10169000FFF7C5FF0F4E04EB05100121305C00F091
:1016A0006FF8641CE4B2082CF5D37F1CF9B24046F5
:1016B000FFF7B5FF002404EB051030440121007A48
:1016C00000F05EF8641CE4B2082CF4D3DCE7000000
:1016D0009C7E0008C48000082DE9F05F8046DDF89C
:1016E00028A08B4691461D46002600244FEA5A0743
:1016F0001DE0281B401EC1B20A2005F029FAB9FBE3
:10170000F0F00A21B0FBF1F201FB120026B9691ECC
:101710008C4201DA78B101263030C2B207FB048076
:10172000C0B253465946FFF78FFF641CE4B2AC4287
:10173000DFD3BDE8F09F07FB0480C0B253462022F0
:101740005946FFF781FFF0E72DE9F04104460E46C8
:101750001746984600250DE0434631462046FFF7E0
:1017600073FF0834E4B2782C02D90024B61CF6B218
:101770006D1CEDB27A5D002AEED1BDE8F08100006B
:101780002DE9F0470546DFF864904FF480680029A2
:1017900004D041464846FFF746FD03E0414648462F
:1017A000FFF73FFD0024124F4FF4006631463846E4
:1017B000FFF737FD280604D541463846FFF733FDCD
:1017C00003E041463846FFF72CFD31463846FFF727
:1017D0002AFD6806050E641CE4B2082CE6D34146D7
:1017E0004846BDE8F047FFF71EBD0000001001406D
:1017F00000140140054A002903D051690143516199
:1018000070475169814351617047000000100240E8
:10181000054A002903D0D1690143D1617047D169DC
:101820008143D1617047000000100240054A002941
:1018300003D091690143916170479169814391613E
:10184000704700000010024010B5264A516801F0B0
:101850000C01254B002927D0042927D0082927D09F
:101860000360516801F0F0010909204B5C5C0168DC
:10187000E1404160546804F4E064240A1C5D21FAEC
:1018800004F48460546804F46054E40A1B5DD94095
:10189000C160526802F44042920B144B1B1F9A5CC9
:1018A000B1FBF2F1016110BD0360DAE70360D8E734
:1018B000516801F47011536803F48033022404EB7F
:1018C000914133B153689B0307D5094B59430160DC
:1018D000C7E7074B59430160C3E7034B5943016016
:1018E000BFE700000010024000127A00480000200C
:1018F00000093D0008B501210820FFF797FF0320EC
:101900008DF8020010208DF803000420ADF80000CF
:1019100069460248FFF7FCFB08BD0000000C0140CF
:10192000AFF300800CB500220192009227480168B5
:1019300041F4803101604FF4A063016801F400318B
:1019400000910199491C0191009911B9019999429D
:10195000F3D10168890302D50121009100E00092D2
:101960000099012930D11A490A6842F010020A6030
:101970000A6822F003020A600A6842F002020A6062
:101980004168416041684160416841F48061416063
:10199000416821F47C114160416841F4E8114160E3
:1019A000016841F08071016001688901FCD54168DE
:1019B00021F003014160416841F00201416041684A
:1019C000C1F381010229FAD10CBD000000100240D0
:1019D0000020024010B5FEF709FC06F0A5F918B189
:1019E00004494FF080500860BDE810400020FEF729
:1019F00004BC000004ED00E010B50F48016841F0A0
:101A00000101016041680D4A1140416001680C4AC2
:101A100011400160016821F480210160416821F4D6
:101A2000FE0141604FF41F018160FFF779FF054916
:101A30004FF00060086010BD001002400000FFF889
:101A4000FFFFF6FE08ED00E038B501210220FFF7A8
:101A5000DFFE01211020FFF7E9FE01211248FFF708
:101A6000ABFB4FF47070ADF8000018258DF80350F3
:101A700003248DF8024069460C48FFF749FB012119
:101A80000846FFF7C5FE01210420FFF7CFFE012025
:101A9000ADF800008DF803508DF802406946044807
:101AA000FFF736FB38BD0000000C1A0000100140A3
:101AB0000008014070B588B040F67F40ADF81800CE
:101AC00040F2C110ADF814000024ADF81A40ADF892
:101AD0001640850705A9284600F00CFA284E05A9EE
:101AE000304600F007FA6020ADF804000120ADF8A0
:101AF0000600ADF80C40ADF80A4001A9304600F0F0
:101B00009FF80821304600F0DFF8ADF80A4001A93F
:101B1000304600F0DFF80821304600F01FF9ADF83C
:101B20000A4001A9304600F023F90821304600F0B0
:101B300061F9ADF80A4001A9304600F061F90821C9
:101B4000304600F091F9ADF80A4001A9284600F0AE
:101B500077F80821284600F0B7F80121284600F060
:101B60003BF80121304600F037F80121284600F00B
:101B700045F80121304600F041F808B070BD000082
:101B80000004004010B5124C0121204600F042F83C
:101B900000281CD00121204600F02DF80D48416896
:101BA000491C416028304168491C41602830416827
:101BB000491C416028304168491C41602830416817
:101BC000491C416000F128014868401C486010BD74
:101BD00000080040A4050020002904D0018841F03D
:101BE000800101807047018821F0800101807047E9
:101BF000C94301827047C94301827047002904D05C
:101C0000018841F0010101807047018821F0010144
:101C10000180704702460020138A0B4092890A40D7
:101C2000002B02D0002A00D001207047002A03D0E8
:101C300082890A438281704782898A438281704700
:101C400030B5028C22F001020284028C8388048B5E
:101C500024F0700424F003050C882C4322F00202C7
:101C60000D8915434A882A43124DA8420BD0124DC4
:101C7000A84208D0114DA84205D0114DA84202D06B
:101C8000104DA8420FD122F008054A892A4322F0BC
:101C900004058A882A4323F4807323F400738D8912
:101CA0001D43CB892B4383800483C98881860284AA
:101CB00030BD0000002C01400034014000400140D4
:101CC0000044014000480140028B22F008020A4310
:101CD0000283704770B5028C22F010020284028CDD
:101CE0008388048B24F4E04424F440760D884FF676
:101CF000FF7404EA0525354322F020020E8904EA28
:101D0000061616434A8804EA02123243114EB042C4
:101D100002D0114EB04217D122F080024E8904EA5F
:101D20000616164326F040068A8804EA0212324359
:101D300023F4806323F400638E8904EA86061E433D
:101D4000CB8904EA8303334383800583C9880187F1
:101D5000028470BD002C014000340140028B22F44B
:101D600000624FF6FF7303EA0121114301837047BC
:101D700070B5028C22F480720284028C8388848B7A
:101D800024F0700424F003040D88254322F400722B
:101D90000E894FF6FF7404EA062616434A8804EAC1
:101DA00002223243114EB04202D0114EB04217D13E
:101DB00022F400664A8904EA0222324322F4806651
:101DC0008A8804EA0222324323F4805323F4005326
:101DD0008E8904EA06161E43CB8904EA03133343B3
:101DE00083808583C9888187028470BD002C01406F
:101DF00000340140828B22F008020A43828370473C
:101E000070B5028C22F480520284058C8288838B08
:101E100023F4E04323F440760C884FF6FF7303EA83
:101E20000424344325F400550E8903EA06362E4374
:101E30004D8803EA05353543094EB04202D0094EBC
:101E4000B04205D122F480468A8903EA82123243E5
:101E500082808483C988A0F84010058470BD00008A
:101E6000002C014000340140828B22F400624FF6C6
:101E7000FF7303EA01211143818370478186704714
:101E8000018770470146B1F1804F04D0124A914258
:101E900003D11D2070471C207047104A914201D188
:101EA0001E2070470E4A914201D1322070470D4AE0
:101EB000914201D1362070470B4A914201D137201F
:101EC00070470A4A914201D119207047084A91424D
:101ED000FBD12C20704700000004004000080040A7
:101EE000000C00400010004000140040002C014095
:101EF0000034014030B502881B4C1C4DA0420DD06F
:101F0000A8420BD0B0F1804F08D0194B984205D0B1
:101F1000184B984202D0184B984203D122F070031C
:101F20004A881A43154B984206D0154B984203D065
:101F300022F44073CA881A4302808A8882850A88FC
:101F40000285A0420AD0A84208D00E4A904205D08D
:101F50000D4A904202D00D4A904201D1097A018681
:101F60000121818230BD0000002C0140003401407D
:101F70000004004000080040000C00400010004039
:101F8000001400400040014000440140004801406E
:101F900010B50A4C40F22551204600F026F80028E2
:101FA0000AD0204600F0BAF80549087020212046E2
:101FB00000F014F80028F9D110BD000000380140ED
:101FC00043000020002904D0818941F4005181811F
:101FD0007047818921F400518181704702460020B9
:101FE00012880A4200D00120704770B5002440F6E4
:101FF0006A12C1F3421301F01F05012606FA05F229
:10200000012B0CD0022B0DD0838A1340090A8E407D
:10201000008830400BB100B10124204670BD838997
:102020001340F3E7038A1340F0E710B540F66A1354
:10203000C1F3421301F01F040121A140012B07D07D
:10204000022B07D014303AB102680A43026010BD77
:102050000C30F8E71030F6E702688A43026010BDE2
:1020600030B585B004460D46208A4CF6FF71084015
:10207000E98801432182A0894EF6F3110840A9881E
:102080002A8911436A8902431143A181A08A4FF62C
:10209000FF410840A9890143A1826846FFF7D4FBAC
:1020A0001D48844201D1039800E00298A1890904E7
:1020B00008D500EBC00101EB001029684900B0FB16
:1020C000F1F007E000EBC00101EB00102968890086
:1020D000B0FBF1F06422B0FBF2F109010B096FF0E3
:1020E00018056B4300EB8300A3891D044FF03203F6
:1020F00007D503EBC000B0FBF2F000F00700084387
:1021000006E003EB0010B0FBF2F000F00F00084314
:10211000208105B030BD0000003801408088C0F348
:10212000080070477047FEE702E008C8121F08C1A8
:10213000002AFAD170477047002001E001C1121F48
:10214000002AFBD17047000038B51A48194C407876
:10215000103C01280ED001221749042802D005287E
:1021600008D105E000204871E06880F8702001E0A7
:102170000A724A71002310251A4619460F48009525
:1021800000F026F80123002250210C48009500F0B1
:102190001FF810230AA206211846FFF7D5FA1023CC
:1021A00009A206215020FFF7CFFAE168032081F849
:1021B000700038BD18000020B40400203400002056
:1021C0004C45465400000000524947485400000066
:1021D000F8B50C46069E154650F82300FEF7DAF9CE
:1021E000C2B20423294620460096FFF775FAF8BDCF
:1021F00070B50124064E074D06EB840105EB440043
:10220000022203F0A7F9641CE4B21D2CF4D370BDC4
:10221000E80400200030030870B50024064E074D86
:1022200006EB840105EB4400022203F0ABF9641CC9
:10223000E4B21D2CF4D370BDE80400200030030884
:1022400010B503F01CF903F0CDFB00F025F8FFF703
:102250002BF903F0A1F802F075FF00F0CBF900F0C4
:102260009DF8BDE8104002F0C3B80000084A094BD1
:102270000128D26E06D0022809D1501A81B2184620
:10228000FFF7FCBD501881B21846FFF7F7BD704745
:10229000E80400200004004010B52248022101603B
:1022A0004FF4FA61416081608161C16140F67C1246
:1022B000C260016140F6DA220262416240F29B4252
:1022C0004261826240F20D12C2624FF4D272026326
:1022D0004FF41E72426340F279328263C16301643B
:1022E0000621416411228264C264016514214165A2
:1022F00081650166C16541668166C821C166016765
:1023000002220949094803F025F907480078FF2807
:1023100003D0BDE81040FFF76BBFBDE81040FFF7EA
:102320007BBF0000E80400202000002000300308EC
:10233000084A094B0128126F06D0022809D150180B
:1023400081B21846FFF79CBD501A81B21846FFF7BC
:1023500097BD7047E80400200004004005480121B3
:1023600001711422827041704171817100210172EA
:1023700003F02EBBB404002008B505F0CFFC00909C
:102380000121684605F0D4FA034800F01FF8012047
:1023900005F0A4FAF4E70000280000201FB5002093
:1023A0000649CDE9011003220346009203904FF441
:1023B000007203A1044805F037FC1FBD740500201E
:1023C000574F524B00000000792300080078002886
:1023D00005D0012805D0022805D102F01DB902F070
:1023E0007DB802F0C9B8704708B50D4A01280CD075
:1023F000022809D12D2907D1906A0090D2E9131340
:102400000222104602F036FE08BD2D29FCD150698B
:102410000090D2E911130222104602F02BFE08BDF3
:10242000E80400202DE9F04702244B4E484FDFF826
:102430002481DFF82891F56E012804D002282FD0DE
:1024400003285AD080E04648816846488068FDF7F6
:102450003FFFB84209DD02210846FFF707FF0221CE
:102460000120FFF765FF01246EE0404509D90221F4
:102470000120FFF7FBFE02210846FFF759FF012468
:1024800062E010F0FF4F5FD0A9B24846FFF7F6FCBC
:10249000B6F87010484689B2FFF7F2FC002453E00A
:1024A0003148816831488068FDF712FFB84209DD84
:1024B00002210120FFF7DAFE02210846FFF738FF6C
:1024C000012441E0404509D902210846FFF7CEFE2C
:1024D00002210120FFF72CFF012435E010F0FF4F0F
:1024E00032D0A9B24846FFF7C9FCB6F8701048468A
:1024F00089B2FFF7C5FC002426E01D4881681D480D
:102500008068FDF7E5FEB84209DD04210120FFF7F0
:10251000ADFE07210120FFF70BFF012414E0404529
:1025200009D904210120FFF7A1FE07210120FFF7AF
:10253000FFFE012408E00120716EFFF797FE0120E5
:10254000B16EFFF7F5FE00242046BDE8F0870000DD
:102550009A99993E9A9999BEE80400200004004097
:102560001C060020F40500206C0600204406002014
:10257000CC050020A40500202DE9F04107460E46B9
:102580000024304603F01EFC01281ED000213846EE
:10259000FFF734FB0F4D287890B13146384600F0F4
:1025A00021F8FDF7F2FFFEF709F80B4A0B4BFDF798
:1025B0007AFFFEF716F804460948844200DD044617
:1025C000002028702046BDE8F0813146384600F0F2
:1025D0002FF8F7E7420000209CC420B07268913FBA
:1025E0000000964349684FF47A725143808C084446
:1025F000704700001FB500200849CDE901100322F3
:102600000346009203904FF4007205A1064805F0BE
:102610000BFB0649012008701FBD0000800500204B
:1026200054494D4552000000452600082C0000206A
:10263000002282844A60024A01211170FFF7DEBA4B
:102640004200002008B505F069FB00902321684690
:1026500005F06EF900F004F8012005F03FF9F5E708
:1026600070B5264D002401206A68254B2946072AAB
:1026700040D2DFE802F03F040D17212B350008702F
:10268000C3F8A801142003F0BBFBC3F8A84131E054
:1026900002220A70C3F8AC01142003F0B1FBC3F8A6
:1026A000AC4127E003220A70C3F8B001142003F004
:1026B000A7FBC3F8B0411DE004220A70C3F8B401BF
:1026C000142003F09DFBC3F8B44113E005220A7007
:1026D000C3F8B801142003F093FBC3F8B84109E034
:1026E00006220A70C3F8BC01142003F089FBC3F86A
:1026F000BC416C606868401C686070BD2C000020A4
:102700000000234270B5094C0125656025604FF437
:10271000487005F0E3F80020606020604FF4FA7024
:1027200005F0DCF80248057070BD0000B881224257
:10273000B40400202DE9F05FFB4801250323C17894
:10274000447C481CF94EFA4FDFF8E8830E224FF024
:10275000000C4FF0080A4FF01409C0B2012C11D040
:10276000F14C4FF00F0B94F810E0BEF1010F70D058
:1027700005296FD06FDC05292BD2DFE801F0F7F6D1
:10278000F5F4F300E84C4FF0090B4FF00C0E0C2958
:1027900071D009DC0C291CD2DFE801F02B3544474D
:1027A0004F5E6E72767B8AA7132971D008DCA1F187
:1027B0000D0106290DD2DFE801F0A0B2B6CADAE3B6
:1027C000162972D007DC142970D0152901D1657043
:1027D000E070BDE8F09F172969D06329F9D1E07E48
:1027E00001287DD00620E07184F8019084F803C0B0
:1027F000EFE70120FFF716FE30700028E9D1E078FE
:10280000401CE070E5E7012002F010FFCA48B968FB
:102810008142DEDCD8F808108142DADCE078401C26
:10282000E070D6E76270E370D3E76570C82005F00A
:1028300055F8E078401CE070CBE70220FFF7F2FD8E
:1028400030700028C5D184F80190E078401CE07019
:10285000BFE7B8E0AEE158E1022002F0E7FEB7487A
:10286000B9688142B5DCD8F808108142B1DCE07863
:10287000401CE070ADE73DE065700720E070A8E720
:10288000627084F803A0A4E7657084F803B0A0E741
:102890007AE0012002F0CAFEA9488168A948814275
:1028A00097DAE078401CE07093E781E074E083E021
:1028B000A54D0120696EFFF7D9FC0120A96EFFF735
:1028C00037FD4FF47A7005F009F80120E96EFFF743
:1028D000CDFC0120296FFFF72BFD0420607000E084
:1028E0006EE0E078401CE07073E70220607084F8CE
:1028F00003E06EE76570E0706BE715206070022002
:1029000002F094FE9148B96881428ADAD8F808103A
:10291000814286DA6570E078401CE07059E784F8FF
:1029200001E0E07055E700F063F9307084F8019041
:1029300000288DD18648B968814289DAD8F8081014
:10294000814285DA6570E078401CE07041E7FFF76E
:10295000D9FE02F02FFF307000288BD1E078401CA8
:10296000E07036E71AE111E10DE1FDE0F2E003214C
:102970004FF4167001F036FCE078401CE07028E758
:1029800011216170E07024E76570C82004F0A6FF93
:10299000E078401CE0701CE784F801900120FFF70C
:1029A00041FD307000289FD1E078401CE07010E7B6
:1029B00084F80190E0700CE765706320E07008E730
:1029C00084F807B010E7082970D007DC08298BD2FB
:1029D000DFE801F0242E3D40485463670C2979D08C
:1029E0000FDC092965D00A2971D00B2984D1012077
:1029F000FFF718FD3070002890D1E078401CE0709F
:102A0000E7E60D297AD00E297CD0632986D184F897
:102A100001900620E07184F803C0DAE60120FFF798
:102A200001FD3070002891D1E078401CE070D0E6C4
:102A3000012002F0FBFD4048B968814286DCD8F8ED
:102A4000081081428DDCE078401CE070C1E66270C5
:102A5000E370BEE66570C82004F040FFE078401CDB
:102A6000E070B6E60220FFF7DDFC3070002886D16A
:102A700084F80190E078401CE070AAE6022002F0A1
:102A8000D5FD2E48B968814285DCD8F8081081420E
:102A90008DDCE078401CE0709BE665700720E070FC
:102AA00097E6627084F803A093E6FFE76570E07034
:102AB0008FE6012002F0BAFD214881682148814259
:102AC0009EDAE078401CE07083E603E0FFE7657083
:102AD000E0707EE615206070012002F0A7FD1B4823
:102AE000B96881428CDAD8F80810814288DA6570BA
:102AF000E078401CE0706CE600E003E084F801B090
:102B0000E07066E66570E07063E6062961D007292B
:102B100062D0082964D0632989D184F80190E371D7
:102B200084F803C055E60000B40400202100002012
:102B3000A4050020CC05002000008841000054427C
:102B40001C06002000004842E80400200000F0417C
:102B50000000A0410120FFF765FC307000288CD1F7
:102B6000E078401CE07034E6012002F05FFD1E4872
:102B7000B968814290DCD8F8081081428CDCE0789A
:102B8000401CE07025E66270E37022E66570C820A4
:102B900004F0A4FEE078401CE0701AE60220FFF783
:102BA00041FC307000288FD184F80190E078401CFF
:102BB000E0700EE6022002F039FD0C48B96881424F
:102BC00087DCD8F80810814295DCE078401CE07082
:102BD000FFE56570E070FCE584F801B0E070F8E5B1
:102BE00065706320E070F4E5000088410000544205
:102BF00010B50224154803C8FDF76AFB1449884242
:102C000009DD0C210120FFF731FB05210120FFF731
:102C10008FFB012418E00F49884209D905210120C2
:102C2000FFF724FB0C210120FFF782FB01240BE0BE
:102C300010F0FF4F08D014210120FFF717FB1421DB
:102C40000120FFF775FB0024204610BD3400002052
:102C500000002041000020C108B505F05FF8009099
:102C60000121684604F064FE02F090FBF8E70000E2
:102C70002DE9F05F6F4C704FDFF8C081204694F86B
:102C80000AE001261523B968C0786D4DDFF8B4B1AC
:102C9000D8F808204FF014094FF0050C4FF0080A3F
:102CA000BEF1010F14D0032877D077DC002876D04E
:102CB000012875D0022809D163706348814205DA82
:102CC000824203DA0E2060700320E070BDE8F09FBE
:102CD00005284ED006DC0528F8D2DFE800F0151DE7
:102CE0002A33460006284ED007285AD0082860D03C
:102CF0006328EBD1207D012866D084F807A000204E
:102D0000E07084F80190E1E70220FFF78BFB287068
:102D10000028DBD1E670D9E7022002F087FCB86812
:102D20005845D3DAD8F808005845CFDA0220E070C9
:102D3000CCE7637045488142C8DA8242C6DA032094
:102D4000E070C3E7FFF754FF2870054684F8019050
:102D5000D8F80810B868FDF769FA3D498842B5DA35
:102D6000002DB3D10420E070B0E7667084F803C092
:102D7000ACE7FFF7C7FC02F01DFD28700028A5D1C5
:102D80000620E070A2E702220321962001F076FAE5
:102D9000102060700720E07098E73AE017E023E029
:102DA0002AE066704FF4C87004F098FD84F803A020
:102DB0008CE70220FFF736FB287084F8019000288A
:102DC00084D16320E07081E70920E07197E704284F
:102DD00023D0052824D0632895D10020E07084F802
:102DE000019084F807A071E70220FFF71BFB287011
:102DF000002888D1E67069E7022002F017FCB86865
:102E0000584588DAD8F80800584584DA0220E0707E
:102E10005CE766700420E07058E784F803C055E76B
:102E20000220FFF7FFFA287000288AD16320E070A3
:102E30004CE70000B4040020A4050020CC050020CD
:102E40002100002000004842000088410000D041DD
:102E50000000E8412DE9F05FFC48FE4A014690F889
:102E60000DE0CF7891F817A091F818B091F80EC046
:102E7000F749781C012415231426896892684FF0BD
:102E80000F084FF00E09C0B2BEF1010F03D1EF4D94
:102E9000BCF1010F04D0ED4DBEF1010F76D06EE113
:102EA000102F74D00BDC102F27D2DFE807F03A4840
:102EB0004D515D71767B8A9EA2A7ABB7C9CE182F04
:102EC0006FD009DCA7F11107072F16D2DFE807F052
:102ED000D6E3F1F5F8EDEC001C2F6FD00FDC192FC5
:102EE0006DD01A2F6CD01B2F07D103214FF4167011
:102EF00001F078F9E878401CE870BDE8F09F1D2FDC
:102F000070D01E2F6FD0632FF7D1BAF1010F6BD0A5
:102F1000BBF1010FFBD00520E8716E700020E87056
:102F2000EBE7CD48814203DD824201DD6B70E4E7CF
:102F30008142E2DA8242E0DA6C70EC70DDE785F81B
:102F400001900220E870D8E76C700320E870D4E7A5
:102F50006E700220FFF766FAC04908700028CCD1D5
:102F6000E878401CE870C8E76B70012002F05EFB57
:102F7000B7488168BA488142BFDAB6498968814258
:102F8000BBDA6C70E878401CE870B6E7F4E060E00B
:102F900085F801800620E870AFE76C700720E870C4
:102FA000ABE7AFE06E700120FFF73CFAAB49087069
:102FB0000028A2D1E878401CE8709EE7C7E0A4E0B2
:102FC000B8E06B70012002F031FBA1488168A54890
:102FD000814292DA9F49896881428EDAE878401C02
:102FE000E8708AE7B7E0B9E0C3E06C700A20E870E7
:102FF00083E785F801800B20E8707EE76C700C2079
:10300000E8707AE76E700120FFF70CFA93490870B8
:10301000002885D1E878401CE8706EE76B700120CD
:1030200002F004FB8A4881688F48814286DA894928
:103030008968814287DA6C70E878401CE8705CE748
:103040000D20687085F8038057E76C701020E870D9
:1030500053E7FFF7CDFD814908706E70002894D1C9
:103060007B488168814881428FDA7A498968814248
:103070008BDA6C70E878401CE8703EE76E70FFF702
:1030800041FB02F097FB75490870002884D1E8786D
:10309000401CE87031E703214FF4167001F0A2F8EC
:1030A000E878401CE87028E728E015E008E004E034
:1030B000FFE711216970E8701FE76C70E8701CE78A
:1030C0006E700120FFF7AEF964490870002888D1BE
:1030D000E878401CE87010E76B70012002F0A6FA57
:1030E0005B4881686248814287DA5A49896881422F
:1030F00087DA6C70E878401CE870FEE60D21697094
:10310000E870FAE66C70E870F7E6FFF771FD534976
:1031100008706E70002892D14D48816855488142F0
:103120008DDA4C498968814289DA6C70E878401CF4
:10313000E870E2E66E70FFF7E5FA02F03BFB474904
:103140000870002884D1E878401CE870D5E610218A
:103150006970E870D1E66C70E870CEE66E7002209F
:10316000FFF760F93D490870002886D16320E870B8
:10317000C3E60920E871D0E6BCF1000F0FD0BEF124
:10318000000F87D1BCF1010F76D0062F75D075DC0A
:10319000062F88D2DFE807F0FDFCFBFAF9F80D2FC7
:1031A0006DD00ADC0D2F87D2DFE807F02D3B4044BD
:1031B0006A7E838997A8ACB1B500142F72D008DC61
:1031C000A7F10E07062F86D2DFE807F0C3C7CAE9CA
:1031D000F6FF182F67D009DC152F6ED0162F6DD093
:1031E000172F8AD185F80190E87086E6192F72D0E2
:1031F000632F86D1BAF1010F6ED00520E8716E7091
:103200000020E87079E61448814203DD824201DD46
:103210006B7072E681428CDA82428ADA6C70EC70F2
:103220006BE685F801900220E87066E66C7003207A
:10323000E87062E66E700220FFF7F4F80749087044
:10324000002887D1E878401CE87056E6B4040020D6
:10325000A4050020CC050020000030412100002002
:1032600000009041000034420000F0410000D041D5
:1032700000000C420000C041DDE022E2AAE156E07D
:103280006B70012002F0D2F9FE488168FE4881424D
:10329000ABDAFE4989688142A7DA6C70E878401C95
:1032A000E8702AE695E0B5E085F801800620E87030
:1032B00023E66C700720E8701FE68DE098E06E70E2
:1032C0000120FFF7AFF8F249087000288DD1E878A7
:1032D000401CE87011E6A0E0AAE06B70012002F04B
:1032E000A5F9E8488168EB4881428BDAE7498968AB
:1032F000814287DAE878401CE870FEE56C700A20AD
:10330000E870FAE585F801800B20E870F5E56C704F
:103310000C20E870F1E56E700120FFF783F8DC49BE
:103320000870002885D1E878401CE870E5E56B70EE
:10333000012002F07BF9D3488168D748814284DAC2
:10334000D24989688142ACDA6C70E878401CE87038
:10335000D3E50D216970E870CFE56C70E870CCE5BD
:10336000FFF746FCCA4908706E70002899D1C5481D
:103370008168CA48814294DAC4498968814290DAF6
:103380006C70E878401C08E06CE159E14CE147E1E1
:1033900041E132E119E00FE001E0E870ADE56E7067
:1033A000FFF7B0F902F006FAB9490870002891D188
:1033B000E878401CE870A0E503214FF4167000F097
:1033C00011FFE878401CE87097E511216970E870FA
:1033D00093E56C70E87090E56E700120FFF722F8BD
:1033E000AB490870002888D1E878401CE87084E573
:1033F0006B70012002F01AF9A2488168A848814246
:1034000084DAA2498968814284DA6C70E878401CC9
:10341000E87072E56C70E8706FE56E700220FFF77F
:1034200001F89B490870002892D16320E87064E598
:103430000920E871E3E6092F75D008DC092F87D24F
:10344000DFE807F027353A3E4A5C616575000E2FCC
:103450006AD00FDC0A2F68D00B2F67D00C2F77D0E3
:103460000D2F9BD10321962000F0BCFEE878401C74
:10347000E87042E50F2F6CD0102F6BD0632F8DD1E9
:10348000BBF1010F67D00520E8716E700020E87075
:1034900033E58448814203DD824201DD6B702CE517
:1034A000814288DA824286DA6C70EC7025E585F814
:1034B00001900220E87020E56C700320E8701CE5A4
:1034C0006E700220FEF7AEFF7149087000288ED1A1
:1034D000E878401CE87010E56B70012002F0A6F857
:1034E000684881686848814293DA684989688142FE
:1034F0008FDA6C70E878401CE870FEE485F8018093
:103500000620E870F9E46C700720E870F5E46E704E
:103510000120FEF787FF5E490870002887D1E87810
:10352000401CE870E9E417E03FE018E01BE06B7036
:10353000012002F07BF8534881685B48814298DAA9
:1035400052498968814294DAE878401CE870D4E4F2
:103550001EE02EE030E03AE06C70E870CDE40C2123
:103560006970E870C9E4FFF743FB494908706E7061
:1035700000288DD1434881684748814288DA434911
:103580008968814284DA6C70E878401CE870B4E4A1
:103590006E70FFF7B7F802F00DF93D49087000288A
:1035A00084D1E878401CE870A7E410216970E870C5
:1035B000A3E46C70E870A0E46E700220FEF732FFA6
:1035C00033490870002886D16320E87095E409200B
:1035D000E8715AE7092F6BD007DC072F69D0082F55
:1035E0008BD110216970E87087E40A2F76D0632FA1
:1035F00088D1687E012872D08AE02A48814203DDA2
:10360000824201DD6B7078E481428BDA824289DA92
:103610006C70EC7071E485F801900220E8706CE445
:103620006C700320E87068E46E700220FEF7FAFE0A
:103630001749087000288AD1E878401CE8705CE4DB
:103640006B70012001F0F2FF0E488168144881423E
:1036500084DA0E498968814284DA6C70E878401C0B
:10366000E8704AE4FFF7C4FA094908706E70002850
:103670008DD1044881680D48814288DA0349896800
:10368000814217E0A405002000009041CC050020F5
:1036900021000020000034420000F0410000D04131
:1036A0000000A0410000304100000C420000E04159
:1036B0001EE015E0BFF66BAF6C70E878401CE87058
:1036C0001BE4FFF71FF86E7002F074F812490870DF
:1036D000002889D1E878401CE8700EE40BE015E082
:1036E0000321B42000F07EFDE878401CE87004E47B
:1036F0006C70E87014E46E700220FEF793FE0649C9
:1037000008700028F6D16320E87009E40920E87108
:103710006E700020E87003E4210000202DE9F05FC6
:103720008A4C00222046A77C01250221DFF820B226
:1037300014266323C078012F09D0022875D075DCC8
:10374000002874D0012800D1E170BDE8F09F814FBE
:10375000DFF80482DFF80492DFF804A20A2867D0B9
:103760000ADC4FF006020A28EFD2DFE800F022253B
:10377000273545494C62667A4FF00E0C10286FD001
:1037800008DCA0F10B000528DFD2DFE800F07C8F19
:103790009498A200112872D0122871D0132870D0EA
:1037A0006328D2D1207F01286CD0E171E27066706D
:1037B000CBE76570E570C8E7E170C6E7022001F06D
:1037C00035FFDBF808004045BFDA664880684045B1
:1037D000BBDA0320E070B8E7022001F027FF62495E
:1037E000DBF808008842B0DD5E48604980688842A6
:1037F000ABDA0420E070A8E762700520E070A4E76F
:103800006570E270A1E7FFF7F3F93870054666705E
:10381000DAF80810D9F80800FCF708FD404594DAFA
:10382000002D92D10720E0708FE77CE071E078E016
:103830001BE065700820E07087E7FEF763FF01F08A
:10384000B9FF3870022203214FF4C87000F016FD52
:1038500038780028ACD1112060700920E07074E73E
:1038600045E065700A20E0706FE70120FEF7DAFDA1
:103870003870667000289BD10B20E07065E73BE054
:103880003EE040E042E0012001F0D0FED9F808001F
:1038900040458DDDDAF80810414589DD344A904213
:1038A00086DA914284DA0C20E0704EE704206070E2
:1038B0000D20E07049E7657084F803C045E70120FA
:1038C000FEF7B0FD38706670002884D10F20E070DC
:1038D0003BE7152060702748D9F8081081428ADA42
:1038E000DAF80810814286DA1020E0702DE784F8BB
:1038F00001C01120E07028E765701220E07024E715
:103900001320E07021E76670E3701EE70920E07184
:103910004CE7032817D0632886D1E2706670E17106
:1039200013E7E57011E7022001F080FE1248DBF892
:103930000810814293DD0B49896881428FDA6570F6
:103940000320E07001E7E370FFE60000B40400200C
:10395000F4050020210000200000C841A40500203B
:10396000CC0500201C060020000048420000F04169
:1039700000000C4200008841000020422DE9F04781
:10398000434CE07A012823D1E0780125414E4FF0E5
:103990001408612865D031DC3F4FDFF80091022820
:1039A00055D017DCB8B3012812D1FFF721F93070D8
:1039B000064684F80180D9F80810B868FCF736FC90
:1039C0003749884204DA002E02D165700220E07087
:1039D000BDE8F08703284FD04D28F9D1012001F030
:1039E00025FE3048B9688142F2DAD9F808108142E0
:1039F000EEDA0D2060706220E070E9E7622823D0E3
:103A000063283DD0762815D07A28E1D10F20607048
:103A10007620E070DCE7FFE7152060702248B96887
:103A20008142D5DAD9F808108142D1DA7A20E070E3
:103A30006570CDE70120FEF7F5FC30706570002859
:103A4000C6D14D20E070C3E76570E570C0E7FEF7B2
:103A500059FE01F0AFFE30700028B9D16120E0704E
:103A6000B6E7022203214FF4487000F007FC102053
:103A700060700320E070ABE765706320E070A7E73B
:103A80000020E07084F801800920E071A0E70000C8
:103A9000B404002021000020A4050020CC05002053
:103AA0000000C841000048420000A0412DE9F05F3D
:103AB000924C0125204694F810E0C0780323411C65
:103AC00002228F4FDFF83C82DFF83C921426DFF8A9
:103AD0003CA24FF0000C4FF0630BC9B2BEF1010FD6
:103AE00009D0052872D072DC05281AD2DFE800F070
:103AF000C7D6DADDE900072873D007DC072810D223
:103B0000DFE800F023313549565F67000B2877D096
:103B100009DC08287AD009287BD00A2801D16570F1
:103B2000E170BDE8F09F0C286DD00D286CD06328A3
:103B3000F7D1A07E012868D0E371667084F803C0D5
:103B4000BDE8F05FC82003F0C9BE012001F06EFDA2
:103B5000B8685045E5DAD8F808005045E1DAE07871
:103B6000401CE070DDE70C206070E270D9E7FFF7E1
:103B70003FF889F8000066700028D2D16448B9681F
:103B80008142CEDAD8F808108142CADA6570E0784E
:103B9000401CE070C5E7FEF7B5FD667001F00AFE57
:103BA00089F800000028BCD1E078401CE070B8E73C
:103BB00003214FF4487000F015FBE078401CE070E2
:103BC000AFE7102060700620E070AAE77DE049E0D2
:103BD00007E06570C82003F081FEE078401CE070CB
:103BE0009FE7022001F022FD4A48B968814298DA35
:103BF000D8F80810814294DAE078401CE07090E731
:103C00000BE003E005E014E025E028E06570E170DA
:103C100087E70E206070E17083E766700220FEF790
:103C200001FC89F8000000289CD1E078401CE0707D
:103C300077E715206070022001F0F8FC3648B9687B
:103C400081428FDAD8F8081081428BDA6570E0780B
:103C5000401CE07065E7667084F803B061E70920F6
:103C6000E0716AE7062834D0072835D0082836D016
:103C700063288FD1E371667084F803C051E7012097
:103C800001F0D4FCB868504584DAD8F808005045F3
:103C90008DDA6570E078401CE07042E70F206070BC
:103CA000E2703EE76570E3703BE766700120FEF767
:103CB000B9FB89F80000002887D1E078401CE0704B
:103CC0002FE765700520E0702BE704206070E1703D
:103CD00027E76270E17024E76570E17021E7022058
:103CE00001F0A4FC0D48B968814288DCD8F80810BE
:103CF000814284DC657084F803B012E7B4040020CC
:103D0000A4050020CC050020210000200000D041A7
:103D10000000D84100007041000020410000304107
:103D20002DE9F047394CE07B01281AD1E0780126D3
:103D3000411C374D1427C9B2042851D013DCDFF8D9
:103D4000D480DFF8D490C0B1012829D002283BD01C
:103D5000032806D10321642000F044FAE078401CD7
:103D6000E070BDE8F08705283ED006283FD06328E4
:103D7000F7D1607E012843D044E015206070022016
:103D800001F054FC2548D8F808108142E9DAD9F846
:103D900008108142E5DA6670E078401CE070E0E7E8
:103DA000FEF726FF287067700028DAD11C48D8F883
:103DB00008108142D5DAD9F808108142D1DA66704C
:103DC000E078401CE070CCE76770FEF79BFC01F0E8
:103DD000F1FC28700028C4D1E078401CE070C0E7F6
:103DE00010206070E170BCE76670E170B9E70220F6
:103DF000FEF718FB28700028B3D16320E070B0E70D
:103E00000920E07167700020E070AAE7B404002088
:103E100021000020A4050020CC0500200000B841AE
:103E20000000E0412DE9F05FB848B84A0223047B66
:103E30001521B74EB74FDFF8E092D27801254FF049
:103E4000000C4FF0070B4FF004084FF0030E4FF437
:103E500061704FF0080A012C0BD0AC4C072A72D0CD
:103E600072DC072A25D2DFE802F0E0FBFEF8F7F665
:103E7000F500A64C082A73D007DC082A19D2DFE81F
:103E800002F02136393D495165690C2A75D012DCA2
:103E9000092A75D00A2A72D00B2A0AD10120FEF70E
:103EA000C1FA9E49087014216170002801D10C20CC
:103EB000E070BDE8F09F0D2A77D0612A09D0632A0F
:103EC000F7D190E06170C82003F008FD6120E07038
:103ED000EFE7022001F0AAFBB0684FF0844188426E
:103EE000E7DAB8688842E4DA6570E570E1E76370A4
:103EF000E370DEE7657084F803E0DAE70220FEF79E
:103F000091FA86490870142161700028D1D184F893
:103F10000380CEE761704FF47A7003F0DFFC052078
:103F2000E070C6E7012001F081FB7D48D9F8081058
:103F30008142BEDD7B4989688142BADA84F801801A
:103F40000620E070B5E7BBE059E009E0657084F851
:103F500003B0AEE7617003F0C1FC84F803A0A8E7EA
:103F6000012001F063FB7048B1688142A1DAB968B1
:103F700081429EDA0920E0709BE728E000E015E02E
:103F8000FEF736FE65498046087014206070B968F7
:103F9000B068FCF74BF9654988428ADAB8F1000F3E
:103FA00087D165700A20E07083E719E0FEF7AAFB6D
:103FB00001F000FC59490870002889D10222012132
:103FC0004FF4167000F05AF90B20E07071E70222EE
:103FD00003214FF4FA7000F051F90D20E07068E70A
:103FE00065706320E070A07D012805D0E57184F83C
:103FF00003C0142060705CE70920E071F7E70B2A2A
:1040000077D008DC082A61D0092A6ED00A2A88D124
:104010000B20E0704DE7612A0ED0632A92D184F81C
:1040200003C014206070E57143E76170C82003F09D
:1040300055FC6120E0703CE7022001F0F7FAB0681F
:104040004FF08441884284DAB868884287DA657024
:10405000E5702EE730E01EE015E008E003E0FFE742
:104060006370E37025E7657084F803E021E70220C0
:10407000FEF7D8F92949087014216170002893D1FE
:1040800084F8038015E761704FF4487003F026FC54
:104090000520E0700DE7012001F0C8FA2049D9F8A9
:1040A0000800884292DD1F48806888428EDA84F8D2
:1040B00001800620E070FCE6657084F803B0F8E645
:1040C000617003F00BFC84F803A0F2E6012001F01C
:1040D000ADFA1748B16881428DDAB96881428ADA4F
:1040E0000920E070E5E604E0FFE765700A20E07073
:1040F000DFE60120FEF796F9084908701421617087
:10410000002887D16320E0706570D2E6B4040020F7
:10411000A4050020CC05002044060020210000203A
:10412000000020426C06002000000C420000C84144
:104130000000904138B50A46294C012813D00228C6
:1041400010D120462D2AD0E9131341D05A2A31D05C
:10415000872A36D0B42A05D1E069012200901046A2
:1041600000F088FF38BD1E482D2AD0E911131AD05F
:104170005A2A0AD0872A0FD0B42AF3D1A068012284
:104180000090104600F076FF38BD60680122009074
:10419000104600F06FFF38BDE06801220090104625
:1041A00000F068FF38BD206901220090104600F041
:1041B00061FF38BDA06901220090104600F05AFF4F
:1041C00038BD206A01220090104600F053FF38BD30
:1041D000606A01220090104600F04CFF38BD0000DC
:1041E000E804002070B50546234C0A46012A616E9A
:1041F00017D0022A2AD0032A3DD10220FEF736F832
:104200000220A16EFEF794F8284603F067FB022017
:10421000E16EFEF72BF8216FBDE870400220FEF73B
:1042200087B80A390220FEF721F80220A16EFEF7B6
:104230007FF8284603F052FB0220E16EFEF716F8E5
:10424000216FBDE870400220FEF772B80220FEF731
:104250000DF8A16E02200A39FEF76AF8284603F02D
:104260003DFB0220E16EFEF701F8216FBDE87040D2
:104270000220FEF75DB870BDE804002070B5064668
:104280000B46494C012A616EA1F10A051BD0022A96
:104290007ED1012B5BD0022B6ED0032B78D1022074
:1042A000FDF7E4FF0220A16EFEF742F8304603F06E
:1042B00015FB0220E16EFDF7D9FF216FBDE87040CC
:1042C0000220FEF735B8012B17D0022B2AD0032B82
:1042D00069D10120FDF7CAFF0120A16EFEF728F881
:1042E000304603F0FBFA0120E16EFDF7BFFF216FBE
:1042F000BDE870400120FEF71BB829460120FDF7FC
:10430000B5FF0120A16EFEF713F8304603F0E6FA80
:104310000120E16EFDF7AAFF216FBDE8704001208A
:10432000FEF706B80120FDF7A1FFA16E01200A39B2
:10433000FDF7FEFF304603F0D1FA0120E16EFDF7F4
:1043400095FF216FBDE870400120FDF7F1BF2946C0
:104350000220FDF78BFF0220A16EFDF7E9FF30463A
:1043600003F0BCFA0220E16EFDF780FF216FBDE88B
:1043700070400220FDF7DCBF0220FDF777FFA16E41
:1043800002200A39FDF7D4FF304603F0A7FA00E017
:1043900009E00220E16EFDF769FF216FBDE8704082
:1043A0000220FDF7C5BF70BDE804002010B5084825
:1043B000807815280AD0074C0120616EFDF756FF62
:1043C000A16EBDE810400120FDF7B2BF10BD000096
:1043D000B4040020E804002008B503F09FFC00901E
:1043E0000521684603F0A4FA00F01AF8F8E7000087
:1043F0001FB500200649CDE90110062203460092B0
:1044000003904FF4007203A1044803F00DFC1FBD9C
:1044100068050020494E505554000000D94300085B
:1044200010B501F091FA01F053FA02488168491D74
:10443000816010BD6805002070B526480121264D19
:104440000078002802D001281BD039E02248AB7C3C
:10445000027BC07A1BB912B908B9AC7A0CB113B19E
:1044600003E069772CE002B908B112B102E02975C6
:1044700026E010B118B1697522E0297720E0A9750E
:104480001EE015486E7C047C437B827BC07B1EB99A
:1044900014B90BB902B908B114B104E069770FE09F
:1044A0000BB902B908B113B103E0E97608E002B92B
:1044B00008B112B102E0A97602E038B140B16976E4
:1044C000687F012801D10920E87170BDE975F7E71F
:1044D0002976F5E728000020B40400200748407939
:1044E000002805D0012805D0022805D100F008B821
:1044F000FDF734BF00F022B870470000B40400207C
:104500000D488179012916D1017A002913D0C0798B
:104510000A2810D2DFE800F0050B090F0F0F0F0F6C
:10452000070DFEF7A5BBFFF7F9B8FFF77BBCFFF758
:1045300025BA00F0F1BA7047B404002010B50D4C54
:10454000207A01280ED1FFF777FF607F002201213A
:10455000022340B1012805D10920E0716371E270A6
:104560006170A17110BDE2716371E2706170A1713F
:1045700010BD0000B404002007484079002805D091
:10458000012805D0022805D100F008B8FDF7E6BEE5
:1045900000F024B870470000B40400200E48817970
:1045A000012917D1017A002914D0C079C01E07282B
:1045B00010D2DFE800F0060F040A080F0C00FFF726
:1045C000AFBBFEF747BCFEF7B5B8FFF76FBA0248BE
:1045D00002F02EBD70470000B404002010B50D4C51
:1045E000207A01280ED1FFF727FF607F00230121E9
:1045F000022240B1012805D10920E0716271E37007
:104600006170A17110BD0720E0716271E37061708B
:10461000A17110BDB4040020704700002DE9F047DF
:10462000534C03230125E078524FDFF84C811422CC
:10463000524E4FF0050C082865D009DC4FF00201FE
:10464000082820D2DFE800F02C3C40434E52575B54
:104650004749C978491CC9B20D286AD015DC092818
:104660005DD00A285ED00B2860D00C280BD1152015
:104670006070022000F0DAFF4FF4FA7003F02EF9B8
:10468000E078401CE070BDE8F0870E2854D00F2879
:104690005DD06328F7D1627063710020E070F2E7AB
:1046A000012000F0C3FF3648B9688142EBDAD8F840
:1046B00008108142E7DA6570E078401CE070E2E7BC
:1046C0000F206070E170DEE76570E370DBE7627019
:1046D0000120FDF7A7FE30700028D4D1E078401CFF
:1046E000E070D0E7657084F803C0CCE70420607008
:1046F0000620E070C7E761700720E070C3E76570CF
:104700000820E070BFE7022000F090FF1D481E491E
:1047100080688842B7DDE078401CE070B3E76570E0
:10472000E170B0E784F801C0E170ACE76570E1705A
:10473000A9E76570E170A6E762700220FDF772FEDE
:10474000307000289FD1E078401CE0709BE701208A
:1047500000F06CFFB8684FF08441884293DAD8F8D3
:10476000080088428FDA65706320E0708BE70000F4
:10477000B4040020A4050020CC0500202100002066
:104780000000D04144060020000048422DE9F047D7
:10479000584C01251522E078DFF85C81411CDFF8D8
:1047A0005C911423564E574F4FF0030CC9B20728A3
:1047B00078D007DC072819D2DFE800F026383D4121
:1047C0004C5964000B2877D012DC08286DD00928DA
:1047D0006FD00A280AD16270022000F027FF4FF440
:1047E000487003F07BF8E078401CE070BDE8F0878B
:1047F0000C2864D00D286CD06328F7D1637084F83E
:1048000005C00020E070F1E76270022000F00EFFAA
:104810003D48D8F808108142E8DAD9F808108142FA
:10482000E4DA6570E078401CE070DFE70E2060702D
:104830000220E070DAE7657084F803C0D6E76370A1
:104840000220FDF7EFFD30700028CFD1E078401C4A
:10485000E070CBE76270022000F0E8FE2B48806831
:10486000B842C3DD6570E078401CE070BEE763705D
:104870000120FDF7D7FD30700028B7D1E078401C4B
:10488000E070B3E76270012000F0D0FE4FF4966054
:1048900003F024F8E078401CE070A7E702E00BE0AA
:1048A00003E006E06570E170A0E704206070E1704D
:1048B0009CE76570E17099E76570E17096E702200A
:1048C000FDF7B0FD3070002890D1E078401CE0701A
:1048D0008CE76270022000F0A9FED8F80800B84208
:1048E00084DAD9F80800B84280DA65706320E07095
:1048F0007CE70000B4040020A4050020CC050020C3
:104900002100002000002042000090416C060020A1
:1049100070B5364C0125364EE078152105283AD081
:1049200006DC052812D2DFE800F012161E2831003E
:10493000062834D007283ED01421082845D0632803
:1049400004D16170032060710020E07070BD0F2001
:104950006070E57070BD6570C82002F0BFFFE07840
:10496000401CE07070BD0120FDF75CFD3070002838
:10497000F8D1E078401CE07070BD61704FF4487071
:1049800002F0ACFFE078401CE07070BD0420607065
:104990000520E07070BD6570401CE07070BD6170F6
:1049A000012000F043FE4FF4167002F097FFE0780C
:1049B000401CE07070BD0220FDF734FD307000280F
:1049C000F8D1E078401CE07070BD6170012000F00B
:1049D0002DFE0848816808488142F5DA0749896850
:1049E0008142F1DA65706320E07070BDB40400208C
:1049F00021000020A405002000000C42CC0500206E
:104A00002DE9F0413E4C01251522E0781423411C8C
:104A10003C4E3D4FC9B2052849D008DC4FF0040197
:104A200005280DD2DFE800F01825303C3F000828AB
:104A30004CD007DC06283DD0072801D16570E17015
:104A4000BDE8F08109284BD06328F9D163700320B9
:104A500060710020E070F3E76270022000F0E6FD74
:104A60002A488068B842EBDD6570E078401CE07051
:104A7000E6E763700120FDF7D5FC30700028DFD138
:104A8000E078401CE070DBE76270012000F0CEFDB2
:104A900040F2DC5002F022FFE078401CE070CFE7EB
:104AA0006570E170CCE761700520E070C8E7657063
:104AB000E170C5E76270022000F0B8FD4FF4E170CC
:104AC00002F00CFFE078401CE070B9E70120FDF730
:104AD000A9FC30700028B3D1E078401CE070AFE74B
:104AE0006270022000F0A2FD09488068B842A7DA8F
:104AF00008488068B842A3DA65706320E0709FE7D9
:104B0000B404002021000020000020426C06002098
:104B1000A4050020CC0500202DE9F05FFE4C012605
:104B20002146227DDFF8F4931425FD4FDFF8F4834E
:104B3000C9784FF0030A4FF44870012A1ED03A4654
:104B4000434694F815E092689B684FF0040B4FF0D1
:104B5000150CBEF1010F46D094F816E01320BEF1FB
:104B6000010F7CD0227F012A7AD0607F012803D1F7
:104B70000020E07084F805A0BDE8F09F02291BD05A
:104B80000DDCA9B10129F7D10120FDF74BFC89F813
:104B9000000065700028EFD10220E070ECE70329E7
:104BA00011D06329E8D10020E07084F805A0E3E784
:104BB0000E206070E670DFE701220321FFF75EFB45
:104BC00084F803A0D8E7012000F030FD6570D648D6
:104BD000B9688142D0DAD8F808108142CCDA667020
:104BE0006320E070C8E709297CD009DC0929C3D219
:104BF000DFE801F00F2305485F6679849400BBE786
:104C000061390729B8D2DFE801F0332CB8721549B1
:104C10009800022000F00AFDB8684FF084418842F5
:104C2000AADAD8F808008842A6DA02206070652067
:104C3000E070A1E76670E6709EE7022000F0F6FCE7
:104C40006570B8684FF08441884295DAD8F808005A
:104C5000884291DA022060706220E0708CE791E077
:104C600043E16670C82002F039FE6120E07083E7FE
:104C70000220FDF7D7FB89F8000000288ED184F8C8
:104C800003A079E784F801C0A848824286DA83420B
:104C900084DA022060706620E0706DE70220FDF784
:104CA000C1FB89F800006570002884D184F803B046
:104CB00062E784F801C002F011FE0520E0705BE7B6
:104CC000012000F0B3FC6570B8684FF08441884261
:104CD00088DAD8F80800884284DA84F801B006201F
:104CE000E07049E739E066706420E07044E784F8DA
:104CF00001C002F0F3FD0720E0703DE7012000F065
:104D000095FC65708A48B968814292DAD8F8081033
:104D100081428EDA66700820E0702DE784F801C0C9
:104D20008248824285DA834286DA84F801B0C8205C
:104D300002F0D4FD6720E0701EE70120FDF772FB52
:104D400089F800006570002888D10920E070BDE86E
:104D5000F05F4FF4C87002F0C1BD012000F066FCA6
:104D600065707148B96881428BDAD8F808108142C1
:104D700087DA66706320E070FEE60020E07084F859
:104D800005A0F9E6082971D008DC082985D2DFE8FA
:104D900001F0272A043B525B6E7CEDE664296AD061
:104DA0000ADC092970D0612924D0632987D1002029
:104DB000E07084F805A0DFE6662931D0672990D13C
:104DC0000120FDF72FFB89F800006570002888D1CD
:104DD0000920E070BDE8F05F4FF4C87002F07EBDBE
:104DE0006070E670C8E66670C82002F077FD61204A
:104DF000E070C1E60220FDF715FB89F800000028ED
:104E00008BD184F803A0B7E684F801C047488242FA
:104E100092DA834290DA022060706620E070ABE69E
:104E20000220FDF7FFFA89F8000065700028A3D181
:104E300084F803B0A0E684F801C04FF4C87002F013
:104E40004DFD0520E07097E6012000F0EFFB657056
:104E5000B8684FF0844188428EDAD8F8080088425A
:104E60008ADA84F801B00620E07085E61DE06670FD
:104E70006420E07080E684F801C04FF4C87002F04E
:104E80002DFD0720E07077E61FE0012000F0CEFB4B
:104E900065702748B96881428DDAD8F808108142D8
:104EA00089DA66700820E07066E684F801C04FF089
:104EB0008440824296DA834294DA84F801B0C820B2
:104EC00002F00CFD6720E07056E6012000F0AEFB1A
:104ED00065701548B968814284DAD8F808108142B3
:104EE00087DA66706320E07046E604293FD023DC51
:104EF000B1B3022987D1012000F098FB6570B86832
:104F00004FF0844188428ADAD8F80800884286DA6D
:104F100084F801B067200DE0B404002021000020D7
:104F2000A4050020CC0500200000484200000C42EF
:104F300000003442E0701FE6632928D0672994D12D
:104F40000120FDF76FFA89F80000657000288CD108
:104F500084F803B0BDE8F05F4FF4C87002F0BEBC47
:104F60006070C82002F0BAFC0220E07004E6012064
:104F700000F05CFB65700848B968814294DAD8F8A3
:104F80000810814290DA66706320E070F4E500203A
:104F9000E07084F805A0EFE500004842F8B50A4645
:104FA000264B012803F12C03F0CB12D002280FD19D
:104FB00022482D2AD0E917312ED05A2A32D0872AFA
:104FC00036D0B42A04D102220120009700F052F812
:104FD000F8BD1A482D2AD0E915130BD05A2A0FD044
:104FE000872A13D0B42AF3D101220220009700F0BF
:104FF00041F8F8BD01220220009400F03BF8F8BD12
:1050000001220220009500F035F8F8BD01220220AF
:10501000009600F02FF8F8BD02220120009400F065
:1050200029F8F8BD02220120009500F023F8F8BD10
:1050300002220120009600F01DF8F8BDE8040020CF
:1050400070B50948807816280DD0084C084D208886
:1050500081B22846FCF712FFA1882846BDE87040BF
:1050600089B2FCF70DBF70BDB404002054050020C8
:10507000000400402DE9F84F81468A4617469846BD
:105080000A9C02F04BFE00904FF47A704443B4FB4C
:10509000F0F4144D144EA879012802D0707901283B
:1050A0001DD10020A871707151464846FDF7DEF809
:1050B00041463846FDF73CF92146684602F038FC87
:1050C0000A4C0B4F208881B23846FCF7D7FEA188E6
:1050D000384689B2FCF7D4FE0120A8717071BDE892
:1050E000F88F0000B4040020D604002054050020EE
:1050F0000004004070B50948807801280DD0084CA4
:10510000084D208881B22846FCF7B8FEA1882846C1
:10511000BDE8704089B2FCF7B3BE70BDB404002096
:10512000540500200004004008B502F0F7FD00908F
:105130000121684602F0FCFB00F01CF8012002F09F
:10514000CDFBF5E71FB500200649CDE9011005228A
:105150000346009203904FF4007203A1044802F04A
:1051600063FD1FBD5C05002057616C6B00000000F3
:105170002951000870B58248824C834D0078002880
:1051800004D0012802D0022875D0E7E06078172803
:10519000FBD2DFE800F0E30C0F14191E23282D3298
:1051A000373C4155465A4B5F5064E3696D00FFF749
:1051B000A1FFD3E05A210120FEF7BCFFCEE0B421CD
:1051C0000120FEF7B7FFC9E05A210220FEF7B2FF27
:1051D000C4E0B4210220FEF7ADFFBFE0872101202B
:1051E000FEF7A8FFBAE02D210120FEF7A3FFB5E0EE
:1051F00087210220FEF79EFFB0E02D210220FEF75E
:1052000099FFABE02D210120FDF7EEF8A6E02D215E
:105210000220FDF7E9F8A1E02D210120FFF7BEFEF5
:105220009CE05A210120FFF7B9FE97E08721012079
:10523000FFF7B4FE92E0B4210120FFF7AFFE8DE04E
:105240002D210220FFF7AAFE88E05A210220FFF755
:10525000A5FE83E087210220FFF7A0FE7EE0B421B7
:105260000220FFF79BFE79E0FFF7A0F876E002E06E
:10527000FFF7E6FE72E0287817286FD2DFE800F02B
:105280006E0C0F14191E23282D32373C4155465AF7
:105290004B5F50646E696C00FFF72CFF5EE05A2193
:1052A0000120FEF747FF59E0B4210120FEF742FF3D
:1052B00054E05A210220FEF73DFF4FE0B4210220C6
:1052C000FEF738FF4AE087210120FEF733FF45E073
:1052D0002D210120FEF72EFF40E087210220FEF75E
:1052E00029FF3BE02D210220FEF724FF36E02D218F
:1052F0000120FDF779F831E02D210220FDF774F847
:105300002CE02D210120FFF749FE27E05A21012042
:10531000FFF744FE22E087210120FFF73FFE1DE05A
:10532000B4210120FFF73AFE18E02D210220FFF7FB
:1053300035FE13E05A210220FFF730FE0EE08721F0
:105340000220FFF72BFE09E0B4210220FFF726FE22
:1053500004E0FFF72BF801E0FFF772FE2878687091
:105360006178A1702379012213B9152900D06270E8
:10537000E978002902D1152800D02A7070BD0000FC
:1053800028000020B4040020D6040020014800F0CA
:10539000CFBF0000340000201FB500200649CDE932
:1053A000011003220346009203904FF4007203A100
:1053B000034802F039FC1FBD8C0500204144430026
:1053C000592C000810B50420FCF7F0F81048114CD7
:1053D000C06890F8701002290AD0062908D0042964
:1053E00006D0E06958B10C280ED9C0070AD00BE0EE
:1053F000416FC07851F8200030B1804704E000F0E0
:105400000BF801E000F008F8E069401CE06110BD15
:1054100008000020BC00002010B5074CE068C16EF9
:10542000002904D001F0B4FAE068C06EE060BDE885
:10543000104001F0EFBD0000080000200D4B811866
:10544000994201D90320704712B10123002109E0DC
:10545000002070470378FF2B01D002207047002303
:10546000401C491C9142F5D3012B01D0012070470B
:1054700000207047000004086FF30A00704710B561
:105480004FF44070FCF788F800F03CF8BDE810409D
:10549000AFF3008038B501218020FCF7C7F9012067
:1054A00000F03CF8022000F039F8032000F036F854
:1054B000042000F033F803208DF8020010208DF84E
:1054C0000300C001ADF800000D4C69462046FBF713
:1054D0001FFE8021ADF8001069462046FBF718FE3C
:1054E000A115ADF8001069462046FBF711FE6115C5
:1054F000ADF8001069462046FBF70AFE38BD0000F3
:10550000001C014010B5FCF70DFEFCF70FF8FCF78E
:10551000F1F9BDE81040FBF7C8BB0000401EC0B267
:105520000B49002808D001280AD002280BD00328F4
:1055300001D14815086070474FF40060086070475B
:105540008020086070474FF480700860704700004A
:10555000101C014010B50A4C8318A34201D9012048
:1055600010BD0AB1002306E0012010BD10F8014B68
:1055700001F8014B5B1C9342F8D3002010BD0000E2
:10558000000004082DE9F041074688461646042528
:105590002549B819884202D90120BDE8F0811EB121
:1055A000F00703D00120F8E70020F6E73246414635
:1055B0003846FFF743FF044654B1012080F31088BA
:1055C000FBF776FD3520FBF719FD022C02D00BE02E
:1055D0000020E2E73846FFF74FFFFBF715FD0546D1
:1055E000042D01D00220D8E700240EE018F81400A2
:1055F00008EB4401497840EA01213846FBF73EFDBB
:105600000546042D04D1BF1C641CB4EB560FEDD32A
:10561000FBF72CFD002080F31088042D01D0022020
:10562000BBE70020B9E70000000004082DE9F047BF
:105630005A4C594E5A4A616E012833D002287CD107
:10564000DFF86091D9F80850954277DCDFF858818F
:10565000D8F80870974271DC39462846FAF738FEC8
:10566000FAF7ACFF21F00041FAF7BBFF30600221EE
:10567000FAF766FE064639462846FAF7D9FF66D29B
:105680000120616EFCF7F2FDA06EFAF77EFF314655
:10569000FAF71EFEFAF77EFFBDE8F047014601204B
:1056A000FCF746BEDFF80491D9F80850954242DC79
:1056B000DFF8FC80D8F8087097423CDC3946284671
:1056C000FAF706FEFAF77AFF21F00041FAF789FFB0
:1056D00030600221FAF734FE064639462846FAF7CA
:1056E000A7FF0FD2606EFAF750FF3146FAF7F0FDD0
:1056F000FAF750FF01460120FCF7B8FD0120A16E2A
:10570000FCF716FED8F80810D9F80800FAF786FF5B
:105710003FD20120616EFCF7A9FDA06EFAF735FFBC
:105720003146FAF7D5FDFAF735FFBDE8F0470146F7
:105730000120FCF7FDBD012001E02AE020E0FCF79C
:1057400095FDA16EBDE8F0470120FCF7F1BDD8F84A
:105750000810D9F80800FAF761FF1AD2606EFAF75C
:1057600014FF3146FAF7B4FDFAF714FF01460120A1
:10577000FCF77CFDA16EBDE8F0470120FCF7D8BD29
:105780000120FCF773FDA16EBDE8F0470120FCF796
:10579000CFBDBDE8F087000024000020E804002011
:1057A0000000A041440600206C060020F405002003
:1057B0001C06002010B502200B4C217801290AD1CB
:1057C0000A490B4B0A689A4202DB4968994203DA9C
:1057D000FCF798FF012010BD9A42FCDD9942FADDEA
:1057E0000020207010BD0000B40400203400002010
:1057F0000000964310B50320FBF7D8FE1548164C61
:10580000C06890F8701002291BD0062919D004290D
:1058100017D08278C178521E91420AD0491CCAB270
:10582000C27041788A4204D9491C41700178491CF0
:105830000170012180F87010A180A069401CA06156
:1058400010BD416FC07851F820000028F5D0804786
:10585000F3E7000008000020BC00002000B51A4952
:10586000002801D000200870087808B1002000BD91
:1058700001200870154B991D184600F051F808B129
:10588000012000BDD91D581C00F04AF808B10220C3
:1058900000BD0E49981C083100F042F808B1032001
:1058A00000BD0A49D81C093100F03AF808B10420BB
:1058B00000BD0649181D0A3100F032F808B1052074
:1058C00000BD002000BD0000410000209805002020
:1058D00070B5104D04212846FBF79CFC0E4C20703F
:1058E00002212846FBF796FCE07020210B48FBF7CD
:1058F00091FC607008212846FBF78CFCA070012108
:105900002846FBF787FC20710120FFF7A7FFE07214
:1059100070BD0000001801409805002000080140FB
:10592000024600201278002A02D0012A06D103E0A4
:105930000A78521C0A7001E000220A7009780A29CC
:1059400000D901207047000070B50E4D4021284657
:10595000FBF760FC0C4C207020212846FBF75AFC1A
:10596000607010212846FBF755FCA07008212846DE
:10597000FBF750FCE07004212846FBF74BFC20713C
:1059800070BD0000001801403C00002070B51021DF
:105990000A48FBF792F810210948FBF78EF8094CEA
:1059A00000252560656010210748FBF786F8102167
:1059B0000648FBF782F8A560E56070BDDC8600084C
:1059C000E4860008B0812242EC860008F4860008D4
:1059D00003480021016041608160C16070470000A0
:1059E000B081224210B500F04DF800F01FF9FAF72F
:1059F0000DFF00F055F900F04BF900F00DF800F044
:105A00000DF802F035F8BDE8104010210148FBF711
:105A100054B80000D4860008FFF7B8BF38B501219C
:105A20006420FBF703FF03208DF8020048208DF867
:105A300003000420ADF80000104C69462046FBF737
:105A400067FB0221ADF8001069462046FBF760FBBA
:105A50002021ADF8001069460948FBF759FB0821E1
:105A6000ADF8001069462046FBF752FB0121ADF866
:105A7000001069462046FBF74BFB38BD001801407B
:105A800000080140F8B501213020FBF7CFFE1020BF
:105A90008DF8030003208DF802004FF40064ADF888
:105AA0000040604E69463046FBF732FB6510ADF8AA
:105AB000005069463046FBF72BFBADF800405A4FCB
:105AC00069463846FBF724FBADF800506946384676
:105AD000FBF71EFB21463046FBF7A5FB2946304667
