:020000040800F2
:10000000F078002009020008E3150008FD1400083C
:10001000E1150008A90C0008CD220008000000002E
:100020000000000000000000000000006501000862
:10003000170E000800000000A9010008851A00083A
:1000400023020008230200082302000823020008FC
:1000500023020008230200082302000823020008EC
:100060002302000823020008190E000823020008DA
:1000700023020008230200082302000823020008CC
:1000800023020008230200082302000823020008BC
:10009000230200082302000823020008750F00084D
:1000A000230200082302000823020008230200089C
:1000B0002302000823020008351C00082302000860
:1000C000230200082302000823020008230200087C
:1000D0002302000841200008230200082302000830
:1000E0002302000823020008230200080000000089
:1000F0000000000000000000000000000000000000
:100100000000000000000000230200082302000895
:10011000230200082302000823020008230200082B
:10012000230200082302000823020008230200081B
:10013000230200082302000823020008230200080B
:1001400023020008230200082302000823020008FB
:10015000DFF80CD000F02CFB0048004725480008D1
:10016000F0780020204B19680868B0E8F00F80F3A1
:100170000988BFF36F8F4FF0000080F311884EF0B5
:100180000D0E70470000000006480068006880F30C
:10019000088862B661B6BFF34F8FBFF36F8F00DF81
:1001A00000BF00BF08ED00E0EFF30980BFF36F8FE1
:1001B0000D4B1A6820E9F00F106008B54FF01000E1
:1001C00080F3118805F0FCFC4FF0000080F31188EB
:1001D000BDE8084019680868B0E8F00F80F30988A6
:1001E000BFF36F8F704700BF50000020EFF3118006
:1001F0004FF0100181F31188704780F31188704728
:10020000EFF3058070470000064880470648004726
:10021000FEE7FEE7FEE7FEE7FEE7FEE7FEE7FEE7B6
:10022000FEE7FEE7A91A000851010008F0B480EAD1
:100230000102D40F4200B2EB410F02D2024608463F
:1002400011464A0042D0C30DDDB2C1F3C752AD1A08
:10025000202D35DAC1F3160141F4000204B15242F7
:10026000C5F1200602FA06F12A411044B3EBD05F33
:1002700023D0C4B1012DA0EBC35009DCF0BC4FF07A
:10028000004202EAC352DBB200F5000000F004BAFB
:10029000400000F1807000EBC350A0F1807040EA94
:1002A000D170490009E0490841EAC071A0EBC35090
:1002B00000F50000400800EBC350F0BC00F0E3B9CB
:1002C0006142012202EB4101001BF6E7F0BC7047DE
:1002D00081F00041AAE780F00040A7E780EA010230
:1002E00010B502F00043400022D04A001FD0010E9A
:1002F00001EB1261C0F35600C2F3560240F4000055
:1003000042F40002A0FB022000047F39140400D054
:10031000401C50EA124001D44000491EC2B20C06F3
:1003200004EBD010401C4008802A02D003E00020DB
:1003300010BD20F00100002900DA0020184310BD94
:10034000420005D0C0F3C7525242914201DC002066
:10035000704700EBC15070472DE9FE4F804681EA9F
:100360000300C00F0C46009021F0004123F000452F
:10037000B8EB0200A94105D24046214690461C46F2
:100380000B46024623F00040104347D0270DC7F329
:100390000A00C3F30A510290401A019040286BDA18
:1003A000C3F3130040F4801B0098924620B1002351
:1003B000D2EB030A63EB0B0B01985946C0F14002E4
:1003C000504600F03FF906460D4650465946019A00
:1003D00000F047F910EB08006141002487EA115250
:1003E00084EAE7731A4340D0009A62B3019A012A63
:1003F0004FEA075215DC001B61EB02014FF000428F
:1004000002EA0752CDE90042001C41F58011324654
:100410002B4600F07EF903B0BDE8F08F4046214640
:10042000F9E7001B61EB0201001C41F58013001885
:100430005B412018A2F5001747EB030140EAD57095
:10044000B6196D4111E06D084FEA360645EAC075F0
:100450004FEA0752001B61EB0201001C41F58011BD
:1004600049084FEA30000019514132462B4603B08B
:10047000BDE8F04F00F03EB9009801224000002393
:10048000D0EB020263EBE073009821464FEAE07480
:10049000B8EB000061EB0401E9E783F000435BE7A0
:1004A00081F0004158E72DE9FE4F81EA030404F092
:1004B000004421F0004100944FF0000B23F0004372
:1004C00050EA01045ED052EA03045BD0C3F30A543D
:1004D000C1F30A552C44A4F2F3340194A0FB025456
:1004E000C1F3130141F48011C3F3130343F48013E8
:1004F00001FB024400FB034E840A970A44EA81543C
:1005000047EA8357A4FB076802958D0A05FB078518
:100510004FEA932C04FB0C542705029D4FEA065822
:1005200047EA1637B5EB08056EEB070C870E920EFF
:1005300047EA811742EA8312A7FB0201B6EB0B01DF
:1005400064EB00042B0D43EA0C335E1844EB1C50A3
:10055000DA465146E7FB0201C5F313044FEA0B33B9
:1005600043EA14534FEA0432019C43EA0603A4F120
:100570000C040294009CCDE900B400F0CAF803B06A
:10058000BDE8F08F00200146F9E7962300221146CE
:1005900000F082B820F00040C10DC0F3160040F416
:1005A00000007F2901DA00207047962903DCC1F1A1
:1005B0009601C840704796398840704700F0004265
:1005C00030F000400AD0C10D01F56071C0F3160093
:1005D00042EA0151C208400711437047002001461A
:1005E000704701F0004330B421F0004150EA0102AD
:1005F00006D00A0DA2F56072C1F31301002A02DCD5
:1006000030BC00207047440F44EAC104C100E01828
:1006100030BC00EBC25000F036B80000002801DB0F
:10062000C0F10040002901DBC1F100418142704767
:10063000002801DBC0F10040002901DBC1F10041CD
:1006400088427047202A04DB203A00FA02F1002099
:1006500070479140C2F1200320FA03F31943904000
:100660007047202A06DBCB17203A41FA02F043EA12
:10067000E07306E041FA02F3D040C2F1200291405B
:100680000843194670470029A8BF7047401C49001D
:1006900008BF20F00100704710B4B0FA80FC00FAE7
:1006A0000CF050EA010404BF10BC704749B1CCF112
:1006B000200421FA04F411FA0CF118BF012121439E
:1006C0000843A3EB0C01CB1D4FEA00614FEA102059
:1006D00042BF002010BC704700EBC35010440029FB
:1006E000A4BF10BC7047401C490008BF20F00100A7
:1006F00010BC704710B5141E73F1000408DA401CDA
:1007000041F1000192185B411A4301D120F0010030
:1007100010BD2DE9F04D92469B4611B1B1FA81F220
:1007200002E0B0FA80F220329046FFF78BFF0446D9
:100730000F4640EA0A0041EA0B0153465A46084375
:1007400013D0114653EA010019D0C8F140025046B7
:1007500000F040F805460E46504659464246FFF71F
:1007600071FF084305D0012004E020463946BDE86A
:10077000F08D0020054346EAE0762C4337430A9883
:100780006305E40AA0EB08000022FD0A44EA47548E
:100790000A3002D500200146E9E701051019694138
:1007A000DDE9084500196941BDE8F04DA2E7000008
:1007B000064C074D06E0E06840F0010394E80700AE
:1007C00098471034AC42F6D3FFF7C6FC50680008D7
:1007D00070680008202A04DB203A21FA02F0002188
:1007E000704721FA02F3D040C2F120029140084341
:1007F00019467047002904D0816841F001018160E9
:100800007047816821F001018160704730B591B077
:100810000121084601F046F83E4D284600F062FAF4
:100820003D4801903D480290002403942821049102
:1008300005948021069149000791880008902020A6
:10084000099000020A900B9401A9284600F0C6FA0C
:100850000121284600F039FA0121480201F03EF852
:1008600000212F4800F029F900212E4800F025F939
:1008700000212D4800F021F900212C4800F01DF93D
:100880000C9401208DF834008DF835004FF4602071
:100890000E900F9402208DF840001F4C0CA94C3C88
:1008A000204600F05FF8052301220A21204600F0CF
:1008B0007DF8052302220B21204600F077F805235E
:1008C00003220C21204600F071F8052304220D219B
:1008D000204600F06BF80121204600F029F80121A4
:1008E0002046FFF787FF204600F09AF8204600F0E8
:1008F00032F80028FAD1204600F0A3F8204600F094
:1009000023F80028FAD10121204600F08EF811B01A
:1009100030BD0000080002404C240140C404002007
:10092000A8670008B0670008B8670008C06700083B
:10093000002904D0816841F480718160704781682A
:1009400021F4807181607047014600208968490761
:1009500000D501207047014600208968090700D5AD
:100960000120704710B542680E4B1A400C790B6895
:1009700042EA04221343436082680B4B1A40D1E9D8
:10098000024323434C7942EA440213438360C26A20
:1009900022F47002097C491EC9B242EA0151C162C7
:1009A00010BD0000FFFEF0FFFDF7F1FF70B5072658
:1009B00009290AD9C568A1F10A0404EB4404A64038
:1009C000B543A3401D43C56007E0056901EB410441
:1009D000A640B543A3401D4305611F23072A09D242
:1009E000446B521E02EB820293409C4391400C43A5
:1009F000446370BD0D2A09D2046BD21F02EB820240
:100A000093409C4391400C43046370BDC46A0D3A0B
:100A100002EB820293409C4391400C43C46270BD40
:100A2000816841F0080181607047002904D0816825
:100A300041F4A00181607047816821F4A0018160C8
:100A40007047816841F00401816070472DE9FE43E1
:100A50000746884616461D462821384600F02DF8E0
:100A60000121084600F03AFF384600F03CFCC4B2D1
:100A7000384600F085FC214600F044FB384600F083
:100A8000E2FB009000208DF804008DF80580012421
:100A90008DF80640684600F085FA384600F0A2FC62
:100AA0008DF808008DF809608DF80A508DF80B401C
:100AB00002A800F097FDBDE8FE8338B504460D4658
:100AC000204600F00DF8A088ADF800008DF8035026
:100AD00003208DF802006946206800F027FB38BD2E
:100AE000124A0168914201D104201CE0104A91424F
:100AF00001D1082017E00F4A914201D1102012E0E5
:100B00000D4A914201D120200DE00C4A914201D1C1
:100B1000402008E00A4A914201D1802003E0094ABE
:100B2000914200D18815012100F0D8BE0008014093
:100B3000000C014000100140001401400018014069
:100B4000001C0140002001402DE9FF4180460A9F22
:100B50000C4616461D46404600F028F8ADF8084001
:100B6000ADF804600021ADF80610ADF80A1001A937
:100B7000404601F017FA01221146404601F0AEF856
:100B80000121404601F092F8404601F0D3F98DF87A
:100B900000008DF801508DF8027001208DF80300DF
:100BA000684600F01FFDBDE8FF8100003149884222
:100BB00003D10121C01400F091BEB0F1804F06D0E6
:100BC0002D49884207D10121022000F079BE012180
:100BD000084600F075BE2949884203D1012104204E
:100BE00000F06EBE2649884203D10121082000F0A2
:100BF00067BE2449884203D10121102000F060BE65
:100C00002149884203D10121202000F059BE1F490B
:100C1000884203D10121401400F060BE1C49884283
:100C200003D10121C80400F059BE1A49884203D1FA
:100C30000121080500F052BE1749884203D1012165
:100C4000480500F04BBE1549884203D101214020E0
:100C500000F036BE1249884203D10121802000F005
:100C60002FBE1049884203D10121801500F028BE13
:100C700070470000002C01400004004000080040C4
:100C8000000C0040001000400014004000340140FF
:100C9000004C014000500140005401400018004049
:100CA000001C004000200040FEE708B525208DF81C
:100CB000000001208DF8010000218DF802108DF850
:100CC0000300684600F08EFC08BD002904D00168CE
:100CD00041F001010160704701684FF6FE7211405A
:100CE0000160704701684FF6FE72114001600021FB
:100CF000016041608160C1603649364A08399042DE
:100D000004D1486840F00F0048607047314A1432FF
:100D1000904204D1486840F0F000486070472D4A86
:100D20002832904204D1486840F4706048607047AF
:100D3000284A3C32904204D1486840F470404860F0
:100D40007047244A5032904204D1486840F47020E1
:100D5000486070471F4A6432904204D1486840F4AA
:100D60007000486070471B4A7832904204D148684E
:100D700040F0706048607047174A111F904204D1DC
:100D8000086840F00F0008607047134A1432904220
:100D900004D1086840F0F000086070470E4A28321D
:100DA000904204D1086840F47060086070470A4AB5
:100DB0003C32904204D1086840F4704008607047AB
:100DC000054A50329042FAD1086840F47020086019
:100DD00070470000080002400804024030B5026875
:100DE00047F6F0739A430C6A8B682343D1E90445B4
:100DF0002C4323438C692343CC6923434C6A23430C
:100E00008C6A234313430360CA6842600A688260A5
:100E10004968C16030BD704710B50C4800F013FA46
:100E200000F0B0F8002810D009480078012805D15A
:100E30000849094801F046FC06498860034800F06B
:100E400002FABDE8104000F097B810BDF067000846
:100E500020000020AC0300200008004070B53D4891
:100E600000F0F1F900F08EF83B4C3C4D78B1207861
:100E7000022805D13A49284601F024FC3849886007
:100E8000344800F0E0F9BDE8704000F075B835482E
:100E900000F0D9F900F076F888B12078032807D15E
:100EA0002F492846283101F00DFC2D492831886052
:100EB0002C4800F0C8F9BDE8704000F05DB82A4841
:100EC00000F0C1F900F05EF888B12078042807D15D
:100ED00023492846503101F0F5FB21495031886003
:100EE000214800F0B0F9BDE8704000F045B81F4857
:100EF00000F0A9F900F046F888B12078052807D15C
:100F000017492846783101F0DDFB154978318860B2
:100F1000164800F098F9BDE8704000F02DB814486C
:100F200000F091F900F02EF8002811D02078062862
:100F300007D10B492846A03101F0C4FB0849A03174
:100F400088600B4800F07FF9BDE8704000F014B8ED
:100F500070BD0000F8670008200000200008004075
:100F6000D403002000680008086800081068000822
:100F700018680008FFF772BF014908607047000059
:100F80001404014001460020054A12680A40044B3F
:100F900014331B680B4202D0002A00D00120704796
:100FA0000004014030B51B4A83790168002B2AD028
:100FB00013688B431360111D0B680468A3430B6017
:100FC000017911440B68046823430B60114C083409
:100FD0002168036899432160231D19680568A943A6
:100FE00019604179102905D011440A68006802434C
:100FF0000A6030BD216802681143216019680068E9
:101000000143196030BD0079104402688A430260D0
:1010100030BD0000000401400149C8607047000075
:101020000020024070B505464FF43026304600F0EF
:1010300059F8042811D1094C206940F002002061C0
:101040006561206940F040002061304600F04AF8B8
:10105000216941F6FD721140216170BD00200240FE
:1010600004200849CA68D20701D001207047CA6825
:10107000520701D502207047C968C906FBD5032075
:1010800070470000002002400248016941F08001E1
:101090000161704700200240F0B506460D464FF44E
:1010A0000057384600F01EF804280CD1064C206981
:1010B00040F0010020613580384600F013F82169C6
:1010C000BA1E11402161F0BD0020024003480249D0
:1010D0004160034941607047230167450020024099
:1010E000AB89EFCD00B50346FFF7BAFF02E0FFF78B
:1010F000B7FF5B1E012801D1002BF8D1002B00D1D6
:10110000052000BD10B58A07120F0F23934021F070
:101110000304054921448C689C438C608B68904093
:1011200003438B6010BD0000000001402DE9F04139
:101130000022CC7804F00F03E40601D58C78234319
:101140000C784FF00F0714F0FF0F4FF0010C1CD07C
:1011500005680CFA02F40E882640A64211D19600CA
:1011600007FA06F825EA080503FA06F848EA05052D
:10117000CE78282E02D0482E02D002E0446100E052
:101180000461521C082AE4D305600A88FF2A1ED98C
:101190004568002202F108060CFA06F40E88264083
:1011A000A64210D1960007FA06F825EA080503FAC8
:1011B00006F848EA0505CE78282E00D14461CE789D
:1011C000482E00D10461521C082AE3D34560BDE8D3
:1011D000F0810000F0B5154C002801DAE36900E069
:1011E0006368C0F30346420D120185B2C0F3015794
:1011F0009540032F07D0C2020CD50322B24093437F
:1012000043F0706209E023F07062636823F070635A
:10121000636002E0AB4343F0706201B12A430028EF
:1012200001DAE261F0BD6260F0BD00000000014043
:101230000246002092680A4200D0012070474161B6
:1012400070470161704741684FF4807291423ED00F
:1012500014DC102935D009DC01292CD002292CD02E
:1012600004292CD0082900D10820704720292AD031
:1012700040292AD08029F8D1802070474FF480522D
:1012800091422AD00BDC4FF40072914221D05200DF
:10129000914220D052009142EFD1104670474FF456
:1012A000005291421BD0520091421AD052009142FA
:1012B000F4D1104670470120704702207047042087
:1012C000704710207047202070474020704710461C
:1012D00070471046704710467047104670471046DA
:1012E0007047104670474168B1F5807F3BD014DCF1
:1012F000102932D009DC012929D0022929D004295A
:1013000029D0082900D103207047202927D040295F
:1013100027D08029F8D107207047B1F5805F28D009
:101320000ADCB1F5007F20D0B1F5806F1FD0B1F598
:10133000006FF1D10B207047B1F5005F1BD0B1F504
:10134000804F1AD0B1F5004FF5D10F207047002023
:101350007047012070470220704704207047052025
:1013600070470620704708207047092070470A2000
:1013700070470C2070470D2070470E20704700000A
:10138000114A0168914201D1002070470F4A9142F1
:1013900001D1012070470E4A914201D102207047CD
:1013A0000C4A914201D1032070470B4A914201D16E
:1013B00004207047094A914201D105207047084A2C
:1013C0009142FBD10620704700080140000C01400B
:1013D000001001400014014000180140001C0140B1
:1013E000002001404168B1F5807F3BD014DC10291A
:1013F00032D009DC012929D0022929D0042929D099
:10140000082900D109207047202927D0402927D05A
:101410008029F8D117207047B1F5805F28D00ADC09
:10142000B1F5007F20D0B1F5806F1FD0B1F5006F0E
:10143000F1D128207047B1F5005F1BD0B1F5804F86
:101440001AD0B1F5004FF5D128207047062070471B
:1014500007207047082070470A2070471720704700
:1014600017207047172070471720704728207047B3
:1014700028207047282070472820704708B504F0BE
:10148000C7FC00900B4D0C4E0C4F0D4C6421684670
:1014900004F022FBD5F89C01C043C5F89C01D4E9B7
:1014A000000132463B46FEF757FFC4E9000103F056
:1014B0008DFBEBE7008022429A9999999999B93F5F
:1014C000000000201FB500F017F800200649CDE904
:1014D00001100222034600920390120203A1054864
:1014E00004F01CFC1FBD0000E0000020574F524BD1
:1014F000000000007D14000803F0D4B906A300200A
:10150000104C211F1A5C22800A885206FCD5401C10
:10151000C0B22A28F6D3FEE70D0A456E7465722024
:10152000486172644661756C745F48616E646C6595
:10153000722C2053797374656D2048616C742E0D84
:101540000A0000000438014010B586B001210520D2
:1015500000F0C4F90121880300F0C0F94FF40070D5
:10156000ADF8140018208DF8170003208DF8160030
:10157000194C05A92046FFF7D9FD2115ADF8141027
:1015800004218DF8171005A92046FFF7CFFD4FF471
:10159000E13001900020ADF80800ADF80A00ADF888
:1015A0000C00ADF810000C20ADF80E000B4C01A99A
:1015B000204600F097FD012240F22551204600F020
:1015C00075FD0121204600F045FD4021204600F038
:1015D0003DFD06B010BD000000080140003801408C
:1015E000FEE7704770B50F23C27801260178002A04
:1015F0001ED0144A126802F4E062C2F5E062120AD8
:10160000C2F10404D3404578A54082781A402A43A9
:10161000120101F1E02181F80024007800F01F019F
:101620008E404009800000F1E020C0F8006170BDEC
:1016300001F01F0086404809800000F1E020C0F85A
:10164000806170BD0CED00E002490843024908606A
:10165000704700000000FA050CED00E010B5002115
:10166000054B0022814202D003EB8104E260491C59
:10167000C9B20629F6D310BDB400002070B500250C
:1016800005F1B000C0B2002100F0D2F800210846F8
:1016900000F0CEF80021102000F0CAF8002401214B
:1016A000002000F0C5F8641CE4B2802CF7D36D1C58
:1016B000EDB2082DE4D370BD002205E00021491CE5
:1016C000C9B20629FBD3521C8242F7D3704710B52A
:1016D0000446B031C8B2002100F0AAF8102040EA58
:1016E0001410002100F0A4F804F00F00BDE8104031
:1016F000002100F09DB800002DE9F04180460F4622
:101700000024203AD5B2B8F17F0F02D9A046BF1C01
:10171000FFB2102B12D039464046FFF7D8FF1849C8
:1017200005EB450001EB40050121285D00F080F844
:10173000641CE4B2062CF7D3BDE8F081394640467C
:10174000FFF7C5FF0F4E04EB05100121305C00F0E0
:101750006FF8641CE4B2082CF5D37F1CF9B2404644
:10176000FFF7B5FF002404EB051030440121007A97
:1017700000F05EF8641CE4B2082CF4D3DCE700004F
:10178000905F0008B86100082DE9F05F8046DDF841
:1017900028A08B4691461D46002600244FEA5A0792
:1017A0001DE0281B401EC1B20A2003F0E5FAB9FB78
:1017B000F0F00A21B0FBF1F201FB120026B9691E1C
:1017C0008C4201DA78B101263030C2B207FB0480C6
:1017D000C0B253465946FFF78FFF641CE4B2AC42D7
:1017E000DFD3BDE8F09F07FB0480C0B25346202240
:1017F0005946FFF781FFF0E72DE9F04104460E4618
:101800001746984600250DE0434631462046FFF72F
:1018100073FF0834E4B2782C02D90024B61CF6B267
:101820006D1CEDB27A5D002AEED1BDE8F0810000BA
:101830002DE9F0470546DFF864904FF480680029F1
:1018400004D041464846FFF7FCFC03E041464846C9
:10185000FFF7F5FC0024124F4FF40066314638467E
:10186000FFF7EDFC280604D541463846FFF7E9FCB2
:1018700003E041463846FFF7E2FC31463846FFF7C1
:10188000E0FC6806050E641CE4B2082CE6D3414671
:101890004846BDE8F047FFF7D4BC00000010014007
:1018A00000140140054A002903D0516901435161E8
:1018B0007047516981435161704700000010024038
:1018C000054A002903D0D1690143D1617047D1692C
:1018D0008143D1617047000000100240054A002991
:1018E00003D091690143916170479169814391618E
:1018F000704700000010024010B5264A516801F000
:101900000C01254B002927D0042927D0082927D0EE
:101910000360516801F0F0010909204B5C5C01682B
:10192000E1404160546804F4E064240A1C5D21FA3B
:1019300004F48460546804F46054E40A1B5DD940E4
:10194000C160526802F44042920B144B1B1F9A5C18
:10195000B1FBF2F1016110BD0360DAE70360D8E783
:10196000516801F47011536803F48033022404EBCE
:10197000914133B153689B0307D5094B594301602B
:10198000C7E7074B59430160C3E7034B5943016065
:10199000BFE700000010024000127A003F00002064
:1019A00000093D0008B501210820FFF797FF03203B
:1019B0008DF8020010208DF803000420ADF800001F
:1019C00069460248FFF7B2FB08BD0000000C014069
:1019D000AFF300800CB50022019200922748016805
:1019E00041F4803101604FF4A063016801F40031DB
:1019F00000910199491C0191009911B901999942ED
:101A0000F3D10168890302D50121009100E0009221
:101A10000099012930D11A490A6842F010020A607F
:101A20000A6822F003020A600A6842F002020A60B1
:101A30004168416041684160416841F480614160B2
:101A4000416821F47C114160416841F4E811416032
:101A5000016841F08071016001688901FCD541682D
:101A600021F003014160416841F002014160416899
:101A7000C1F381010229FAD10CBD0000001002401F
:101A80000020024010B5FEF7B1FB04F0C7F918B111
:101A900004494FF080500860BDE810400020FEF778
:101AA000ACBB000004ED00E010B50F48016841F048
:101AB0000101016041680D4A1140416001680C4A12
:101AC00011400160016821F480210160416821F426
:101AD000FE0141604FF41F018160FFF779FF054966
:101AE0004FF00060086010BD001002400000FFF8D9
:101AF000FFFFF6FE08ED00E038B501210220FFF7F8
:101B0000DFFE01211020FFF7E9FE01211248FFF757
:101B100061FB4FF47070ADF8000018258DF803508C
:101B200003248DF8024069460C48FFF7FFFA0121B3
:101B30000846FFF7C5FE01210420FFF7CFFE012074
:101B4000ADF800008DF803508DF802406946044856
:101B5000FFF7ECFA38BD0000000C1A00001001403D
:101B60000008014070B588B040F67F40ADF818001D
:101B700040F2C110ADF814000024ADF81A40ADF8E1
:101B80001640850705A9284600F00CFA284E05A93D
:101B9000304600F007FA6020ADF804000120ADF8EF
:101BA0000600ADF80C40ADF80A4001A9304600F03F
:101BB0009FF80821304600F0DFF8ADF80A4001A98F
:101BC000304600F0DFF80821304600F01FF9ADF88C
:101BD0000A4001A9304600F023F90821304600F000
:101BE00061F9ADF80A4001A9304600F061F9082119
:101BF000304600F091F9ADF80A4001A9284600F0FE
:101C000077F80821284600F0B7F80121284600F0AF
:101C10003BF80121304600F037F80121284600F05A
:101C200045F80121304600F041F808B070BD0000D1
:101C30000004004010B5124C0121204600F042F88B
:101C400000281CD00121204600F02DF80D484168E5
:101C5000491C416028304168491C41602830416876
:101C6000491C416028304168491C41602830416866
:101C7000491C416000F128014868401C486010BDC3
:101C800000080040AC030020002904D0018841F086
:101C9000800101807047018821F080010180704738
:101CA000C94301827047C94301827047002904D0AB
:101CB000018841F0010101807047018821F0010194
:101CC0000180704702460020138A0B4092890A4027
:101CD000002B02D0002A00D001207047002A03D038
:101CE00082890A438281704782898A438281704750
:101CF00030B5028C22F001020284028C8388048BAE
:101D000024F0700424F003050C882C4322F0020216
:101D10000D8915434A882A43124DA8420BD0124D13
:101D2000A84208D0114DA84205D0114DA84202D0BA
:101D3000104DA8420FD122F008054A892A4322F00B
:101D400004058A882A4323F4807323F400738D8961
:101D50001D43CB892B4383800483C98881860284F9
:101D600030BD0000002C0140003401400040014023
:101D70000044014000480140028B22F008020A435F
:101D80000283704770B5028C22F010020284028C2C
:101D90008388048B24F4E04424F440760D884FF6C5
:101DA000FF7404EA0525354322F020020E8904EA77
:101DB000061616434A8804EA02123243114EB04214
:101DC00002D0114EB04217D122F080024E8904EAAF
:101DD0000616164326F040068A8804EA02123243A9
:101DE00023F4806323F400638E8904EA86061E438D
:101DF000CB8904EA8303334383800583C988018741
:101E0000028470BD002C014000340140028B22F49A
:101E100000624FF6FF7303EA01211143018370470B
:101E200070B5028C22F480720284028C8388848BC9
:101E300024F0700424F003040D88254322F400727A
:101E40000E894FF6FF7404EA062616434A8804EA10
:101E500002223243114EB04202D0114EB04217D18D
:101E600022F400664A8904EA0222324322F48066A0
:101E70008A8804EA0222324323F4805323F4005375
:101E80008E8904EA06161E43CB8904EA0313334302
:101E900083808583C9888187028470BD002C0140BE
:101EA00000340140828B22F008020A43828370478B
:101EB00070B5028C22F480520284058C8288838B58
:101EC00023F4E04323F440760C884FF6FF7303EAD3
:101ED0000424344325F400550E8903EA06362E43C4
:101EE0004D8803EA05353543094EB04202D0094E0C
:101EF000B04205D122F480468A8903EA8212324335
:101F000082808483C988A0F84010058470BD0000D9
:101F1000002C014000340140828B22F400624FF615
:101F2000FF7303EA01211143818370478186704763
:101F3000018770470146B1F1804F04D0124A9142A7
:101F400003D11D2070471C207047104A914201D1D7
:101F50001E2070470E4A914201D1322070470D4A2F
:101F6000914201D1362070470B4A914201D137206E
:101F700070470A4A914201D119207047084A91429C
:101F8000FBD12C20704700000004004000080040F6
:101F9000000C00400010004000140040002C0140E4
:101FA0000034014030B502881B4C1C4DA0420DD0BE
:101FB000A8420BD0B0F1804F08D0194B984205D001
:101FC000184B984202D0184B984203D122F070036C
:101FD0004A881A43154B984206D0154B984203D0B5
:101FE00022F44073CA881A4302808A8882850A884C
:101FF0000285A0420AD0A84208D00E4A904205D0DD
:102000000D4A904202D00D4A904201D1097A0186D0
:102010000121818230BD0000002C014000340140CC
:102020000004004000080040000C00400010004088
:1020300000140040004001400044014000480140BD
:10204000014800F0B5B80000C40500208A05C94366
:1020500001807047002904D0818941F400518181B9
:102060007047818921F400518181704770B5002447
:1020700040F66A12C1F3421301F01F05012606FA69
:1020800005F2012B0CD0022B0DD0838A1340090AD4
:102090008E40008830400BB100B10124204670BD55
:1020A00083891340F3E7038A1340F0E710B540F645
:1020B0006A13C1F3421301F01F040121A140012B57
:1020C00007D0022B07D014303AB102680A430260ED
:1020D00010BD0C30F8E71030F6E702688A43026062
:1020E00010BD000030B585B004460D46208A4CF680
:1020F000FF710840E98801432182A0894EF6F3115F
:102100000840A9882A8911436A8902431143A181A1
:10211000A08A4FF6FF410840A9890143A182684681
:10212000FFF7EAFB1D48844201D1039800E00298C2
:10213000A189090408D500EBC00101EB0010296852
:102140004900B0FBF1F007E000EBC00101EB00102B
:1021500029688900B0FBF1F06422B0FBF2F10901BB
:102160000B096FF018056B4300EB8300A3891D0476
:102170004FF0320307D503EBC000B0FBF2F000F0E4
:102180000700084306E003EB0010B0FBF2F000F09C
:102190000F000843208105B030BD00000038014029
:1021A0008088C0F308007047C1F308018180704740
:1021B0002DE9F041044640F225512068FFF756FF13
:1021C0000025B8B12068FFF7EBFFC0B2E28AA16832
:1021D0008854E18A491C8AB2E282E1898A4200D3AA
:1021E000E582628B8A4202D2618B491C6183616AFB
:1021F00001B1884740F2277739462068FFF736FF5C
:1022000040F2266600B3A08A90B1618A6068415CA2
:102210002068FFF7C9FF608A401C80B26082A189F4
:10222000884200D36582A08A401EA082BDE8F0816A
:10223000002239462068FFF739FF31462068BDE8A3
:10224000F0410122FFF732BF31462068FFF70EFF51
:102250000028EBD0A08A88B1618A6068415C206860
:10226000FFF7A2FF608A401C80B26082A189884289
:1022700000D36582A08A401EA082D7E700223146A3
:102280002068FFF713FF206A0028CFD0BDE8F04197
:10229000004700000C480B49016000F12801416033
:1022A00000F5856181604FF480618181C1810021E9
:1022B00001824182C182018341838182C1610162C5
:1022C0004162704700380140C4050020FEE702E08B
:1022D00008C8121F08C1002AFAD1704770470020B1
:1022E00001E001C1121F002AFBD1704738B500235D
:1022F00010241A4619460848009400F011F80123EA
:10230000002250210448009400F00AF803490320F9
:10231000896881F8700038BD2C000020080000207A
:10232000F8B50C46069E154650F82300FEF732F924
:10233000C2B20423294620460096FFF725FAF8BDCD
:1023400070B50124064E074D06EB840105EB4400F1
:10235000022201F06DFD641CE4B21D2CF4D370BDAB
:10236000F00200200030030870B50024064E074D2F
:1023700006EB840105EB4400022201F071FD641CB0
:10238000E4B21D2CF4D370BDF0020020003003082D
:1023900010B501F0E2FC01F0ADFF00F025F8FFF709
:1023A00091F801F067FC01F0C5FB00F0C9F900F0FD
:1023B0009BF8BDE8104001F003B80000084A094B43
:1023C0000128D26E06D0022809D1501A81B21846CF
:1023D000FFF7ACBD501881B21846FFF7A7BD704794
:1023E000F00200200004004010B5224802210160E4
:1023F0004FF4FA61416081608161C16140F67C12F5
:10240000C260016140F6DA220262416240F29B4200
:102410004261826240F20D12C2624FF4D2720263D4
:102420004FF41E72426340F279328263C1630164E9
:102430000621416411228264C26401651421416550
:1024400081650166C16541668166C821C166016713
:1024500002220949094801F0EBFC07480078FF28EF
:1024600003D0BDE81040FFF76BBFBDE81040FFF799
:102470007BBF0000F00200201C0000200030030899
:10248000084A094B0128126F06D0022809D15018BA
:1024900081B21846FFF74CBD501A81B21846FFF7BB
:1024A00047BD7047F00200200004004005480121AC
:1024B0000171142282704170417181710021017299
:1024C00001F00EBFCC02002008B503F0A1FC009083
:1024D0000121684603F000FB002000F01DF80120F8
:1024E00003F0D0FAF4E700001FB500200649CDE95B
:1024F000011003220346009203904FF4007203A1DF
:10250000044803F00BFC1FBD7C030020574F524BC7
:1025100000000000C9240008002805D0012805D0CB
:10252000022805D100F0E9BF00F090BF00F0E4BF41
:102530007047000008B50D4A01280CD0022809D1C7
:102540002D2907D1906A0090D2E913130222104678
:1025500001F090FA08BD2D29FCD150690090D2E914
:1025600011130222104601F085FA08BDF002002086
:102570002DE9F04702244B4E484FDFF82481DFF865
:102580002891F56E012804D002282FD003285AD0B4
:1025900080E04648816846488068FDF799FEB84269
:1025A00009DD02210846FFF709FF02210120FFF79C
:1025B00067FF01246EE0404509D902210120FFF7A1
:1025C000FDFE02210846FFF75BFF012462E010F0E8
:1025D000FF4F5FD0A9B24846FFF7A8FCB6F87010CD
:1025E000484689B2FFF7A4FC002453E031488168D3
:1025F00031488068FDF76CFEB84209DD02210120F8
:10260000FFF7DCFE02210846FFF73AFF012441E014
:10261000404509D902210846FFF7D0FE02210120DA
:10262000FFF72EFF012435E010F0FF4F32D0A9B2A2
:102630004846FFF77BFCB6F87010484689B2FFF7B2
:1026400077FC002426E01D4881681D488068FDF75E
:102650003FFEB84209DD04210120FFF7AFFE07214C
:102660000120FFF70DFF012414E0404509D90421A2
:102670000120FFF7A3FE07210120FFF701FF01243E
:1026800008E00120716EFFF799FE0120B16EFFF79F
:10269000F7FE00242046BDE8F08700009A99993E95
:1026A0009A9999BEF0020020000400402404002002
:1026B000FC030020740400204C040020D4030020FC
:1026C000AC0300202DE9F04107460E4600243046B9
:1026D00001F0FEFF01281ED000213846FFF7E6FA80
:1026E0000F4D287890B13146384600F021F8FDF7BB
:1026F0004CFFFDF763FF0B4A0B4BFDF7D4FEFDF7D4
:1027000070FF04460948844200DD0446002028701A
:102710002046BDE8F0813146384600F02FF8F7E753
:102720003A0000209CC420B07268913F000096439C
:1027300049684FF47A725143808C08447047000016
:102740001FB500200849CDE901100322034600927D
:1027500003904FF4007205A1064803F0DFFA064922
:10276000012008701FBD00008803002054494D451A
:1027700052000000912700082000002000228284DF
:102780004A60024A01211170FFF790BA3A00002016
:1027900008B503F03DFB00901E21684603F09CF94C
:1027A00000F004F8012003F06DF9F5E7F0B5244DD1
:1027B000002401216E68234B2A464FF47A70072EBD
:1027C0003AD2DFE806F039040C151E2730001170EC
:1027D000C3F8A81101F09AFFC3F8A8412CE0022623
:1027E0001670C3F8AC1101F091FFC3F8AC4123E0BF
:1027F00003261670C3F8B01101F088FFC3F8B0418A
:102800001AE004261670C3F8B41101F07FFFC3F874
:10281000B44111E005261670C3F8B81101F076FF37
:10282000C3F8B84108E006261670C3F8BC1101F0E1
:102830006DFFC3F8BC416C606868401C6860F0BD07
:10284000200000200000234270B5094C012565607E
:1028500025604FF4487003F015F900206060206097
:102860004FF4FA7003F00EF90248057070BD0000D5
:10287000B8812242CC02002010B50224154803C8BA
:10288000FDF726FD1449884209DD0C210120FFF7E0
:1028900095FD05210120FFF7F3FD012418E00F4904
:1028A000884209D905210120FFF788FD0C2101206C
:1028B000FFF7E6FD01240BE010F0FF4F08D01421D4
:1028C0000120FFF77BFD14210120FFF7D9FD002433
:1028D000204610BD2C00002000002041000020C137
:1028E00008B503F095FA00900121684603F0F4F86A
:1028F00001F0BAF9F8E700002DE9F05F6F4C704F76
:10290000DFF8C081204694F80AE001261523B96853
:10291000C0786D4DDFF8B4B1D8F808204FF0140935
:102920004FF0050C4FF0080ABEF1010F14D0032838
:1029300077D077DC002876D0012875D0022809D11D
:1029400063706348814205DA824203DA0E206070C8
:102950000320E070BDE8F09F05284ED006DC052876
:10296000F8D2DFE800F0151D2A33460006284ED0C5
:1029700007285AD0082860D06328EBD1207D012891
:1029800066D084F807A00020E07084F80190E1E7A9
:102990000220FFF7EDFD28700028DBD1E670D9E7B3
:1029A000022001F0B1FAB8685845D3DAD8F8080027
:1029B0005845CFDA0220E070CCE763704548814289
:1029C000C8DA8242C6DA0320E070C3E7FFF754FF9B
:1029D0002870054684F80190D8F80810B868FDF70B
:1029E00025FC3D498842B5DA002DB3D10420E070C2
:1029F000B0E7667084F803C0ACE7FFF725FF01F08D
:102A000061FB28700028A5D10620E070A2E7022211
:102A10000321FA2000F01AFC102060700720E070FB
:102A200098E73AE017E023E02AE066704FF4C870B8
:102A300003F028F884F803A08CE70220FFF798FD44
:102A4000287084F80190002884D16320E07081E729
:102A50000920E07197E7042823D0052824D06328B3
:102A600095D10020E07084F8019084F807A071E708
:102A70000220FFF77DFD2870002888D1E67069E705
:102A8000022001F041FAB868584588DAD8F8080001
:102A9000584584DA0220E0705CE766700420E0703C
:102AA00058E784F803C055E70220FFF761FD28705E
:102AB00000288AD16320E0704CE70000CC0200209F
:102AC000AC030020D403002028000020000048426E
:102AD000000088410000D0410000E8412DE9F05F8E
:102AE0008A4C00222046A77C01250221DFF820B273
:102AF00014266323C078012F09D0022875D075DC15
:102B0000002874D0012800D1E170BDE8F09F814F0A
:102B1000DFF80482DFF80492DFF804A20A2867D005
:102B20000ADC4FF006020A28EFD2DFE800F0222587
:102B3000273545494C62667A4FF00E0C10286FD04D
:102B400008DCA0F10B000528DFD2DFE800F07C8F65
:102B50009498A200112872D0122871D0132870D036
:102B60006328D2D1207F01286CD0E171E2706670B9
:102B7000CBE76570E570C8E7E170C6E7022001F0B9
:102B8000C3F9DBF808004045BFDA66488068404575
:102B9000BBDA0320E070B8E7022001F0B5F9624922
:102BA000DBF808008842B0DD5E48604980688842F2
:102BB000ABDA0420E070A8E762700520E070A4E7BB
:102BC0006570E270A1E7FFF757FE38700546667042
:102BD000DAF80810D9F80800FDF728FB404594DA28
:102BE000002D92D10720E0708FE77CE071E078E063
:102BF0001BE065700820E07087E7FFF725FE01F015
:102C000061FA3870022203214FF4C87000F01EFBF5
:102C100038780028ACD1112060700920E07074E78A
:102C200045E065700A20E0706FE70120FFF7A0FC27
:102C30003870667000289BD10B20E07065E73BE0A0
:102C40003EE040E042E0012001F05EF9D9F80800E2
:102C500040458DDDDAF80810414589DD344A90425F
:102C600086DA914284DA0C20E0704EE7042060702E
:102C70000D20E07049E7657084F803C045E7012046
:102C8000FFF776FC38706670002884D10F20E07062
:102C90003BE7152060702748D9F8081081428ADA8E
:102CA000DAF80810814286DA1020E0702DE784F807
:102CB00001C01120E07028E765701220E07024E761
:102CC0001320E07021E76670E3701EE70920E071D1
:102CD0004CE7032817D0632886D1E2706670E17153
:102CE00013E7E57011E7022001F00EF91248DBF856
:102CF0000810814293DD0B49896881428FDA657043
:102D00000320E07001E7E370FFE60000CC02002042
:102D1000FC030020280000200000C841AC03002074
:102D2000D403002024040020000048420000F041A9
:102D300000000C4200008841000020422DE9F047CD
:102D4000434CE07A012823D1E0780125414E4FF031
:102D50001408612865D031DC3F4FDFF8009102286C
:102D600055D017DCB8B3012812D1FFF785FD3070BC
:102D7000064684F80180D9F80810B868FDF756FABD
:102D80003749884204DA002E02D165700220E070D3
:102D9000BDE8F08703284FD04D28F9D1012001F07C
:102DA000B3F83048B9688142F2DAD9F808108142A4
:102DB000EEDA0D2060706220E070E9E7622823D02F
:102DC00063283DD0762815D07A28E1D10F20607095
:102DD0007620E070DCE7FFE7152060702248B968D4
:102DE0008142D5DAD9F808108142D1DA7A20E07030
:102DF0006570CDE70120FFF7BBFB307065700028E0
:102E0000C6D14D20E070C3E76570E570C0E7FFF7FD
:102E10001BFD01F057F930700028B9D16120E07036
:102E2000B6E7022203214FF4487000F00FFA102099
:102E300060700320E070ABE765706320E070A7E787
:102E40000020E07084F801800920E071A0E7000014
:102E5000CC02002028000020AC030020D403002076
:102E60000000C841000048420000A0412DE9F05F89
:102E7000C148C14D0022047B95F803E007230221DD
:102E80001520BE4EBE4F01254FF005094FF0040836
:102E90004FF0030C4FF0610A012C0DD0B64CBEF17F
:102EA000070F7DD07DDCBEF1070F2DD2DFE80EF0DD
:102EB000F7F5F4F3F2F1F000AF4CDFF8C8B2BEF171
:102EC000080F6FD008DCBEF1080F1DD2DFE80EF04E
:102ED000283D404450586D70BEF10C0F70D015DC89
:102EE000BEF1090F7BD0BEF10A0F6BD0BEF10B0F04
:102EF0000AD10120FFF73CFBA3490870142161703F
:102F0000002801D10C20E070BDE8F09FBEF10D0F4C
:102F100079D0BEF1610F0AD0BEF1630FF4D18FE01A
:102F20006070C82002F0AEFD84F803A0ECE7022038
:102F300000F0EAFFB0684FF084418842E4DAB868F4
:102F40008842E1DA6570E570DEE76170E170DBE729
:102F5000657084F803C0D7E70220FFF709FB8A49B0
:102F60000870142161700028CED184F80380CBE76B
:102F700060704FF4487002F085FD84F80390C3E759
:102F8000012000F0C1FF8148816881488142BBDD9A
:102F9000804989688142B7DA84F80180062002E01E
:102FA000C1E058E00FE0E070AEE76570E370ABE7BA
:102FB00060704FF4617002F065FD0820E070A3E7D7
:102FC00033E00CE020E0012000F09EFFB06858459F
:102FD0009ADAB868584597DA0920E07094E7FFF765
:102FE0004BFC69498046087014206070B968B0686D
:102FF000FDF71CF9584587DAB8F1000F84D16570E8
:103000000A20E07080E718E0FFF71EFC01F05AF894
:103010005D490870002889D1022201214FF4167001
:1030200000F014F90B20E0706EE702220321C820A3
:1030300000F00CF90D20E07066E765706320E07029
:10304000A07D012804D0E571E270142060705BE778
:103050000920E071F8E7BEF10B0F7FD00DDCBEF167
:10306000080F68D0BEF1090F74D0BEF10A0F86D1E7
:103070000F2060700B20E07046E7BEF1610F15D0A5
:10308000BEF1630F90D1E27014206070E5713BE7F0
:1030900046E034E02BE01EE019E015E0FFE7607049
:1030A000C82002F0EFFC84F803A02DE7022000F016
:1030B0002BFFB0684FF0844188428FDAB8688842AD
:1030C0008CDA6570E5701FE76170E1701CE7657070
:1030D00084F803C018E70220FFF74AFA2A4908706B
:1030E0001421617000288DD184F803800CE7607092
:1030F0004FF4487002F0C6FC84F8039004E7012006
:1031000000F002FF21488168214881428CDD21497D
:103110008968814288DA84F801800620E070F3E64D
:103120006570E370F0E660704FF4617002F0AAFC25
:103130000820E070E8E6012000F0E6FE1648B168DD
:10314000814284DAB968814296DA0920E070DBE6D0
:1031500004E0FFE765700A20E070D5E60120FFF784
:1031600007FA0949087014216170002884D163208E
:10317000E0706570C8E60000CC020020AC030020BF
:10318000D40300200000C841280000204C04002087
:1031900000002042740400200000B04138B50A4607
:1031A000294C012813D0022810D120462D2AD0E91D
:1031B000131341D05A2A31D0872A36D0B42A05D1E8
:1031C000E06901220090104600F054FC38BD1E4812
:1031D0002D2AD0E911131AD05A2A0AD0872A0FD0E3
:1031E000B42AF3D1A06801220090104600F042FCFE
:1031F00038BD606801220090104600F03BFC38BDED
:10320000E06801220090104600F034FC38BD2069CF
:1032100001220090104600F02DFC38BDA06901226B
:103220000090104600F026FC38BD206A0122009074
:10323000104600F01FFC38BD606A01220090104665
:1032400000F018FC38BD0000F002002070B5064602
:103250000B46494C012A616EA1F10A051BD0022AD6
:103260007ED1012B5BD0022B6ED0032B78D10220B4
:10327000FFF7A4F80220A16EFFF702F9304602F032
:1032800001FC0220E16EFFF799F8216FBDE8704064
:103290000220FFF7F5B8012B17D0022B2AD0032B01
:1032A00069D10120FFF78AF80120A16EFFF7E8F845
:1032B000304602F0E7FB0120E16EFFF77FF8216F57
:1032C000BDE870400120FFF7DBB829460120FFF779
:1032D00075F80120A16EFFF7D3F8304602F0D2FB5B
:1032E0000120E16EFFF76AF8216FBDE87040012010
:1032F000FFF7C6B80120FFF761F8A16E01200A3977
:10330000FFF7BEF8304602F0BDFB0120E16EFFF78B
:1033100055F8216FBDE870400120FFF7B1B829468C
:103320000220FFF74BF80220A16EFFF7A9F8304604
:1033300002F0A8FB0220E16EFFF740F8216FBDE824
:1033400070400220FFF79CB80220FFF737F8A16E0B
:1033500002200A39FFF794F8304602F093FB00E0B0
:1033600009E00220E16EFFF729F8216FBDE8704007
:103370000220FFF785B870BDF002002010B50848A4
:10338000807815280AD0074C0120616EFFF716F8E7
:10339000A16EBDE810400120FFF772B810BD00001B
:1033A000CC020020F002002008B502F031FD0090B0
:1033B0000521684602F090FB00F01AF8F8E70000DB
:1033C0001FB500200649CDE90110062203460092F0
:1033D00003904FF4007203A1044802F09FFC1FBD4C
:1033E00070030020494E505554000000A9330008D6
:1033F00010B500F031FF00F0F3FE02488168491D6E
:10340000816010BD7003002030B50F4C01222046B2
:10341000A37C017BC07A002B03D111B908B9A57A2E
:103420000DB113B103E0627730BD01B908B111B13C
:1034300002E0227530BD10B118B1627530BD22773F
:1034400030BDA27530BD0000CC0200200748407995
:10345000002805D0012805D0022805D100F008B8C1
:10346000FFF724B800F022B870470000CC0200201B
:103470000D488179012916D1017A002913D0C0792C
:103480000A2810D2DFE800F0050B090F0F0F0F0F0D
:10349000070DFFF731BAFFF721BBFFF7E7BCFFF7D6
:1034A0004DBC00F02BB87047CC02002010B5114C79
:1034B000207A01281CD10021E17102206071E170A5
:1034C000002022181175401C0928FADB0020221860
:1034D0009172401C0928FADB0120A072A0742073AD
:1034E000E072FFF791FF607F012801D10920E071B0
:1034F00010BD0000CC020020704770472DE9F05F3E
:10350000F94D01262A46297DDFF8E0931424F84F6F
:10351000DFF8E083D3784FF0030A4FF448700129B5
:103520001DD03946424695F815E0896892684FF0FB
:10353000040B4FF0150CBEF1010F45D0A87D4FF0E4
:10354000130E01287CD0287F01287AD0687F0128BB
:1035500003D10020E87085F805A0BDE8F09F022B9C
:103560001BD00DDCABB1012BF7D10120FFF700F828
:1035700089F800006C700028EFD10220E870ECE7B9
:10358000032B11D0632BE8D10020E87085F805A04B
:10359000E3E70E206870EE70DFE701220321FFF7FA
:1035A00055FE85F803A0D8E7012000F0ADFC6C7053
:1035B000D148B9688142D0DAD8F808108142CCDA13
:1035C0006E706320E870C8E7092B7CD009DC092BFA
:1035D000C3D2DFE803F00F2305485F6679849400C7
:1035E000BBE7613B072BB8D2DFE803F0332CB372A3
:1035F00015499800022000F087FCB8684FF084411C
:103600008842AADAD8F808008842A6DA0220687050
:103610006520E870A1E76E70EE709EE7022000F072
:1036200073FC6C70B8684FF08441884295DAD8F822
:103630000800884291DA022068706220E8708CE706
:103640008CE038E16E70C82002F01CFA6120E8704E
:1036500083E70220FEF78CFF89F8000000288ED156
:1036600085F803A079E785F801C0A448814286DA8D
:10367000824284DA022068706620E8706DE70220DA
:10368000FEF776FF89F800006C70002884D185F879
:1036900003B062E785F801C002F0F4F90520E87094
:1036A0005BE7012000F030FC6C70B8684FF084419B
:1036B000884288DAD8F80800884284DA85F801B0B0
:1036C0000620E87049E734E06E706420E87044E753
:1036D00085F801C002F0D6F90720E8703DE7012027
:1036E00000F012FC6C708648B968814292DAD8F812
:1036F000081081428EDA6E700820E8702DE785F898
:1037000001C08048814285DA824286DA85F801B0BC
:10371000C82002F0B7F96720E8701EE70120FEF725
:1037200027FF89F800006C70002888D10920E87014
:1037300013E7012000F0E8FB6C706F48B968814224
:1037400086DAD8F8081081428CDA6E706320E8704F
:1037500003E70020E87085F805A0FEE64FF4C87086
:10376000082B6FD008DC082B88D2DFE803F0222674
:1037700004374E556773F0E6642B64D00ADC092BDE
:1037800078D0612B20D0632B8AD10020E87085F897
:1037900005A0E2E6662B2DD0672B93D10120FEF722
:1037A000E7FE89F800006C7000288BD10920E870D2
:1037B000D3E685F801E0EE70CFE66E70C82002F027
:1037C00061F96120E870C8E60220FEF7D1FE89F8B1
:1037D0000000002892D185F803A0BEE685F801C05C
:1037E000464881428ADA824288DA0220687066207E
:1037F000E870B2E60220FEF7BBFE89F800006C70AC
:1038000000288AD185F803B0A7E685F801C002F048
:1038100039F90520E870A0E6012000F075FB6C7016
:10382000B8684FF08441884292DAD8F8080088429C
:103830008EDA85F801B00620E8708EE66E7064209E
:10384000E8708AE617E085F801C002F01BF907204E
:10385000E87082E6012000F057FB6C702848B968D8
:10386000814288DAD8F80810814284DA6E70082024
:10387000E87072E60FE085F801C04FF084408142A5
:1038800087DA824285DA85F801B0C82002F0FAF8BA
:103890006720E87061E6012000F036FB6C70164886
:1038A000B968814284DAD8F80810814284DA6E70EF
:1038B0006320E87051E6032B49D025DC9BB1012B36
:1038C0003AD0022B89D1012000F01EFB6C700C480D
:1038D000B96881428DDAD8F80810814289DA6E70B1
:1038E00085F803A039E620E0CC0200202800002063
:1038F000AC030020D40300200000484200000C422A
:10390000000034420000F041042B30D0632B3ED045
:10391000672B92D10120FEF72BFE89F800006C7016
:1039200000288AD185F803B017E685F801E0C820A1
:1039300002F0A8F8EE7010E60120FEF719FE89F8F3
:1039400000006C70002884D10220E87005E685F83C
:1039500001C04FF0844081428BDA824289DA85F8D7
:1039600001B0C82002F08EF86720E870F5E501206C
:1039700000F0CAFA6C700848B96881428ADAD8F84F
:103980000810814286DA6E706320E870E5E5002059
:10399000E87085F805A0E0E500004842F8B50A4661
:1039A000264B012803F12C03F0CB12D002280FD1B3
:1039B00022482D2AD0E917312ED05A2A32D0872A10
:1039C00036D0B42A04D102220120009700F052F828
:1039D000F8BD1A482D2AD0E915130BD05A2A0FD05A
:1039E000872A13D0B42AF3D101220220009700F0D5
:1039F00041F8F8BD01220220009400F03BF8F8BD28
:103A000001220220009500F035F8F8BD01220220C5
:103A1000009600F02FF8F8BD02220120009400F07B
:103A200029F8F8BD02220120009500F023F8F8BD26
:103A300002220120009600F01DF8F8BDF0020020DF
:103A400070B50948807816280DD0084C084D20889C
:103A500081B22846FEF76AFAA1882846BDE8704080
:103A600089B2FEF765BA70BDCC0200205C0300206D
:103A7000000400402DE9F8438046894616461F465B
:103A8000089C02F0C5F900904FF47A704443B4FBEF
:103A9000F0F4114DA87901281BD10020A8714946E6
:103AA0004046FEF78BFC39463046FEF7E9FC2146DE
:103AB000684602F011F8094C094E208881B2304660
:103AC000FEF734FAA188304689B2FEF731FA0120B8
:103AD000A871BDE8F8830000CC0200205C03002040
:103AE0000004004070B50948807801280DD0084CCA
:103AF000084D208881B22846FEF718FAA18828468A
:103B0000BDE8704089B2FEF713BA70BDCC02002048
:103B10005C0300200004004008B502F079F9009031
:103B20000121684601F0D8FF00F01CF8012001F0E7
:103B3000A9FFF5E71FB500200649CDE901100522D0
:103B40000346009203904FF4007203A1044802F070
:103B5000E5F81FBD6403002057616C6B0000000096
:103B6000193B000810B53F4C607817286FD2DFE88A
:103B700000F06E0C0F14191E23282D32373C4155CE
:103B8000465A4B5F50646E696C00FFF7ABFF5EE016
:103B90005A210120FFF702FB59E0B4210120FFF771
:103BA000FDFA54E05A210220FFF7F8FA4FE0B42161
:103BB0000220FFF7F3FA4AE087210120FFF7EEFA2F
:103BC00045E02D210120FFF7E9FA40E0872102209E
:103BD000FFF7E4FA3BE02D210220FFF7DFFA36E0A1
:103BE0002D210120FEF7A6FC31E02D210220FEF759
:103BF000A1FC2CE02D210120FFF7D0FE27E05A2167
:103C00000120FFF7CBFE22E087210120FFF7C6FE4F
:103C10001DE0B4210120FFF7C1FE18E02D21022094
:103C2000FFF7BCFE13E05A210220FFF7B7FE0EE0BB
:103C300087210220FFF7B2FE09E0B4210220FFF73E
:103C4000ADFE04E0FFF79AFB01E0FFF7F9FE6078B4
:103C5000A0702179002903D1152801D001206070BE
:103C600010BD0000CC020020014800F0ADBD0000F6
:103C70002C0000201FB500200649CDE901100322C9
:103C80000346009203904FF4007203A1034802F030
:103C900045F81FBD9403002041444300E12800087B
:103CA00010B50420FDF7DAFC1048114C806890F83C
:103CB000701002290AD0062908D0042906D0E0692C
:103CC00058B10C280ED9C0070AD00BE0416FC0785C
:103CD00051F8200030B1804704E000F00BF801E01B
:103CE00000F008F8E069401CE06110BD0800002009
:103CF000B400002010B5074CA068C16E002904D0A4
:103D000000F05AFFA068C06EA060BDE8104001F04E
:103D100095BA0000080000200D4B8118994201D986
:103D20000320704712B10123002109E000207047F1
:103D30000378FF2B01D0022070470023401C491C50
:103D40009142F5D3012B01D001207047002070472C
:103D5000000004086FF30A00704710B54FF440707C
:103D6000FDF772FC00F03CF8BDE81040AFF30080B6
:103D700038B501218020FDF7B1FD012000F03CF8AD
:103D8000022000F039F8032000F036F8042000F09B
:103D900033F803208DF8020010208DF80300C001D5
:103DA000ADF800000D4C69462046FDF7BFF98021B3
:103DB000ADF8001069462046FDF7B8F9A115ADF839
:103DC000001069462046FDF7B1F96115ADF8001005
:103DD00069462046FDF7AAF938BD0000001C0140E5
:103DE00010B5FEF757FAFDF7AFFBFDF7DBFDBDE8B9
:103DF0001040FCF75ABF0000401EC0B20B4900281B
:103E000008D001280AD002280BD0032801D1481578
:103E1000086070474FF400600860704780200860B9
:103E200070474FF48070086070470000101C01401C
:103E300010B50A4C8318A34201D9012010BD0AB164
:103E4000002306E0012010BD10F8014B01F8014BE2
:103E50005B1C9342F8D3002010BD00000000040852
:103E60002DE9F04107468846164604252549B8192C
:103E7000884202D90120BDE8F0811EB1F00703D0CD
:103E80000120F8E70020F6E7324641463846FFF7C2
:103E900043FF044654B1012080F31088FDF716F962
:103EA0003520FDF7B9F8022C02D00BE00020E2E744
:103EB0003846FFF74FFFFDF7B5F80546042D01D052
:103EC0000220D8E700240EE018F8140008EB4401A3
:103ED000497840EA01213846FDF7DEF80546042D11
:103EE00004D1BF1C641CB4EB560FEDD3FDF7CCF826
:103EF000002080F31088042D01D00220BBE70020B1
:103F0000B9E70000000004082DE9F047044600F07E
:103F10009BF8484D4FF08246012C2ED0022C7DD1CB
:103F2000454C464FD4F80880D7F80890414648469B
:103F3000FCF7CEF9FCF742FB21F00041FCF751FB06
:103F4000B04275DA0221FCF7FBF9064641464846C5
:103F5000FCF76EFB53D20120696EFEF72FFAA86EB4
:103F6000FCF713FB3146FCF7B3F9FCF713FBBDE894
:103F7000F04701460120FEF783BA314C314FD4F8A7
:103F80000880D7F8089041464846FCF7A1F9FCF7AD
:103F900015FB21F00041FCF724FBB04248DA022176
:103FA000FCF7CEF9064641464846FCF741FB0FD2E6
:103FB000686EFCF7EAFA3146FCF78AF9FCF7EAFA90
:103FC00001460120FEF7FAF90120A96EFEF758FA22
:103FD000A168B868FCF722FB2AD20120696EFEF7BF
:103FE000EDF9A86EFCF7D1FA3146FCF771F9FCF750
:103FF000D1FABDE8F04701460120FEF741BAA168B9
:10400000B868FCF70BFB13D2686EFCF7BEFA3146BA
:10401000FCF75EF9FCF7BEFA014600E008E001207B
:10402000FEF7CCF9A96EBDE8F0470120FEF728BAEB
:10403000BDE8F087F0020020740400204C0400204A
:1040400024040020FC03002070B519488168194839
:104050008068FCF7EBF8FCF7B1FA21F00041FCF7BF
:10406000C0FA054629461448FCF732F91349FCF713
:1040700035F9FCF78FFA0446114EB54209DAA0B2C1
:1040800001220221FFF7E2F80122A0B21146FFF758
:10409000DDF8B5420BDA0122A0B21146FFF7D6F8DF
:1040A000A0B2BDE8704001220221FFF7CFB870BD79
:1040B00024040020FC0300200000D0410000F04157
:1040C0000000C04010B502200B4C217801290AD114
:1040D0000A490B4B0A689A4202DB4968994203DAA3
:1040E000FEF7B2FB012010BD9A42FCDD9942FADDD9
:1040F0000020207010BD0000CC0200202C00002009
:104100000000964310B50320FDF7A8FA1548164C99
:10411000806890F8701002291BD0062919D0042954
:1041200017D08278C178521E91420AD0491CCAB277
:10413000C27041788A4204D9491C41700178491CF7
:104140000170012180F87010A180A069401CA0615D
:1041500010BD416FC07851F820000028F5D080478D
:10416000F3E7000008000020B400002000B51A4961
:10417000002801D000200870087808B1002000BD98
:1041800001200870154B991D184600F051F808B130
:10419000012000BDD91D581C00F04AF808B10220CA
:1041A00000BD0E49981C083100F042F808B1032008
:1041B00000BD0A49D81C093100F03AF808B10420C2
:1041C00000BD0649181D0A3100F032F808B105207B
:1041D00000BD002000BD000039000020A003002029
:1041E00070B5104D04212846FDF722F80E4C2070C2
:1041F00002212846FDF71CF8E07020210B48FDF74E
:1042000017F8607008212846FDF712F8A070012108
:104210002846FDF70DF820710120FFF7A7FFE07297
:1042200070BD000000180140A003002000080140FC
:10423000024600201278002A02D0012A06D103E0AB
:104240000A78521C0A7001E000220A7009780A29D3
:1042500000D901207047000070B50E4D402128465E
:10426000FCF7E6FF0C4C207020212846FCF7E0FF0D
:10427000607010212846FCF7DBFFA070082128465B
:10428000FCF7D6FFE07004212846FCF7D1FF20712F
:1042900070BD0000001801403400002070B51021EE
:1042A0000A48FCF70AFC10210948FCF706FC094CF7
:1042B00000252560656010210748FCF7FEFB1021F2
:1042C0000648FCF7FAFBA560E56070BDD067000802
:1042D000D8670008B0812242E0670008E86700085C
:1042E00003480021016041608160C16070470000A7
:1042F000B081224210B500F04BF800F01DF9FCF738
:1043000085FA00F053F900F049F900F00BF800F0DD
:104310000BF8BDE8104010210148FCF7CEBB0000AF
:10432000C8670008FFF7BABF38B501216420FDF760
:10433000D5FA03208DF8020048208DF803000420F0
:10434000ADF80000104C69462046FCF7EFFE022154
:10435000ADF8001069462046FCF7E8FE2021ADF8D4
:10436000001069460948FCF7E1FE0821ADF800108D
:1043700069462046FCF7DAFE0121ADF800106946D7
:104380002046FCF7D3FE38BD00180140000801406C
:10439000F8B501213020FDF7A1FA10208DF80300B7
:1043A00003208DF802004FF40064ADF80040604E29
:1043B00069463046FCF7BAFE6510ADF80050694614
:1043C0003046FCF7B3FEADF800405A4F6946384618
:1043D000FCF7ACFEADF8005069463846FCF7A6FE87
:1043E00021463046FCF72DFF29463046FCF729FFD1
:1043F00021463846FCF725FF29463846FCF721FFC1
:1044000021463046FCF71DFF42F210752846FDF7A5
:1044100053F921463046FCF712FF2846FDF74CF9C8
:1044200021463046FCF70DFF0021AE20FDF700FAD3
:1044300000210220FDF7FCF900211020FDF7F8F91A
:1044400000214020FDF7F4F900218120FDF7F0F96B
:104450000021CF20FDF7ECF90021A120FDF7E8F9BC
:104460000021C820FDF7E4F90021A620FDF7E0F9BE
:104470000021A820FDF7DCF900213F20FDF7D8F945
:1044800000218120FDF7D4F90021FF20FDF7D0F9AC
:104490000021D320FDF7CCF900210846FDF7C8F92B
:1044A0000021D520FDF7C4F900218020FDF7C0F9D7
:1044B0000021D920FDF7BCF90021F120FDF7B8F962
:1044C0000021DA20FDF7B4F900211220FDF7B0F940
:1044D0000021DB20FDF7ACF900214020FDF7A8F911
:1044E00000212020FDF7A4F900210220FDF7A0F90A
:1044F00000218D20FDF79CF900211420FDF798F98B
:104500000021A420FDF794F90021A620FDF790F9E1
:104510000021AF20FDF78CF90021AF20FDF788F9CD
:10452000FDF7ACF800210846FDF7D1F8F8BD000012
:10453000001001400014014038B501214020FDF772
:10454000CDF903208DF8020048208DF803004020AB
:10455000ADF80000104C69462046FCF7E7FD20212D
:10456000ADF8001069462046FCF7E0FD1021ADF8DB
:10457000001069462046FCF7D9FD0821ADF800106F
:1045800069462046FCF7D2FD0421ADF800106946CB
:104590002046FCF7CBFD38BD0018014010B5FDF7F3
:1045A000ABFABDE81040FDF7DDBA000038B51021C8
:1045B0003948FCF782FA28213848FCF77EFA1021A6
:1045C0003748FCF77AFA28213648FCF776FA1021AA
:1045D0003548FCF772FA28213448FCF76EFA1021AE
:1045E0003348FCF76AFA28213248FCF766FA1021B2
:1045F0003148FCF762FA28213048FCF75EFA1021B6
:104600002F48FCF75AFA28212E48FCF756FA2E4D6F
:104610000024042347224FF6FF7128460094FCF73C
:1046200093FA0023032210211C48FCF70FFA002301
:10463000032210211B48FCF709FA00230322102152
:104640001A48FCF703FA0023032210211948FCF74B
:10465000FDF90023032210211848FCF7F7F9002385
:10466000032210211748FCF7F1F901212846FDF734
:1046700017FB00212846FDF719FB1348243004805E
:104680001248046044608460C46004614461BDE811
:10469000384000F047B8000020680008F0670008C4
:1046A00028680008F86700083068000800680008FB
:1046B00038680008086800084068000810680008AA
:1046C000486800081868000800080040A801234254
:1046D00002680D49072A07D2DFE802F00604070A3C
:1046E0000D101300D1F810017047D1F81401704774
:1046F000D1F818017047D1F81C017047D1F820019A
:104700007047D1F82401704700002342002205E0E1
:104710000021491CC9B20629FBD3521C8242F7D39F
:104720007047000009490120086002202831086014
:104730000320283108600420283108600520283132
:10474000086006202831086070470000AC03002094
:1047500010B50120FCF782FF0E480F4C806890F8DE
:10476000700002280AD0062808D0042806D0206944
:1047700038B10C280AD9C00706D007E000F00EF8BF
:1047800004E000F00BF801E000F008F82069401C9C
:10479000206110BD08000020B4000020094B98687B
:1047A000C278816E51F82210002904D0996001204E
:1047B00081F870007047406F50F822000028F9D04F
:1047C00000470000080000202DE9F0418046002647
:1047D0000025114F002407EBC40030F81500FBF74B
:1047E000D4FE3146FBF722FD0646641C0A2CF2DBA0
:1047F0000A493046FBF772FD6FF00B01FBF7A0FD95
:104800000749FBF76BFD48F8250000266D1C022DBB
:10481000E0DBBDE8F0810000C4040020CDCCCC3D3D
:104820000000FA4310B5012080F31088FDF7B0FDB9
:1048300001F094F9002010BDF0B50B30154D20F0BB
:1048400007010024144A0FE003688B420BD38B420C
:1048500005D95E1A43184768C3E9006700E043685A
:10486000136002C004E0021D10680028ECD120464D
:10487000002802D1286808B10020F0BD064A074888
:104880001060074A121A22F00702C0E90024012032
:104890002860D7E7B0000020AC000020F4720020B0
:1048A000F07400202DE9F0477D4D00262E704FF06A
:1048B000030885F801804FF0020985F80290EE7038
:1048C00078A068607AA0A8600820FFF7B5FFA86606
:1048D00005F178040460A86E04F178074760A878B1
:1048E0008000FFF7A9FF68670660686F4660267062
:1048F00084F801801620A070E67070A0606071A03E
:10490000A06071A0E06073A0206174A0606175A0D8
:10491000A06176A0E06177A0206278A0606279A0B3
:10492000A0627AA0E0627BA020637CA060637DA08F
:10493000A0637EA0E0637FA0206480A0606481A06B
:10494000A06482A0E06483A0206584A0606585A047
:10495000A0655820FFF770FFA0660660A06E466055
:10496000022004F1F00AA16E41F820A0401CC0B260
:104970001628F8D3E566A0788000FFF75DFF606732
:1049800079490160616F794848600220616F41F8A0
:104990002060401CC0B21328F8D33E7087F8018015
:1049A00087F80290FE703FA0786071A0B860082080
:1049B000FFF742FFB8660020B96E41F82060401C46
:1049C000C0B20228F8D3FD66B8788000FFF734FF44
:1049D0007867002069497A6F42F82010401CC0B205
:1049E0000228F8D38AF800608AF8018004208AF847
:1049F00002008AF8036062A0CAF8040063A0CAF843
:104A0000080065A0CAF80C0066A0CAF810001020C3
:104A1000FFF712FFCAF868000020DAF8681041F8C2
:104A20002060401CC0B20428F7D3CAF86C409AF842
:104A300002008000FFF700FFCAF8740000205C4904
:104A4000DAF8742042F82010401CC0B20428F7D3D2
:104A5000584EB560E87829781023401A4006010EB8
:104A60002A227820FCF748FE0024B0681023017841
:104A7000214400EB810042686006010E0020FCF733
:104A8000BBFEB0688078401EA04203D0641CE4B234
:104A9000042CEAD3B168012081F87000BDE8F087EA
:104AA000EC000020546573744D6F646500000000D5
:104AB000576F726B43686F6F7365000068632D7387
:104AC00072303400414400005A65726F5F53657460
:104AD0000000000046544C5F3930000046544C5FE3
:104AE000313830004654525F393000004654525F2E
:104AF0003138300046544C5F3133350046544C5FFA
:104B0000343500004654525F313335004654525F0D
:104B10003435000042544C5F343500004254525F3B
:104B20003435000052544C5F343500005254525F0B
:104B30003435000052544C5F393000005254525FFB
:104B40003930000052544C5F313335005254525FBB
:104B50003133350052544C5F313830005254525F7B
:104B60003138300047530000ED520008ED220008B4
:104B7000576F726B4D6F646500000000195C000890
:104B800057616C6B5F546573740000004C6566740C
:104B90005F576865656C000052696768745F5768A5
:104BA00065656C005475726E5F54696D6500000038
:104BB0008D53000808000020C16E002904D0002198
:104BC000017003224270C170704700002DE9F04768
:104BD00000245A485A4DC07A6870062815D2DFE87A
:104BE00000F00306090C0F1200F0BAF80DE0FFF711
:104BF000AFFD0AE000F068FE07E0FFF783FA04E08B
:104C0000FFF74EF801E000F037FB4D4FDFF834813D
:104C10000C3F0026B8684FF0010990F87010072982
:104C20002AD2DFE801F08304832D2A3C7B00FCF7C5
:104C300025FDB86810232A22C1780078081A40069A
:104C4000010E7820FCF758FDB86810230178214444
:104C500000EB810042686006010E0220FCF7CCFDEB
:104C6000B8688078401EA04203D0641CE4B2042CD3
:104C7000EAD3B86880F8706058E0FCF7FFFC55E0B4
:104C8000FCF7FCFCB868416FC07851F82000804701
:104C9000687804284AD1B86880F8709046E0B8F87F
:104CA0000600012802D0022814D015E0FCF7E6FC2B
:104CB000102325A202211420FCF79EFD102324A21C
:104CC00004212420FCF798FDB8F80600401CA8F841
:104CD00006002BE0FFF75CFBB8F80600C11E0729B1
:104CE0000ED2FCF7CBFC102317A202211420FCF7F4
:104CF00083FD102318A204212420FCF77DFD07E08A
:104D00000A2805D3687818B9A8F8066000F096FA62
:104D1000B8F80600401CA8F8060007E069780429E6
:104D200007D0416FC07851F8200080476E70BDE811
:104D3000F08788F8006080F87090F7E7A003002003
:104D400014000020B40000205361766500000000CC
:104D50004265696E67000000537563636573730095
:104D60000449C868022802D2401CC8607047072066
:104D7000FCF774BCB40000200346012000E0584357
:104D8000491EC9B2FBD27047F8B507460D46164614
:104D9000721B0A210120594CFA2A04D820700222E1
:104DA0006270A17003E0207061706421A1705349AA
:104DB0004FF07E520C314B785149062B65D2DFE81B
:104DC00003F064030830585C3868FBF7DEFB606072
:104DD0005BE04869142805D810466168FBF726FA9D
:104DE000606014E0A0F115011D2907D86078FBF779
:104DF000CCFB6168FBF71AFA606008E0322806D93C
:104E0000A078FBF7C2FB6168FBF710FA60603046E0
:104E1000FBF7BBFB07466168FBF700FC35D8676012
:104E200033E08869142805D810466168FBF753FA07
:104E3000606014E0A0F115011D2907D86078FBF728
:104E4000A4FB6168FBF747FA606008E0322806D9E6
:104E5000A078FBF79AFB6168FBF73DFA6060284693
:104E6000FBF793FB07466168FBF7E2FB0DD8676031
:104E70000BE0A16881F8700007E06068FBF78AFB2F
:104E80003860FDF771FA00F0E7F9FCF7F7FB10273F
:104E9000002104232A4608460097FCF775FC1023DE
:104EA00018A200212A20FCF7A7FC05233246002186
:104EB00050200097FCF768FCA06804221023C06E05
:104EC000C17802EB8101425802210020FCF794FCDA
:104ED000A0681023C17800EB810004214268002003
:104EE000FCF78AFC6068FBF755FB024605230621A8
:104EF00024200097FCF748FCF8BD000008000020C3
:104F0000B4000020746F000070B504460B4D286893
:104F10004460E868844206D22968686B091DBDE8D0
:104F2000704000F021BD2968286B091D00F01CFDB0
:104F3000A86A844200D2AC6270BD0000500000201C
:104F400070B5002908D00D467DB14C2000F00EF957
:104F5000044634B1256309E0800000F007F90546F6
:104F6000F2E7284600F054FD00E00024204670BD22
:104F700070B5124E124D1CE000F01AFE306820B1E0
:104F8000002400F0ADFFA4B901E00124F9E700F02E
:104F90000FFDF068C468201D00F0C6FCA868401E24
:104FA000A8606868401E686000F01EFD204600F0A2
:104FB00009F868680028DFD170BD0000C80E002025
:104FC0005000002010B50446206B00F021FD204663
:104FD000BDE8104000F01CBD4FF4C8410F48420727
:104FE00006D0C01D20F007000C49411AC1F5C84188
:104FF0000B4A1060002353600144083921F0070177
:10500000103A11604B600B600B1A436001604068FE
:10501000906050604FF00040D0607047F00E00206C
:10502000A4000020044CFFF7A3FF20680128FAD950
:1050300000F01CFDF7E70000EC0D002070B5044601
:105040001546002023180A5C83F834200A5C12B14C
:10505000401C1028F6D3002684F84360082D00D3A6
:105060000725E562201D00F07CFC04F1180000F02B
:1050700078FC2461C5F10800A0616462666484F86C
:10508000486070BD70B50024124D04EB840005EB40
:10509000800000F05BFC641C082CF6D30D48A030A7
:1050A00000F054FC0B48B43000F050FC0948C83004
:1050B00000F04CFC0748DC3000F048FC0548F030BC
:1050C00000F044FC03490448A031016314314163FA
:1050D00070BD0000EC0D00205000002030B51349D9
:1050E00000E011460A688242FBD34B685C18844298
:1050F00003D140681844486008460D684468231886
:10510000AB420DD1094B103B1B689A4206D0526846
:10511000224442600A681268026002E0036000E014
:105120000260814200D0086030BD0000A400002071
:105130000748016B0968002905D0016BC968C96877
:105140004968816270474FF0FF318162704700000B
:105150005000002004484068401C02D0FBF746F88D
:10516000FEE7FBF743F8FEE7880000202DE9F04159
:105170000546002600F01CFD294F386808B9FFF7E6
:105180002BFFF868054240D165B10835680709D0A2
:1051900005F00700C0F108000544680702D0FBF7DE
:1051A00025F8FEE78DB3786885422ED81C4910316A
:1051B0000846046801E0214604466068A84202D21D
:1051C00020680028F7D1386884421ED00E6808365F
:1051D000206808606068411B102909D960194207DE
:1051E00002D0FBF703F8FEE741606560FFF776FF4A
:1051F00061687868401A7860BA68904200D2B860F6
:10520000F868014361600020206000F069FE7007CB
:1052100002D0FAF7EBFFFEE73046BDE8F081000070
:105220009400002020384FF08073C36181610249EF
:10523000416140F820297047555100080448002179
:105240004180818003490120096881F8700070471E
:10525000B4000020100000200548102141800421E6
:10526000818004490520096881F8700070470000BA
:10527000B40000201000002070B50520FCF7EEF906
:10528000104D114CA86890F87010062916D004290A
:1052900014D0216A052902D01E2909D00EE003216D
:1052A000A180416FC07851F8200038B1804705E0F7
:1052B000FFF76EF8A968012081F87000206A401C91
:1052C000206270BD08000020B4000020F8B50C4634
:1052D00015461E468068FBF75DF9C2B204232946D5
:1052E00020460096FCF750FAF8BD000010B51F48A4
:1052F0001E4C40780C3C01280ED001221C49042889
:1053000002D0052808D105E000204871A06880F887
:10531000702001E00A724A711023002214211548FE
:10532000FFF7D4FF102300223C211348FFF7CEFFE4
:105330001023032200211148FFF7C8FF1023062283
:1053400000210F48FFF7C2FF1023032250210D4810
:10535000FFF7BCFF1023062250210B48FFF7B6FFD2
:10536000A168032081F8700010BD00001400002027
:10537000CC020020AC030020D4030020FC0300205A
:10538000240400204C040020740400202DE9F04186
:10539000FE4D0222A868C178002920D001296FD0D3
:1053A00002296ED0032927D180F87020C06E40F604
:1053B000B832C178F64800F12C031C1D251D2E1DA6
:1053C000162919D2DFE801F01818FCFBFAF9F8F7F2
:1053D000F6F5F4F3F2F1F0EFEEEDECEBEAE9EB4980
:1053E000EC4C0C314978012908D0042904D1012161
:1053F00080F8701021716170BDE8F081062180F89D
:1054000070102379042673B3C06EC078162844D276
:10541000DFE800F04343430B0D101215171A1D204F
:1054200023262A2D3033383B3E41627035E003207D
:10543000607032E0667030E0052060702DE06170D1
:105440002BE00720607028E00820607025E009202C
:10545000607022E00A2060701FE00B2060701CE08A
:105460000C20607019E01CE00D20607015E00E202B
:10547000607012E00F2060700FE0102060700CE090
:1054800022E0DBE01120607007E01220607004E091
:105490001320607001E015206070FCF7EFF8002029
:1054A00020711023BCA200212A20FCF7A5F9A868CE
:1054B0001023C06EC17806EB81014258BDE8F0416F
:1054C00002212A20FCF798B980F87020C06EB04DF8
:1054D000C17805F1440005F14C0305F15404603531
:1054E000162989D2DFE801F00B0B0C141A20272EA5
:1054F000343A41484E5571787F868D949BA27BE764
:10550000BDE8F041A248322200216C30FFF73CBCDC
:10551000BDE8F04132220021FFF736BCBDE8F04182
:1055200032220021FFF730BCBDE8F04132220021D9
:105530001846FFF729BCBDE8F04132220021184689
:10554000FFF722BCBDE8F04132220021FFF71CBC6E
:10555000BDE8F04132220021FFF716BCBDE8F04162
:10556000322200211846FFF70FBCBDE8F04132227D
:1055700000211846FFF708BCBDE8F04132220021A7
:10558000FFF702BCBDE8F041322200211846FFF7C8
:10559000FBBB32220021204613E08BE184E17DE158
:1055A00076E16FE168E161E15AE153E14BE143E10A
:1055B0003BE133E12BE123E11BE113E10CE105E1E8
:1055C000E2E0BDE8F041FFF7DFBB2846BDE8F0416F
:1055D00032220021FFF7D8BB2046BDE8F04132223D
:1055E0000021FFF7D1BB2846BDE8F041322200215F
:1055F000FFF7CABB2046BDE8F04132220021FFF789
:10560000C3BB2846BDE8F04132220021FFF7BCBBF6
:105610002046BDE8F04132220021FFF7B5BB284605
:10562000BDE8F04132220021FFF7AEBBBDE8F041FA
:105630005748322200216430FFF7A6BB80F8702063
:10564000C06E534DC17805F1480005F1500305F1D6
:1056500058045C351629BFF452AFDFE801F00B0B9C
:105660000C141A20272E343A41484E555C636A7157
:10567000787F868DC0E6BDE8F041454832220021A2
:105680007030FFF781BBBDE8F04132220021FFF707
:105690007BBBBDE8F04132220021FFF775BBBDE8BE
:1056A000F041322200211846FFF76EBBBDE8F04101
:1056B000322200211846FFF767BBBDE8F0413222D5
:1056C0000021FFF761BBBDE8F04132220021FFF766
:1056D0005BBBBDE8F041322200211846FFF754BB06
:1056E000BDE8F041322200211846FFF74DBBBDE86E
:1056F000F04132220021FFF747BBBDE8F0413222E2
:1057000000211846FFF740BB2046BDE8F041322299
:105710000021FFF739BB2846BDE8F04132220021C5
:10572000FFF732BB2046BDE8F04132220021FFF7EF
:105730002BBB2846BDE8F04132220021FFF724BBF5
:105740002046BDE8F04132220021FFF71DBB28466C
:10575000BDE8F04132220021FFF716BB2046BDE82C
:10576000F04132220021FFF70FBB2846BDE8F0418F
:1057700032220021FFF708BBBDE8F0410448322285
:1057800000216830FFF700BB0AE00000080000209D
:10579000F0020020CC02002054657374696E67002B
:1057A0004FF4FA61416081608161C161C160016251
:1057B000416241618162C162016341638163C1638E
:1057C000FCF7D2FDBDE8F041FFF746BDBDE8F04172
:1057D000C821001DFFF7D8BABDE8F041C8213948FB
:1057E000FFF7D2BABDE8F0413648C8211030FFF7C4
:1057F000CBBABDE8F0413348C8211430FFF7C4BA32
:10580000BDE8F0412F48C821001DFFF7BDBABDE833
:10581000F0412C48C8210830FFF7B6BABDE8F04186
:105820002848C8211830FFF7AFBABDE8F041254835
:10583000C8211C30FFF7A8BABDE8F0412148C821B3
:105840000C30FFF7A1BABDE8F0411E48C821203056
:10585000FFF79ABABDE8F041C8211846FFF794BA9D
:10586000BDE8F041C8211846FFF78EBA2046BDE8D2
:10587000F041C821FFF788BA2046BDE8F041C821B1
:10588000FFF782BA2846BDE8F041C821FFF77CBA8D
:105890002846BDE8F041C821FFF776BA3046BDE89A
:1058A000F041C821FFF770BA3046BDE8F041C82189
:1058B000FFF76ABABDE8F0410248C8213430FFF76B
:1058C00063BA0000F802002010B50220FBF7C6FE04
:1058D0001348144C806890F87010022918D00629DB
:1058E00016D0042914D0C17851B1491ECAB2C27071
:1058F00001788A4204D2491E01704178491E4170E4
:10590000012180F87010A1806069401C606110BDA9
:10591000416FC07851F820000028F5D08047F3E7A8
:1059200008000020B40000200169D0E901329A602B
:10593000D0E901235A604A68824201D182684A60F4
:10594000002202610868401E0860704700F10801EB
:1059500041604FF0FF328260C1600161002101604F
:10596000704700210161704730B50C68621C02D09D
:1059700000F1080202E0026904E01A4653681D685B
:10598000A542FAD953684B6099608A6051600861FA
:105990000168491C016030BD42684A6093688B60B1
:1059A00093685960916008610168491C0160704703
:1059B00010B5FAF71BFC0A484168491C4160BFF367
:1059C0004F8FBFF36F8F4068012807D105480068EB
:1059D00010F0FF0F02D0FAF709FCFEE710BD00003F
:1059E0008800002004ED00E010B508494868002850
:1059F00007D0401E4860002806D1BDE81040FAF7E5
:105A0000FCBBFAF7F3FBFEE710BD000088000020A6
:105A100070B500281DD0083804460E4D6068E9684E
:105A2000084202D1FAF7E2FBFEE7226812B1FAF768
:105A3000DDFBFEE78843606000F0BAF860686968E3
:105A4000084468602046FFF749FBBDE8704000F05D
:105A500047BA70BD940000204FF0E0200249416138
:105A600007210161704700003F19010004494FF010
:105A700080500860BFF34F8FBFF36F8F70470000F7
:105A800004ED00E070B502460020002A1BD0114C46
:105A9000E06A10B1FAF7AAFBFEE700F089F8E068C7
:105AA00085182068001DFFF73FFF38B9206890F87F
:105AB0002C10012088402169814321612846FFF78D
:105AC00023FA00F00DFA002803D1BDE87040FFF77B
:105AD000CDBF70BD5000002070B505460C460022B9
