:020000040800F2
:10000000C8720020090200087D1500082D1500089F
:100010007B150008F50C00088F2100080000000087
:100020000000000000000000000000006501000862
:10003000470E000800000000A9010008211A00086E
:1000400023020008230200082302000823020008FC
:1000500023020008230200082302000823020008EC
:100060002302000823020008490E000823020008AA
:1000700023020008230200082302000823020008CC
:1000800023020008230200082302000823020008BC
:10009000230200082302000823020008A50F00081D
:1000A000230200082302000823020008230200089C
:1000B0002302000823020008E11B000823020008B5
:1000C000230200082302000823020008230200087C
:1000D00023020008F91F0008230200082302000879
:1000E0002302000823020008230200080000000089
:1000F0000000000000000000000000000000000000
:100100000000000000000000230200082302000895
:10011000230200082302000823020008230200082B
:10012000230200082302000823020008230200081B
:10013000230200082302000823020008230200080B
:1001400023020008230200082302000823020008FB
:10015000DFF80CD000F062FB00480047F16B0008AC
:10016000C8720020204B19680868B0E8F00F80F3CF
:100170000988BFF36F8F4FF0000080F311884EF0B5
:100180000D0E70470000000006480068006880F30C
:10019000088862B661B6BFF34F8FBFF36F8F00DF81
:1001A00000BF00BF08ED00E0EFF30980BFF36F8FE1
:1001B0000D4B1A6820E9F00F106008B54FF01000E1
:1001C00080F3118808F092F84FF0000080F3118856
:1001D000BDE8084019680868B0E8F00F80F30988A6
:1001E000BFF36F8F704700BF5C000020EFF31180FA
:1001F0004FF0100181F31188704780F31188704728
:10020000EFF3058070470000064880470648004726
:10021000FEE7FEE7FEE7FEE7FEE7FEE7FEE7FEE7B6
:10022000FEE7FEE7451A000851010008F0B480EA35
:100230000102D40F4200B2EB410F02D2024608463F
:1002400011464A0042D0C30DDDB2C1F3C752AD1A08
:10025000202D35DAC1F3160141F4000204B15242F7
:10026000C5F1200602FA06F12A411044B3EBD05F33
:1002700023D0C4B1012DA0EBC35009DCF0BC4FF07A
:10028000004202EAC352DBB200F5000000F03ABAC5
:10029000400000F1807000EBC350A0F1807040EA94
:1002A000D170490009E0490841EAC071A0EBC35090
:1002B00000F50000400800EBC350F0BC00F019BA94
:1002C0006142012202EB4101001BF6E7F0BC7047DE
:1002D00081F00041AAE780F00040A7E780EA010230
:1002E00010B502F00043400022D04A001FD0010E9A
:1002F00001EB1261C0F35600C2F3560240F4000055
:1003000042F40002A0FB022000047F39140400D054
:10031000401C50EA124001D44000491EC2B20C06F3
:1003200004EBD010401C4008802A02D003E00020DB
:1003300010BD20F00100002900DA0020184310BD94
:10034000420005D0C0F3C7525242914201DC002066
:10035000704700EBC15070472DE9FE4F804681EA9F
:100360000300C00F0C46009021F0004123F000452F
:10037000B8EB0200A94105D24046214690461C46F2
:100380000B46024623F00040104347D0270DC7F329
:100390000A00C3F30A510290401A019040286BDA18
:1003A000C3F3130040F4801B0098924620B1002351
:1003B000D2EB030A63EB0B0B01985946C0F14002E4
:1003C000504600F065F906460D4650465946019ADA
:1003D00000F07DF910EB08006141002487EA11521A
:1003E00084EAE7731A4340D0009A62B3019A012A63
:1003F0004FEA075215DC001B61EB02014FF000428F
:1004000002EA0752CDE90042001C41F58011324654
:100410002B4600F0B4F903B0BDE8F08F404621460A
:10042000F9E7001B61EB0201001C41F58013001885
:100430005B412018A2F5001747EB030140EAD57095
:10044000B6196D4111E06D084FEA360645EAC075F0
:100450004FEA0752001B61EB0201001C41F58011BD
:1004600049084FEA30000019514132462B4603B08B
:10047000BDE8F04F00F074B900980122400000235D
:10048000D0EB020263EBE073009821464FEAE07480
:10049000B8EB000061EB0401E9E783F000435BE7A0
:1004A00081F0004158E72DE9FE4F81EA030404F092
:1004B000004421F0004100944FF0000B23F0004372
:1004C00050EA01045ED052EA03045BD0C3F30A543D
:1004D000C1F30A552C44A4F2F3340194A0FB025456
:1004E000C1F3130141F48011C3F3130343F48013E8
:1004F00001FB024400FB034E840A970A44EA81543C
:1005000047EA8357A4FB076802958D0A05FB078518
:100510004FEA932C04FB0C542705029D4FEA065822
:1005200047EA1637B5EB08056EEB070C870E920EFF
:1005300047EA811742EA8312A7FB0201B6EB0B01DF
:1005400064EB00042B0D43EA0C335E1844EB1C50A3
:10055000DA465146E7FB0201C5F313044FEA0B33B9
:1005600043EA14534FEA0432019C43EA0603A4F120
:100570000C040294009CCDE900B400F000F903B033
:10058000BDE8F08F00200146F9E7962300221146CE
:1005900000F0B8B80EB540F2334102910021CDE928
:1005A00000110A460B4600F0EAF803B000BD20F047
:1005B0000040C10DC0F3160040F400007F2901DAAD
:1005C00000207047962903DCC1F19601C8407047AE
:1005D000963988407047C1F30A5210B5C1F3130130
:1005E00040F2FF3341F480119A4201DA002010BD3D
:1005F00040F233439A42A2F2334203DC524200F00B
:1006000056F810BD904010BD00F0004230F00040A0
:100610000AD0C10D01F56071C0F3160042EA015124
:10062000C20840071143704700200146704701F09F
:10063000004330B421F0004150EA010206D00A0D17
:10064000A2F56072C1F31301002A02DC30BC002065
:100650007047440F44EAC104C100E01830BC00EB0D
:10066000C25000F046B80000002801DBC0F1004095
:10067000002901DBC1F1004181427047002801DB04
:10068000C0F10040002901DBC1F100418842704700
:10069000202A04DB203A00FA02F100207047914042
:1006A000C2F1200320FA03F3194390407047202A37
:1006B00004DB203A21FA02F00021704721FA02F30C
:1006C000D040C2F120029140084319467047202AC9
:1006D00006DBCB17203A41FA02F043EAE07306E06A
:1006E00041FA02F3D040C2F120029140084319467A
:1006F00070470029A8BF7047401C490008BF20F080
:100700000100704710B4B0FA80FC00FA0CF050EA17
:10071000010404BF10BC704749B1CCF1200421FA98
:1007200004F411FA0CF118BF012121430843A3EB93
:100730000C01CB1D4FEA00614FEA102042BF0020A0
:1007400010BC704700EBC35010440029A4BF10BC7C
:100750007047401C490008BF20F0010010BC7047E2
:1007600010B5141E73F1000408DA401C41F10001B9
:1007700092185B411A4301D120F0010010BD2DE910
:10078000F04D92469B4611B1B1FA81F202E0B0FA07
:1007900080F220329046FFF77BFF04460F4640EA86
:1007A0000A0041EA0B0153465A46084313D011464A
:1007B00053EA010019D0C8F140025046FFF777FF15
:1007C00005460E46504659464246FFF761FF08432C
:1007D00005D0012004E020463946BDE8F08D002018
:1007E000054346EAE0762C4337430A986305E40A5A
:1007F000A0EB08000022FD0A44EA47540A3002D563
:1008000000200146E9E7010510196941DDE90845C5
:1008100000196941BDE8F04DA2E70000064C074D04
:1008200006E0E06840F0010394E8070098471034C0
:10083000AC42F6D3FFF790FC80910008A09100082D
:10084000002904D0816841F001018160704781680E
:1008500021F001018160704730B591B00121084657
:1008600000F0EEFF3E4D284600F054FA3D4801905E
:100870003D4802900024039428210491059480218E
:1008800006914900079188000890202009900002F5
:100890000A900B9401A9284600F0B8FA01212846D5
:1008A00000F02AFA0121480200F0E6FF00212F485B
:1008B00000F029F900212E4800F025F900212D48EB
:1008C00000F021F900212C4800F01DF90C940120C2
:1008D0008DF834008DF835004FF460200E900F94A1
:1008E00002208DF840001F4C0CA94C3C204600F023
:1008F0005FF8052301220A21204600F07DF8052338
:1009000002220B21204600F077F8052303220C2158
:10091000204600F071F8052304220D21204600F046
:100920006BF80121204600F029F801212046FFF74D
:1009300087FF204600F09AF8204600F032F80028A1
:10094000FAD1204600F0A3F8204600F023F8002852
:10095000FAD10121204600F08EF811B030BD000020
:10096000080002404C240140C0060020D890000836
:10097000E0900008E8900008F0900008002904D0FA
:10098000816841F4807181607047816821F48071D1
:1009900081607047014600208968490700D5012021
:1009A0007047014600208968090700D5012070477B
:1009B00010B542680E4B1A400C790B6842EA0422CB
:1009C0001343436082680B4B1A40D1E9024323432F
:1009D0004C7942EA440213438360C26A22F47002F3
:1009E000097C491EC9B242EA0151C16210BD000032
:1009F000FFFEF0FFFDF7F1FF70B5072609290AD9C0
:100A0000C568A1F10A0404EB4404A640B543A34021
:100A10001D43C56007E0056901EB4104A640B543ED
:100A2000A3401D4305611F23072A09D2446B521EB0
:100A300002EB820293409C4391400C43446370BD9F
:100A40000D2A09D2046BD21F02EB820293409C4311
:100A500091400C43046370BDC46A0D3A02EB8202FC
:100A600093409C4391400C43C46270BD816841F047
:100A7000080181607047002904D0816841F4A00119
:100A800081607047816821F4A001816070478168AE
:100A900041F00401816070472DE9FE430746884616
:100AA00016461D462821384600F02DF8012108463B
:100AB00000F0E2FE384600F02EFCC4B2384600F0EA
:100AC00077FC214600F036FB384600F0D4FB00905E
:100AD00000208DF804008DF8058001248DF8064073
:100AE000684600F077FA384600F094FC8DF808006C
:100AF0008DF809608DF80A508DF80B4002A800F0BF
:100B00003FFDBDE8FE8338B504460D46204600F0A3
:100B10000DF8A088ADF800008DF8035003208DF883
:100B200002006946206800F019FB38BD124A0168CE
:100B3000914201D104201CE0104A914201D10820C9
:100B400017E00F4A914201D1102012E00D4A914264
:100B500001D120200DE00C4A914201D1402008E053
:100B60000A4A914201D1802003E0094A914200D112
:100B70008815012100F080BE00080140000C0140F2
:100B8000001001400014014000180140001C014009
:100B9000002001402DE9FF4180460A9F0C46164681
:100BA0001D46404600F028F8ADF80840ADF8046056
:100BB0000021ADF80610ADF80A1001A9404601F079
:100BC000CDF901221146404601F05EF80121404670
:100BD00001F042F8404601F089F98DF800008DF8E7
:100BE00001508DF8027001208DF80300684600F076
:100BF000C7FCBDE8FF8100003149884203D10121D3
:100C0000C01400F039BEB0F1804F06D02D498842A3
:100C100007D10121022000F021BE0121084600F089
:100C20001DBE2949884203D10121042000F016BECF
:100C30002649884203D10121082000F00FBE244933
:100C4000884203D10121102000F008BE21498842CA
:100C500003D10121202000F001BE1F49884203D1A9
:100C60000121401400F008BE1C49884203D1012133
:100C7000C80400F001BE1A49884203D101210805C9
:100C800000F0FABD1749884203D10121480500F060
:100C9000F3BD1549884203D10121402000F0DEBD9B
:100CA0001249884203D10121802000F0D7BD1049AC
:100CB000884203D10121801500F0D0BD70470000AB
:100CC000002C01400004004000080040000C0040DF
:100CD000001000400014004000340140004C01406E
:100CE000005001400054014000180040001C00402A
:100CF00000200040FEE77047002904D0016841F061
:100D000001010160704701684FF6FE7211400160F9
:100D10007047000001684FF6FE721140016000212B
:100D2000016041608160C1603649364A08399042AD
:100D300004D1486840F00F0048607047314A1432CF
:100D4000904204D1486840F0F000486070472D4A56
:100D50002832904204D1486840F47060486070477F
:100D6000284A3C32904204D1486840F470404860C0
:100D70007047244A5032904204D1486840F47020B1
:100D8000486070471F4A6432904204D1486840F47A
:100D90007000486070471B4A7832904204D148681E
:100DA00040F0706048607047174A111F904204D1AC
:100DB000086840F00F0008607047134A14329042F0
:100DC00004D1086840F0F000086070470E4A2832ED
:100DD000904204D1086840F47060086070470A4A85
:100DE0003C32904204D1086840F47040086070477B
:100DF000054A50329042FAD1086840F470200860E9
:100E000070470000080002400804024030B5026844
:100E100047F6F0739A430C6A8B682343D1E9044583
:100E20002C4323438C692343CC6923434C6A2343DB
:100E30008C6A234313430360CA6842600A68826075
:100E40004968C16030BD704710B50C4800F013FA16
:100E500000F0B0F8002810D009480078012805D12A
:100E60000849094801F044FE06498860034800F03B
:100E700002FABDE8104000F097B810BD20910008BC
:100E80002C000020A80500200008004070B53D4857
:100E900000F0F1F900F08EF83B4C3C4D78B1207831
:100EA000022805D13A49284601F022FE38498860D7
:100EB000344800F0E0F9BDE8704000F075B83548FE
:100EC00000F0D9F900F076F888B12078032807D12E
:100ED0002F492846283101F00BFE2D492831886022
:100EE0002C4800F0C8F9BDE8704000F05DB82A4811
:100EF00000F0C1F900F05EF888B12078042807D12D
:100F000023492846503101F0F3FD214950318860D2
:100F1000214800F0B0F9BDE8704000F045B81F4826
:100F200000F0A9F900F046F888B12078052807D12B
:100F300017492846783101F0DBFD15497831886082
:100F4000164800F098F9BDE8704000F02DB814483C
:100F500000F091F900F02EF8002811D02078062832
:100F600007D10B492846A03101F0C2FD0849A03144
:100F700088600B4800F07FF9BDE8704000F014B8BD
:100F800070BD0000289100082C00002000080040DF
:100F9000D0050020309100083891000840910008E9
:100FA00048910008FFF772BF0149086070470000D0
:100FB0001404014001460020054A12680A40044B0F
:100FC00014331B680B4202D0002A00D00120704766
:100FD0000004014030B51B4A83790168002B2AD0F8
:100FE00013688B431360111D0B680468A3430B60E7
:100FF000017911440B68046823430B60114C0834D9
:101000002168036899432160231D19680568A94375
:1010100019604179102905D011440A68006802431B
:101020000A6030BD216802681143216019680068B8
:101030000143196030BD0079104402688A430260A0
:1010400030BD0000000401400149C8607047000045
:101050000020024070B505464FF43026304600F0BF
:1010600059F8042811D1094C206940F00200206190
:101070006561206940F040002061304600F04AF888
:10108000216941F6FD721140216170BD00200240CE
:1010900004200849CA68D20701D001207047CA68F5
:1010A000520701D502207047C968C906FBD5032045
:1010B00070470000002002400248016941F08001B1
:1010C0000161704700200240F0B506460D464FF41E
:1010D0000057384600F01EF804280CD1064C206951
:1010E00040F0010020613580384600F013F8216996
:1010F000BA1E11402161F0BD0020024003480249A0
:101100004160034941607047230167450020024068
:10111000AB89EFCD00B50346FFF7BAFF02E0FFF75A
:10112000B7FF5B1E012801D1002BF8D1002B00D1A5
:10113000052000BD10B58A07120F0F23934021F040
:101140000304054921448C689C438C608B68904063
:1011500003438B6010BD0000000001402DE9F04109
:101160000022CC7804F00F03E40601D58C782343E9
:101170000C784FF00F0714F0FF0F4FF0010C1CD04C
:1011800005680CFA02F40E882640A64211D196009A
:1011900007FA06F825EA080503FA06F848EA0505FD
:1011A000CE78282E02D0482E02D002E0446100E022
:1011B0000461521C082AE4D305600A88FF2A1ED95C
:1011C0004568002202F108060CFA06F40E88264053
:1011D000A64210D1960007FA06F825EA080503FA98
:1011E00006F848EA0505CE78282E00D14461CE786D
:1011F000482E00D10461521C082AE3D34560BDE8A3
:10120000F0810000F0B5154C002801DAE36900E038
:101210006368C0F30346420D120185B2C0F3015763
:101220009540032F07D0C2020CD50322B24093434E
:1012300043F0706209E023F07062636823F070632A
:10124000636002E0AB4343F0706201B12A430028BF
:1012500001DAE261F0BD6260F0BD00000000014013
:101260000246002092680A4200D001207047416186
:1012700070470161704741684FF4807291423ED0DF
:1012800014DC102935D009DC01292CD002292CD0FE
:1012900004292CD0082900D10820704720292AD001
:1012A00040292AD08029F8D1802070474FF48052FD
:1012B00091422AD00BDC4FF40072914221D05200AF
:1012C000914220D052009142EFD1104670474FF426
:1012D000005291421BD0520091421AD052009142CA
:1012E000F4D1104670470120704702207047042057
:1012F00070471020704720207047402070471046EC
:1013000070471046704710467047104670471046A9
:101310007047104670474168B1F5807F3BD014DCC0
:10132000102932D009DC012929D0022929D0042929
:1013300029D0082900D103207047202927D040292F
:1013400027D08029F8D107207047B1F5805F28D0D9
:101350000ADCB1F5007F20D0B1F5806F1FD0B1F568
:10136000006FF1D10B207047B1F5005F1BD0B1F5D4
:10137000804F1AD0B1F5004FF5D10F2070470020F3
:1013800070470120704702207047042070470520F5
:1013900070470620704708207047092070470A20D0
:1013A00070470C2070470D2070470E2070470000DA
:1013B000114A0168914201D1002070470F4A9142C1
:1013C00001D1012070470E4A914201D1022070479D
:1013D0000C4A914201D1032070470B4A914201D13E
:1013E00004207047094A914201D105207047084AFC
:1013F0009142FBD10620704700080140000C0140DB
:10140000001001400014014000180140001C014080
:10141000002001404168B1F5807F3BD014DC1029E9
:1014200032D009DC012929D0022929D0042929D068
:10143000082900D109207047202927D0402927D02A
:101440008029F8D117207047B1F5805F28D00ADCD9
:10145000B1F5007F20D0B1F5806F1FD0B1F5006FDE
:10146000F1D128207047B1F5005F1BD0B1F5804F56
:101470001AD0B1F5004FF5D12820704706207047EB
:1014800007207047082070470A20704717207047D0
:101490001720704717207047172070472820704783
:1014A00028207047282070472820704708B507F08B
:1014B00047F900900B4D0C4E0C4F0D4C64216846C3
:1014C00006F0A0FED5F89C01C043C5F89C01D4E904
:1014D000000132463B46FEF73FFFC4E9000105F03C
:1014E00093FEEBE7008022429A9999999999B93F26
:1014F000000000201FB500F017F800200649CDE9D4
:1015000001100222034600920390120203A1054833
:1015100007F09CF81FBD0000EC000020574F524B15
:1015200000000000AD14000805F0A2BB06A30020D7
:10153000104C211F1A5C22800A885206FCD5401CE0
:10154000C0B22A28F6D3FEE70D0A456E74657220F4
:10155000486172644661756C745F48616E646C6565
:10156000722C2053797374656D2048616C742E0D54
:101570000A000000043801407047FEE77047000091
:1015800070B50F23C27801260178002A1ED0144AB4
:10159000126802F4E062C2F5E062120AC2F10404C9
:1015A000D3404578A54082781A402A43120101F1C0
:1015B000E02181F80024007800F01F018E404009EE
:1015C000800000F1E020C0F8006170BD01F01F0054
:1015D00086404809800000F1E020C0F8806170BDBD
:1015E0000CED00E002490843024908607047000022
:1015F0000000FA050CED00E010B50021054B0022BB
:10160000814202D003EB8104E260491CC9B2062981
:10161000F6D310BDC000002070B5002505F1B00064
:10162000C0B2002100F0D2F80021084600F0CEF848
:101630000021102000F0CAF800240121002000F051
:10164000C5F8641CE4B2802CF7D36D1CEDB2082DF4
:10165000E4D370BD002205E00021491CC9B206296F
:10166000FBD3521C8242F7D3704710B50446B03109
:10167000C8B2002100F0AAF8102040EA141000219E
:1016800000F0A4F804F00F00BDE81040002100F0C5
:101690009DB800002DE9F04180460F460024203A15
:1016A000D5B2B8F17F0F02D9A046BF1CFFB2102BF4
:1016B00012D039464046FFF7D8FF184905EB4500E0
:1016C00001EB40050121285D00F080F8641CE4B2C4
:1016D000062CF7D3BDE8F08139464046FFF7C5FF39
:1016E0000F4E04EB05100121305C00F06FF8641C14
:1016F000E4B2082CF5D37F1CF9B24046FFF7B5FFE2
:10170000002404EB051030440121007A00F05EF85B
:10171000641CE4B2082CF4D3DCE70000C0880008A5
:10172000E88A00082DE9F05F8046DDF828A08B46A6
:1017300091461D46002600244FEA5A071DE0281B4B
:10174000401EC1B20A2005F035FEB9FBF0F00A21B7
:10175000B0FBF1F201FB120026B9691E8C4201DADE
:1017600078B101263030C2B207FB0480C0B25346C4
:101770005946FFF78FFF641CE4B2AC42DFD3BDE8EB
:10178000F09F07FB0480C0B2534620225946FFF762
:1017900081FFF0E72DE9F04104460E4617469846D2
:1017A00000250DE0434631462046FFF773FF08341D
:1017B000E4B2782C02D90024B61CF6B26D1CEDB24E
:1017C0007A5D002AEED1BDE8F08100002DE9F047F6
:1017D0000546DFF864904FF48068002904D0414644
:1017E0004846FFF746FD03E041464846FFF73FFD08
:1017F0000024124F4FF4006631463846FFF737FD9C
:10180000280604D541463846FFF733FD03E041463C
:101810003846FFF72CFD31463846FFF72AFD6806AB
:10182000050E641CE4B2082CE6D341464846BDE8E8
:10183000F047FFF71EBD00000010014000140140FA
:10184000054A002903D0516901435161704751692C
:10185000814351617047000000100240054A002991
:1018600003D0D1690143D1617047D1698143D1610E
:101870007047000000100240054A002903D091691A
:101880000143916170479169814391617047000004
:101890000010024010B5264A516801F00C01254B9A
:1018A000002927D0042927D0082927D003605168B0
:1018B00001F0F0010909204B5C5C0168E1404160E6
:1018C000546804F4E064240A1C5D21FA04F4846082
:1018D000546804F46054E40A1B5DD940C160526846
:1018E00002F44042920B144B1B1F9A5CB1FBF2F1C5
:1018F000016110BD0360DAE70360D8E7516801F4C5
:101900007011536803F48033022404EB914133B126
:1019100053689B0307D5094B59430160C7E7074B41
:1019200059430160C3E7034B59430160BFE700001F
:101930000010024000127A004C00002000093D0017
:1019400008B501210820FFF797FF03208DF802005A
:1019500010208DF803000420ADF80000694602480D
:10196000FFF7FCFB08BD0000000C0140AFF3008056
:101970000CB50022019200922748016841F48031A1
:1019800001604FF4A063016801F4003100910199F6
:10199000491C0191009911B901999942F3D101684B
:1019A000890302D50121009100E0009200990129EC
:1019B00030D11A490A6842F010020A600A6822F01F
:1019C00003020A600A6842F002020A60416841604C
:1019D00041684160416841F480614160416821F49F
:1019E0007C114160416841F4E8114160016841F0B7
:1019F0008071016001688901FCD5416821F0030113
:101A00004160416841F0020141604168C1F38101D8
:101A10000229FAD10CBD0000001002400020024053
:101A200010B5FEF7E3FB06F091FE18B104494FF044
:101A300080500860BDE810400020FEF7DEBB0000CB
:101A400004ED00E010B50F48016841F001010160AC
:101A500041680D4A1140416001680C4A1140016023
:101A6000016821F480210160416821F4FE01416098
:101A70004FF41F018160FFF779FF05494FF00060C7
:101A8000086010BD001002400000FFF8FFFFF6FEE6
:101A900008ED00E038B501210220FFF7DFFE01214B
:101AA0001020FFF7E9FE01211248FFF7ABFB4FF4CE
:101AB0007070ADF8000018258DF8035003248DF8E0
:101AC000024069460C48FFF749FB01210846FFF731
:101AD000C5FE01210420FFF7CFFE0120ADF8000074
:101AE0008DF803508DF8024069460448FFF736FB35
:101AF00038BD0000000C1A00001001400008014031
:101B00002DE9F04387B04FF48277FA25782640F626
:101B10007F40ADF8140040F2C110ADF81000002471
:101B2000ADF81640ADF812404FF0804804A9404689
:101B300000F014FADFF8A49004A9484600F00EFA69
:101B40006020ADF800000120ADF80200ADF80840BB
:101B5000ADF806406946484600F0A0F8082148461E
:101B600000F0E0F8ADF806406946484600F0E0F8BD
:101B70000821484600F020F9ADF80670694648464D
:101B800000F024F90821484600F062F9ADF806504B
:101B90006946484600F062F90821484600F092F98B
:101BA000ADF806606946404600F078F808214046E6
:101BB00000F0B8F80121404600F03CF80121484609
:101BC00000F038F80121404600F046F8012148466F
:101BD00000F042F807B0BDE8F083000000040040C8
:101BE00010B5124C0121204600F042F800281CD00C
:101BF0000121204600F02DF80D484168491C416044
:101C000028304168491C416028304168491C4160C6
:101C100028304168491C416028304168491C4160B6
:101C200000F128014868401C486010BD00080040D1
:101C3000A8050020002904D0018841F0800101801E
:101C40007047018821F0800101807047C9430182FB
:101C50007047C94301827047002904D0018841F0D0
:101C6000010101807047018821F001010180704766
:101C700002460020138A0B4092890A40002B02D0B2
:101C8000002A00D001207047002A03D082890A432D
:101C90008281704782898A438281704730B5028C85
:101CA00022F001020284028C8388048B24F07004E9
:101CB00024F003050C882C4322F002020D89154301
:101CC0004A882A43124DA8420BD0124DA84208D090
:101CD000114DA84205D0114DA84202D0104DA84286
:101CE0000FD122F008054A892A4322F004058A8888
:101CF0002A4323F4807323F400738D891D43CB8919
:101D00002B4383800483C9888186028430BD000010
:101D1000002C0140003401400040014000440140DB
:101D200000480140028B22F008020A4302837047F8
:101D300070B5028C22F010020284028C8388048B1E
:101D400024F4E04424F440760D884FF6FF7404EA4E
:101D50000525354322F020020E8904EA06161643B3
:101D60004A8804EA02123243114EB04202D0114EA8
:101D7000B04217D122F080024E8904EA06161643BB
:101D800026F040068A8804EA0212324323F4806374
:101D900023F400638E8904EA86061E43CB8904EA95
:101DA0008303334383800583C9880187028470BD20
:101DB000002C014000340140028B22F400624FF6F7
:101DC000FF7303EA012111430183704770B5028C50
:101DD00022F480720284028C8388848B24F0700445
:101DE00024F003040D88254322F400720E894FF677
:101DF000FF7404EA062616434A8804EA02223243A4
:101E0000114EB04202D0114EB04217D122F40066FA
:101E10004A8904EA0222324322F480668A8804EA6C
:101E20000222324323F4805323F400538E8904EAC0
:101E300006161E43CB8904EA03133343838085834C
:101E4000C9888187028470BD002C014000340140A4
:101E5000828B22F008020A438283704770B5028C9D
:101E600022F480520284058C8288838B23F4E04321
:101E700023F440760C884FF6FF7303EA04243443BE
:101E800025F400550E8903EA06362E434D8803EAF1
:101E900005353543094EB04202D0094EB04205D156
:101EA00022F480468A8903EA821232438280848344
:101EB000C988A0F84010058470BD0000002C0140C6
:101EC00000340140828B22F400624FF6FF7303EA74
:101ED00001211143818370478186704701877047D4
:101EE00081877047A0F84010704700000146B1F1AB
:101EF000804F04D0124A914203D11D2070471C200C
:101F00007047104A914201D11E2070470E4A9142FB
:101F100001D1322070470D4A914201D136207047DD
:101F20000B4A914201D1372070470A4A914201D1B0
:101F300019207047084A9142FBD12C2070470000BD
:101F40000004004000080040000C00400010004069
:101F500000140040002C01400034014030B50288DC
:101F60001B4C1C4DA0420DD0A8420BD0B0F1804FAD
:101F700008D0194B984205D0184B984202D0184B04
:101F8000984203D122F070034A881A43154B9842B5
:101F900006D0154B984203D022F44073CA881A43E6
:101FA00002808A8882850A880285A0420AD0A842D7
:101FB00008D00E4A904205D00D4A904202D00D4AF8
:101FC000904201D1097A01860121818230BD000051
:101FD000002C014000340140000400400008004093
:101FE000000C004000100040001400400040014080
:101FF000004401400048014010B50A4C40F2255110
:10200000204600F026F800280AD0204600F0BAF852
:10201000054908702021204600F014F80028F9D165
:1020200010BD00000038014047000020002904D006
:10203000818941F4005181817047818921F40051E7
:10204000818170470246002012880A4200D0012098
:10205000704770B5002440F66A12C1F3421301F0D4
:102060001F05012606FA05F2012B0CD0022B0DD01C
:10207000838A1340090A8E40008830400BB100B1BA
:102080000124204670BD83891340F3E7038A13407F
:10209000F0E710B540F66A13C1F3421301F01F04D4
:1020A0000121A140012B07D0022B07D014303AB1F7
:1020B00002680A43026010BD0C30F8E71030F6E702
:1020C00002688A43026010BD30B585B004460D46F3
:1020D000208A4CF6FF710840E98801432182A089DB
:1020E0004EF6F3110840A9882A8911436A890243F0
:1020F0001143A181A08A4FF6FF410840A9890143FD
:10210000A1826846FFF7C6FB1D48844201D10398AF
:1021100000E00298A189090408D500EBC00101EB99
:10212000001029684900B0FBF1F007E000EBC001A6
:1021300001EB001029688900B0FBF1F06422B0FBCC
:10214000F2F109010B096FF018056B4300EB8300F6
:10215000A3891D044FF0320307D503EBC000B0FB89
:10216000F2F000F00700084306E003EB0010B0FBBC
:10217000F2F000F00F000843208105B030BD0000F0
:10218000003801408088C0F3080070477047FEE7C0
:1021900002E008C8121F08C1002AFAD17047704730
:1021A000002001E001C1121F002AFBD1704700008E
:1021B00038B51A48194C4078103C01280ED001223D
:1021C0001749042802D0052808D105E000204871ED
:1021D000E06880F8702001E00A724A71002310253F
:1021E0001A4619460F48009500F026F801230022F0
:1021F00050210C48009500F01FF810230AA2062178
:102200001846FFF7C7FA102309A206215020FFF74E
:10221000C1FAE168032081F8700038BD1800002081
:10222000B8040020380000204C454654000000004F
:102230005249474854000000F8B50C46069E154622
:1022400050F82300FEF7B3F9C2B204232946204612
:102250000096FFF767FAF8BD4FF08042012807D0DB
:10226000022809D000280BD100211046FFF734BE08
:1022700089B21046FFF730BE89B21046FFF72CBE78
:1022800070470000094A032807D0042809D0002815
:102290000BD100211046FFF725BE89B21046FFF78B
:1022A00021BE89B21046FFF71DBE704700040040F2
:1022B000094A012807D0022809D000280BD10021A3
:1022C0001046FFF70DBE89B21046FFF709BE89B26E
:1022D0001046FFF705BE70470004004070B50124AA
:1022E000064E074D06EB840105EB4400022203F085
:1022F00063FD641CE4B21D2CF4D370BDEC0400201B
:102300000030030870B50024064E074D06EB84012B
:1023100005EB4400022203F067FD641CE4B21D2CAF
:10232000F4D370BDEC0400200030030810B503F0B6
:10233000D8FC03F089FF00F025F8FFF7DBF803F085
:102340005DFC03F031FB00F011FC00F0E3FABDE8A6
:10235000104002F079BB0000084A094B0128D26EF8
:1023600006D0022809D1501A81B21846FFF7B4BD31
:10237000501881B21846FFF7AFBD7047EC0400203B
:102380000004004010B52248022101604FF4FA61B8
:10239000416081608161C16140F67C12C26001616F
:1023A00040F6DA220262416240F29B42426182625E
:1023B00040F20D12C2624FF4D27202634FF41E72E9
:1023C000426340F279328263C16301640621416451
:1023D00011228264C2640165142141658165016630
:1023E000C16541668166C821C1660167022209494B
:1023F000094803F0E1FC07480078FF2803D0BDE856
:102400001040FFF76BBFBDE81040FFF77BBF000037
:10241000EC0400202000002000300308084A094B8B
:102420000128126F06D0022809D1501881B218462F
:10243000FFF754BD501A81B21846FFF74FBD7047E1
:10244000EC040020000400402DE9F041344C01254B
:10245000344FA078344EDFF8D4800E2105283BD0CD
:1024600006DC052811D2DFE800F0121C2B2F330008
:1024700006283BD007284BD0632108284CD063287E
:1024800003D114202070A170A572BDE8F081022054
:1024900000F084FA38700028F7D1A078401CA070B2
:1024A000F3E7022003F0F4FC2148B1688142ECDA42
:1024B000D8F808108142E8DAA078401CA070E4E760
:1024C00025700320A070E0E721700420A070DCE7F5
:1024D00025700520A070D8E7022000F05FFA387060
:1024E0000028D2D1A078401CA070CEE71520207023
:1024F000022003F0CDFC0F48B1688142C5DCD8F85A
:1025000008108142C1DC2570A078401CA070BCE797
:102510002170401CA070B8E72570A170B5E70000DD
:10252000DA04002021000020A8050020D0050020AA
:102530000000C041000096422DE9F041344C0125D5
:10254000344EA078344FDFF8D4800E2105283DD0DA
:1025500006DC052811D2DFE800F0121C2D31350011
:1025600006283DD007284BD0632108284CD063288B
:1025700003D114202070A170A572BDE8F081022063
:1025800000F00CFA30700028F7D1A078401CA07041
:10259000F3E715202070022003F07AFC2048B96888
:1025A0008142EADAD8F808108142E6DAA078401CC5
:1025B000A070E2E725700320A070DEE72170042000
:1025C000A070DAE725700520A070D6E7022000F0A1
:1025D000E5F930700028D0D1A078401CA070CCE77D
:1025E000022003F055FC0F48B9688142C5DCD8F8D9
:1025F00008108142C1DC2570A078401CA070BCE7A7
:102600002170401CA070B8E72570A170B5E70000EC
:10261000DA04002021000020A8050020D0050020B9
:102620000000C0410000984270B5244C0122244DA6
:10263000A078244E411CC9B203282AD007DC90B1EF
:10264000012817D0022801D12270A17070BD042882
:102650002DD0632105282ED06328F7D114202070B7
:10266000A170A27270BD012003F012FCA078401C82
:10267000A07070BD1448AA688242FADCB268824237
:10268000F7DC0E202070114800780028F1D1A170ED
:1026900070BD022003F0FCFB0D48A9688142F7DC05
:1026A000B1688142F4DCA078401CA07070BD0F209E
:1026B0002070A17070BD2270A17070BDDA0400207E
:1026C000A8050020D00500200000E84121000020DE
:1026D0000000E0412DE9F0474F4C504D504EA0789E
:1026E0001427411CCBB2A968B2684FF0010C4FF01F
:1026F0000F09062874D00ADC4A4DDFF82C814B4EB6
:10270000062818D2DFE800F0232E3842475909285E
:1027100075D012DC07286ED008280CD1012003F0F8
:10272000B7FB4348A968814205DCB168814202DCFD
:10273000A078401CA070BDE8F08763210A2867D00C
:102740006328F8D12770A17084F80AC0F3E701204C
:1027500000F024F928700028EDD12770A078401CE3
:10276000A070E8E7012003F093FB28780028E2D16D
:10277000A078401CA070DEE72E488142DBDC82425C
:10278000D9DC84F800900320A070D4E784F800C05E
:102790000420A070CFE7012000F000F92870002885
:1027A000C9D1D8F80800B042C5DD23488068B042DE
:1027B000C1DDA078401CA070BDE715202070D8F8BE
:1027C0000800B042B7DA1D4881681D488142B2DD79
:1027D0001C4989688142AEDD0620A070ABE7FFE7A7
:1027E00019488142A7DC8242A5DC0E202070A3702C
:1027F000A1E704E0FFE784F800C0A3709BE713485B
:10280000814298DC824296DC84F80090A37092E7C3
:1028100084F800C0A1708EE7DA040020A80500202B
:10282000D005002021000020480600200000C841FB
:1028300000008E420000E84170060020F8050020EC
:1028400000002042200600200000D2420000044286
:10285000054A064B904204DA914202DA00201870D1
:10286000704701201870704700007041340000204C
:10287000054A064B904204DA914202DA0020587071
:10288000704701205870704700005041340000200C
:10289000064B074A984205DAB1F17E5F02DA002062
:1028A0009070704701209070704700000000504108
:1028B00034000020054A064B904204DA914202DAC5
:1028C0000120187070470020187070470000C84140
:1028D00028000020054801210171142282704170F6
:1028E000417181710021017203F0A4BCB804002081
:1028F00008B505F025FF00900121684605F082FC2F
:10290000034800F01FF8012005F052FCF4E7000036
:10291000290000201FB500200649CDE9011003223F
:102920000346009203904FF4007203A1044805F09F
:102930008DFE1FBD78050020574F524B0000000050
:10294000F12800080078002805D0012805D00228C9
:1029500005D102F08DB902F0EDB802F039B9704737
:1029600008B50D4A01280CD0022809D12D2907D11C
:10297000906A0090D2E913130222104602F0ACFFD5
:1029800008BD2D29FCD150690090D2E91113022213
:10299000104602F0A1FF08BDEC0400202DE9F0472D
:1029A00002244B4E484FDFF82481DFF82891F56E62
:1029B000012804D002282FD003285AD080E04648AE
:1029C000816846488068FDF783FCB84209DD022132
:1029D0000846FFF7C1FC02210120FFF71FFD01247B
:1029E0006EE0404509D902210120FFF7B5FC022124
:1029F0000846FFF713FD012462E010F0FF4F5FD09F
:102A0000A9B24846FFF768FAB6F87010484689B28E
:102A1000FFF764FA002453E0314881683148806848
:102A2000FDF756FCB84209DD02210120FFF794FCB6
:102A300002210846FFF7F2FC012441E0404509D994
:102A400002210846FFF788FC02210120FFF7E6FC7F
:102A5000012435E010F0FF4F32D0A9B24846FFF70D
:102A60003BFAB6F87010484689B2FFF737FA0024EF
:102A700026E01D4881681D488068FDF729FCB842A2
:102A800009DD04210120FFF767FC07210120FFF782
:102A9000C5FC012414E0404509D904210120FFF7B9
:102AA0005BFC07210120FFF7B9FC012408E00120AD
:102AB000716EFFF751FC0120B16EFFF7AFFC0024EF
:102AC0002046BDE8F08700009A99993E9A9999BEF0
:102AD000EC0400200004004020060020F80500203F
:102AE0007006002048060020D0050020A805002020
:102AF0002DE9F04107460E460024304603F094FDD0
:102B000001281ED000213846FFF7A6F80F4D28787F
:102B100090B13146384600F021F8FDF736FDFDF75B
:102B200073FD0B4A0B4BFDF7BEFCFDF780FD044621
:102B30000948844200DD0446002028702046BDE894
:102B4000F0813146384600F02FF8F7E746000020C4
:102B50009CC420B07268913F0000964349684FF4CE
:102B60007A725143808C0844704700001FB50020E2
:102B70000849CDE9011003220346009203904FF467
:102B8000007205A1064805F061FD064901200870A4
:102B90001FBD00008405002054494D45520000002F
:102BA000BD2B00082C000020002282844A60024ACB
:102BB00001211170FFF750B84600002008B505F05C
:102BC000BFFD00902321684605F01CFB00F004F8CF
:102BD000012005F0EDFAF5E770B5264D002401203F
:102BE0006A68254B2946072A40D2DFE802F03F04F5
:102BF0000D17212B35000870C3F8A801142003F02D
:102C000031FDC3F8A84131E002220A70C3F8AC01DB
:102C1000142003F027FDC3F8AC4127E003220A701B
:102C2000C3F8B001142003F01DFDC3F8B0411DE04E
:102C300004220A70C3F8B401142003F013FDC3F892
:102C4000B44113E005220A70C3F8B801142003F060
:102C500009FDC3F8B84109E006220A70C3F8BC01B7
:102C6000142003F0FFFCC3F8BC416C606868401C92
:102C7000686070BD2C0000200000234270B5094C34
:102C80000125656025604FF4487005F091FA002039
:102C9000606020604FF4FA7005F08AFA024805700F
:102CA00070BD0000B8812242B80400202DE9F05F19
:102CB000F74C0125204694F811E0C1780323481C05
:102CC000F44E0E22DFF8D083F44F4FF0000C4FF09B
:102CD000150A4FF014094FF0630BC0B2BEF1010F9B
:102CE0000ED094F810E0BEF1010F6ED005296DD022
:102CF0006DDC052928D2DFE801F0F5F4F3F2F100EC
:102D00004FF0090E0C296FD009DC0C291CD2DFE82A
:102D100001F02B3551545F6C7D81858B98B313295D
:102D200072D008DCA1F10D0106290DD2DFE801F017
:102D3000ACBEC2DBE6F0162967D007DC142971D0DF
:102D4000152901D16570E070BDE8F09F17296AD0A0
:102D50006329F9D1E07E012872D00620E07184F861
:102D6000019084F803C0EFE70120FFF717FE3070F1
:102D70000028E9D1E078401CE070E5E7012003F08D
:102D800087F8C74BD8F80800C64A984209DCB968EA
:102D9000994206DC904204DD914202DD84F801A0F4
:102DA000D2E79042D0DCB8689042CDDCE078401C9D
:102DB000E070C9E76270E370C6E76570C82005F08F
:102DC000F7F9E078401CE070BEE7C4E0C2E183E1BF
:102DD0000220FFF7E3FD30700028B5D184F80190A0
:102DE000E078401CE070AFE74BE0022003F050F8C1
:102DF000AD48D8F808108142A6DCB9688142A3DC4E
:102E0000E078401CE0709FE786E099E0657007205D
:102E1000E07099E762700820E07095E7657084F8CB
:102E200003E091E780E08FE0012003F031F89F4854
:102E300081689F48814287DAE078401CE07083E730
:102E400086E09C4D0120696EFFF786FA0120A96E8D
:102E5000FFF7E4FA4FF4966005F0AAF90120E96E55
:102E6000FFF77AFA0120296FFFF7D8FA0420607083
:102E7000E078401CE07067E7022060700C20E07092
:102E800062E76570E0705FE784F801A0022002F05D
:102E9000FFFF8948D8F8081081428ADAB968814270
:102EA00087DA6570E078401CE0704DE70C216170B6
:102EB000E07049E700F06CF9307084F80190002868
:102EC00091D17E48D8F8081081428CDAB9688142E5
:102ED00089DA6570E078401CE07035E72EE125E185
:102EE00021E111E106E1FFF7C9FE03F095F830702A
:102EF000002888D1E078401CE07025E703214FF4DA
:102F0000167001F09BFCE078401CE0701CE7FFE7C6
:102F100011216170E07017E76570C82005F048F96D
:102F2000E078401CE0700FE784F801900120FFF783
:102F300035FD307000289ED1E078401CE07003E73A
:102F400084F80190E070FFE6657084F803B0FBE65A
:102F500084F807E003E7082970D007DC08298AD243
:102F6000DFE801F0242E3D40485463670C297BD0F4
:102F70000FDC092965D00A2973D00B2995D10120CE
:102F8000FFF70CFD307000288FD1E078401CE07016
:102F9000DAE60D297AD00E2979D0632985D184F813
:102FA00001900620E07184F803C0CDE60120FFF710
:102FB000F5FC3070002890D1E078401CE070C3E64A
:102FC000012002F065FF3E48D8F80810814284DCF9
:102FD000B968814291DCE078401CE070B4E6627030
:102FE000E370B1E66570C82005F0E2F8E078401CB7
:102FF000E070A9E60220FFF7D1FC3070002885D1EF
:1030000084F80190E078401CE0709DE6022002F018
:103010003FFF2548D8F80810814284DCB968814216
:103020008DDCE078401CE0708EE665700720E07073
:103030008AE662700820E07086E6FFE76570E0705F
:1030400082E684F801A0012002F022FF17481D4902
:10305000806888429CDAE078401CE07074E603E007
:10306000FFE76570E0706FE684F801A0012002F0D0
:103070000FFF1148D8F80810814289DAB9688142F7
:1030800086DA6570E078401CE0705DE61CE01FE0C9
:10309000B804002021000020A8050020D005002051
:1030A00000008242000040410000544220060020FF
:1030B00000004842EC0400200000F0410000A04164
:1030C00000009041000070420F216170E0703BE60B
:1030D000657084F803B037E606294AD007294BD03B
:1030E00008294DD0632984D184F80190E37184F8D4
:1030F00003C029E60120FFF751FC3070002884D17D
:10310000E078401CE0701FE6012002F0C1FE1E487E
:10311000D8F80810814287DCB968814284DCE07805
:10312000401CE07010E66270E3700DE66570C82028
:1031300005F03EF8E078401CE07005E60220FFF75D
:103140002DFC3070002889D184F80190E078401C73
:10315000E070F9E5022002F09BFE0C48D8F8081058
:10316000814292DCB96881428FDCE078401CE070DB
:10317000EAE56570E070E7E50F216170E070E3E576
:10318000657084F803B0DFE5000088410000544218
:1031900010B50224154803C8FDF79AF8144988426F
:1031A00009DD0C210120FFF7D7F805210120FFF7E9
:1031B00035F9012418E00F49884209D90521012079
:1031C000FFF7CAF80C210120FFF728F901240BE0D2
:1031D00010F0FF4F08D014210120FFF7BDF8142193
:1031E0000120FFF71BF90024204610BD3800002005
:1031F00000002041000020C108B505F0A1FA0090B0
:103200000121684604F0FEFF02F0F2FCF8E700003E
:103210002DE9F05F6F4C704FDFF8C081204694F8C5
:103220000AE001261523B968C0786D4DDFF8B4B106
:10323000D8F808204FF014094FF0050C4FF0080A99
:10324000BEF1010F14D0032877D077DC002876D0A8
:10325000012875D0022809D163706348814205DADC
:10326000824203DA0E2060700320E070BDE8F09F18
:1032700005284ED006DC0528F8D2DFE800F0151D41
:103280002A33460006284ED007285AD0082860D096
:103290006328EBD1207D012866D084F807A00020A8
:1032A000E07084F80190E1E70220FFF777FB2870D7
:1032B0000028DBD1E670D9E7022002F0E9FDB8680A
:1032C0005845D3DAD8F808005845CFDA0220E07024
:1032D000CCE7637045488142C8DA8242C6DA0320EF
:1032E000E070C3E7FFF754FF2870054684F80190AB
:1032F000D8F80810B868FCF799FF3D498842B5DA5C
:10330000002DB3D10420E070B0E7667084F803C0EC
:10331000ACE7FFF7B3FC02F07FFE28700028A5D1D0
:103320000620E070A2E702220321962001F0D2FAE3
:10333000102060700720E07098E73AE017E023E083
:103340002AE066704FF4C87004F032FF84F803A0DE
:103350008CE70220FFF722FB287084F801900028F8
:1033600084D16320E07081E70920E07197E70428A9
:1033700023D0052824D0632895D10020E07084F85C
:10338000019084F807A071E70220FFF707FB28707F
:10339000002888D1E67069E7022002F079FDB8685C
:1033A000584588DAD8F80800584584DA0220E070D9
:1033B0005CE766700420E07058E784F803C055E7C6
:1033C0000220FFF7EBFA287000288AD16320E07012
:1033D0004CE70000B8040020A8050020D00500201C
:1033E0002100002000004842000088410000D04138
:1033F0000000E8412DE9F05FFC48FE4A014690F8E4
:103400000DE0CF7891F817A091F818B091F80EC0A0
:10341000F749781C012415231426896892684FF017
:103420000F084FF00E09C0B2BEF1010F03D1EF4DEE
:10343000BCF1010F04D0ED4DBEF1010F76D06EE16D
:10344000102F74D00BDC102F27D2DFE807F03A489A
:103450004D515D71767B8A9EA2A7ABB7C9CE182F5E
:103460006FD009DCA7F11107072F16D2DFE807F0AC
:10347000D6E3F1F5F8EDEC001C2F6FD00FDC192F1F
:103480006DD01A2F6CD01B2F07D103214FF4FA7087
:1034900001F0D4F9E878401CE870BDE8F09F1D2FDA
:1034A00070D01E2F6FD0632FF7D1BAF1010F6BD000
:1034B000BBF1010FFBD00520E8716E700020E870B1
:1034C000EBE7CD48814203DD824201DD6B70E4E72A
:1034D0008142E2DA8242E0DA6C70EC70DDE785F876
:1034E00001900220E870D8E76C700320E870D4E700
:1034F0006E700220FFF752FAC04908700028CCD144
:10350000E878401CE870C8E76B70012002F0C0FC4E
:10351000B7488168BA488142BFDAB64989688142B2
:10352000BBDA6C70E878401CE870B6E7F4E060E065
:1035300085F801800620E870AFE76C700720E8701E
:10354000ABE7AFE06E700120FFF728FAAB490870D7
:103550000028A2D1E878401CE8709EE7C7E0A4E00C
:10356000B8E06B70012002F093FCA1488168A54887
:10357000814292DA9F49896881428EDAE878401C5C
:10358000E8708AE7B7E0B9E0C3E06C700A20E87041
:1035900083E785F801800B20E8707EE76C700C20D3
:1035A000E8707AE76E700120FFF7F8F99349087028
:1035B000002885D1E878401CE8706EE76B70012028
:1035C00002F066FC8A4881688F48814286DA894920
:1035D0008968814287DA6C70E878401CE8705CE7A3
:1035E0000D20687085F8038057E76C701020E87034
:1035F00053E7FFF7CDFD814908706E70002894D124
:103600007B488168814881428FDA7A4989688142A2
:103610008BDA6C70E878401CE8703EE76E70FFF75C
:103620002DFB02F0F9FC75490870002884D1E87878
:10363000401CE87031E703214FF4167001F0FEF8EA
:10364000E878401CE87028E728E015E008E004E08E
:10365000FFE711216970E8701FE76C70E8701CE7E4
:103660006E700120FFF79AF964490870002888D12C
:10367000E878401CE87010E76B70012002F008FC4D
:103680005B4881686248814287DA5A498968814289
:1036900087DA6C70E878401CE870FEE60D216970EE
:1036A000E870FAE66C70E870F7E6FFF771FD5349D1
:1036B00008706E70002892D14D488168554881424B
:1036C0008DDA4C498968814289DA6C70E878401C4F
:1036D000E870E2E66E70FFF7D1FA02F09DFC474910
:1036E0000870002884D1E878401CE870D5E61021E5
:1036F0006970E870D1E66C70E870CEE66E700220FA
:10370000FFF74CF93D490870002886D16320E87026
:10371000C3E60920E871D0E6BCF1000F0FD0BEF17E
:10372000000F87D1BCF1010F76D0062F75D075DC64
:10373000062F88D2DFE807F0FDFCFBFAF9F80D2F21
:103740006DD00ADC0D2F87D2DFE807F02D3B404417
:103750006A7E838997A8ACB1B500142F72D008DCBB
:10376000A7F10E07062F86D2DFE807F0C3C7CAE924
:10377000F6FF182F67D009DC152F6ED0162F6DD0ED
:10378000172F8AD185F80190E87086E6192F72D03C
:10379000632F86D1BAF1010F6ED00520E8716E70EB
:1037A0000020E87079E61448814203DD824201DDA1
:1037B0006B7072E681428CDA82428ADA6C70EC704D
:1037C0006BE685F801900220E87066E66C700320D5
:1037D000E87062E66E700220FFF7E0F807490870B3
:1037E000002887D1E878401CE87056E6B80400202D
:1037F000A8050020D0050020000030412100002055
:1038000000009041000034420000F0410000D0412F
:1038100000000C420000C041DDE022E2AAE156E0D7
:103820006B70012002F034FBFE488168FE48814243
:10383000ABDAFE4989688142A7DA6C70E878401CEF
:10384000E8702AE695E0B5E085F801800620E8708A
:1038500023E66C700720E8701FE68DE098E06E703C
:103860000120FFF79BF8F249087000288DD1E87815
:10387000401CE87011E6A0E0AAE06B70012002F0A5
:1038800007FBE8488168EB4881428BDAE7498968A1
:10389000814287DAE878401CE870FEE56C700A2007
:1038A000E870FAE585F801800B20E870F5E56C70AA
:1038B0000C20E870F1E56E700120FFF76FF8DC492D
:1038C0000870002885D1E878401CE870E5E56B7049
:1038D000012002F0DDFAD3488168D748814284DABA
:1038E000D24989688142ACDA6C70E878401CE87093
:1038F000D3E50D216970E870CFE56C70E870CCE518
:10390000FFF746FCCA4908706E70002899D1C54877
:103910008168CA48814294DAC4498968814290DA50
:103920006C70E878401C08E06CE159E14CE147E13B
:1039300041E132E119E00FE001E0E870ADE56E70C1
:10394000FFF79CF902F068FBB9490870002891D193
:10395000E878401CE870A0E503214FF4167000F0F1
:103960006DFFE878401CE87097E511216970E870F8
:1039700093E56C70E87090E56E700120FFF70EF82B
:10398000AB490870002888D1E878401CE87084E5CD
:103990006B70012002F07CFAA2488168A84881423D
:1039A00084DAA2498968814284DA6C70E878401C24
:1039B000E87072E56C70E8706FE56E700220FEF7DB
:1039C000EDFF9B490870002892D16320E87064E500
:1039D0000920E871E3E6092F75D008DC092F87D2AA
:1039E000DFE807F027353A3E4A5C616575000E2F27
:1039F0006AD00FDC0A2F68D00B2F67D00C2F77D03E
:103A00000D2F9BD10321962000F018FFE878401C71
:103A1000E87042E50F2F6CD0102F6BD0632F8DD143
:103A2000BBF1010F67D00520E8716E700020E870CF
:103A300033E58448814203DD824201DD6B702CE571
:103A4000814288DA824286DA6C70EC7025E585F86E
:103A500001900220E87020E56C700320E8701CE5FE
:103A60006E700220FEF79AFF7149087000288ED10F
:103A7000E878401CE87010E56B70012002F008FA4D
:103A8000684881686848814293DA68498968814258
:103A90008FDA6C70E878401CE870FEE485F80180ED
:103AA0000620E870F9E46C700720E870F5E46E70A9
:103AB0000120FEF773FF5E490870002887D1E8787F
:103AC000401CE870E9E417E03FE018E01BE06B7091
:103AD000012002F0DDF9534881685B48814298DAA1
:103AE00052498968814294DAE878401CE870D4E44D
:103AF0001EE02EE030E03AE06C70E870CDE40C217E
:103B00006970E870C9E4FFF743FB494908706E70BB
:103B100000288DD1434881684748814288DA43496B
:103B20008968814284DA6C70E878401CE870B4E4FB
:103B30006E70FFF7A3F802F06FFA3D490870002895
:103B400084D1E878401CE870A7E410216970E8701F
:103B5000A3E46C70E870A0E46E700220FEF71EFF14
:103B600033490870002886D16320E87095E4092065
:103B7000E8715AE7092F6BD007DC072F69D0082FAF
:103B80008BD110216970E87087E40A2F76D0632FFB
:103B900088D1687E012872D08AE02A48814203DDFC
:103BA000824201DD6B7078E481428BDA824289DAED
:103BB0006C70EC7071E485F801900220E8706CE4A0
:103BC0006C700320E87068E46E700220FEF7E6FE79
:103BD0001749087000288AD1E878401CE8705CE436
:103BE0006B70012002F054F90E488168144881423C
:103BF00084DA0E498968814284DA6C70E878401C66
:103C0000E8704AE4FFF7C4FA094908706E700028AA
:103C10008DD1044881680D48814288DA034989685A
:103C2000814217E0A805002000009041D005002047
:103C300021000020000034420000F0410000D0418B
:103C40000000A0410000304100000C420000E041B3
:103C50001EE015E0BFF66BAF6C70E878401CE870B2
:103C60001BE4FFF70BF86E7002F0D6F912490870EA
:103C7000002889D1E878401CE8700EE40BE015E0DC
:103C80000321B42000F0DAFDE878401CE87004E479
:103C90006C70E87014E46E700220FEF77FFE064937
:103CA00008700028F6D16320E87009E40920E87163
:103CB0006E700020E87003E4210000202DE9F05F21
:103CC0008A4C00222046A77C01250221DFF820B281
:103CD00014266323C078012F09D0022875D075DC23
:103CE000002874D0012800D1E170BDE8F09F814F19
:103CF000DFF80482DFF80492DFF804A20A2867D014
:103D00000ADC4FF006020A28EFD2DFE800F0222595
:103D1000273545494C62667A4FF00E0C10286FD05B
:103D200008DCA0F10B000528DFD2DFE800F07C8F73
:103D30009498A200112872D0122871D0132870D044
:103D40006328D2D1207F01286CD0E171E2706670C7
:103D5000CBE76570E570C8E7E170C6E7022002F0C6
:103D600097F8DBF808004045BFDA664880684045B0
:103D7000BBDA0320E070B8E7022002F089F862495C
:103D8000DBF808008842B0DD5E4860498068884200
:103D9000ABDA0420E070A8E762700520E070A4E7C9
:103DA0006570E270A1E7FFF7F3F9387005466670B9
:103DB000DAF80810D9F80800FCF738FA404594DA28
:103DC000002D92D10720E0708FE77CE071E078E071
:103DD0001BE065700820E07087E7FEF74FFF02F0F8
:103DE0001BF93870022203214FF4C87000F072FDF5
:103DF00038780028ACD1112060700920E07074E799
:103E000045E065700A20E0706FE70120FEF7C6FD0F
:103E10003870667000289BD10B20E07065E73BE0AE
:103E20003EE040E042E0012002F032F8D9F808001C
:103E300040458DDDDAF80810414589DD344A90426D
:103E400086DA914284DA0C20E0704EE7042060703C
:103E50000D20E07049E7657084F803C045E7012054
:103E6000FEF79CFD38706670002884D10F20E0704A
:103E70003BE7152060702748D9F8081081428ADA9C
:103E8000DAF80810814286DA1020E0702DE784F815
:103E900001C01120E07028E765701220E07024E76F
:103EA0001320E07021E76670E3701EE70920E071DF
:103EB0004CE7032817D0632886D1E2706670E17161
:103EC00013E7E57011E7022001F0E2FF1248DBF88A
:103ED0000810814293DD0B49896881428FDA657051
:103EE0000320E07001E7E370FFE60000B804002063
:103EF000F8050020210000200000C841A80500208E
:103F0000D005002020060020000048420000F041BB
:103F100000000C4200008841000020422DE9F047DB
:103F2000434CE07A012823D1E0780125414E4FF03F
:103F30001408612865D031DC3F4FDFF8009102287A
:103F400055D017DCB8B3012812D1FFF721F9307032
:103F5000064684F80180D9F80810B868FCF766F9BD
:103F60003749884204DA002E02D165700220E070E1
:103F7000BDE8F08703284FD04D28F9D1012001F08A
:103F800087FF3048B9688142F2DAD9F808108142D7
:103F9000EEDA0D2060706220E070E9E7622823D03D
:103FA00063283DD0762815D07A28E1D10F206070A3
:103FB0007620E070DCE7FFE7152060702248B968E2
:103FC0008142D5DAD9F808108142D1DA7A20E0703E
:103FD0006570CDE70120FEF7E1FC307065700028C8
:103FE000C6D14D20E070C3E76570E570C0E7FEF70D
:103FF00045FE02F011F830700028B9D16120E07060
:10400000B6E7022203214FF4487000F063FC102051
:1040100060700320E070ABE765706320E070A7E795
:104020000020E07084F801800920E071A0E7000022
:10403000B804002021000020A8050020D0050020A1
:104040000000C841000048420000A0412DE9F05F97
:10405000984C0125204694F810E0C0780323411CB9
:104060000222DFF854921427DFF85082944EDFF8D2
:1040700054A24FF0000C4FF0630BC9B2BEF1010F18
:1040800009D0052872D072DC05281AD2DFE800F0CA
:10409000D1E0E4E7F400072873D007DC072810D24A
:1040A000DFE800F023313549565F67000B2877D0F1
:1040B00009DC08287AD009287BD00A2801D165704C
:1040C000E170BDE8F09F0C286DD00D286CD06328FE
:1040D000F7D1A07E012868D0E371677084F803C02F
:1040E000BDE8F05FC82004F063B8012001F0D0FE05
:1040F000D8F808005045E4DAB0685045E1DAE078D5
:10410000401CE070DDE70C206070E270D9E7FFF73B
:104110003FF889F8000067700028D2D16A48D8F8C3
:1041200008108142CDDAB1688142CADA6570E07860
:10413000401CE070C5E7FEF7A1FD677001F06CFF61
:1041400089F800000028BCD1E078401CE070B8E796
:1041500003214FF4487000F071FBE078401CE070E0
:10416000AFE7102060700620E070AAE788E053E017
:1041700007E06570C82004F01BF8E078401CE07090
:104180009FE7022001F084FE5048D8F808108142D1
:1041900097DAB168814294DAE078401CE07090E7E9
:1041A0000BE003E005E014E02FE032E06570E17021
:1041B00087E70E206070E17083E767700220FEF7EA
:1041C000EDFB89F8000000289CD1E078401CE070ED
:1041D00077E7022001F05CFE3D4BD8F808003D4A2D
:1041E000984209DCB168994206DC904204DD9142B4
:1041F00002DD1520607064E7904287DCB068904271
:1042000084DCE078401CE0705BE7677084F803B002
:1042100057E70920E07160E7062835D0072836D037
:10422000082837D0632885D1E371677084F803C00C
:1042300047E7012001F02CFED8F80800504586DA47
:10424000B06850458CDA6570E078401CE07038E763
:104250000F206070E27034E76570E37031E76770DB
:104260000120FEF79BFB89F80000002888D1E07848
:10427000401CE07025E7FFE765700520E07020E74F
:1042800004206070E1701CE76270E17019E76570EE
:10429000E17016E7022001F0FBFD0F48D8F8081086
:1042A000814285DCB168814286DC657084F803B0A8
:1042B00007E70000B804002021000020A805002026
:1042C000D00500200000D0410000D841000070411E
:1042D0000000824200004041000030412DE9F047DB
:1042E000394CE07B01281AD1E0780126411C374D7A
:1042F0001427C9B2042851D013DCDFF8D480DFF8CA
:10430000D490C0B1012829D002283BD0032806D17F
:104310000321642000F092FAE078401CE070BDE8D0
:10432000F08705283ED006283FD06328F7D1607E6D
:10433000012843D044E015206070022001F0A8FD60
:104340002548D8F808108142E9DAD9F808108142E6
:10435000E5DA6670E078401CE070E0E7FEF718FFF1
:10436000287067700028DAD11C48D8F808108142FC
:10437000D5DAD9F808108142D1DA6670E078401CAD
:10438000E070CCE76770FEF779FC01F045FE28701D
:104390000028C4D1E078401CE070C0E710206070B5
:1043A000E170BCE76670E170B9E70220FEF7F6FA4B
:1043B00028700028B3D16320E070B0E70920E071D5
:1043C00067700020E070AAE7B804002021000020F8
:1043D000A8050020D00500200000C8410000E041F1
:1043E0002DE9F05FDE480A230927047B0426022218
:1043F0001521DFF87093C07801254FF0000C4FF0C5
:1044000008084FF0070A4FF0030B012C0BD0D44CD7
:10441000072871D071DC072836D2DFE800F0F0EF12
:10442000EEEDECEBEA00CE4C0B28A6469EF803E03E
:104430000EF1010E0EF0FF0E70D009DC0B2823D216
:10444000DFE800F029404347525C6D717A7D8100BE
:10445000112870D008DCA0F10C00052814D2DFE888
:1044600000F08B9094A1B100142870D00EDC1228BB
:104470006ED0132808D1022203214FF4FA7000F005
:1044800029FAE078401CE070BDE8F09F612809D06F
:104490006328F9D1D6E06170C82003F089FE61205D
:1044A000E070F1E7022001F0F3FCAF484FF08441E7
:1044B00080688842E8DAAD4880688842E4DA65704E
:1044C000E570E1E76270E270DEE7657084F803B0E2
:1044D000DAE70220FEF762FAA5490870142161703C
:1044E0000028D1D1E670CFE761704FF47A7003F005
:1044F0005FFE0520E070C7E70AE1AEE0012001F0B1
:10450000C7FC9C49D9F808008842BDDD9A488068FC
:104510008842B9DA66700620E070B5E719E0657088
:1045200084F803A0B0E761704FF4617003F040FEBF
:1045300084F80380A8E763E06570E770A4E70F20C4
:104540006070E370A0E765700B20E0709CE776E098
:1045500068E08548894B826884489A42806803DD18
:10456000984201DD61708FE79A428DDA98428BDACA
:10457000657084F803E087E70E20607084F803E03C
:1045800082E7657084F803E07EE714206070022003
:10459000FEF704FA76490870002892D1E078401CB2
:1045A000E07071E7012001F073FC6F488168744886
:1045B000814286DA6D498968814285DAE078401C5B
:1045C000E07061E7FEF7E4FD6949064608701420D3
:1045D00060706648816864488068FBF727FE694917
:1045E000884288DA002E86D16570E078401CE07041
:1045F0004AE789E078E06FE063E05EE05AE042E09D
:10460000FEF73CFB01F008FD59490870002884D1F1
:10461000022201214FF4167000F05CF9E078401C92
:10462000E07031E70120FEF7B9F951490870142113
:104630006170002886D1E078401CE07024E7657046
:104640006320E070A07D012805D0E57184F803C0E7
:104650001420607018E7E771F8E70B2872D008DCC7
:1046600008285DD0092869D00A2884D10B20E07081
:104670000AE761280ED0632886D184F803C014208D
:104680006070E57100E76170C82003F091FD612062
:10469000E070F9E6022001F0FBFB33484FF0844163
:1046A000806888428DDA31488068884289DA65708E
:1046B000E570E9E66270E270E6E6657084F803B0E2
:1046C000E2E60220FEF76AF92949087014216170B8
:1046D00000288DD1E670D7E661704FF4487003F082
:1046E00067FD0520E070CFE6012001F0D1FB2148F5
:1046F000D9F80810814294DD1F498968814290DA17
:1047000066700620E070BFE6657084F803A0BBE623
:1047100061704FF4617003F04BFD84F80380B3E6E1
:10472000012001F0B5FB104881681748814285DA05
:104730000E49896881428DDAE770A5E66570E370FD
:10474000A2E6FFE70120FEF729F9094908701421C4
:10475000617000288CD16320E070657094E60000E1
:10476000B804002048060020A8050020D00500203D
:10477000210000200000204270060020000030418F
:1047800000000C420000C8410000904138B50A46C4
:10479000294C012813D0022810D120462D2AD0E917
:1047A000131341D05A2A31D0872A36D0B42A05D1E2
:1047B000E06901220090104601F08EF838BD1E48D5
:1047C0002D2AD0E911131AD05A2A0AD0872A0FD0DD
:1047D000B42AF3D1A06801220090104601F07CF8C1
:1047E00038BD606801220090104601F075F838BDB0
:1047F000E06801220090104601F06EF838BD206993
:1048000001220090104601F067F838BDA06901222E
:104810000090104601F060F838BD206A0122009037
:10482000104601F059F838BD606A01220090104628
:1048300001F052F838BD0000EC04002070B50546C8
:10484000234C0A46012A616E17D0022A2AD0032A75
:104850003DD10220FDF780FD0220A16EFDF7DEFDB7
:10486000284603F0A5FC0220E16EFDF775FD216FDF
:10487000BDE870400220FDF7D1BD0A390220FDF7E6
:104880006BFD0220A16EFDF7C9FD284603F090FCE8
:104890000220E16EFDF760FD216FBDE8704002204F
:1048A000FDF7BCBD0220FDF757FDA16E02200A39BD
:1048B000FDF7B4FD284603F07BFC0220E16EFDF716
:1048C0004BFD216FBDE870400220FDF7A7BD70BD14
:1048D000EC04002070B506460B46494C012A616E77
:1048E000A1F10A051BD0022A7ED1012B5BD0022B3D
:1048F0006ED0032B78D10220FDF72EFD0220A16E91
:10490000FDF78CFD304603F053FC0220E16EFDF70D
:1049100023FD216FBDE870400220FDF77FBD012B14
:1049200017D0022B2AD0032B69D10120FDF714FDEB
:104930000120A16EFDF772FD304603F039FC012025
:10494000E16EFDF709FD216FBDE870400120FDF724
:1049500065BD29460120FDF7FFFC0120A16EFDF792
:104960005DFD304603F024FC0120E16EFDF7F4FC10
:10497000216FBDE870400120FDF750BD0120FDF71B
:10498000EBFCA16E01200A39FDF748FD304603F02B
:104990000FFC0120E16EFDF7DFFC216FBDE87040E8
:1049A0000120FDF73BBD29460220FDF7D5FC022082
:1049B000A16EFDF733FD304603F0FAFB0220E16EF5
:1049C000FDF7CAFC216FBDE870400220FDF726BD4F
:1049D0000220FDF7C1FCA16E02200A39FDF71EFD81
:1049E000304603F0E5FB00E009E00220E16EFDF750
:1049F000B3FC216FBDE870400220FDF70FBD70BD14
:104A0000EC04002010B50848807815280AD0074C1F
:104A10000120616EFDF7A0FCA16EBDE810400120F1
:104A2000FDF7FCBC10BD0000B8040020EC04002021
:104A300008B503F085FE00900521684603F0E2FB0F
:104A400000F01AF8F8E700001FB500200649CDE98C
:104A5000011006220346009203904FF4007203A156
:104A6000044803F0F3FD1FBD6C050020494E50556E
:104A700054000000314A000810B501F097FB01F026
:104A800059FB02488168491D816010BD6C050020FA
:104A900070B526480121264D0078002802D0012853
:104AA0001BD039E02248AB7C027BC07A1BB912B91B
:104AB00008B9AC7A0CB113B103E069772CE002B904
:104AC00008B112B102E0297526E010B118B169757C
:104AD00022E0297720E0A9751EE015486E7C047C51
:104AE000437B827BC07B1EB914B90BB902B908B1F4
:104AF00014B104E069770FE00BB902B908B113B142
:104B000003E0E97608E002B908B112B102E0A97643
:104B100002E038B140B16976687F012801D10920EF
:104B2000E87170BDE975F7E72976F5E729000020FF
:104B3000B804002007484079002805D0012805D096
:104B4000022805D100F008B8FDF7C4BE00F022B875
:104B500070470000B80400200D488179012916D162
:104B6000017A002913D0C0790A2810D2DFE800F0BA
:104B7000050B090F0F0F0F0F070DFEF749BBFFF7CE
:104B80009DB8FFF72DBCFFF7C9B900F0E7BB704730
:104B9000B804002010B50D4C207A01280ED1FFF783
:104BA00077FF607F00220121022340B1012805D157
:104BB0000920E0716371E2706170A17110BDE27152
:104BC0006371E2706170A17110BD0000B804002033
:104BD00007484079002805D0012805D0022805D1D2
:104BE00000F008B8FDF776BE00F024B8704700006A
:104BF000B80400200E488179012917D1017A0029D3
:104C000014D0C079C01E072810D2DFE800F0060FCC
:104C1000040A080F0C00FFF761BBFEF7EBBBFEF7C1
:104C200045B8FFF713BA024802F05ABE70470000B9
:104C3000B804002010B50D4C207A01280ED1FFF7E2
:104C400027FF607F00230121022240B1012805D106
:104C50000920E0716271E3706170A17110BD0720DD
:104C6000E0716271E3706170A17110BDB804002041
:104C700007480079002805D0012805D0022805D171
:104C800000F024B800F006B800F05EB870470000ED
:104C9000DA04002009493020087009490120C87051
:104CA00014224A70087048710022CA7108710549BF
:104CB00008704870887004480270704747000020F0
:104CC000DA040020340000202800002070B5164DC2
:104CD000164CA968A068FDF7BBFD1548816815480A
:104CE0008068FDF7C5FD1448816814488068FDF7A9
:104CF000CFFDA968A068FDF7DDFD114841790129C4
:104D000011D1C17900290ED0807A38B101280AD199
:104D10000C480078BDE8704003F014BBBDE870405B
:104D2000074802F0F7BD70BDD0050020A80500209F
:104D300020060020F805002070060020480600200C
:104D4000DA040020470000200548C179022906D175
:104D50000171002181708172024930200870704712
:104D6000DA040020470000202DE9F047534C0323CC
:104D70000125E078524FDFF84C811422524E4FF05B
:104D8000050C082865D009DC4FF00201082820D264
:104D9000DFE800F02C3C40434E52575B4749C9784E
:104DA000491CC9B20D286AD015DC09285DD00A2833
:104DB0005ED00B2860D00C280BD11520607002202B
:104DC00001F066F84FF4FA7003F0F2F9E078401C55
:104DD000E070BDE8F0870E2854D00F285DD063281E
:104DE000F7D1627063710020E070F2E7012001F0FA
:104DF0004FF83648B9688142EBDAD8F8081081429A
:104E0000E7DA6570E078401CE070E2E70F20607040
:104E1000E170DEE76570E370DBE762700120FDF7AB
:104E2000BDFD30700028D4D1E078401CE070D0E7A0
:104E3000657084F803C0CCE7042060700620E07041
:104E4000C7E761700720E070C3E765700820E07075
:104E5000BFE7022001F01CF81D481E498068884207
:104E6000B7DDE078401CE070B3E76570E170B0E753
:104E700084F801C0E170ACE76570E170A9E7657086
:104E8000E170A6E762700220FDF788FD307000280F
:104E90009FD1E078401CE0709BE7012000F0F8FF14
:104EA000B8684FF08441884293DAD8F80800884205
:104EB0008FDA65706320E0708BE70000B804002093
:104EC000A8050020D0050020210000200000D041CE
:104ED00048060020000048422DE9F047714C0125AA
:104EE0001522E0781423411C6F4E704FDFF8C091FB
:104EF000DFF8C0814FF0030CC9B20A2874D00ADC75
:104F00004FF00E010A281FD2DFE800F020313539BA
:104F100044515C606478102867D008DCA0F10B0075
:104F2000052811D2DFE800F072808C8F93001128E1
:104F300077D0122876D0132875D0632804D16370F7
:104F400084F805C00020E070BDE8F08762700220A0
:104F500000F09EFF5848B9688142F5DCD9F8081086
:104F60008142F1DC6570E078401CE070ECE7617034
:104F70000220E070E8E7657084F803C0E4E763703E
:104F80000220FDF70BFD30700028DDD1E078401CD9
:104F9000E070D9E76270012000F07AFF474880682E
:104FA0004045D1DD6570E078401CE070CCE763706F
:104FB0000120FDF7F3FC30700028C5D1E078401CDB
:104FC000E070C1E761700720E070BDE76570082000
:104FD000E070B9E736483A4BB9688068994205DD18
:104FE000984203DD6270AFE70DE033E09942ABDA3F
:104FF0009842A9DA65700920E070A5E70F2060707B
:105000000A20E070A0E76570E1709DE76370012001
:10501000FDF7C4FC3070002896D1E078401CE070A9
:1050200092E723E025E02EE06270012000F030FFDF
:1050300040F2A46003F0BCF8E078401CE07083E725
:105040006570E17080E704206070E1707CE7657056
:10505000E17079E76270022000F01AFF4FF44870A7
:1050600003F0A6F8E078401CE0706DE76570E17031
:105070006AE70220FDF792FC3070002889D1E078C1
:10508000401CE07060E76270022000F001FFB86829
:1050900040458BDAD9F80800404587DA657063200F
:1050A000E07051E7B804002021000020A80500208E
:1050B000D00500200000204200008841700600203A
:1050C0000000304170B5364C0125364EE078152190
:1050D00005283AD006DC052812D2DFE800F01216C7
:1050E0001E283100062834D007283ED01421082875
:1050F00045D0632804D16170032060710020E07006
:1051000070BD0F206070E57070BD6570C82003F041
:105110004FF8E078401CE07070BD0120FDF73EFCC8
:1051200030700028F8D1E078401CE07070BD6170EC
:1051300040F2DC5003F03CF8E078401CE07070BDB9
:10514000042060700520E07070BD6570401CE07048
:1051500070BD6170012000F09BFE4FF4167003F0EB
:1051600027F8E078401CE07070BD0220FDF716FCC7
:1051700030700028F8D1E078401CE07070BD61709C
:10518000012000F085FE0848816808488142F5DA70
:10519000074989688142F1DA65706320E07070BD6B
:1051A000B804002021000020A805002000000C42C7
:1051B000D00500202DE9F047614C01251522E0784B
:1051C0001423604EDFF88081DFF88091604F4FF04C
:1051D000040A4FF0030C08287CD007DC08281FD2F3
:1051E000DFE800F02C3944494D6065695449C978BD
:1051F000491CC9B20D286AD014DC092877D00A28C6
:1052000078D00B287AD00C280AD16270022000F0E6
:105210003FFE4FF4E17002F0CBFFE078401CE070FD
:10522000BDE8F0870E2871D00F2879D06328F7D118
:10523000637084F805C00020E070F1E7627001201F
:1052400000F026FE43488068B842E9DD6570E078EA
:10525000401CE070E4E763700120FDF79FFB3070B5
:105260000028DDD1E078401CE070D9E70E206070A6
:1052700084F803C0D4E7657084F803A0D0E733480E
:10528000354BD8F808108068994203DD984201DD5B
:105290006270C5E79942C3DA9842C1DA65700520A9
:1052A000E070BDE70F2060700620E070B8E7657021
:1052B0000720E070B4E763700120FDF76FFB3070EA
:1052C0000028ADD1E078401CE070A9E702E018E0CA
:1052D0000DE00FE06270012000F0DAFD40F2A46002
:1052E00002F066FFE078401CE07099E706E0657028
:1052F000E17095E784F801A0E17091E76570E170D5
:105300008EE76570E1708BE700E009E00120FDF7B2
:1053100045FB3070002883D1E078401CE0707FE7C7
:105320006270022000F0B4FDD8F80800B84284DAB8
:10533000D9F80800B8428DDA65706320E0706FE735
:10534000B804002021000020A8050020D00500207E
:105350000000204270060020000030412DE9F05F7F
:10536000F84C01262146227DDFF8DC931425F74F07
:10537000DFF8DC83C9784FF0030A4FF44870012A44
:105380001ED03A46434694F815E092689B684FF069
:10539000040B4FF0150CBEF1010F46D094F816E047
:1053A0001320BEF1010F7CD0227F012A7AD0607FCA
:1053B000012803D10020E07084F805A0BDE8F09F2B
:1053C00002291BD00DDCA9B10129F7D10120FDF77D
:1053D000E5FA89F8000065700028EFD10220E0703E
:1053E000ECE7032911D06329E8D10020E07084F8AC
:1053F00005A0E3E70E206070E670DFE701220321DD
:10540000FFF768FA84F803A0D8E7012000F040FD18
:105410006570D048B9688142D0DAD8F80810814266
:10542000CCDA66706320E070C8E709297CD009DC1B
:105430000929C3D2DFE801F00F2305485F667984AC
:105440009400BBE761390729B8D2DFE801F0332CBB
:10545000B87215499800022000F01AFDB8684FF0A4
:1054600084418842AADAD8F808008842A6DA0220E5
:1054700060706520E070A1E76670E6709EE702202C
:1054800000F006FD6570B8684FF08441884295DAF7
:10549000D8F80800884291DA022060706220E0703B
:1054A0008CE791E061E16670C82002F081FE612026
:1054B000E07083E70220FDF771FA89F80000002808
:1054C0008ED184F803A079E784F801C0A248824213
:1054D00086DA834284DA022060706620E0706DE72D
:1054E0000220FDF75BFA89F800006570002884D17E
:1054F00084F803B062E784F801C002F059FE052089
:10550000E0705BE7012000F0C3FC6570B8684FF005
:105510008441884288DAD8F80800884284DA84F81E
:1055200001B00620E07049E739E066706420E07061
:1055300044E784F801C002F03BFE0720E0703DE73D
:10554000012000F0A5FC65708448B968814292DAB8
:10555000D8F8081081428EDA66700820E0702DE7D6
:1055600084F801C07C48824285DA834286DA84F876
:1055700001B0C82002F01CFE6720E0701EE7012089
:10558000FDF70CFA89F800006570002888D1092021
:10559000E070BDE8F05F4FF4C87002F009BE012072
:1055A00000F076FC65706B48B96881428BDAD8F8F8
:1055B0000810814287DA66706320E070FEE6002002
:1055C000E07084F805A0F9E6092974D009DC0929FE
:1055D00085D2DFE801F021240535555E717587001D
:1055E000ECE6662941D00DDC61291FD0632977D014
:1055F000642986D184F801C0880002F0D9FD072013
:10560000E070DBE667297DD0732925D076298AD121
:1056100066707320E070D1E66070E670CEE666706A
:10562000C82002F0C5FD6120E070C7E60220FDF74A
:10563000B5F989F80000002891D184F803A0BDE6EF
:1056400084F801C04448824289DA834287DA022022
:1056500060707620E070B1E684F801C04FF4967077
:1056600002F0A6FD6620E070A8E60220FDF796F99C
:1056700089F8000065700028A0D184F803B09DE689
:1056800084F801C04FF4C87002F092FD0520E0706C
:1056900094E6012000F0FCFB6570B8684FF084418F
:1056A00088428BDAD8F80800884287DA84F801B09B
:1056B0000620E07082E635E066706420E0707DE6EA
:1056C000012000F0E5FB65702448B968814287DA63
:1056D000D8F80810814294DA66700820E0706DE610
:1056E0003EE00FE084F801C04FF08440824288DA47
:1056F000834286DA84F801B0C82002F059FD6720A1
:10570000E0705BE60120FDF749F989F8000065705B
:1057100000288AD10920E070BDE8F05F4FF4C8701E
:1057200002F046BD012000F0B3FB65700948B9687E
:10573000814284DAD8F8081081428CDA66706320DE
:10574000E0703BE6B804002021000020A8050020FE
:10575000D00500200000484200000C420000344206
:105760000020E07084F805A028E6042930D014DC7D
:1057700039B302298CD1012000F08AFB6570B8682A
:105780004FF08441884295DAD8F80800884291DACF
:1057900084F801B06720E07010E6632928D06729FB
:1057A00088D10120FDF7FAF889F80000657000281B
:1057B00085D184F803B0BDE8F05F4FF4C87002F003
:1057C000F7BC6070C82002F0F3FC0220E070F5E541
:1057D000012000F05DFB65700848B968814290DAED
:1057E000D8F8081081428CDA66706320E070E5E535
:1057F0000020E07084F805A0E0E5000000004842C9
:10580000F8B50A46264B012803F12C03F0CB12D041
:1058100002280FD122482D2AD0E917312ED05A2A3A
:1058200032D0872A36D0B42A04D102220120009730
:1058300000F052F8F8BD1A482D2AD0E915130BD004
:105840005A2A0FD0872A13D0B42AF3D1012202207A
:10585000009700F041F8F8BD01220220009400F00A
:105860003BF8F8BD01220220009500F035F8F8BDA4
:1058700001220220009600F02FF8F8BD022201203C
:10588000009400F029F8F8BD02220120009500F0F4
:1058900023F8F8BD02220120009600F01DF8F8BDA3
:1058A000EC04002070B50948807816280DD0084C0B
:1058B000084D208881B22846FCF70EFBA1882846B7
:1058C000BDE8704089B2FCF709BB70BDB804002088
:1058D00058050020000400402DE9F84F81468A4613
:1058E000174698460A9C02F02BFF00904FF47A70FE
:1058F0004443B4FBF0F4144D144EA879012802D0AF
:10590000707901281DD10020A87170715146484658
:10591000FCF722FD41463846FCF780FD21466846EB
:1059200002F070FC0A4C0B4F208881B23846FCF71D
:10593000D3FAA188384689B2FCF7D0FA0120A871C1
:105940007071BDE8F88F0000B8040020DA04002070
:10595000580500200004004070B5094880780128EF
:105960000DD0084C084D208881B22846FCF7B4FAC7
:10597000A1882846BDE8704089B2FCF7AFBA70BD77
:10598000B8040020580500200004004008B502F0CB
:10599000D7FE00900121684602F034FC00F01CF8AC
:1059A000012002F005FCF5E71FB500200649CDE90E
:1059B000011005220346009203904FF4007203A1E8
:1059C000044802F043FE1FBD6005002057616C6B68
:1059D000000000008D59000870B58248824C834D4C
:1059E0000078002804D0012802D0022875D0E7E012
:1059F00060781728FBD2DFE800F0E30C0F14191EC3
:105A000023282D32373C4155465A4B5F5064E36999
:105A10006D00FFF7A1FFD3E05A210120FEF7B6FE8B
:105A2000CEE0B4210120FEF7B1FEC9E05A210220E8
:105A3000FEF7ACFEC4E0B4210220FEF7A7FEBFE0F3
:105A400087210120FEF7A2FEBAE02D210120FEF7FA
:105A50009DFEB5E087210220FEF798FEB0E02D21E3
:105A60000220FEF793FEABE02D210120FCF778FF2A
:105A7000A6E02D210220FCF773FFA1E02D210120DB
:105A8000FFF7BEFE9CE05A210120FFF7B9FE97E028
:105A900087210120FFF7B4FE92E0B4210120FFF737
:105AA000AFFE8DE02D210220FFF7AAFE88E05A21EB
:105AB0000220FFF7A5FE83E087210220FFF7A0FE6A
:105AC0007EE0B4210220FFF79BFE79E0FEF79AFF0B
:105AD00076E002E0FFF7E6FE72E0287817286FD242
