:020000040800F2
:100000007079002009020008E3150008FD140008BB
:10001000E1150008A90C0008CD220008000000002E
:100020000000000000000000000000006501000862
:10003000170E000800000000A9010008851A00083A
:1000400023020008230200082302000823020008FC
:1000500023020008230200082302000823020008EC
:100060002302000823020008190E000823020008DA
:1000700023020008230200082302000823020008CC
:1000800023020008230200082302000823020008BC
:10009000230200082302000823020008750F00084D
:1000A000230200082302000823020008230200089C
:1000B0002302000823020008351C00082302000860
:1000C000230200082302000823020008230200087C
:1000D0002302000841200008230200082302000830
:1000E0002302000823020008230200080000000089
:1000F0000000000000000000000000000000000000
:100100000000000000000000230200082302000895
:10011000230200082302000823020008230200082B
:10012000230200082302000823020008230200081B
:10013000230200082302000823020008230200080B
:1001400023020008230200082302000823020008FB
:10015000DFF80CD000F02CFB004800477D6200085F
:1001600070790020204B19680868B0E8F00F80F320
:100170000988BFF36F8F4FF0000080F311884EF0B5
:100180000D0E70470000000006480068006880F30C
:10019000088862B661B6BFF34F8FBFF36F8F00DF81
:1001A00000BF00BF08ED00E0EFF30980BFF36F8FE1
:1001B0000D4B1A6820E9F00F106008B54FF01000E1
:1001C00080F3118807F0CCFA4FF0000080F311881B
:1001D000BDE8084019680868B0E8F00F80F30988A6
:1001E000BFF36F8F704700BF58000020EFF31180FE
:1001F0004FF0100181F31188704780F31188704728
:10020000EFF3058070470000064880470648004726
:10021000FEE7FEE7FEE7FEE7FEE7FEE7FEE7FEE7B6
:10022000FEE7FEE7A91A000851010008F0B480EAD1
:100230000102D40F4200B2EB410F02D2024608463F
:1002400011464A0042D0C30DDDB2C1F3C752AD1A08
:10025000202D35DAC1F3160141F4000204B15242F7
:10026000C5F1200602FA06F12A411044B3EBD05F33
:1002700023D0C4B1012DA0EBC35009DCF0BC4FF07A
:10028000004202EAC352DBB200F5000000F004BAFB
:10029000400000F1807000EBC350A0F1807040EA94
:1002A000D170490009E0490841EAC071A0EBC35090
:1002B00000F50000400800EBC350F0BC00F0E3B9CB
:1002C0006142012202EB4101001BF6E7F0BC7047DE
:1002D00081F00041AAE780F00040A7E780EA010230
:1002E00010B502F00043400022D04A001FD0010E9A
:1002F00001EB1261C0F35600C2F3560240F4000055
:1003000042F40002A0FB022000047F39140400D054
:10031000401C50EA124001D44000491EC2B20C06F3
:1003200004EBD010401C4008802A02D003E00020DB
:1003300010BD20F00100002900DA0020184310BD94
:10034000420005D0C0F3C7525242914201DC002066
:10035000704700EBC15070472DE9FE4F804681EA9F
:100360000300C00F0C46009021F0004123F000452F
:10037000B8EB0200A94105D24046214690461C46F2
:100380000B46024623F00040104347D0270DC7F329
:100390000A00C3F30A510290401A019040286BDA18
:1003A000C3F3130040F4801B0098924620B1002351
:1003B000D2EB030A63EB0B0B01985946C0F14002E4
:1003C000504600F03FF906460D4650465946019A00
:1003D00000F047F910EB08006141002487EA115250
:1003E00084EAE7731A4340D0009A62B3019A012A63
:1003F0004FEA075215DC001B61EB02014FF000428F
:1004000002EA0752CDE90042001C41F58011324654
:100410002B4600F07EF903B0BDE8F08F4046214640
:10042000F9E7001B61EB0201001C41F58013001885
:100430005B412018A2F5001747EB030140EAD57095
:10044000B6196D4111E06D084FEA360645EAC075F0
:100450004FEA0752001B61EB0201001C41F58011BD
:1004600049084FEA30000019514132462B4603B08B
:10047000BDE8F04F00F03EB9009801224000002393
:10048000D0EB020263EBE073009821464FEAE07480
:10049000B8EB000061EB0401E9E783F000435BE7A0
:1004A00081F0004158E72DE9FE4F81EA030404F092
:1004B000004421F0004100944FF0000B23F0004372
:1004C00050EA01045ED052EA03045BD0C3F30A543D
:1004D000C1F30A552C44A4F2F3340194A0FB025456
:1004E000C1F3130141F48011C3F3130343F48013E8
:1004F00001FB024400FB034E840A970A44EA81543C
:1005000047EA8357A4FB076802958D0A05FB078518
:100510004FEA932C04FB0C542705029D4FEA065822
:1005200047EA1637B5EB08056EEB070C870E920EFF
:1005300047EA811742EA8312A7FB0201B6EB0B01DF
:1005400064EB00042B0D43EA0C335E1844EB1C50A3
:10055000DA465146E7FB0201C5F313044FEA0B33B9
:1005600043EA14534FEA0432019C43EA0603A4F120
:100570000C040294009CCDE900B400F0CAF803B06A
:10058000BDE8F08F00200146F9E7962300221146CE
:1005900000F082B820F00040C10DC0F3160040F416
:1005A00000007F2901DA00207047962903DCC1F1A1
:1005B0009601C840704796398840704700F0004265
:1005C00030F000400AD0C10D01F56071C0F3160093
:1005D00042EA0151C208400711437047002001461A
:1005E000704701F0004330B421F0004150EA0102AD
:1005F00006D00A0DA2F56072C1F31301002A02DCD5
:1006000030BC00207047440F44EAC104C100E01828
:1006100030BC00EBC25000F036B80000002801DB0F
:10062000C0F10040002901DBC1F100418142704767
:10063000002801DBC0F10040002901DBC1F10041CD
:1006400088427047202A04DB203A00FA02F1002099
:1006500070479140C2F1200320FA03F31943904000
:100660007047202A06DBCB17203A41FA02F043EA12
:10067000E07306E041FA02F3D040C2F1200291405B
:100680000843194670470029A8BF7047401C49001D
:1006900008BF20F00100704710B4B0FA80FC00FAE7
:1006A0000CF050EA010404BF10BC704749B1CCF112
:1006B000200421FA04F411FA0CF118BF012121439E
:1006C0000843A3EB0C01CB1D4FEA00614FEA102059
:1006D00042BF002010BC704700EBC35010440029FB
:1006E000A4BF10BC7047401C490008BF20F00100A7
:1006F00010BC704710B5141E73F1000408DA401CDA
:1007000041F1000192185B411A4301D120F0010030
:1007100010BD2DE9F04D92469B4611B1B1FA81F220
:1007200002E0B0FA80F220329046FFF78BFF0446D9
:100730000F4640EA0A0041EA0B0153465A46084375
:1007400013D0114653EA010019D0C8F140025046B7
:1007500000F040F805460E46504659464246FFF71F
:1007600071FF084305D0012004E020463946BDE86A
:10077000F08D0020054346EAE0762C4337430A9883
:100780006305E40AA0EB08000022FD0A44EA47548E
:100790000A3002D500200146E9E701051019694138
:1007A000DDE9084500196941BDE8F04DA2E7000008
:1007B000064C074D06E0E06840F0010394E80700AE
:1007C00098471034AC42F6D3FFF7C6FCF08300081C
:1007D00010840008202A04DB203A21FA02F00021CC
:1007E000704721FA02F3D040C2F120029140084341
:1007F00019467047002904D0816841F001018160E9
:100800007047816821F001018160704730B591B077
:100810000121084601F046F83E4D284600F062FAF4
:100820003D4801903D480290002403942821049102
:1008300005948021069149000791880008902020A6
:10084000099000020A900B9401A9284600F0C6FA0C
:100850000121284600F039FA0121480201F03EF852
:1008600000212F4800F029F900212E4800F025F939
:1008700000212D4800F021F900212C4800F01DF93D
:100880000C9401208DF834008DF835004FF4602071
:100890000E900F9402208DF840001F4C0CA94C3C88
:1008A000204600F05FF8052301220A21204600F0CF
:1008B0007DF8052302220B21204600F077F805235E
:1008C00003220C21204600F071F8052304220D219B
:1008D000204600F06BF80121204600F029F80121A4
:1008E0002046FFF787FF204600F09AF8204600F0E8
:1008F00032F80028FAD1204600F0A3F8204600F094
:1009000023F80028FAD10121204600F08EF811B01A
:1009100030BD0000080002404C2401404405002086
:10092000488300085083000858830008608300084B
:10093000002904D0816841F480718160704781682A
:1009400021F4807181607047014600208968490761
:1009500000D501207047014600208968090700D5AD
:100960000120704710B542680E4B1A400C790B6895
:1009700042EA04221343436082680B4B1A40D1E9D8
:10098000024323434C7942EA440213438360C26A20
:1009900022F47002097C491EC9B242EA0151C162C7
:1009A00010BD0000FFFEF0FFFDF7F1FF70B5072658
:1009B00009290AD9C568A1F10A0404EB4404A64038
:1009C000B543A3401D43C56007E0056901EB410441
:1009D000A640B543A3401D4305611F23072A09D242
:1009E000446B521E02EB820293409C4391400C43A5
:1009F000446370BD0D2A09D2046BD21F02EB820240
:100A000093409C4391400C43046370BDC46A0D3A0B
:100A100002EB820293409C4391400C43C46270BD40
:100A2000816841F0080181607047002904D0816825
:100A300041F4A00181607047816821F4A0018160C8
:100A40007047816841F00401816070472DE9FE43E1
:100A50000746884616461D462821384600F02DF8E0
:100A60000121084600F03AFF384600F03CFCC4B2D1
:100A7000384600F085FC214600F044FB384600F083
:100A8000E2FB009000208DF804008DF80580012421
:100A90008DF80640684600F085FA384600F0A2FC62
:100AA0008DF808008DF809608DF80A508DF80B401C
:100AB00002A800F097FDBDE8FE8338B504460D4658
:100AC000204600F00DF8A088ADF800008DF8035026
:100AD00003208DF802006946206800F027FB38BD2E
:100AE000124A0168914201D104201CE0104A91424F
:100AF00001D1082017E00F4A914201D1102012E0E5
:100B00000D4A914201D120200DE00C4A914201D1C1
:100B1000402008E00A4A914201D1802003E0094ABE
:100B2000914200D18815012100F0D8BE0008014093
:100B3000000C014000100140001401400018014069
:100B4000001C0140002001402DE9FF4180460A9F22
:100B50000C4616461D46404600F028F8ADF8084001
:100B6000ADF804600021ADF80610ADF80A1001A937
:100B7000404601F017FA01221146404601F0AEF856
:100B80000121404601F092F8404601F0D3F98DF87A
:100B900000008DF801508DF8027001208DF80300DF
:100BA000684600F01FFDBDE8FF8100003149884222
:100BB00003D10121C01400F091BEB0F1804F06D0E6
:100BC0002D49884207D10121022000F079BE012180
:100BD000084600F075BE2949884203D1012104204E
:100BE00000F06EBE2649884203D10121082000F0A2
:100BF00067BE2449884203D10121102000F060BE65
:100C00002149884203D10121202000F059BE1F490B
:100C1000884203D10121401400F060BE1C49884283
:100C200003D10121C80400F059BE1A49884203D1FA
:100C30000121080500F052BE1749884203D1012165
:100C4000480500F04BBE1549884203D101214020E0
:100C500000F036BE1249884203D10121802000F005
:100C60002FBE1049884203D10121801500F028BE13
:100C700070470000002C01400004004000080040C4
:100C8000000C0040001000400014004000340140FF
:100C9000004C014000500140005401400018004049
:100CA000001C004000200040FEE708B525208DF81C
:100CB000000001208DF8010000218DF802108DF850
:100CC0000300684600F08EFC08BD002904D00168CE
:100CD00041F001010160704701684FF6FE7211405A
:100CE0000160704701684FF6FE72114001600021FB
:100CF000016041608160C1603649364A08399042DE
:100D000004D1486840F00F0048607047314A1432FF
:100D1000904204D1486840F0F000486070472D4A86
:100D20002832904204D1486840F4706048607047AF
:100D3000284A3C32904204D1486840F470404860F0
:100D40007047244A5032904204D1486840F47020E1
:100D5000486070471F4A6432904204D1486840F4AA
:100D60007000486070471B4A7832904204D148684E
:100D700040F0706048607047174A111F904204D1DC
:100D8000086840F00F0008607047134A1432904220
:100D900004D1086840F0F000086070470E4A28321D
:100DA000904204D1086840F47060086070470A4AB5
:100DB0003C32904204D1086840F4704008607047AB
:100DC000054A50329042FAD1086840F47020086019
:100DD00070470000080002400804024030B5026875
:100DE00047F6F0739A430C6A8B682343D1E90445B4
:100DF0002C4323438C692343CC6923434C6A23430C
:100E00008C6A234313430360CA6842600A688260A5
:100E10004968C16030BD704710B50C4800F013FA46
:100E200000F0B0F8002810D009480078012805D15A
:100E30000849094801F078FC06498860034800F039
:100E400002FABDE8104000F097B810BD908300088A
:100E50002C0000202C0400200008004070B53D4804
:100E600000F0F1F900F08EF83B4C3C4D78B1207861
:100E7000022805D13A49284601F056FC38498860D5
:100E8000344800F0E0F9BDE8704000F075B835482E
:100E900000F0D9F900F076F888B12078032807D15E
:100EA0002F492846283101F03FFC2D492831886020
:100EB0002C4800F0C8F9BDE8704000F05DB82A4841
:100EC00000F0C1F900F05EF888B12078042807D15D
:100ED00023492846503101F027FC214950318860D0
:100EE000214800F0B0F9BDE8704000F045B81F4857
:100EF00000F0A9F900F046F888B12078052807D15C
:100F000017492846783101F00FFC1549783188607F
:100F1000164800F098F9BDE8704000F02DB814486C
:100F200000F091F900F02EF8002811D02078062862
:100F300007D10B492846A03101F0F6FB0849A03142
:100F400088600B4800F07FF9BDE8704000F014B8ED
:100F500070BD0000988300082C00002000080040AD
:100F600054040020A0830008A8830008B083000870
:100F7000B8830008FFF772BF01490860704700009E
:100F80001404014001460020054A12680A40044B3F
:100F900014331B680B4202D0002A00D00120704796
:100FA0000004014030B51B4A83790168002B2AD028
:100FB00013688B431360111D0B680468A3430B6017
:100FC000017911440B68046823430B60114C083409
:100FD0002168036899432160231D19680568A943A6
:100FE00019604179102905D011440A68006802434C
:100FF0000A6030BD216802681143216019680068E9
:101000000143196030BD0079104402688A430260D0
:1010100030BD0000000401400149C8607047000075
:101020000020024070B505464FF43026304600F0EF
:1010300059F8042811D1094C206940F002002061C0
:101040006561206940F040002061304600F04AF8B8
:10105000216941F6FD721140216170BD00200240FE
:1010600004200849CA68D20701D001207047CA6825
:10107000520701D502207047C968C906FBD5032075
:1010800070470000002002400248016941F08001E1
:101090000161704700200240F0B506460D464FF44E
:1010A0000057384600F01EF804280CD1064C206981
:1010B00040F0010020613580384600F013F82169C6
:1010C000BA1E11402161F0BD0020024003480249D0
:1010D0004160034941607047230167450020024099
:1010E000AB89EFCD00B50346FFF7BAFF02E0FFF78B
:1010F000B7FF5B1E012801D1002BF8D1002B00D1D6
:10110000052000BD10B58A07120F0F23934021F070
:101110000304054921448C689C438C608B68904093
:1011200003438B6010BD0000000001402DE9F04139
:101130000022CC7804F00F03E40601D58C78234319
:101140000C784FF00F0714F0FF0F4FF0010C1CD07C
:1011500005680CFA02F40E882640A64211D19600CA
:1011600007FA06F825EA080503FA06F848EA05052D
:10117000CE78282E02D0482E02D002E0446100E052
:101180000461521C082AE4D305600A88FF2A1ED98C
:101190004568002202F108060CFA06F40E88264083
:1011A000A64210D1960007FA06F825EA080503FAC8
:1011B00006F848EA0505CE78282E00D14461CE789D
:1011C000482E00D10461521C082AE3D34560BDE8D3
:1011D000F0810000F0B5154C002801DAE36900E069
:1011E0006368C0F30346420D120185B2C0F3015794
:1011F0009540032F07D0C2020CD50322B24093437F
:1012000043F0706209E023F07062636823F070635A
:10121000636002E0AB4343F0706201B12A430028EF
:1012200001DAE261F0BD6260F0BD00000000014043
:101230000246002092680A4200D0012070474161B6
:1012400070470161704741684FF4807291423ED00F
:1012500014DC102935D009DC01292CD002292CD02E
:1012600004292CD0082900D10820704720292AD031
:1012700040292AD08029F8D1802070474FF480522D
:1012800091422AD00BDC4FF40072914221D05200DF
:10129000914220D052009142EFD1104670474FF456
:1012A000005291421BD0520091421AD052009142FA
:1012B000F4D1104670470120704702207047042087
:1012C000704710207047202070474020704710461C
:1012D00070471046704710467047104670471046DA
:1012E0007047104670474168B1F5807F3BD014DCF1
:1012F000102932D009DC012929D0022929D004295A
:1013000029D0082900D103207047202927D040295F
:1013100027D08029F8D107207047B1F5805F28D009
:101320000ADCB1F5007F20D0B1F5806F1FD0B1F598
:10133000006FF1D10B207047B1F5005F1BD0B1F504
:10134000804F1AD0B1F5004FF5D10F207047002023
:101350007047012070470220704704207047052025
:1013600070470620704708207047092070470A2000
:1013700070470C2070470D2070470E20704700000A
:10138000114A0168914201D1002070470F4A9142F1
:1013900001D1012070470E4A914201D102207047CD
:1013A0000C4A914201D1032070470B4A914201D16E
:1013B00004207047094A914201D105207047084A2C
:1013C0009142FBD10620704700080140000C01400B
:1013D000001001400014014000180140001C0140B1
:1013E000002001404168B1F5807F3BD014DC10291A
:1013F00032D009DC012929D0022929D0042929D099
:10140000082900D109207047202927D0402927D05A
:101410008029F8D117207047B1F5805F28D00ADC09
:10142000B1F5007F20D0B1F5806F1FD0B1F5006F0E
:10143000F1D128207047B1F5005F1BD0B1F5804F86
:101440001AD0B1F5004FF5D128207047062070471B
:1014500007207047082070470A2070471720704700
:1014600017207047172070471720704728207047B3
:1014700028207047282070472820704708B506F0BC
:1014800097FA00900B4D0C4E0C4F0D4C64216846A2
:1014900006F0F2F8D5F89C01C043C5F89C01D4E9E8
:1014A000000132463B46FEF757FFC4E9000105F054
:1014B0003DF9EBE7008022429A9999999999B93FB1
:1014C000000000201FB500F017F800200649CDE904
:1014D00001100222034600920390120203A1054864
:1014E00006F0ECF91FBD0000E8000020574F524BFA
:1014F000000000007D14000804F000BF06A30020D7
:10150000104C211F1A5C22800A885206FCD5401C10
:10151000C0B22A28F6D3FEE70D0A456E7465722024
:10152000486172644661756C745F48616E646C6595
:10153000722C2053797374656D2048616C742E0D84
:101540000A0000000438014010B586B001210520D2
:1015500000F0C4F90121880300F0C0F94FF40070D5
:10156000ADF8140018208DF8170003208DF8160030
:10157000194C05A92046FFF7D9FD2115ADF8141027
:1015800004218DF8171005A92046FFF7CFFD4FF471
:10159000E13001900020ADF80800ADF80A00ADF888
:1015A0000C00ADF810000C20ADF80E000B4C01A99A
:1015B000204600F097FD012240F22551204600F020
:1015C00075FD0121204600F045FD4021204600F038
:1015D0003DFD06B010BD000000080140003801408C
:1015E000FEE7704770B50F23C27801260178002A04
:1015F0001ED0144A126802F4E062C2F5E062120AD8
:10160000C2F10404D3404578A54082781A402A43A9
:10161000120101F1E02181F80024007800F01F019F
:101620008E404009800000F1E020C0F8006170BDEC
:1016300001F01F0086404809800000F1E020C0F85A
:10164000806170BD0CED00E002490843024908606A
:10165000704700000000FA050CED00E010B5002115
:10166000054B0022814202D003EB8104E260491C59
:10167000C9B20629F6D310BDBC00002070B5002504
:1016800005F1B000C0B2002100F0D2F800210846F8
:1016900000F0CEF80021102000F0CAF8002401214B
:1016A000002000F0C5F8641CE4B2802CF7D36D1C58
:1016B000EDB2082DE4D370BD002205E00021491CE5
:1016C000C9B20629FBD3521C8242F7D3704710B52A
:1016D0000446B031C8B2002100F0AAF8102040EA58
:1016E0001410002100F0A4F804F00F00BDE8104031
:1016F000002100F09DB800002DE9F04180460F4622
:101700000024203AD5B2B8F17F0F02D9A046BF1C01
:10171000FFB2102B12D039464046FFF7D8FF1849C8
:1017200005EB450001EB40050121285D00F080F844
:10173000641CE4B2062CF7D3BDE8F081394640467C
:10174000FFF7C5FF0F4E04EB05100121305C00F0E0
:101750006FF8641CE4B2082CF5D37F1CF9B2404644
:10176000FFF7B5FF002404EB051030440121007A97
:1017700000F05EF8641CE4B2082CF4D3DCE700004F
:10178000307B0008587D00082DE9F05F8046DDF8C9
:1017900028A08B4691461D46002600244FEA5A0792
:1017A0001DE0281B401EC1B20A2005F095F8B9FBC8
:1017B000F0F00A21B0FBF1F201FB120026B9691E1C
:1017C0008C4201DA78B101263030C2B207FB0480C6
:1017D000C0B253465946FFF78FFF641CE4B2AC42D7
:1017E000DFD3BDE8F09F07FB0480C0B25346202240
:1017F0005946FFF781FFF0E72DE9F04104460E4618
:101800001746984600250DE0434631462046FFF72F
:1018100073FF0834E4B2782C02D90024B61CF6B267
:101820006D1CEDB27A5D002AEED1BDE8F0810000BA
:101830002DE9F0470546DFF864904FF480680029F1
:1018400004D041464846FFF7FCFC03E041464846C9
:10185000FFF7F5FC0024124F4FF40066314638467E
:10186000FFF7EDFC280604D541463846FFF7E9FCB2
:1018700003E041463846FFF7E2FC31463846FFF7C1
:10188000E0FC6806050E641CE4B2082CE6D3414671
:101890004846BDE8F047FFF7D4BC00000010014007
:1018A00000140140054A002903D0516901435161E8
:1018B0007047516981435161704700000010024038
:1018C000054A002903D0D1690143D1617047D1692C
:1018D0008143D1617047000000100240054A002991
:1018E00003D091690143916170479169814391618E
:1018F000704700000010024010B5264A516801F000
:101900000C01254B002927D0042927D0082927D0EE
:101910000360516801F0F0010909204B5C5C01682B
:10192000E1404160546804F4E064240A1C5D21FA3B
:1019300004F48460546804F46054E40A1B5DD940E4
:10194000C160526802F44042920B144B1B1F9A5C18
:10195000B1FBF2F1016110BD0360DAE70360D8E783
:10196000516801F47011536803F48033022404EBCE
:10197000914133B153689B0307D5094B594301602B
:10198000C7E7074B59430160C3E7034B5943016065
:10199000BFE700000010024000127A00470000205C
:1019A00000093D0008B501210820FFF797FF03203B
:1019B0008DF8020010208DF803000420ADF800001F
:1019C00069460248FFF7B2FB08BD0000000C014069
:1019D000AFF300800CB50022019200922748016805
:1019E00041F4803101604FF4A063016801F40031DB
:1019F00000910199491C0191009911B901999942ED
:101A0000F3D10168890302D50121009100E0009221
:101A10000099012930D11A490A6842F010020A607F
:101A20000A6822F003020A600A6842F002020A60B1
:101A30004168416041684160416841F480614160B2
:101A4000416821F47C114160416841F4E811416032
:101A5000016841F08071016001688901FCD541682D
:101A600021F003014160416841F002014160416899
:101A7000C1F381010229FAD10CBD0000001002401F
:101A80000020024010B5FEF7B1FB05F097FF18B13A
:101A900004494FF080500860BDE810400020FEF778
:101AA000ACBB000004ED00E010B50F48016841F048
:101AB0000101016041680D4A1140416001680C4A12
:101AC00011400160016821F480210160416821F426
:101AD000FE0141604FF41F018160FFF779FF054966
:101AE0004FF00060086010BD001002400000FFF8D9
:101AF000FFFFF6FE08ED00E038B501210220FFF7F8
:101B0000DFFE01211020FFF7E9FE01211248FFF757
:101B100061FB4FF47070ADF8000018258DF803508C
:101B200003248DF8024069460C48FFF7FFFA0121B3
:101B30000846FFF7C5FE01210420FFF7CFFE012074
:101B4000ADF800008DF803508DF802406946044856
:101B5000FFF7ECFA38BD0000000C1A00001001403D
:101B60000008014070B588B040F67F40ADF818001D
:101B700040F2C110ADF814000024ADF81A40ADF8E1
:101B80001640850705A9284600F00CFA284E05A93D
:101B9000304600F007FA6020ADF804000120ADF8EF
:101BA0000600ADF80C40ADF80A4001A9304600F03F
:101BB0009FF80821304600F0DFF8ADF80A4001A98F
:101BC000304600F0DFF80821304600F01FF9ADF88C
:101BD0000A4001A9304600F023F90821304600F000
:101BE00061F9ADF80A4001A9304600F061F9082119
:101BF000304600F091F9ADF80A4001A9284600F0FE
:101C000077F80821284600F0B7F80121284600F0AF
:101C10003BF80121304600F037F80121284600F05A
:101C200045F80121304600F041F808B070BD0000D1
:101C30000004004010B5124C0121204600F042F88B
:101C400000281CD00121204600F02DF80D484168E5
:101C5000491C416028304168491C41602830416876
:101C6000491C416028304168491C41602830416866
:101C7000491C416000F128014868401C486010BDC3
:101C8000000800402C040020002904D0018841F005
:101C9000800101807047018821F080010180704738
:101CA000C94301827047C94301827047002904D0AB
:101CB000018841F0010101807047018821F0010194
:101CC0000180704702460020138A0B4092890A4027
:101CD000002B02D0002A00D001207047002A03D038
:101CE00082890A438281704782898A438281704750
:101CF00030B5028C22F001020284028C8388048BAE
:101D000024F0700424F003050C882C4322F0020216
:101D10000D8915434A882A43124DA8420BD0124D13
:101D2000A84208D0114DA84205D0114DA84202D0BA
:101D3000104DA8420FD122F008054A892A4322F00B
:101D400004058A882A4323F4807323F400738D8961
:101D50001D43CB892B4383800483C98881860284F9
:101D600030BD0000002C0140003401400040014023
:101D70000044014000480140028B22F008020A435F
:101D80000283704770B5028C22F010020284028C2C
:101D90008388048B24F4E04424F440760D884FF6C5
:101DA000FF7404EA0525354322F020020E8904EA77
:101DB000061616434A8804EA02123243114EB04214
:101DC00002D0114EB04217D122F080024E8904EAAF
:101DD0000616164326F040068A8804EA02123243A9
:101DE00023F4806323F400638E8904EA86061E438D
:101DF000CB8904EA8303334383800583C988018741
:101E0000028470BD002C014000340140028B22F49A
:101E100000624FF6FF7303EA01211143018370470B
:101E200070B5028C22F480720284028C8388848BC9
:101E300024F0700424F003040D88254322F400727A
:101E40000E894FF6FF7404EA062616434A8804EA10
:101E500002223243114EB04202D0114EB04217D18D
:101E600022F400664A8904EA0222324322F48066A0
:101E70008A8804EA0222324323F4805323F4005375
:101E80008E8904EA06161E43CB8904EA0313334302
:101E900083808583C9888187028470BD002C0140BE
:101EA00000340140828B22F008020A43828370478B
:101EB00070B5028C22F480520284058C8288838B58
:101EC00023F4E04323F440760C884FF6FF7303EAD3
:101ED0000424344325F400550E8903EA06362E43C4
:101EE0004D8803EA05353543094EB04202D0094E0C
:101EF000B04205D122F480468A8903EA8212324335
:101F000082808483C988A0F84010058470BD0000D9
:101F1000002C014000340140828B22F400624FF615
:101F2000FF7303EA01211143818370478186704763
:101F3000018770470146B1F1804F04D0124A9142A7
:101F400003D11D2070471C207047104A914201D1D7
:101F50001E2070470E4A914201D1322070470D4A2F
:101F6000914201D1362070470B4A914201D137206E
:101F700070470A4A914201D119207047084A91429C
:101F8000FBD12C20704700000004004000080040F6
:101F9000000C00400010004000140040002C0140E4
:101FA0000034014030B502881B4C1C4DA0420DD0BE
:101FB000A8420BD0B0F1804F08D0194B984205D001
:101FC000184B984202D0184B984203D122F070036C
:101FD0004A881A43154B984206D0154B984203D0B5
:101FE00022F44073CA881A4302808A8882850A884C
:101FF0000285A0420AD0A84208D00E4A904205D0DD
:102000000D4A904202D00D4A904201D1097A0186D0
:102010000121818230BD0000002C014000340140CC
:102020000004004000080040000C00400010004088
:1020300000140040004001400044014000480140BD
:10204000014800F0B5B80000440600208A05C943E5
:1020500001807047002904D0818941F400518181B9
:102060007047818921F400518181704770B5002447
:1020700040F66A12C1F3421301F01F05012606FA69
:1020800005F2012B0CD0022B0DD0838A1340090AD4
:102090008E40008830400BB100B10124204670BD55
:1020A00083891340F3E7038A1340F0E710B540F645
:1020B0006A13C1F3421301F01F040121A140012B57
:1020C00007D0022B07D014303AB102680A430260ED
:1020D00010BD0C30F8E71030F6E702688A43026062
:1020E00010BD000030B585B004460D46208A4CF680
:1020F000FF710840E98801432182A0894EF6F3115F
:102100000840A9882A8911436A8902431143A181A1
:10211000A08A4FF6FF410840A9890143A182684681
:10212000FFF7EAFB1D48844201D1039800E00298C2
:10213000A189090408D500EBC00101EB0010296852
:102140004900B0FBF1F007E000EBC00101EB00102B
:1021500029688900B0FBF1F06422B0FBF2F10901BB
:102160000B096FF018056B4300EB8300A3891D0476
:102170004FF0320307D503EBC000B0FBF2F000F0E4
:102180000700084306E003EB0010B0FBF2F000F09C
:102190000F000843208105B030BD00000038014029
:1021A0008088C0F308007047C1F308018180704740
:1021B0002DE9F041044640F225512068FFF756FF13
:1021C0000025B8B12068FFF7EBFFC0B2E28AA16832
:1021D0008854E18A491C8AB2E282E1898A4200D3AA
:1021E000E582628B8A4202D2618B491C6183616AFB
:1021F00001B1884740F2277739462068FFF736FF5C
:1022000040F2266600B3A08A90B1618A6068415CA2
:102210002068FFF7C9FF608A401C80B26082A189F4
:10222000884200D36582A08A401EA082BDE8F0816A
:10223000002239462068FFF739FF31462068BDE8A3
:10224000F0410122FFF732BF31462068FFF70EFF51
:102250000028EBD0A08A88B1618A6068415C206860
:10226000FFF7A2FF608A401C80B26082A189884289
:1022700000D36582A08A401EA082D7E700223146A3
:102280002068FFF713FF206A0028CFD0BDE8F04197
:10229000004700000C480B49016000F12801416033
:1022A00000F5856181604FF480618181C1810021E9
:1022B00001824182C182018341838182C1610162C5
:1022C000416270470038014044060020FEE702E00A
:1022D00008C8121F08C1002AFAD1704770470020B1
:1022E00001E001C1121F002AFBD1704738B51A481E
:1022F000194C4078103C01280ED0012217490428BF
:1023000002D0052808D105E000204871E06880F877
:10231000702001E00A724A71002310251A461946FE
:102320000F48009500F026F80123002250210C48A8
:10233000009500F01FF810230AA206211846FFF7A7
:102340005BFA102309A206215020FFF755FAE16835
:10235000032081F8700038BD180000204C030020D5
:10236000340000204C4546540000000052494748C4
:1023700054000000F8B50C46069E154650F82300A0
:10238000FEF708F9C2B20423294620460096FFF75B
:10239000FBF9F8BD70B50124064E074D06EB84012C
:1023A00005EB4400022203F02BF9641CE4B21D2C5F
:1023B000F4D370BD700300200030030870B5002412
:1023C000064E074D06EB840105EB4400022203F0A4
:1023D0002FF9641CE4B21D2CF4D370BD70030020EF
:1023E0000030030810B503F0A0F803F051FB00F033
:1023F00025F8FFF767F803F025F802F083FF00F0F7
:10240000D1F900F09DF8BDE8104002F0D9B8000005
:10241000084A094B0128D26E06D0022809D1501A69
:1024200081B21846FFF782BD501881B21846FFF7F7
:102430007DBD7047700300200004004010B52248A5
:10244000022101604FF4FA61416081608161C161E4
:1024500040F67C12C260016140F6DA2202624162FB
:1024600040F29B424261826240F20D12C2624FF41E
:10247000D27202634FF41E72426340F27932826379
:10248000C16301640621416411228264C264016552
:102490001421416581650166C16541668166C82177
:1024A000C166016702220949094803F0A9F80748F3
:1024B0000078FF2803D0BDE81040FFF76BBFBDE8F0
:1024C0001040FFF77BBF00007003002020000020B9
:1024D00000300308084A094B0128126F06D0022871
:1024E00009D1501881B21846FFF722BD501A81B2A7
:1024F0001846FFF71DBD7047700300200004004020
:10250000054801210171142282704170417181716D
:102510000021017203F0B2BA4C03002008B505F0A7
:1025200047FA00900121684605F0A6F8034800F03C
:1025300025F8012005F076F8F4E7000028000020D7
:102540001FB500200849CDE901100322034600927F
:1025500003904FF4007205A1064805F0AFF9064953
:10256000012008701FBD0000FC030020574F524B94
:10257000000000001D250008280000200078002829
:1025800005D0012805D0022805D102F00DB902F0CE
:102590005DB802F0B1B8704708B50D4A01280CD0FB
:1025A000022809D12D2907D1906A0090D2E913138E
:1025B0000222104602F046FE08BD2D29FCD15069CA
:1025C0000090D2E911130222104602F03BFE08BD32
:1025D000700300202DE9F04702244B4E484FDFF8EE
:1025E0002481DFF82891F56E012804D002282FD02D
:1025F00003285AD080E04648816846488068FDF745
:1026000067FEB84209DD02210846FFF701FF0221FB
:102610000120FFF75FFF01246EE0404509D9022148
:102620000120FFF7F5FE02210846FFF753FF0124C2
:1026300062E010F0FF4F5FD0A9B24846FFF776FC8A
:10264000B6F87010484689B2FFF772FC002453E0D8
:102650003148816831488068FDF73AFEB84209DDAB
:1026600002210120FFF7D4FE02210846FFF732FFC6
:10267000012441E0404509D902210846FFF7C8FE80
:1026800002210120FFF726FF012435E010F0FF4F63
:1026900032D0A9B24846FFF749FCB6F87010484658
:1026A00089B2FFF745FC002426E01D4881681D48DB
:1026B0008068FDF70DFEB84209DD04210120FFF717
:1026C000A7FE07210120FFF705FF012414E0404584
:1026D00009D904210120FFF79BFE07210120FFF704
:1026E000F9FE012408E00120716EFFF791FE012040
:1026F000B16EFFF7EFFE00242046BDE8F087000032
:102700009A99993E9A9999BE70030020000400405E
:10271000A40400207C040020F4040020CC04002049
:10272000540400202C0400202DE9F04107460E46F9
:102730000024304603F09AFB01281ED000213846C1
:10274000FFF7B4FA0F4D287890B13146384600F0C3
:1027500021F8FDF71AFFFDF731FF0B4A0B4BFDF790
:10276000A2FEFDF73EFF04460948844200DD044610
:10277000002028702046BDE8F0813146384600F040
:102780002FF8F7E7420000209CC420B07268913F08
:102790000000964349684FF47A725143808C084494
:1027A000704700001FB500200849CDE90110032241
:1027B0000346009203904FF4007205A1064805F00D
:1027C0007DF80649012008701FBD000008040020A4
:1027D00054494D4552000000F52700082C00002008
:1027E000002282844A60024A01211170FFF75EBA1A
:1027F0004200002008B505F0DBF800902321684670
:1028000004F03AFF00F004F8012004F00BFFF5E7B4
:1028100070B5264D002401206A68254B2946072AF9
:1028200040D2DFE802F03F040D17212B350008707D
:10283000C3F8A801142003F037FBC3F8A84131E026
:1028400002220A70C3F8AC01142003F02DFBC3F878
:10285000AC4127E003220A70C3F8B001142003F052
:1028600023FBC3F8B0411DE004220A70C3F8B40191
:10287000142003F019FBC3F8B44113E005220A70D9
:10288000C3F8B801142003F00FFBC3F8B84109E006
:1028900006220A70C3F8BC01142003F005FBC3F83C
:1028A000BC416C606868401C686070BD2C000020F2
:1028B0000000234270B5094C0125656025604FF486
:1028C000487004F0AFFE0020606020604FF4FA70A2
:1028D00004F0A8FE0248057070BD0000B8812242D5
:1028E0004C0300202DE9F05FFA48DFF8F8B301252A
:1028F000C278447C501CF84EF84FDFF8E4830E2376
:10290000DBF864104FF0000A4FF0030C4FF014098D
:10291000C0B2012C0FD0EF4C94F810E0BEF1010FC3
:102920006FD0052A6ED06EDC052A29D2DFE802F0CE
:10293000F7F6F5F4F300E74C4FF0090E0C2A72D0CD
:1029400009DC0C2A1CD2DFE802F02B354448505F2A
:102950006F73777D8BA9132A72D008DCA2F10D0268
:10296000062A0DD2DFE802F0A2B4B8CCDCE5162AC4
:1029700067D007DC142A71D0152A01D16570E07088
:10298000BDE8F09F172A6AD0632AF9D1E07E0128BA
:102990007ED00620E07184F8019084F803A0EFE770
:1029A0000120FFF717FE30700028E9D1E078401CC5
:1029B000E070E5E7012002F08FFECB48B968814264
:1029C000DEDCD8F808108142DADCE078401CE070E8
:1029D000D6E7637084F803C0D2E76570C82004F0BE
:1029E00021FEE078401CE070CAE70220FFF7F2FD0C
:1029F00030700028C4D184F80190E078401CE07069
:102A0000BEE7B9E0C1E180E1022002F065FEB7480F
:102A1000B9688142B4DCD8F808108142B0DCE078B3
:102A2000401CE070ACE73EE065700720E070A7E76F
:102A300063700820E070A3E7657084F803E09FE707
:102A40007BE08EE0012002F047FEA9488168A9489A
:102A5000814295DAE078401CE07091E775E084E00F
:102A60000120FFF7D5FC0120DBF86810FFF732FDED
:102A70004FF47A7004F0D6FD0120DBF86C10FFF7FC
:102A8000C7FC0120DBF87010FFF724FD042000E0F4
:102A90006FE06070E078401CE07071E702206070C9
:102AA0000C20E0706CE76570E07069E715206070DD
:102AB000022002F011FE9048B968814288DAD8F805
:102AC0000810814284DA6570E078401CE07057E7B6
:102AD0000C216170E07053E700F076F9307084F8F3
:102AE000019000288CD18548B968814288DAD8F8ED
:102AF0000810814284DA6570E078401CE0703FE79E
:102B0000FFF7D8FE02F0ACFE307000288AD1E078E2
:102B1000401CE07034E72CE123E11EE10EE103E10B
:102B200003214FF4167001F045FCE078401CE07082
:102B300026E711216170E07022E76570C82004F07B
:102B400071FDE078401CE0701AE784F801900120E4
:102B5000FFF740FD307000289FD1E078401CE07006
:102B60000EE784F80190E0700AE765706320E0707A
:102B700006E784F807E00EE7072A7AD007DC072A81
:102B80008BD2DFE802F036404F535B677A000B2AA6
:102B900070D021DC082A77D0092A78D00A2A84D17B
:102BA0000120FFF735FC0120DBF86810FFF792FCED
:102BB0004FF47A7004F036FD0120DBF86C10FFF75B
:102BC00027FC0120DBF87010FFF784FC0420607004
:102BD000E078401CE070D3E60C2A68D00D2A78D04B
:102BE000632A8CD184F801900620E07184F803A058
:102BF000C6E60120FFF7EEFC307000288AD1E078AD
:102C0000401CE070BCE6012002F066FD3648B96861
:102C100081428DDCD8F80810814289DCE078401CC4
:102C2000E070ADE6637084F803C0A9E66570C82063
:102C300004F0F8FCE078401CE070A1E60220FFF709
:102C4000C9FC307000288BD184F80190E078401CDA
:102C5000E07095E6022002F03FFD2448B968814209
:102C600086DCD8F808108142B5DCE078401CE070C2
:102C700086E606E017E007E009E065700720E070EF
:102C80007EE66370E0707BE66570E07078E60120B8
:102C900002F022FD16488168164881429BDAE078EE
:102CA000401CE0706CE602216170E07068E615205F
:102CB0006070022002F010FD0F48B96881428ADA84
:102CC000D8F80810814286DA6570E078401CE07020
:102CD00056E615E04C030020210000202C040020C3
:102CE000540400207003002000008841000054427A
:102CF000A4040020000048420000F0410000A04170
:102D00000F2060706320E0703AE6062A4CD0072A54
:102D10004DD0082A4FD0632A87D184F8019084F8D7
:102D200007C084F803A02BE60120FFF753FC3070A6
:102D300000288ED1E078401CE07021E6012002F0EE
:102D4000CBFC1F48B968814292DCD8F80810814258
:102D50008EDCE078401CE07012E6637084F803C0FB
:102D60000EE66570C82004F05DFCE078401CE07061
:102D700006E60220FFF72EFC3070002886D184F88A
:102D80000190E078401CE070FAE5022002F0A4FC1B
:102D90000C48B968814285DCD8F80810814285DC8E
:102DA000E078401CE070EBE56570E070E8E50F212D
:102DB0006170E070E4E565706320E070E0E50000BC
:102DC000000088410000544210B50224154803C891
:102DD000FDF77EFA1449884209DD0C210120FFF736
:102DE00017FB05210120FFF775FB012418E00F49AF
:102DF000884209D905210120FFF70AFB0C21012097
:102E0000FFF768FB01240BE010F0FF4F08D01421FE
:102E10000120FFF7FDFA14210120FFF75BFB0024DE
:102E2000204610BD3400002000002041000020C1D9
:102E300008B504F0BDFD00900121684604F01CFCBB
:102E400002F0FAFAF8E700002DE9F05F6F4C704FDE
:102E5000DFF8C081204694F80AE001261523B968FE
:102E6000C0786D4DDFF8B4B1D8F808204FF01409E0
:102E70004FF0050C4FF0080ABEF1010F14D00328E3
:102E800077D077DC002876D0012875D0022809D1C8
:102E900063706348814205DA824203DA0E20607073
:102EA0000320E070BDE8F09F05284ED006DC052821
:102EB000F8D2DFE800F0151D2A33460006284ED070
:102EC00007285AD0082860D06328EBD1207D01283C
:102ED00066D084F807A00020E07084F80190E1E754
:102EE0000220FFF777FB28700028DBD1E670D9E7D6
:102EF000022002F0F1FBB8685845D3DAD8F8080090
:102F00005845CFDA0220E070CCE763704548814233
:102F1000C8DA8242C6DA0320E070C3E7FFF754FF45
:102F20002870054684F80190D8F80810B868FDF7B5
:102F30007DF93D498842B5DA002DB3D10420E07017
:102F4000B0E7667084F803C0ACE7FFF7B3FC02F0AB
:102F500087FC28700028A5D10620E070A2E7022295
:102F60000321962001F072FA102060700720E070B3
:102F700098E73AE017E023E02AE066704FF4C87063
:102F800004F050FB84F803A08CE70220FFF722FB3B
:102F9000287084F80190002884D16320E07081E7D4
:102FA0000920E07197E7042823D0052824D063285E
:102FB00095D10020E07084F8019084F807A071E7B3
:102FC0000220FFF707FB2870002888D1E67069E728
:102FD000022002F081FBB868584588DAD8F808006A
:102FE000584584DA0220E0705CE766700420E070E7
:102FF00058E784F803C055E70220FFF7EBFA287082
:1030000000288AD16320E0704CE700004C030020C8
:103010002C0400205404002021000020000048421D
:10302000000088410000D0410000E8412DE9F05F38
:10303000FA48FC4A014690F80DE0CF7891F817B0B5
:1030400091F80EC0F649781C0124152314268968CE
:1030500092684FF00F0A4FF00E084FF00309C0B20C
:10306000BEF1010F03D1ED4DBCF1010F04D0EB4DCA
:10307000BEF1010F73D06AE1102F71D00BDC102F5D
:1030800027D2DFE807F037454A4E5A6E73778798A4
:103090009FA4A8B4C6CB182F78D009DCA7F11107DC
:1030A000072F16D2DFE807F0D3E0E9F1F4EEED00E8
:1030B0001C2F6CD00FDC192F6AD01A2F69D01B2F50
:1030C00007D103214FF4167001F074F9E878401C21
:1030D000E870BDE8F09F1D2F71D01E2F70D0632FB8
:1030E000F7D1BBF1010F6CD00520E8716E700020A4
:1030F000E870EEE7CC48814203DD824201DD6B706F
:10310000E7E78142E5DA8242E3DA6C70EC70E0E7EF
:1031100085F801800220E870DBE76C7085F8039089
:10312000D7E76E700220FFF755FAC04908700028F3
:10313000CFD1E878401CE870CBE76B70012002F03B
:10314000CBFAB7488168BA488142C2DAB549896882
:103150008142BEDA6C70E878401CE870B9E7F3E0B1
:1031600060E085F801A00620E870B2E76C700720E7
:10317000E870AEE76E700120FFF72CFAAB490870DB
:103180000028A6D1E878401CE870A2E7A2E0C6E0DB
:10319000A3E0B7E06B70012002F09EFAA0488168BE
:1031A000A448814295DA9F498968814291DAE8789A
:1031B000401CE8708DE76C700A20E87089E7B2E087
:1031C000B4E0BEE085F801A00B20E87081E76C70E8
:1031D0000C20E8707DE76E700120FFF7FBF9934942
:1031E0000870002885D1E878401CE87071E76B70A2
:1031F000012002F071FA8A4881688F48814286DA9C
:1032000088498968814287DA6C70E878401CE870E8
:103210005FE70D20687085F803A05AE76C701020F6
:10322000E87056E7FFF7D0FD804908706E700028FF
:1032300094D17B488168814881428FDA79498968D5
:1032400081428BDA6C70E878401CE87041E76E7060
:10325000FFF730FB02F004FB74490870002884D1AA
:10326000E878401CE87034E703214FF4167001F051
:10327000A1F8E878401CE8702BE711216970E8702C
:1032800027E723E010E003E0FFE76C70E87020E739
:103290006E700120FFF79EF964490870002889D1FB
:1032A000E878401CE87014E76B70012002F014FA13
:1032B0005B4881686248814288DA5A49896881425C
:1032C00084DA6C70E878401CE87002E70D216970C0
:1032D000E870FEE66C70E870FBE6FFF775FD534999
:1032E00008706E70002893D14D488168554881421E
:1032F0008EDA4C49896881428ADA6C70E878401C21
:10330000E870E6E66E70FFF7D5FA02F0A9FA4749D1
:103310000870002885D1E878401CE870D9E61021B3
:103320006970E870D5E66C70E870D2E66E700220C5
:10333000FFF750F93D490870002887D16320E870F5
:10334000C7E60920E871D1E6BCF1000F0FD0BEF14D
:10335000000F88D1BCF1010F76D0062F75D075DC37
:10336000062F89D2DFE807F0FDFCFBFAF9F80D2FF4
:103370006DD00ADC0D2F8AD2DFE807F02D3B4044E8
:103380006A7E838997A8ACB1B500142F72D008DC8F
:10339000A7F10E07062F86D2DFE807F0C3C7CAE9F8
:1033A000F6FF182F67D009DC152F6ED0162F6DD0C1
:1033B000172F8AD185F80180E8708AE6192F72D01C
:1033C000632F86D1BBF1010F6ED00520E8716E70BE
:1033D0000020E8707DE61448814203DD824201DD71
:1033E0006B7076E681428CDA82428ADA6C70EC701D
:1033F0006FE685F801800220E8706AE66C7085F857
:10340000039066E66E700220FFF7E4F80749087043
:10341000002887D1E878401CE8705AE64C03002069
:103420002C04002054040020000030412100002022
:1034300000009041000034420000F0410000D04103
:1034400000000C420000C041DDE022E2AAE156E0AB
:103450006B70012002F040F9FE488168FE4881420D
:10346000ABDAFE4989688142A7DA6C70E878401CC3
:10347000E8702EE695E0B5E085F801A00620E8703A
:1034800027E66C700720E87023E68DE098E06E7008
:103490000120FFF79FF8F249087000288DD1E878E5
:1034A000401CE87015E6A0E0AAE06B70012002F075
:1034B00013F9E8488168EB4881428BDAE74989686B
:1034C000814287DAE878401CE87002E66C700A20D6
:1034D000E870FEE585F801A00B20E870F9E56C7056
:1034E0000C20E870F5E56E700120FFF773F8DC49F9
:1034F0000870002885D1E878401CE870E9E56B7019
:10350000012002F0E9F8D3488168D748814284DA83
:10351000D24989688142ACDA6C70E878401CE87066
:10352000D7E50D216970E870D3E56C70E870D0E5DF
:10353000FFF74AFCCA4908706E70002899D1C54847
:103540008168CA48814294DAC4498968814290DA24
:103550006C70E878401C08E06CE159E14CE147E10F
:1035600041E132E119E00FE001E0E870B1E56E7091
:10357000FFF7A0F902F074F9B9490870002891D159
:10358000E878401CE870A4E503214FF4167000F0C1
:1035900011FFE878401CE8709BE511216970E87024
:1035A00097E56C70E87094E56E700120FFF712F8F3
:1035B000AB490870002888D1E878401CE87088E59D
:1035C0006B70012002F088F8A2488168A848814207
:1035D00084DAA2498968814284DA6C70E878401CF8
:1035E000E87076E56C70E87073E56E700220FEF7A7
:1035F000F1FF9B490870002892D16320E87068E5CC
:103600000920E871E3E6092F75D008DC092F87D27D
:10361000DFE807F027353A3E4A5C616575000E2FFA
:103620006AD00FDC0A2F68D00B2F67D00C2F77D011
:103630000D2F9BD10321962000F0BCFEE878401CA2
:10364000E87046E50F2F6CD0102F6BD0632F8DD113
:10365000287E012867D00520E8716E700020E87090
:1036600037E58448814203DD824201DD6B7030E53D
:10367000814288DA824286DA6C70EC7029E585F83E
:1036800001800220E87024E56C7085F8039020E545
:103690006E700220FEF79EFF7149087000288ED1DF
:1036A000E878401CE87014E56B70012002F014F813
:1036B000684881686848814293DA6849896881422C
:1036C0008FDA6C70E878401CE87002E585F801A09C
:1036D0000620E870FDE46C700720E870F9E46E7075
:1036E0000120FEF777FF5E490870002887D1E8784F
:1036F000401CE870EDE417E03FE018E01BE06B7061
:10370000012001F0E9FF534881685B48814298DA63
:1037100052498968814294DAE878401CE870D8E41C
:103720001EE02EE030E03AE06C70E870D1E40C214D
:103730006970E870CDE4FFF747FB494908706E7087
:1037400000288DD1434881684748814288DA43493F
:103750008968814284DA6C70E878401CE870B8E4CB
:103760006E70FFF7A7F802F07BF83D49087000285B
:1037700084D1E878401CE870ABE410216970E870EF
:10378000A7E46C70E870A4E46E700220FEF722FFDC
:1037900033490870002886D16320E87099E4092035
:1037A000E8715AE7092F6BD007DC072F69D0082F83
:1037B0008BD110216970E8708BE40A2F76D0632FCB
:1037C00088D1687E012872D08AE02A48814203DDD0
:1037D000824201DD6B707CE481428BDA824289DABD
:1037E0006C70EC7075E485F801800220E87070E47C
:1037F0006C7085F803906CE46E700220FEF7EAFEB0
:103800001749087000288AD1E878401CE87060E405
:103810006B70012001F060FF0E48816814488142FE
:1038200084DA0E498968814284DA6C70E878401C39
:10383000E8704EE4FFF7C8FA094908706E70002876
:103840008DD1044881680D48814288DA034989682E
:10385000814217E02C040020000090415404002015
:1038600021000020000034420000F0410000D0415F
:103870000000A0410000304100000C420000E04187
:103880001EE015E0BFF66BAF6C70E878401CE87086
:103890001FE4FFF70FF86E7001F0E2FF12490870A5
:1038A000002889D1E878401CE87012E40BE015E0AC
:1038B0000321B42000F07EFDE878401CE87008E4A5
:1038C0006C70E87005E46E700220FEF783FE064916
:1038D0000870002886D16320E8700AE40920E871A6
:1038E0006E700020E87004E4210000202DE9F05FF4
:1038F0008A4C00222046A77C01250221DFF820B255
:1039000014266323C078012F09D0022875D075DCF6
:10391000002874D0012800D1E170BDE8F09F814FEC
:10392000DFF80482DFF80492DFF804A20A2867D0E7
:103930000ADC4FF006020A28EFD2DFE800F0222569
:10394000273545494C62667A4FF00E0C10286FD02F
:1039500008DCA0F10B000528DFD2DFE800F07C8F47
:103960009498A200112872D0122871D0132870D018
:103970006328D2D1207F01286CD0E171E27066709B
:10398000CBE76570E570C8E7E170C6E7022001F09B
:10399000A3FEDBF808004045BFDA66488068404572
:1039A000BBDA0320E070B8E7022001F095FE62491F
:1039B000DBF808008842B0DD5E48604980688842D4
:1039C000ABDA0420E070A8E762700520E070A4E79D
:1039D0006570E270A1E7FFF7F7F938700546667089
:1039E000DAF80810D9F80800FCF720FC404594DA12
:1039F000002D92D10720E0708FE77CE071E078E045
:103A00001BE065700820E07087E7FEF753FF01F0C8
:103A100027FF3870022203214FF4C87000F016FD12
:103A200038780028ACD1112060700920E07074E76C
:103A300045E065700A20E0706FE70120FEF7CAFDDF
:103A40003870667000289BD10B20E07065E73BE082
:103A50003EE040E042E0012001F03EFED9F80800DF
:103A600040458DDDDAF80810414589DD344A904241
:103A700086DA914284DA0C20E0704EE70420607010
:103A80000D20E07049E7657084F803C045E7012028
:103A9000FEF7A0FD38706670002884D10F20E0701A
:103AA0003BE7152060702748D9F8081081428ADA70
:103AB000DAF80810814286DA1020E0702DE784F8E9
:103AC00001C01120E07028E765701220E07024E743
:103AD0001320E07021E76670E3701EE70920E071B3
:103AE0004CE7032817D0632886D1E2706670E17135
:103AF00013E7E57011E7022001F0EEFD1248DBF854
:103B00000810814293DD0B49896881428FDA657024
:103B10000320E07001E7E370FFE600004C030020A3
:103B20007C040020210000200000C8412C0400205B
:103B300054040020A4040020000048420000F0418A
:103B400000000C4200008841000020422DE9F047AF
:103B5000434CE07A012823D1E0780125414E4FF013
:103B60001408612865D031DC3F4FDFF8009102284E
:103B700055D017DCB8B3012812D1FFF725F9307002
:103B8000064684F80180D9F80810B868FCF74EFBA7
:103B90003749884204DA002E02D165700220E070B5
:103BA000BDE8F08703284FD04D28F9D1012001F05E
:103BB00093FD3048B9688142F2DAD9F808108142A1
:103BC000EEDA0D2060706220E070E9E7622823D011
:103BD00063283DD0762815D07A28E1D10F20607077
:103BE0007620E070DCE7FFE7152060702248B968B6
:103BF0008142D5DAD9F808108142D1DA7A20E07012
:103C00006570CDE70120FEF7E5FC30706570002897
:103C1000C6D14D20E070C3E76570E570C0E7FEF7E0
:103C200049FE01F01DFE30700028B9D16120E0701E
:103C3000B6E7022203214FF4487000F007FC102081
:103C400060700320E070ABE765706320E070A7E769
:103C50000020E07084F801800920E071A0E70000F6
:103C60004C030020210000202C04002054040020DC
:103C70000000C841000048420000A0412DE9F05F6B
:103C8000924C0125204694F810E0C0780323411C93
:103C900002228F4FDFF83C82DFF83C921426DFF8D7
:103CA0003CA24FF0000C4FF0630BC9B2BEF1010F04
:103CB00009D0052872D072DC05281AD2DFE800F09E
:103CC000C7D6DADDE900072873D007DC072810D251
:103CD000DFE800F023313549565F67000B2877D0C5
:103CE00009DC08287AD009287BD00A2801D1657020
:103CF000E170BDE8F09F0C286DD00D286CD06328D2
:103D0000F7D1A07E012868D0E371667084F803C003
:103D1000BDE8F05FC82003F085BC012001F0DCFCA9
:103D2000B8685045E5DAD8F808005045E1DAE0789F
:103D3000401CE070DDE70C206070E270D9E7FFF70F
:103D400043F889F8000066700028D2D16448B96849
:103D50008142CEDAD8F808108142CADA6570E0787C
:103D6000401CE070C5E7FEF7A5FD667001F078FD28
:103D700089F800000028BCD1E078401CE070B8E76A
:103D800003214FF4487000F015FBE078401CE07010
:103D9000AFE7102060700620E070AAE77DE049E000
:103DA00007E06570C82003F03DFCE078401CE0703F
:103DB0009FE7022001F090FC4A48B968814298DAF6
:103DC000D8F80810814294DAE078401CE07090E75F
:103DD0000BE003E005E014E025E028E06570E17009
:103DE00087E70E206070E17083E766700220FEF7BF
:103DF000F1FB89F8000000289CD1E078401CE070BD
:103E000077E715206070022001F066FC3648B9683B
:103E100081428FDAD8F8081081428BDA6570E07839
:103E2000401CE07065E7667084F803B061E7092024
:103E3000E0716AE7062834D0072835D0082836D044
:103E400063288FD1E371667084F803C051E70120C5
:103E500001F042FCB868504584DAD8F808005045B3
:103E60008DDA6570E078401CE07042E70F206070EA
:103E7000E2703EE76570E3703BE766700120FEF795
:103E8000A9FB89F80000002887D1E078401CE07089
:103E90002FE765700520E0702BE704206070E1706B
:103EA00027E76270E17024E76570E17021E7022086
:103EB00001F012FC0D48B968814288DCD8F808107E
:103EC000814284DC657084F803B012E74C03002063
:103ED0002C04002054040020210000200000D041C8
:103EE0000000D84100007041000020410000304136
:103EF0002DE9F047394CE07B01281AD1E078012602
:103F0000411C374D1427C9B2042851D013DCDFF807
:103F1000D480DFF8D490C0B1012829D002283BD04A
:103F2000032806D10321642000F044FAE078401C05
:103F3000E070BDE8F08705283ED006283FD0632812
:103F4000F7D1607E012843D044E015206070022044
:103F500001F0C2FB2548D8F808108142E9DAD9F807
:103F600008108142E5DA6670E078401CE070E0E716
:103F7000FEF72AFF287067700028DAD11C48D8F8AD
:103F800008108142D5DAD9F808108142D1DA66707A
:103F9000E078401CE070CCE76770FEF78BFC01F026
:103FA0005FFC28700028C4D1E078401CE070C0E7B6
:103FB00010206070E170BCE76670E170B9E7022024
:103FC000FEF708FB28700028B3D16320E070B0E74B
:103FD0000920E07167700020E070AAE74C03002020
:103FE000210000202C040020540400200000B841CF
:103FF0000000E0412DE9F05FB848B84A0223047B95
:104000001521B74EB74FDFF8E092D27801254FF077
:10401000000C4FF0070B4FF004084FF0030E4FF465
:1040200061704FF0080A012C0BD0AC4C072A72D0FB
:1040300072DC072A25D2DFE802F0E0FBFEF8F7F693
:10404000F500A64C082A73D007DC082A19D2DFE84D
:1040500002F02136393D495165690C2A75D012DCD0
:10406000092A75D00A2A72D00B2A0AD10120FEF73C
:10407000B1FA9E49087014216170002801D10C200A
:10408000E070BDE8F09F0D2A77D0612A09D0632A3D
:10409000F7D190E06170C82003F0C4FA6120E070AD
:1040A000EFE7022001F018FBB0684FF0844188422E
:1040B000E7DAB8688842E4DA6570E570E1E76370D2
:1040C000E370DEE7657084F803E0DAE70220FEF7CC
:1040D00081FA86490870142161700028D1D184F8D2
:1040E0000380CEE761704FF47A7003F09BFA0520ED
:1040F000E070C6E7012001F0EFFA7D48D9F808101A
:104100008142BEDD7B4989688142BADA84F8018048
:104110000620E070B5E7BBE059E009E0657084F87F
:1041200003B0AEE7617003F07DFA84F803A0A8E75E
:10413000012001F0D1FA7048B1688142A1DAB96872
:1041400081429EDA0920E0709BE728E000E015E05C
:10415000FEF73AFE65498046087014206070B96821
:10416000B068FCF763F8654988428ADAB8F1000F55
:1041700087D165700A20E07083E719E0FEF79AFBAB
:1041800001F06EFB59490870002889D102220121F3
:104190004FF4167000F05AF90B20E07071E702221C
:1041A00003214FF4FA7000F051F90D20E07068E738
:1041B00065706320E070A07D012805D0E57184F86A
:1041C00003C0142060705CE70920E071F7E70B2A58
:1041D00077D008DC082A61D0092A6ED00A2A88D153
:1041E0000B20E0704DE7612A0ED0632A92D184F84B
:1041F00003C014206070E57143E76170C82003F0CC
:1042000011FA6120E0703CE7022001F065FAB06825
:104210004FF08441884284DAB868884287DA657052
:10422000E5702EE730E01EE015E008E003E0FFE770
:104230006370E37025E7657084F803E021E70220EE
:10424000FEF7C8F92949087014216170002893D13C
:1042500084F8038015E761704FF4487003F0E2F9C9
:104260000520E0700DE7012001F036FA2049D9F869
:104270000800884292DD1F48806888428EDA84F800
:1042800001800620E070FCE6657084F803B0F8E673
:10429000617003F0C7F984F803A0F2E6012001F091
:1042A0001BFA1748B16881428DDAB96881428ADA0F
:1042B0000920E070E5E604E0FFE765700A20E070A1
:1042C000DFE60120FEF786F90849087014216170C5
:1042D000002887D16320E0706570D2E64C0300208F
:1042E0002C04002054040020CC04002021000020D5
:1042F00000002042F404002000000C420000C841ED
:104300000000904138B50A46294C012813D00228F4
:1043100010D120462D2AD0E9131341D05A2A31D08A
:10432000872A36D0B42A05D1E069012200901046D0
:1043300000F088FF38BD1E482D2AD0E911131AD08D
:104340005A2A0AD0872A0FD0B42AF3D1A0680122B2
:104350000090104600F076FF38BD606801220090A2
:10436000104600F06FFF38BDE06801220090104653
:1043700000F068FF38BD206901220090104600F06F
:1043800061FF38BDA06901220090104600F05AFF7D
:1043900038BD206A01220090104600F053FF38BD5E
:1043A000606A01220090104600F04CFF38BD00000A
:1043B0007003002070B50546234C0A46012A616E41
:1043C00017D0022A2AD0032A3DD10220FEF720F876
:1043D0000220A16EFEF77EF8284603F023F90220A2
:1043E000E16EFEF715F8216FBDE870400220FEF780
:1043F00071B80A390220FEF70BF80220A16EFEF711
:1044000069F8284603F00EF90220E16EFEF700F885
:10441000216FBDE870400220FEF75CB80220FDF776
:10442000F7FFA16E02200A39FEF754F8284603F080
:10443000F9F80220E16EFDF7EBFF216FBDE8704057
:104440000220FEF747B870BD7003002070B5064625
:104450000B46494C012A616EA1F10A051BD0022AC4
:104460007ED1012B5BD0022B6ED0032B78D10220A2
:10447000FDF7CEFF0220A16EFEF72CF8304603F0C8
:10448000D1F80220E16EFDF7C3FF216FBDE8704057
:104490000220FEF71FB8012B17D0022B2AD0032BC6
:1044A00069D10120FDF7B4FF0120A16EFEF712F8DB
:1044B000304603F0B7F80120E16EFDF7A9FF216F48
:1044C000BDE870400120FEF705B829460120FDF740
:1044D0009FFF0120A16EFDF7FDFF304603F0A2F81B
:1044E0000120E16EFDF794FF216FBDE870400120CF
:1044F000FDF7F0BF0120FDF78BFFA16E01200A3907
:10450000FDF7E8FF304603F08DF80120E16EFDF77E
:104510007FFF216FBDE870400120FDF7DBBF29461A
:104520000220FDF775FF0220A16EFDF7D3FF304694
:1045300003F078F80220E16EFDF76AFF216FBDE815
:1045400070400220FDF7C6BF0220FDF761FFA16E9B
:1045500002200A39FDF7BEFF304603F063F800E0A1
:1045600009E00220E16EFDF753FF216FBDE87040C6
:104570000220FDF7AFBF70BD7003002010B50848E2
:10458000807815280AD0074C0120616EFDF740FFA6
:10459000A16EBDE810400120FDF79CBF10BD0000DA
:1045A0004C0300207003002008B503F001FA0090CE
:1045B0000521684603F060F800F01AF8F8E70000FB
:1045C0001FB500200649CDE90110062203460092DE
:1045D00003904FF4007203A1044803F06FF91FBD6C
:1045E000F0030020494E505554000000A945000832
:1045F00010B501F0FFF901F0C1F902488168491DC9
:10460000816010BDF003002030B50F4C0122204620
:10461000A37C017BC07A002B03D111B908B9A57A1C
:104620000DB113B103E0627730BD01B908B111B12A
:1046300002E0227530BD10B118B1627530BD22772D
:1046400030BDA27530BD00004C0300200748407902
:10465000002805D0012805D0022805D100F008B8AF
:10466000FDF74EBF00F022B8704700004C03002059
:104670000D488179012916D1017A002913D0C0791A
:104680000A2810D2DFE800F0050B090F0F0F0F0FFB
:10469000070DFEF7D9BBFFF729B9FFF7ABBCFFF752
:1046A00055BA00F001BB70474C03002010B5114C07
:1046B000207A01281CD10021E17102206071E17093
:1046C000002022181175401C0928FADB002022184E
:1046D0009172401C0928FADB0120A072A07420739B
:1046E000E072FFF791FF607F012801D10920E0719E
:1046F00010BD00004C03002007484079002805D079
:10470000012805D0022805D100F008B8FDF7F8BE51
:1047100000F024B8704700004C0300200E48817957
:10472000012917D1017A002914D0C079C01E0728A9
:1047300010D2DFE800F0060F040A080F0C00FFF7A4
:10474000D7BBFEF773BCFEF7CDB8FFF797BA0248A8
:1047500002F032BB704700004C0300201149087A78
:1047600001281DD10720C871022048710022CA709B
:1047700000200B181A75401C0928FADB00200B18C2
:104780009A72401C0928FADBCA73012048738A73A5
:1047900048740A74C875487F012801D10920C8717E
:1047A000704700004C030020704700002DE9F047DF
:1047B000534C03230125E078524FDFF84C8114223B
:1047C000524E4FF0050C082865D009DC4FF002016D
:1047D000082820D2DFE800F02C3C40434E52575BC3
:1047E0004749C978491CC9B20D286AD015DC092887
:1047F0005DD00A285ED00B2860D00C280BD1152084
:104800006070022000F068FF4FF4FA7002F00AFFB7
:10481000E078401CE070BDE8F0870E2854D00F28E7
:104820005DD06328F7D1627063710020E070F2E719
:10483000012000F051FF3648B9688142EBDAD8F820
:1048400008108142E7DA6570E078401CE070E2E72A
:104850000F206070E170DEE76570E370DBE7627087
:104860000120FDF7B7FE30700028D4D1E078401C5D
:10487000E070D0E7657084F803C0CCE70420607076
:104880000620E070C7E761700720E070C3E765703D
:104890000820E070BFE7022000F01EFF1D481E49FF
:1048A00080688842B7DDE078401CE070B3E765704F
:1048B000E170B0E784F801C0E170ACE76570E170C9
:1048C000A9E76570E170A6E762700220FDF782FE3D
:1048D000307000289FD1E078401CE0709BE70120F9
:1048E00000F0FAFEB8684FF08441884293DAD8F8B5
:1048F000080088428FDA65706320E0708BE7000063
:104900004C0300202C04002054040020210000202F
:104910000000D041CC040020000048422DE9F047BF
:10492000584C01251522E078DFF85C81411CDFF846
:104930005C911423564E574F4FF0030CC9B2072811
:1049400078D007DC072819D2DFE800F026383D418F
:104950004C5964000B2877D012DC08286DD0092848
:104960006FD00A280AD16270022000F0B5FE4FF421
:10497000487002F057FEE078401CE070BDE8F08718
:104980000C2864D00D286CD06328F7D1637084F8AC
:1049900005C00020E070F1E76270022000F09CFE8C
:1049A0003D48D8F808108142E8DAD9F80810814269
:1049B000E4DA6570E078401CE070DFE70E2060709C
:1049C0000220E070DAE7657084F803C0D6E7637010
:1049D0000220FDF7FFFD30700028CFD1E078401CA9
:1049E000E070CBE76270022000F076FE2B48806812
:1049F000B842C3DD6570E078401CE070BEE76370CC
:104A00000120FDF7E7FD30700028B7D1E078401CA9
:104A1000E070B3E76270012000F05EFE4FF4966034
:104A200002F000FEE078401CE070A7E702E00BE037
:104A300003E006E06570E170A0E704206070E170BB
:104A40009CE76570E17099E76570E17096E7022078
:104A5000FDF7C0FD3070002890D1E078401CE07078
:104A60008CE76270022000F037FED8F80800B842E8
:104A700084DAD9F80800B84280DA65706320E07003
:104A80007CE700004C0300202C040020540400208C
:104A9000210000200000204200009041F40400208A
:104AA00070B5364C0125364EE078152105283AD0F0
:104AB00006DC052812D2DFE800F012161E283100AD
:104AC000062834D007283ED01421082845D0632872
:104AD00004D16170032060710020E07070BD0F2070
:104AE0006070E57070BD6570C82002F09BFDE078D5
:104AF000401CE07070BD0120FDF76CFD3070002897
:104B0000F8D1E078401CE07070BD61704FF44870DF
:104B100002F088FDE078401CE07070BD04206070F9
:104B20000520E07070BD6570401CE07070BD617064
:104B3000012000F0D1FD4FF4167002F073FDE07813
:104B4000401CE07070BD0220FDF744FD307000286D
:104B5000F8D1E078401CE07070BD6170012000F079
:104B6000BBFD0848816808488142F5DA0749896831
:104B70008142F1DA65706320E07070BD4C03002063
:104B8000210000202C04002000000C4254040020CE
:104B90002DE9F0413E4C01251522E0781423411CFB
:104BA0003C4E3D4FC9B2052849D008DC4FF0040106
:104BB00005280DD2DFE800F01825303C3F0008281A
:104BC0004CD007DC06283DD0072801D16570E17084
:104BD000BDE8F08109284BD06328F9D16370032028
:104BE00060710020E070F3E76270022000F074FD55
:104BF0002A488068B842EBDD6570E078401CE070C0
:104C0000E6E763700120FDF7E5FC30700028DFD196
:104C1000E078401CE070DBE76270012000F05CFD92
:104C200040F2DC5002F0FEFCE078401CE070CFE780
:104C30006570E170CCE761700520E070C8E76570D1
:104C4000E170C5E76270022000F046FD4FF4E170AC
:104C500002F0E8FCE078401CE070B9E70120FDF7C5
:104C6000B9FC30700028B3D1E078401CE070AFE7A9
:104C70006270022000F030FD09488068B842A7DA6F
:104C800008488068B842A3DA65706320E0709FE747
:104C90004C0300202100002000002042F4040020EA
:104CA0002C040020540400202DE9F05FFE4D012665
:104CB0002A46297DDFF8F4931424FD4FDFF8F483AE
:104CC000D3784FF0030A4FF44870012920D03946B9
:104CD000424695F815E0896892684FF0040B4FF052
:104CE000150CBEF1010F48D095F816E01320BEF167
:104CF000010F7DD095F81CE0BEF1010F79D0687FDF
:104D0000012803D10020E87085F805A0BDE8F09FD8
:104D1000022B1BD00DDCABB1012BF7D10120FDF72D
:104D200059FC89F800006C700028EFD10220E8706F
:104D3000ECE7032B11D0632BE8D10020E87085F855
:104D400005A0E3E70E206870EE70DFE70122032183
:104D5000FFF77CFB85F803A0D8E7012000F0BCFC3E
:104D60006C70D548B9688142D0DAD8F80810814211
:104D7000CCDA6E706320E870C8E7092B7DD009DCBF
:104D8000092BC3D2DFE803F00F23054960677A855A
:104D90009500BBE7613B072BB8D2DFE803F0342D69
:104DA000B973154A9900022000F096FCB8684FF0DC
:104DB00084418842AADAD8F808008842A6DA02209C
:104DC00068706520E870A1E76E70EE709EE70220C3
:104DD00000F082FC6C70B8684FF08441884295DA2C
:104DE000D8F80800884291DA02206870622001E059
:104DF00093E045E1E87089E76E70C82002F012FC8C
:104E00006120E87082E70220FDF7E4FB89F80000EA
:104E100000288DD185F803A078E785F801C0A74860
:104E2000814285DA82428CDA022068706620E8705E
:104E30006CE70220FDF7CEFB89F800006C700028BB
:104E40008AD185F803B061E785F801C002F0EAFB7A
:104E50000520E8705AE7012000F03EFC6C70B8684D
:104E60004FF08441884287DAD8F80800884290DA07
:104E700085F801B00620E87048E739E06E706420DC
:104E8000E87043E785F801C002F0CCFB0720E8702A
:104E90003CE7012000F020FC6C708948B968814231
:104EA00091DAD8F8081081428DDA6E700820E87027
:104EB0002CE785F801C08148814284DA824285DA94
:104EC00085F801B0C82002F0ADFB6720E8701DE74F
:104ED0000120FDF77FFB89F800006C7000288AD163
:104EE0000920E870BDE8F05F4FF4C87002F09ABB8B
:104EF000012000F0F1FB6C706F48B96881428BDAD9
:104F0000D8F80810814287DA6E706320E870FDE6F9
:104F10000020E87085F805A0F8E6082B71D008DCC1
:104F2000082B85D2DFE803F0272A043B525B6E7C16
:104F3000ECE6642B6AD00ADC092B70D0612B24D0FC
:104F4000632B87D10020E87085F805A0DEE6662B8C
:104F500031D0672B90D10120FDF73CFB89F8000090
:104F60006C70002888D10920E870BDE8F05F4FF42C
:104F7000C87002F057BB6870EE70C7E66E70C8204C
:104F800002F050FB6120E870C0E60220FDF722FB32
:104F900089F8000000288BD185F803A0B6E685F8D3
:104FA00001C04648814292DA824290DA022068705B
:104FB0006620E870AAE60220FDF70CFB89F80000E5
:104FC0006C700028A3D185F803B09FE685F801C076
:104FD0004FF4C87002F026FB0520E87096E6012029
:104FE00000F07AFB6C70B8684FF0844188428EDA2A
:104FF000D8F8080088428ADA85F801B00620E870FF
:1050000084E61DE06E706420E8707FE685F801C0DC
:105010004FF4C87002F006FB0720E87076E61FE048
:10502000012000F059FB6C702548B96881428DDA87
:10503000D8F80810814289DA6E700820E87065E6B9
:1050400085F801C04FF08440814296DA824294DABA
:1050500085F801B0C82002F0E5FA6720E87055E64F
:10506000012000F039FB6C701348B968814284DA82
:10507000D8F80810814287DA6E706320E87045E640
:10508000032B4CD024DCCBB3012B3DD0022B85D19C
:10509000012000F021FB6C700948B968814289DA6F
:1050A000D8F8081081420DE04C03002021000020B8
:1050B0002C040020540400200000484200000C4250
:1050C00000003442BFF676AF6E7085F803A01DE68F
:1050D000042B34D0632B42D0672B91D10120FDF7F4
:1050E00079FA89F800006C70002889D185F803B03E
:1050F000BDE8F05F4FF4C87002F094BA6870C82041
:1051000002F090FAEE7001E60120FDF763FA89F8EB
:1051100000006C70002892D10220E870F6E585F856
:1051200001C04FF08440814289DA824287DA85F8F3
:1051300001B0C82002F076FA6720E870E6E50120A9
:1051400000F0CAFA6C700848B968814287DAD8F86A
:105150000810814293DA6E706320E870D6E5002073
:10516000E87085F805A0D1E500004842F8B50A4688
:10517000264B012803F12C03F0CB12D002280FD1CB
:1051800022482D2AD0E917312ED05A2A32D0872A28
:1051900036D0B42A04D102220120009700F052F840
:1051A000F8BD1A482D2AD0E915130BD05A2A0FD072
:1051B000872A13D0B42AF3D101220220009700F0ED
:1051C00041F8F8BD01220220009400F03BF8F8BD40
:1051D00001220220009500F035F8F8BD01220220DE
:1051E000009600F02FF8F8BD02220120009400F094
:1051F00029F8F8BD02220120009500F023F8F8BD3F
:1052000002220120009600F01DF8F8BD7003002076
:1052100070B50948807816280DD0084C084D2088B4
:1052200081B22846FCF782FEA1882846BDE870407E
:1052300089B2FCF77DBE70BD4C030020DC0300206A
:10524000000400402DE9F8438046894616461F4673
:10525000089C02F0ADFB00904FF47A704443B4FB1D
:10526000F0F4114DA87901281BD10020A8714946FE
:105270004046FDF7CDF839463046FDF72BF921467B
:10528000684602F0F9F9094C094E208881B230468F
:10529000FCF74CFEA188304689B2FCF749FE01209C
:1052A000A871BDE8F88300004C030020DC03002057
:1052B0000004004070B50948807801280DD0084CE2
:1052C000084D208881B22846FCF730FEA188284688
:1052D000BDE8704089B2FCF72BBE70BD4C030020C6
:1052E000DC0300200004004008B502F061FB0090E0
:1052F0000121684602F0C0F900F01CF8012002F01C
:1053000091F9F5E71FB500200649CDE90110052206
:105310000346009203904FF4007203A1044802F088
:10532000CDFA1FBDE403002057616C6B0000000044
:10533000E952000810B53F4C607817286FD2DFE8BB
:1053400000F06E0C0F14191E23282D32373C4155E6
:10535000465A4B5F50646E696C00FFF7ABFF5EE02E
:105360005A210120FEF7CEFF59E0B4210120FEF7BB
:10537000C9FF54E05A210220FEF7C4FF4FE0B421D8
:105380000220FEF7BFFF4AE087210120FEF7BAFFA7
:1053900045E02D210120FEF7B5FF40E087210220E6
:1053A000FEF7B0FF3BE02D210220FEF7ABFF36E019
:1053B0002D210120FDF7F0F831E02D210220FDF72D
:1053C000EBF82CE02D210120FFF7D0FE27E05A2139
:1053D0000120FFF7CBFE22E087210120FFF7C6FE68
:1053E0001DE0B4210120FFF7C1FE18E02D210220AD
:1053F000FFF7BCFE13E05A210220FFF7B7FE0EE0D4
:1054000087210220FFF7B2FE09E0B4210220FFF756
:10541000ADFE04E0FFF7B2F801E0FFF7F9FE6078B7
:10542000A0702179002903D1152801D001206070D6
:1054300010BD00004C030020014800F0F1BE000048
:10544000340000201FB500200649CDE901100322D9
:105450000346009203904FF4007203A1034802F048
:105460002DFA1FBD1404002041444300312E0008D2
:1054700010B50420FCF7F2F81048114CC06890F801
:10548000701002290AD0062908D0042906D0E06944
:1054900058B10C280ED9C0070AD00BE0416FC07874
:1054A00051F8200030B1804704E000F00BF801E033
:1054B00000F008F8E069401CE06110BD0800002021
:1054C000BC00002010B5074CE068C16E002904D074
:1054D00001F022F9E068C06EE060BDE8104001F024
:1054E0005DBC0000080000200D4B8118994201D9D5
:1054F0000320704712B10123002109E0002070470A
:105500000378FF2B01D0022070470023401C491C68
:105510009142F5D3012B01D0012070470020704744
:10552000000004086FF30A00704710B54FF4407094
:10553000FCF78AF800F03CF8BDE81040AFF30080BB
:1055400038B501218020FCF7C9F9012000F03CF8B2
:10555000022000F039F8032000F036F8042000F0B3
:1055600033F803208DF8020010208DF80300C001ED
:10557000ADF800000D4C69462046FBF7D7FD8021B1
:10558000ADF8001069462046FBF7D0FDA115ADF837
:10559000001069462046FBF7C9FD6115ADF8001003
:1055A00069462046FBF7C2FD38BD0000001C0140E3
:1055B00010B5FCF76FFEFBF7C7FFFCF7F3F9BDE88A
:1055C0001040FBF772BB0000401EC0B20B49002820
:1055D00008D001280AD002280BD0032801D1481591
:1055E000086070474FF400600860704780200860D2
:1055F00070474FF48070086070470000101C014035
:1056000010B50A4C8318A34201D9012010BD0AB17C
:10561000002306E0012010BD10F8014B01F8014BFA
:105620005B1C9342F8D3002010BD0000000004086A
:105630002DE9F04107468846164604252549B81944
:10564000884202D90120BDE8F0811EB1F00703D0E5
:105650000120F8E70020F6E7324641463846FFF7DA
:1056600043FF044654B1012080F31088FBF72EFD60
:105670003520FBF7D1FC022C02D00BE00020E2E742
:105680003846FFF74FFFFBF7CDFC0546042D01D050
:105690000220D8E700240EE018F8140008EB4401BB
:1056A000497840EA01213846FBF7F6FC0546042D0F
:1056B00004D1BF1C641CB4EB560FEDD3FBF7E4FC24
:1056C000002080F31088042D01D00220BBE70020C9
:1056D000B9E70000000004082DE9F0475A4C594E84
:1056E0005A4A616E012833D002287CD1DFF86091DC
:1056F000D9F80850954277DCDFF85881D8F808705F
:10570000974271DC39462846FAF7E2FDFAF756FF70
:1057100021F00041FAF765FF30600221FAF710FE30
:10572000064639462846FAF783FF66D20120616EA5
:10573000FCF76EFEA06EFAF728FF3146FAF7C8FDB7
:10574000FAF728FFBDE8F04701460120FCF7C2BE8A
:10575000DFF80491D9F80850954242DCDFF8FC806C
:10576000D8F8087097423CDC39462846FAF7B0FD75
:10577000FAF724FF21F00041FAF733FF30600221ED
:10578000FAF7DEFD064639462846FAF751FF0FD2F2
:10579000606EFAF7FAFE3146FAF79AFDFAF7FAFE6A
:1057A00001460120FCF734FE0120A16EFCF792FEB9
:1057B000D8F80810D9F80800FAF730FF3FD20120D6
:1057C000616EFCF725FEA06EFAF7DFFE3146FAF7B0
:1057D0007FFDFAF7DFFEBDE8F04701460120FCF748
:1057E00079BE012001E02AE020E0FCF711FEA16E65
:1057F000BDE8F0470120FCF76DBED8F80810D9F8D5
:105800000800FAF70BFF1AD2606EFAF7BEFE3146B7
:10581000FAF75EFDFAF7BEFE01460120FCF7F8FD3F
:10582000A16EBDE8F0470120FCF754BE0120FCF753
:10583000EFFDA16EBDE8F0470120FCF74BBEBDE8CF
:10584000F087000024000020700300200000A04129
:10585000CC040020F40400207C040020A4040020D8
:1058600010B502200B4C217801290AD10A490B4BB3
:105870000A689A4202DB4968994203DAFDF71AF88E
:10588000012010BD9A42FCDD9942FADD0020207013
:1058900010BD00004C03002034000020000096439F
:1058A00010B50320FBF7DAFE1548164CC06890F8D7
:1058B000701002291BD0062919D0042917D082782C
:1058C000C178521E91420AD0491CCAB2C2704178B6
:1058D0008A4204D9491C41700178491C0170012198
:1058E00080F87010A180A069401CA06110BD416FBC
:1058F000C07851F820000028F5D08047F3E7000079
:1059000008000020BC00002000B51A49002801D082
:1059100000200870087808B1002000BD0120087040
:10592000154B991D184600F051F808B1012000BD33
:10593000D91D581C00F04AF808B1022000BD0E49DC
:10594000981C083100F042F808B1032000BD0A4954
:10595000D81C093100F03AF808B1042000BD06490E
:10596000181D0A3100F032F808B1052000BD0020F2
:1059700000BD0000410000202004002070B5104D43
:1059800004212846FBF754FC0E4C207002212846C7
:10599000FBF74EFCE07020210B48FBF749FC6070E0
:1059A00008212846FBF744FCA07001212846FBF79C
:1059B0003FFC20710120FFF7A7FFE07270BD0000DF
:1059C0000018014020040020000801400246002089
:1059D0001278002A02D0012A06D103E00A78521C6C
:1059E0000A7001E000220A7009780A2900D9012012
:1059F0007047000070B50E4D40212846FBF718FC9B
:105A00000C4C207020212846FBF712FC60701021FE
:105A10002846FBF70DFCA07008212846FBF708FC80
:105A2000E07004212846FBF703FC207170BD0000E4
:105A3000001801403C00002070B510210A48FBF717
:105A40003CF810210948FBF738F8094C002525607F
:105A5000656010210748FBF730F810210648FBF776
:105A60002CF8A560E56070BD70830008788300089D
:105A7000B081224280830008888300080348002107
:105A8000016041608160C16070470000B0812242C6
:105A900010B500F04BF800F01DF9FAF7B7FE00F072
:105AA00053F900F049F900F00BF800F00BF8BDE8ED
:105AB000104010210148FBF700B80000688300087F
:105AC000FFF7BABF38B501216420FBF707FF0320B9
:105AD0008DF8020048208DF803000420ADF8000086
