:020000040800F2
:10000000C8720020090200087D1500082D1500089F
:100010007B150008F50C00088F2100080000000087
:100020000000000000000000000000006501000862
:10003000470E000800000000A9010008211A00086E
:1000400023020008230200082302000823020008FC
:1000500023020008230200082302000823020008EC
:100060002302000823020008490E000823020008AA
:1000700023020008230200082302000823020008CC
:1000800023020008230200082302000823020008BC
:10009000230200082302000823020008A50F00081D
:1000A000230200082302000823020008230200089C
:1000B0002302000823020008E11B000823020008B5
:1000C000230200082302000823020008230200087C
:1000D00023020008F91F0008230200082302000879
:1000E0002302000823020008230200080000000089
:1000F0000000000000000000000000000000000000
:100100000000000000000000230200082302000895
:10011000230200082302000823020008230200082B
:10012000230200082302000823020008230200081B
:10013000230200082302000823020008230200080B
:1001400023020008230200082302000823020008FB
:10015000DFF80CD000F062FB00480047FD6F00089C
:10016000C8720020204B19680868B0E8F00F80F3CF
:100170000988BFF36F8F4FF0000080F311884EF0B5
:100180000D0E70470000000006480068006880F30C
:10019000088862B661B6BFF34F8FBFF36F8F00DF81
:1001A00000BF00BF08ED00E0EFF30980BFF36F8FE1
:1001B0000D4B1A6820E9F00F106008B54FF01000E1
:1001C00080F3118808F0AAFA4FF0000080F311883C
:1001D000BDE8084019680868B0E8F00F80F30988A6
:1001E000BFF36F8F704700BF5C000020EFF31180FA
:1001F0004FF0100181F31188704780F31188704728
:10020000EFF3058070470000064880470648004726
:10021000FEE7FEE7FEE7FEE7FEE7FEE7FEE7FEE7B6
:10022000FEE7FEE7451A000851010008F0B480EA35
:100230000102D40F4200B2EB410F02D2024608463F
:1002400011464A0042D0C30DDDB2C1F3C752AD1A08
:10025000202D35DAC1F3160141F4000204B15242F7
:10026000C5F1200602FA06F12A411044B3EBD05F33
:1002700023D0C4B1012DA0EBC35009DCF0BC4FF07A
:10028000004202EAC352DBB200F5000000F03ABAC5
:10029000400000F1807000EBC350A0F1807040EA94
:1002A000D170490009E0490841EAC071A0EBC35090
:1002B00000F50000400800EBC350F0BC00F019BA94
:1002C0006142012202EB4101001BF6E7F0BC7047DE
:1002D00081F00041AAE780F00040A7E780EA010230
:1002E00010B502F00043400022D04A001FD0010E9A
:1002F00001EB1261C0F35600C2F3560240F4000055
:1003000042F40002A0FB022000047F39140400D054
:10031000401C50EA124001D44000491EC2B20C06F3
:1003200004EBD010401C4008802A02D003E00020DB
:1003300010BD20F00100002900DA0020184310BD94
:10034000420005D0C0F3C7525242914201DC002066
:10035000704700EBC15070472DE9FE4F804681EA9F
:100360000300C00F0C46009021F0004123F000452F
:10037000B8EB0200A94105D24046214690461C46F2
:100380000B46024623F00040104347D0270DC7F329
:100390000A00C3F30A510290401A019040286BDA18
:1003A000C3F3130040F4801B0098924620B1002351
:1003B000D2EB030A63EB0B0B01985946C0F14002E4
:1003C000504600F065F906460D4650465946019ADA
:1003D00000F07DF910EB08006141002487EA11521A
:1003E00084EAE7731A4340D0009A62B3019A012A63
:1003F0004FEA075215DC001B61EB02014FF000428F
:1004000002EA0752CDE90042001C41F58011324654
:100410002B4600F0B4F903B0BDE8F08F404621460A
:10042000F9E7001B61EB0201001C41F58013001885
:100430005B412018A2F5001747EB030140EAD57095
:10044000B6196D4111E06D084FEA360645EAC075F0
:100450004FEA0752001B61EB0201001C41F58011BD
:1004600049084FEA30000019514132462B4603B08B
:10047000BDE8F04F00F074B900980122400000235D
:10048000D0EB020263EBE073009821464FEAE07480
:10049000B8EB000061EB0401E9E783F000435BE7A0
:1004A00081F0004158E72DE9FE4F81EA030404F092
:1004B000004421F0004100944FF0000B23F0004372
:1004C00050EA01045ED052EA03045BD0C3F30A543D
:1004D000C1F30A552C44A4F2F3340194A0FB025456
:1004E000C1F3130141F48011C3F3130343F48013E8
:1004F00001FB024400FB034E840A970A44EA81543C
:1005000047EA8357A4FB076802958D0A05FB078518
:100510004FEA932C04FB0C542705029D4FEA065822
:1005200047EA1637B5EB08056EEB070C870E920EFF
:1005300047EA811742EA8312A7FB0201B6EB0B01DF
:1005400064EB00042B0D43EA0C335E1844EB1C50A3
:10055000DA465146E7FB0201C5F313044FEA0B33B9
:1005600043EA14534FEA0432019C43EA0603A4F120
:100570000C040294009CCDE900B400F000F903B033
:10058000BDE8F08F00200146F9E7962300221146CE
:1005900000F0B8B80EB540F2334102910021CDE928
:1005A00000110A460B4600F0EAF803B000BD20F047
:1005B0000040C10DC0F3160040F400007F2901DAAD
:1005C00000207047962903DCC1F19601C8407047AE
:1005D000963988407047C1F30A5210B5C1F3130130
:1005E00040F2FF3341F480119A4201DA002010BD3D
:1005F00040F233439A42A2F2334203DC524200F00B
:1006000056F810BD904010BD00F0004230F00040A0
:100610000AD0C10D01F56071C0F3160042EA015124
:10062000C20840071143704700200146704701F09F
:10063000004330B421F0004150EA010206D00A0D17
:10064000A2F56072C1F31301002A02DC30BC002065
:100650007047440F44EAC104C100E01830BC00EB0D
:10066000C25000F046B80000002801DBC0F1004095
:10067000002901DBC1F1004181427047002801DB04
:10068000C0F10040002901DBC1F100418842704700
:10069000202A04DB203A00FA02F100207047914042
:1006A000C2F1200320FA03F3194390407047202A37
:1006B00004DB203A21FA02F00021704721FA02F30C
:1006C000D040C2F120029140084319467047202AC9
:1006D00006DBCB17203A41FA02F043EAE07306E06A
:1006E00041FA02F3D040C2F120029140084319467A
:1006F00070470029A8BF7047401C490008BF20F080
:100700000100704710B4B0FA80FC00FA0CF050EA17
:10071000010404BF10BC704749B1CCF1200421FA98
:1007200004F411FA0CF118BF012121430843A3EB93
:100730000C01CB1D4FEA00614FEA102042BF0020A0
:1007400010BC704700EBC35010440029A4BF10BC7C
:100750007047401C490008BF20F0010010BC7047E2
:1007600010B5141E73F1000408DA401C41F10001B9
:1007700092185B411A4301D120F0010010BD2DE910
:10078000F04D92469B4611B1B1FA81F202E0B0FA07
:1007900080F220329046FFF77BFF04460F4640EA86
:1007A0000A0041EA0B0153465A46084313D011464A
:1007B00053EA010019D0C8F140025046FFF777FF15
:1007C00005460E46504659464246FFF761FF08432C
:1007D00005D0012004E020463946BDE8F08D002018
:1007E000054346EAE0762C4337430A986305E40A5A
:1007F000A0EB08000022FD0A44EA47540A3002D563
:1008000000200146E9E7010510196941DDE90845C5
:1008100000196941BDE8F04DA2E70000064C074D04
:1008200006E0E06840F0010394E8070098471034C0
:10083000AC42F6D3FFF790FCB0950008D0950008C5
:10084000002904D0816841F001018160704781680E
:1008500021F001018160704730B591B00121084657
:1008600000F0EEFF3E4D284600F054FA3D4801905E
:100870003D4802900024039428210491059480218E
:1008800006914900079188000890202009900002F5
:100890000A900B9401A9284600F0B8FA01212846D5
:1008A00000F02AFA0121480200F0E6FF00212F485B
:1008B00000F029F900212E4800F025F900212D48EB
:1008C00000F021F900212C4800F01DF90C940120C2
:1008D0008DF834008DF835004FF460200E900F94A1
:1008E00002208DF840001F4C0CA94C3C204600F023
:1008F0005FF8052301220A21204600F07DF8052338
:1009000002220B21204600F077F8052303220C2158
:10091000204600F071F8052304220D21204600F046
:100920006BF80121204600F029F801212046FFF74D
:1009300087FF204600F09AF8204600F032F80028A1
:10094000FAD1204600F0A3F8204600F023F8002852
:10095000FAD10121204600F08EF811B030BD000020
:10096000080002404C240140C406002008950008FD
:10097000109500081895000820950008002904D05B
:10098000816841F4807181607047816821F48071D1
:1009900081607047014600208968490700D5012021
:1009A0007047014600208968090700D5012070477B
:1009B00010B542680E4B1A400C790B6842EA0422CB
:1009C0001343436082680B4B1A40D1E9024323432F
:1009D0004C7942EA440213438360C26A22F47002F3
:1009E000097C491EC9B242EA0151C16210BD000032
:1009F000FFFEF0FFFDF7F1FF70B5072609290AD9C0
:100A0000C568A1F10A0404EB4404A640B543A34021
:100A10001D43C56007E0056901EB4104A640B543ED
:100A2000A3401D4305611F23072A09D2446B521EB0
:100A300002EB820293409C4391400C43446370BD9F
:100A40000D2A09D2046BD21F02EB820293409C4311
:100A500091400C43046370BDC46A0D3A02EB8202FC
:100A600093409C4391400C43C46270BD816841F047
:100A7000080181607047002904D0816841F4A00119
:100A800081607047816821F4A001816070478168AE
:100A900041F00401816070472DE9FE430746884616
:100AA00016461D462821384600F02DF8012108463B
:100AB00000F0E2FE384600F02EFCC4B2384600F0EA
:100AC00077FC214600F036FB384600F0D4FB00905E
:100AD00000208DF804008DF8058001248DF8064073
:100AE000684600F077FA384600F094FC8DF808006C
:100AF0008DF809608DF80A508DF80B4002A800F0BF
:100B00003FFDBDE8FE8338B504460D46204600F0A3
:100B10000DF8A088ADF800008DF8035003208DF883
:100B200002006946206800F019FB38BD124A0168CE
:100B3000914201D104201CE0104A914201D10820C9
:100B400017E00F4A914201D1102012E00D4A914264
:100B500001D120200DE00C4A914201D1402008E053
:100B60000A4A914201D1802003E0094A914200D112
:100B70008815012100F080BE00080140000C0140F2
:100B8000001001400014014000180140001C014009
:100B9000002001402DE9FF4180460A9F0C46164681
:100BA0001D46404600F028F8ADF80840ADF8046056
:100BB0000021ADF80610ADF80A1001A9404601F079
:100BC000CDF901221146404601F05EF80121404670
:100BD00001F042F8404601F089F98DF800008DF8E7
:100BE00001508DF8027001208DF80300684600F076
:100BF000C7FCBDE8FF8100003149884203D10121D3
:100C0000C01400F039BEB0F1804F06D02D498842A3
:100C100007D10121022000F021BE0121084600F089
:100C20001DBE2949884203D10121042000F016BECF
:100C30002649884203D10121082000F00FBE244933
:100C4000884203D10121102000F008BE21498842CA
:100C500003D10121202000F001BE1F49884203D1A9
:100C60000121401400F008BE1C49884203D1012133
:100C7000C80400F001BE1A49884203D101210805C9
:100C800000F0FABD1749884203D10121480500F060
:100C9000F3BD1549884203D10121402000F0DEBD9B
:100CA0001249884203D10121802000F0D7BD1049AC
:100CB000884203D10121801500F0D0BD70470000AB
:100CC000002C01400004004000080040000C0040DF
:100CD000001000400014004000340140004C01406E
:100CE000005001400054014000180040001C00402A
:100CF00000200040FEE77047002904D0016841F061
:100D000001010160704701684FF6FE7211400160F9
:100D10007047000001684FF6FE721140016000212B
:100D2000016041608160C1603649364A08399042AD
:100D300004D1486840F00F0048607047314A1432CF
:100D4000904204D1486840F0F000486070472D4A56
:100D50002832904204D1486840F47060486070477F
:100D6000284A3C32904204D1486840F470404860C0
:100D70007047244A5032904204D1486840F47020B1
:100D8000486070471F4A6432904204D1486840F47A
:100D90007000486070471B4A7832904204D148681E
:100DA00040F0706048607047174A111F904204D1AC
:100DB000086840F00F0008607047134A14329042F0
:100DC00004D1086840F0F000086070470E4A2832ED
:100DD000904204D1086840F47060086070470A4A85
:100DE0003C32904204D1086840F47040086070477B
:100DF000054A50329042FAD1086840F470200860E9
:100E000070470000080002400804024030B5026844
:100E100047F6F0739A430C6A8B682343D1E9044583
:100E20002C4323438C692343CC6923434C6A2343DB
:100E30008C6A234313430360CA6842600A68826075
:100E40004968C16030BD704710B50C4800F013FA16
:100E500000F0B0F8002810D009480078012805D12A
:100E60000849094802F062F806498860034800F022
:100E700002FABDE8104000F097B810BD5095000888
:100E80002C000020AC0500200008004070B53D4853
:100E900000F0F1F900F08EF83B4C3C4D78B1207831
:100EA000022805D13A49284602F040F838498860BE
:100EB000344800F0E0F9BDE8704000F075B83548FE
:100EC00000F0D9F900F076F888B12078032807D12E
:100ED0002F492846283102F029F82D492831886009
:100EE0002C4800F0C8F9BDE8704000F05DB82A4811
:100EF00000F0C1F900F05EF888B12078042807D12D
:100F000023492846503102F011F8214950318860B8
:100F1000214800F0B0F9BDE8704000F045B81F4826
:100F200000F0A9F900F046F888B12078052807D12B
:100F300017492846783101F0F9FF15497831886062
:100F4000164800F098F9BDE8704000F02DB814483C
:100F500000F091F900F02EF8002811D02078062832
:100F600007D10B492846A03101F0E0FF0849A03124
:100F700088600B4800F07FF9BDE8704000F014B8BD
:100F800070BD0000589500082C00002000080040AB
:100F9000D405002060950008689500087095000849
:100FA00078950008FFF772BF01490860704700009C
:100FB0001404014001460020054A12680A40044B0F
:100FC00014331B680B4202D0002A00D00120704766
:100FD0000004014030B51B4A83790168002B2AD0F8
:100FE00013688B431360111D0B680468A3430B60E7
:100FF000017911440B68046823430B60114C0834D9
:101000002168036899432160231D19680568A94375
:1010100019604179102905D011440A68006802431B
:101020000A6030BD216802681143216019680068B8
:101030000143196030BD0079104402688A430260A0
:1010400030BD0000000401400149C8607047000045
:101050000020024070B505464FF43026304600F0BF
:1010600059F8042811D1094C206940F00200206190
:101070006561206940F040002061304600F04AF888
:10108000216941F6FD721140216170BD00200240CE
:1010900004200849CA68D20701D001207047CA68F5
:1010A000520701D502207047C968C906FBD5032045
:1010B00070470000002002400248016941F08001B1
:1010C0000161704700200240F0B506460D464FF41E
:1010D0000057384600F01EF804280CD1064C206951
:1010E00040F0010020613580384600F013F8216996
:1010F000BA1E11402161F0BD0020024003480249A0
:101100004160034941607047230167450020024068
:10111000AB89EFCD00B50346FFF7BAFF02E0FFF75A
:10112000B7FF5B1E012801D1002BF8D1002B00D1A5
:10113000052000BD10B58A07120F0F23934021F040
:101140000304054921448C689C438C608B68904063
:1011500003438B6010BD0000000001402DE9F04109
:101160000022CC7804F00F03E40601D58C782343E9
:101170000C784FF00F0714F0FF0F4FF0010C1CD04C
:1011800005680CFA02F40E882640A64211D196009A
:1011900007FA06F825EA080503FA06F848EA0505FD
:1011A000CE78282E02D0482E02D002E0446100E022
:1011B0000461521C082AE4D305600A88FF2A1ED95C
:1011C0004568002202F108060CFA06F40E88264053
:1011D000A64210D1960007FA06F825EA080503FA98
:1011E00006F848EA0505CE78282E00D14461CE786D
:1011F000482E00D10461521C082AE3D34560BDE8A3
:10120000F0810000F0B5154C002801DAE36900E038
:101210006368C0F30346420D120185B2C0F3015763
:101220009540032F07D0C2020CD50322B24093434E
:1012300043F0706209E023F07062636823F070632A
:10124000636002E0AB4343F0706201B12A430028BF
:1012500001DAE261F0BD6260F0BD00000000014013
:101260000246002092680A4200D001207047416186
:1012700070470161704741684FF4807291423ED0DF
:1012800014DC102935D009DC01292CD002292CD0FE
:1012900004292CD0082900D10820704720292AD001
:1012A00040292AD08029F8D1802070474FF48052FD
:1012B00091422AD00BDC4FF40072914221D05200AF
:1012C000914220D052009142EFD1104670474FF426
:1012D000005291421BD0520091421AD052009142CA
:1012E000F4D1104670470120704702207047042057
:1012F00070471020704720207047402070471046EC
:1013000070471046704710467047104670471046A9
:101310007047104670474168B1F5807F3BD014DCC0
:10132000102932D009DC012929D0022929D0042929
:1013300029D0082900D103207047202927D040292F
:1013400027D08029F8D107207047B1F5805F28D0D9
:101350000ADCB1F5007F20D0B1F5806F1FD0B1F568
:10136000006FF1D10B207047B1F5005F1BD0B1F5D4
:10137000804F1AD0B1F5004FF5D10F2070470020F3
:1013800070470120704702207047042070470520F5
:1013900070470620704708207047092070470A20D0
:1013A00070470C2070470D2070470E2070470000DA
:1013B000114A0168914201D1002070470F4A9142C1
:1013C00001D1012070470E4A914201D1022070479D
:1013D0000C4A914201D1032070470B4A914201D13E
:1013E00004207047094A914201D105207047084AFC
:1013F0009142FBD10620704700080140000C0140DB
:10140000001001400014014000180140001C014080
:10141000002001404168B1F5807F3BD014DC1029E9
:1014200032D009DC012929D0022929D0042929D068
:10143000082900D109207047202927D0402927D02A
:101440008029F8D117207047B1F5805F28D00ADCD9
:10145000B1F5007F20D0B1F5806F1FD0B1F5006FDE
:10146000F1D128207047B1F5005F1BD0B1F5804F56
:101470001AD0B1F5004FF5D12820704706207047EB
:1014800007207047082070470A20704717207047D0
:101490001720704717207047172070472820704783
:1014A00028207047282070472820704708B507F08B
:1014B0005FFB00900B4D0C4E0C4F0D4C64216846A9
:1014C00007F0B8F8D5F89C01C043C5F89C01D4E9F1
:1014D000000132463B46FEF73FFFC4E9000106F03B
:1014E00099F8EBE7008022429A9999999999B93F26
:1014F000000000201FB500F017F800200649CDE9D4
:1015000001100222034600920390120203A1054833
:1015100007F0B4FA1FBD0000EC000020574F524BFB
:1015200000000000AD14000805F0A8BD06A30020CF
:10153000104C211F1A5C22800A885206FCD5401CE0
:10154000C0B22A28F6D3FEE70D0A456E74657220F4
:10155000486172644661756C745F48616E646C6565
:10156000722C2053797374656D2048616C742E0D54
:101570000A000000043801407047FEE77047000091
:1015800070B50F23C27801260178002A1ED0144AB4
:10159000126802F4E062C2F5E062120AC2F10404C9
:1015A000D3404578A54082781A402A43120101F1C0
:1015B000E02181F80024007800F01F018E404009EE
:1015C000800000F1E020C0F8006170BD01F01F0054
:1015D00086404809800000F1E020C0F8806170BDBD
:1015E0000CED00E002490843024908607047000022
:1015F0000000FA050CED00E010B50021054B0022BB
:10160000814202D003EB8104E260491CC9B2062981
:10161000F6D310BDC000002070B5002505F1B00064
:10162000C0B2002100F0D2F80021084600F0CEF848
:101630000021102000F0CAF800240121002000F051
:10164000C5F8641CE4B2802CF7D36D1CEDB2082DF4
:10165000E4D370BD002205E00021491CC9B206296F
:10166000FBD3521C8242F7D3704710B50446B03109
:10167000C8B2002100F0AAF8102040EA141000219E
:1016800000F0A4F804F00F00BDE81040002100F0C5
:101690009DB800002DE9F04180460F460024203A15
:1016A000D5B2B8F17F0F02D9A046BF1CFFB2102BF4
:1016B00012D039464046FFF7D8FF184905EB4500E0
:1016C00001EB40050121285D00F080F8641CE4B2C4
:1016D000062CF7D3BDE8F08139464046FFF7C5FF39
:1016E0000F4E04EB05100121305C00F06FF8641C14
:1016F000E4B2082CF5D37F1CF9B24046FFF7B5FFE2
:10170000002404EB051030440121007A00F05EF85B
:10171000641CE4B2082CF4D3DCE70000F08C000871
:10172000188F00082DE9F05F8046DDF828A08B4671
:1017300091461D46002600244FEA5A071DE0281B4B
:10174000401EC1B20A2006F03BF8B9FBF0F00A21B6
:10175000B0FBF1F201FB120026B9691E8C4201DADE
:1017600078B101263030C2B207FB0480C0B25346C4
:101770005946FFF78FFF641CE4B2AC42DFD3BDE8EB
:10178000F09F07FB0480C0B2534620225946FFF762
:1017900081FFF0E72DE9F04104460E4617469846D2
:1017A00000250DE0434631462046FFF773FF08341D
:1017B000E4B2782C02D90024B61CF6B26D1CEDB24E
:1017C0007A5D002AEED1BDE8F08100002DE9F047F6
:1017D0000546DFF864904FF48068002904D0414644
:1017E0004846FFF746FD03E041464846FFF73FFD08
:1017F0000024124F4FF4006631463846FFF737FD9C
:10180000280604D541463846FFF733FD03E041463C
:101810003846FFF72CFD31463846FFF72AFD6806AB
:10182000050E641CE4B2082CE6D341464846BDE8E8
:10183000F047FFF71EBD00000010014000140140FA
:10184000054A002903D0516901435161704751692C
:10185000814351617047000000100240054A002991
:1018600003D0D1690143D1617047D1698143D1610E
:101870007047000000100240054A002903D091691A
:101880000143916170479169814391617047000004
:101890000010024010B5264A516801F00C01254B9A
:1018A000002927D0042927D0082927D003605168B0
:1018B00001F0F0010909204B5C5C0168E1404160E6
:1018C000546804F4E064240A1C5D21FA04F4846082
:1018D000546804F46054E40A1B5DD940C160526846
:1018E00002F44042920B144B1B1F9A5CB1FBF2F1C5
:1018F000016110BD0360DAE70360D8E7516801F4C5
:101900007011536803F48033022404EB914133B126
:1019100053689B0307D5094B59430160C7E7074B41
:1019200059430160C3E7034B59430160BFE700001F
:101930000010024000127A004C00002000093D0017
:1019400008B501210820FFF797FF03208DF802005A
:1019500010208DF803000420ADF80000694602480D
:10196000FFF7FCFB08BD0000000C0140AFF3008056
:101970000CB50022019200922748016841F48031A1
:1019800001604FF4A063016801F4003100910199F6
:10199000491C0191009911B901999942F3D101684B
:1019A000890302D50121009100E0009200990129EC
:1019B00030D11A490A6842F010020A600A6822F01F
:1019C00003020A600A6842F002020A60416841604C
:1019D00041684160416841F480614160416821F49F
:1019E0007C114160416841F4E8114160016841F0B7
:1019F0008071016001688901FCD5416821F0030113
:101A00004160416841F0020141604168C1F38101D8
:101A10000229FAD10CBD0000001002400020024053
:101A200010B5FEF7E3FB07F0A9F818B104494FF031
:101A300080500860BDE810400020FEF7DEBB0000CB
:101A400004ED00E010B50F48016841F001010160AC
:101A500041680D4A1140416001680C4A1140016023
:101A6000016821F480210160416821F4FE01416098
:101A70004FF41F018160FFF779FF05494FF00060C7
:101A8000086010BD001002400000FFF8FFFFF6FEE6
:101A900008ED00E038B501210220FFF7DFFE01214B
:101AA0001020FFF7E9FE01211248FFF7ABFB4FF4CE
:101AB0007070ADF8000018258DF8035003248DF8E0
:101AC000024069460C48FFF749FB01210846FFF731
:101AD000C5FE01210420FFF7CFFE0120ADF8000074
:101AE0008DF803508DF8024069460448FFF736FB35
:101AF00038BD0000000C1A00001001400008014031
:101B00002DE9F04387B04FF48277FA25782640F626
:101B10007F40ADF8140040F2C110ADF81000002471
:101B2000ADF81640ADF812404FF0804804A9404689
:101B300000F014FADFF8A49004A9484600F00EFA69
:101B40006020ADF800000120ADF80200ADF80840BB
:101B5000ADF806406946484600F0A0F8082148461E
:101B600000F0E0F8ADF806406946484600F0E0F8BD
:101B70000821484600F020F9ADF80670694648464D
:101B800000F024F90821484600F062F9ADF806504B
:101B90006946484600F062F90821484600F092F98B
:101BA000ADF806606946404600F078F808214046E6
:101BB00000F0B8F80121404600F03CF80121484609
:101BC00000F038F80121404600F046F8012148466F
:101BD00000F042F807B0BDE8F083000000040040C8
:101BE00010B5124C0121204600F042F800281CD00C
:101BF0000121204600F02DF80D484168491C416044
:101C000028304168491C416028304168491C4160C6
:101C100028304168491C416028304168491C4160B6
:101C200000F128014868401C486010BD00080040D1
:101C3000AC050020002904D0018841F0800101801A
:101C40007047018821F0800101807047C9430182FB
:101C50007047C94301827047002904D0018841F0D0
:101C6000010101807047018821F001010180704766
:101C700002460020138A0B4092890A40002B02D0B2
:101C8000002A00D001207047002A03D082890A432D
:101C90008281704782898A438281704730B5028C85
:101CA00022F001020284028C8388048B24F07004E9
:101CB00024F003050C882C4322F002020D89154301
:101CC0004A882A43124DA8420BD0124DA84208D090
:101CD000114DA84205D0114DA84202D0104DA84286
:101CE0000FD122F008054A892A4322F004058A8888
:101CF0002A4323F4807323F400738D891D43CB8919
:101D00002B4383800483C9888186028430BD000010
:101D1000002C0140003401400040014000440140DB
:101D200000480140028B22F008020A4302837047F8
:101D300070B5028C22F010020284028C8388048B1E
:101D400024F4E04424F440760D884FF6FF7404EA4E
:101D50000525354322F020020E8904EA06161643B3
:101D60004A8804EA02123243114EB04202D0114EA8
:101D7000B04217D122F080024E8904EA06161643BB
:101D800026F040068A8804EA0212324323F4806374
:101D900023F400638E8904EA86061E43CB8904EA95
:101DA0008303334383800583C9880187028470BD20
:101DB000002C014000340140028B22F400624FF6F7
:101DC000FF7303EA012111430183704770B5028C50
:101DD00022F480720284028C8388848B24F0700445
:101DE00024F003040D88254322F400720E894FF677
:101DF000FF7404EA062616434A8804EA02223243A4
:101E0000114EB04202D0114EB04217D122F40066FA
:101E10004A8904EA0222324322F480668A8804EA6C
:101E20000222324323F4805323F400538E8904EAC0
:101E300006161E43CB8904EA03133343838085834C
:101E4000C9888187028470BD002C014000340140A4
:101E5000828B22F008020A438283704770B5028C9D
:101E600022F480520284058C8288838B23F4E04321
:101E700023F440760C884FF6FF7303EA04243443BE
:101E800025F400550E8903EA06362E434D8803EAF1
:101E900005353543094EB04202D0094EB04205D156
:101EA00022F480468A8903EA821232438280848344
:101EB000C988A0F84010058470BD0000002C0140C6
:101EC00000340140828B22F400624FF6FF7303EA74
:101ED00001211143818370478186704701877047D4
:101EE00081877047A0F84010704700000146B1F1AB
:101EF000804F04D0124A914203D11D2070471C200C
:101F00007047104A914201D11E2070470E4A9142FB
:101F100001D1322070470D4A914201D136207047DD
:101F20000B4A914201D1372070470A4A914201D1B0
:101F300019207047084A9142FBD12C2070470000BD
:101F40000004004000080040000C00400010004069
:101F500000140040002C01400034014030B50288DC
:101F60001B4C1C4DA0420DD0A8420BD0B0F1804FAD
:101F700008D0194B984205D0184B984202D0184B04
:101F8000984203D122F070034A881A43154B9842B5
:101F900006D0154B984203D022F44073CA881A43E6
:101FA00002808A8882850A880285A0420AD0A842D7
:101FB00008D00E4A904205D00D4A904202D00D4AF8
:101FC000904201D1097A01860121818230BD000051
:101FD000002C014000340140000400400008004093
:101FE000000C004000100040001400400040014080
:101FF000004401400048014010B50A4C40F2255110
:10200000204600F026F800280AD0204600F0BAF852
:10201000054908702021204600F014F80028F9D165
:1020200010BD00000038014047000020002904D006
:10203000818941F4005181817047818921F40051E7
:10204000818170470246002012880A4200D0012098
:10205000704770B5002440F66A12C1F3421301F0D4
:102060001F05012606FA05F2012B0CD0022B0DD01C
:10207000838A1340090A8E40008830400BB100B1BA
:102080000124204670BD83891340F3E7038A13407F
:10209000F0E710B540F66A13C1F3421301F01F04D4
:1020A0000121A140012B07D0022B07D014303AB1F7
:1020B00002680A43026010BD0C30F8E71030F6E702
:1020C00002688A43026010BD30B585B004460D46F3
:1020D000208A4CF6FF710840E98801432182A089DB
:1020E0004EF6F3110840A9882A8911436A890243F0
:1020F0001143A181A08A4FF6FF410840A9890143FD
:10210000A1826846FFF7C6FB1D48844201D10398AF
:1021100000E00298A189090408D500EBC00101EB99
:10212000001029684900B0FBF1F007E000EBC001A6
:1021300001EB001029688900B0FBF1F06422B0FBCC
:10214000F2F109010B096FF018056B4300EB8300F6
:10215000A3891D044FF0320307D503EBC000B0FB89
:10216000F2F000F00700084306E003EB0010B0FBBC
:10217000F2F000F00F000843208105B030BD0000F0
:10218000003801408088C0F3080070477047FEE7C0
:1021900002E008C8121F08C1002AFAD17047704730
:1021A000002001E001C1121F002AFBD1704700008E
:1021B00038B51A48194C4078103C01280ED001223D
:1021C0001749042802D0052808D105E000204871ED
:1021D000E06880F8702001E00A724A71002310253F
:1021E0001A4619460F48009500F026F801230022F0
:1021F00050210C48009500F01FF810230AA2062178
:102200001846FFF7C7FA102309A206215020FFF74E
:10221000C1FAE168032081F8700038BD1800002081
:10222000B8040020380000204C454654000000004F
:102230005249474854000000F8B50C46069E154622
:1022400050F82300FEF7B3F9C2B204232946204612
:102250000096FFF767FAF8BD4FF08042012807D0DB
:10226000022809D000280BD100211046FFF734BE08
:1022700089B21046FFF730BE89B21046FFF72CBE78
:1022800070470000094A032807D0042809D0002815
:102290000BD100211046FFF725BE89B21046FFF78B
:1022A00021BE89B21046FFF71DBE704700040040F2
:1022B000094A012807D0022809D000280BD10021A3
:1022C0001046FFF70DBE89B21046FFF709BE89B26E
:1022D0001046FFF705BE70470004004070B50124AA
:1022E000064E074D06EB840105EB4400022203F085
:1022F00069FF641CE4B21D2CF4D370BDF00400200F
:102300000030030870B50024064E074D06EB84012B
:1023100005EB4400022203F06DFF641CE4B21D2CA7
:10232000F4D370BDF00400200030030810B503F0B2
:10233000DEFE04F08FF900F025F8FFF7DBF803F07C
:1023400063FE03F037FD00F02FFE00F0F5FABDE864
:10235000104002F09FBD0000084A094B0128D26ED0
:1023600006D0022809D1501A81B21846FFF7B4BD31
:10237000501881B21846FFF7AFBD7047F004002037
:102380000004004010B52248022101604FF4FA61B8
:10239000416081608161C16140F67C12C26001616F
:1023A00040F6DA220262416240F29B42426182625E
:1023B00040F20D12C2624FF4D27202634FF41E72E9
:1023C000426340F279328263C16301640621416451
:1023D00011228264C2640165142141658165016630
:1023E000C16541668166C821C1660167022209494B
:1023F000094803F0E7FE07480078FF2803D0BDE84E
:102400001040FFF76BBFBDE81040FFF77BBF000037
:10241000F00400202000002000300308084A094B87
:102420000128126F06D0022809D1501881B218462F
:10243000FFF754BD501A81B21846FFF74FBD7047E1
:10244000F0040020000400402DE9F041344C012547
:10245000344FA078344EDFF8D4800E2105283BD0CD
:1024600006DC052811D2DFE800F0121C2B2F330008
:1024700006283BD007284BD0632108284CD063287E
:1024800003D114202070A170A572BDE8F081012055
:1024900000F082FC38700028F7D1A078401CA070B2
:1024A000F3E7022003F0FAFE2148B1688142ECDA3A
:1024B000D8F808108142E8DAA078401CA070E4E760
:1024C00025700320A070E0E721700420A070DCE7F5
:1024D00025700520A070D8E7022000F05DFC387060
:1024E0000028D2D1A078401CA070CEE71520207023
:1024F000022003F0D3FE0F48B1688142C5DCD8F852
:1025000008108142C1DC2570A078401CA070BCE797
:102510002170401CA070B8E72570A170B5E70000DD
:10252000E004002021000020AC050020D40500209C
:102530000000C041000090422DE9F041344C0125DB
:10254000344EA078344FDFF8D4800E2105283DD0DA
:1025500006DC052811D2DFE800F0121C2D31350011
:1025600006283DD007284BD0632108284CD063288B
:1025700003D114202070A170A572BDE8F081022063
:1025800000F00AFC30700028F7D1A078401CA07041
:10259000F3E715202070022003F080FE2048B96880
:1025A0008142EADAD8F808108142E6DAA078401CC5
:1025B000A070E2E725700320A070DEE72170042000
:1025C000A070DAE725700520A070D6E7022000F0A1
:1025D000E3FB30700028D0D1A078401CA070CCE77D
:1025E000022003F05BFE0F48B9688142C5DCD8F8D1
:1025F00008108142C1DC2570A078401CA070BCE7A7
:102600002170401CA070B8E72570A170B5E70000EC
:10261000E004002021000020AC050020D4050020AB
:102620000000C041000098422DE9F0412F4C0122EA
:102630002F4DA0782F4E411C2F4FC9B2042835D002
:102640000ADCB8B101281FD002282BD0032801D101
:102650002270A170BDE8F081052831D006283DD058
:1026600007283FD06328F5D1142020700020A070E7
:10267000A272EFE7012000F08FFB28700028E9D15B
:10268000A078401CA070E5E7012003F007FE1B487E
:10269000B1688142DEDCB9688142DBDCA078401C95
:1026A000A070D7E70E202070A170D3E7022000F0C1
:1026B00073FB28700028CDD1A078401CA070C9E71A
:1026C000022003F0EBFD0E48B1688142C2DCB9681C
:1026D0008142BFDCA078401CA070BBE70F202070B7
:1026E000A170B7E722706320A070B3E7E004002078
:1026F00021000020AC050020D40500200000884106
:102700000000A0412DE9F05F504C524A524BA07896
:10271000DFF848C1DFF84881411C01254C4E1427E1
:1027200092689B68DCF808C0D8F80880DFF834A10C
:102730004FF015094FF00F0BC9B2072855D007DC31
:10274000072813D2DFE800F01520252F333D47007E
:102750000B2868D006DC08284AD0092851D00A285E
:1027600004D158E00C2862D0632864D02570BDE8FD
:10277000F09F012000F010FB30700028F7D1277087
:10278000A078401CA070F2E784F800900220A070AE
:10279000EDE735488242EADC8342E8DC84F800B0A9
:1027A0000320A070E3E725700420A070DFE701207C
:1027B00000F0F2FA30700028D9D1A078401CA07047
:1027C000D5E784F800904FF4E16005F009FFA078A8
:1027D000401CA070CBE725488445C8DBD045C6DC4B
:1027E0000E2020700720A070C1E72570A170BEE701
:1027F00084F80090D445BADCD045B8DC2570A170CF
:10280000B5E7012000F0C8FA30700028AFD1A078F9
:10281000401CA070ABE784F800905245A7DA5345FE
:10282000A5DAA170A3E784F800B0A1709FE7257036
:102830006320A0709BE7277000210120FFF78CFD2B
:1028400000210120FFF7EAFDA57290E7E0040020D7
:1028500021000020AC050020D40500202406002023
:10286000740600200000C8410000B0410000204272
:10287000054A064B904204DA914202DA00201870B1
:10288000704701201870704700007041350000202B
:10289000054A064B904204DA914202DA0020587051
:1028A00070470120587070470000504135000020EB
:1028B000064B074A984205DAB1F17E5F02DA002042
:1028C00090707047012090707047000000005041E8
:1028D00035000020054A064B904204DA914202DAA4
:1028E0000120187070470020187070470000C84120
:1028F00028000020064801210171142282704170D5
:102900004171817100210172416203F099BE0000A2
:10291000B804002008B506F02BF9009001216846A4
:1029200005F088FE034800F01FF8012005F058FE6E
:10293000F4E70000290000201FB500200649CDE97A
:10294000011003220346009203904FF4007203A18A
:10295000044806F093F81FBD7C050020574F524BEA
:1029600000000000152900080078002805D0012883
:1029700005D0022805D102F0A1BB02F001BB02F094
:102980004DBB704770B52D4C14222D4D20780F2370
:10299000411C0126C9B2042826D007DC80B10128D9
:1029A00011D0022812D0032808D112E0052825D022
:1029B000062826D0072827D0632834D02E7070BD73
:1029C0002A70217070BD2B70217070BD2E70217027
:1029D00070BD012000F0E0F91A4908700028F7D115
:1029E0002078401C207070BD152028704FF4E160E5
:1029F00005F0F6FD2078401C207070BD2B70217012
:102A000070BD2E70217070BD022003F047FC0E488F
:102A100081680E488142F6DA0D4989688142F2DA0E
:102A20006320207070BD2A7000210120FFF794FC04
:102A300000210120FFF7F2FCAE7270BD34000020CF
:102A4000E004002021000020AC0500200000F0413F
:102A5000D40500202DE9F0412B4C14222B4D207879
:102A60000F23411C01262A4FDFF8A880C9B2042891
:102A70002AD007DC78B1012810D0022811D0032811
:102A800006D111E0052822D0062823D063282FD0B4
:102A90002E70BDE8F0812A702170FAE72B7021704A
:102AA000F7E72E702170F4E7012003F0F7FB1A48D6
:102AB000B9688142EDDAD8F808108142E9DA2E705F
:102AC0002078401C2070E4E72B702170E1E72E7025
:102AD0002170DEE7012003F0E1FB1048B968814274
:102AE000D7DCD8F808108142D3DC63202070D0E70F
:102AF0002A7000210120FFF72FFC00210120FFF7A1
:102B00008DFCAE72C5E7000034000020E004002018
:102B1000AC050020D40500200000C0410000F041B9
:102B200070B5374C012614222078364D05283CD04C
:102B300006DC052810D2DFE800F01114191D28006A
:102B40002F490978491CC9B2062838D007283AD03D
:102B500008283BD0632848D02E7070BD2A7026709C
:102B600070BD0E2028700220207070BD2E700320D2
:102B7000207070BD012000F00FF923490870002873
:102B8000F7D12078401C207070BD012003F086FB37
:102B90001E4881681E488142F6DB1E4989688142D1
:102BA000F2DB2078401C207070BD1520287040F6A4
:102BB000980005F015FD2078401C207070BD0F2096
:102BC0002870217070BD2E70217070BD022003F03E
:102BD00065FB1148816811488142F6DA104989681D
:102BE0008142F2DA6320207070BD2A70002101203A
:102BF000FFF7B2FB00210120FFF710FCAE7270BDA1
:102C000034000020E0040020210000204C060020B9
:102C10000000484274060020AC0500200000F0418E
:102C2000D40500202DE9F041444C012614222078DF
:102C3000434D411C434FDFF810810E234FF0150C1C
:102C4000C9B206284DD006DC062810D2DFE800F015
:102C50001224282C3744092853D004DC072843D0F9
:102C6000082804D14AE00A284ED063285AD02E7092
:102C7000BDE8F0812A7002220321012002F050F801
:102C80003248B9688142F3DCD8F808108142EFDCA1
:102C90002078401C2070EBE72B7002202070E7E7C3
:102CA0002E7003202070E3E7022000F075F8284919
:102CB00008700028DCD12078401C2070D8E785F807
:102CC00000C02448B9688142D2DCD8F8081081429B
:102CD000CEDC05202070CBE70F2028700620207066
:102CE000C6E72E702170C3E785F800C040F26C7013
:102CF00005F076FC2078401C2070B9E72B7021701D
:102D0000B6E72E702170B3E7022003F0C7FA12482D
:102D1000B9688142ACDAD8F808108142A8DA632099
:102D20002070A5E72A7000210120FFF715FB002184
:102D30000120FFF773FBAE729AE700003400002019
:102D4000E0040020AC050020D405002000009841DC
:102D5000210000200000D0410000F04108B50D4ADC
:102D600001280CD0022809D12D2907D1906A0090A2
:102D7000D2E913130222104602F0B4FF08BD2D2938
:102D8000FCD150690090D2E911130222104602F0E2
:102D9000A9FF08BDF00400202DE9F05F02245A4F7E
:102DA000DFF85C81DFF85C91DFF860A1584DFE6EC2
:102DB0004FF0000B012804D002283CD0032875D026
:102DC0009BE05448816854488068FDF781FA40458B
:102DD0000CDD02210846FFF7BFFA02210120FFF7B0
:102DE0001DFB686A401C686201241EE048450CD93E
:102DF00002210120FFF7B0FA02210846FFF70EFB7F
:102E0000686A401C686201240FE010F0FF4F0CD08C
:102E1000B1B25046FFF760F8B7F87010504689B26B
:102E2000FFF75CF8C5F824B00024686AB0F5FA6FC3
:102E300063D3002461E03948816839488068FDF730
:102E400047FA40450CDD02210120FFF785FA0221F7
:102E50000846FFF7E3FA686A401C686201241EE036
:102E600048450CD902210846FFF776FA02210120D5
:102E7000FFF7D4FA686A401C686201240FE010F082
:102E8000FF4F0CD0B1B25046FFF726F8B7F87010DC
:102E9000504689B2FFF722F8C5F824B00024686ACA
:102EA000B0F5FA6F29D3002427E0FFE71D488168B9
:102EB0001D488068FDF70CFA404509DD042101201A
:102EC000FFF74AFA07210120FFF7A8FA012414E0CE
:102ED000484509D904210120FFF73EFA07210120C6
:102EE000FFF79CFA012408E00120796EFFF734FA1D
:102EF0000120B96EFFF792FA00242046BDE8F09F4A
:102F00009A99993E9A9999BEF004002000040040D5
:102F1000B804002024060020FC05002074060020D0
:102F20004C060020D4050020AC0500202DE9F0411E
:102F300007460E460024304603F07CFD01281ED0D3
:102F400000213846FEF788FE0F4D287890B13146B3
:102F5000384600F021F8FDF718FBFDF755FB0B4A4A
:102F60000B4BFDF7A0FAFDF762FB044609488442CB
:102F700000DD0446002028702046BDE8F08131467F
:102F8000384600F02FF8F7E7460000209CC420B038
:102F90007268913F0000964349684FF47A7251433A
:102FA000808C0844704700001FB500200849CDE917
:102FB000011003220346009203904FF4007205A112
:102FC000064805F05BFD0649012008701FBD0000A2
:102FD0008805002054494D4552000000F92F000893
:102FE0002C000020002282844A60024A01211170D4
:102FF000FEF732BE4600002008B505F0B9FD00908E
:103000002321684605F016FB00F004F8012005F0C6
:10301000E7FAF5E770B5264D002401206A68254BD4
:103020002946072A40D2DFE802F03F040D17212B82
:1030300035000870C3F8A801142003F019FDC3F887
:10304000A84131E002220A70C3F8AC01142003F059
:103050000FFDC3F8AC4127E003220A70C3F8B001AA
:10306000142003F005FDC3F8B0411DE004220A70EE
:10307000C3F8B401142003F0FBFCC3F8B44113E01F
:1030800005220A70C3F8B801142003F0F1FCC3F85C
:10309000B84109E006220A70C3F8BC01142003F00D
:1030A000E7FCC3F8BC416C606868401C686070BD98
:1030B0002C0000200000234270B5094C01256560FA
:1030C00025604FF4487005F08BFA002060602060A6
:1030D0004FF4FA7005F084FA0248057070BD0000E4
:1030E000B8812242B80400202DE9F05FF74C00239C
:1030F000204694F811E0C178DFF8D493481C0E22E2
:103100001426F44FDFF8D08301254FF0040A4FF066
:10311000150B4FF0630CC0B2BEF1010F0ED094F846
:1031200010E0BEF1010F73D0052972D072DC0529C1
:103130002BD2DFE801F0EEEDECEBEA004FF0090EE8
:103140000D2968D00ADC0D291FD2DFE801F02C37E9
:10315000465559657184888C909EB900142976D0A3
:1031600008DCA1F10E0106290FD2DFE801F0B1BDA4
:10317000D3D7EBF818296BD009DC152969D01629AB
:1031800068D0172901D16570E070BDE8F09F19295A
:1031900079D06329F9D1E07E012875D00620E0714D
:1031A0006670E370F1E70120FFF7F6FD89F8000093
:1031B0000028EAD1E078401CE070E6E7012003F047
:1031C0006DF8C648B968814207DAD8F8081081421C
:1031D00003DA6570E078401CE07084F801B0C04804
:1031E000B9688142D1DCD8F808108142CDDC657025
:1031F000E078401CE070C8E7627084F803A0C4E780
:103200006570C82005F0ECF9E078401CE070BCE780
:10321000D0E0D4E18BE158E00220FFF7BDFD89F852
:1032200000000028B1D16670E078401CE070ACE787
:10323000022003F033F8AB48B9688142A5DCD8F826
:1032400008108142A1DCE078401CE0709DE78FE02F
:10325000A6E091E098E065700820E07095E7627064
:1032600084F803E091E765700A20E0708DE70120A3
:1032700003F014F89C489D498068884285DAE0781C
:10328000401CE07081E78EE091E0994D0120696E6D
:10329000FFF762F80120A96EFFF7C0F84FF49660BF
:1032A00005F09EF90120E96EFFF756F80120296F1D
:1032B000FFF7B4F884F801A0E078401CE07064E700
:1032C000022060700D20E0705FE76570E0705CE7E1
:1032D00066700120FFF760FD89F8000000288AD1A0
:1032E000E078401CE07050E76670022002F0D6FFE4
:1032F0008048B96881428ADAD8F80810814286DAB3
:103300006570E078401CE0703FE750E14BE13BE145
:103310002BE11FE10C216170E07036E700F07AF9D3
:1033200089F800006670002890D17348B96881421E
:103330008CDAD8F80810814288DA6570E078401C91
:10334000E07022E7FFF7B8FE03F06CF889F80000A0
:10335000002887D1E078401CE07016E7FFE70321E2
:103360004FF4167001F090FCE078401CE0700CE720
:1033700011216170E07008E76570C82005F030F930
:10338000E078401CE07000E766700120FFF704FD64
:1033900089F80000002892D1E078401CE070F4E643
:1033A0006670E070F1E6657084F803C0EDE684F8BD
:1033B00007E0F5E6082974D007DC082984D2DFE8A5
:1033C00001F01B26354448505C6C0C296FD008DC9A
:1033D000092969D00A296CD00B2984D16570E07065
:1033E000D3E60D296FD00E296ED063298CD166707B
:1033F0000620E071E370C8E60120FFF7CDFC89F8F4
:103400000000002889D1E078401CE070BDE6012072
:1034100002F044FF3148B968814207DAD8F8081051
:10342000814203DA6570E078401CE07084F801B0F6
:103430002B48B968814284DCD8F8081081428CDCC2
:103440006570E078401CE0709FE6627084F803A02D
:103450009BE66570C82005F0C3F8E078401CE0707A
:1034600093E60220FFF798FC89F8000000288AD133
:103470006670E078401CE07087E6022002F00EFFE4
:103480001848B96881428ADCD8F80810814286DC85
:10349000E078401CE07078E603E065700820E0709A
:1034A00073E66270E07070E66570E0706DE625E0CE
:1034B000FFE784F801B04FF4167005F091F8E0785A
:1034C000401CE07061E62AE02DE00000B804002016
:1034D00021000020AC050020D4050020000070422F
:1034E00000005041000054422406002000004842E1
:1034F000F004002000002C420000C841667001204A
:1035000002F0CCFE3F48B96881429DDAD8F8081035
:10351000814299DA6570E078401CE07035E60F2151
:103520006170E07031E6657084F803C02DE608290B
:1035300060D006DC06294ED0072985D16570E07081
:1035400023E609295AD063298AD166700320E071E5
:10355000E3701AE60120FFF71FFC89F8000000283D
:103560008AD1E078401CE0700FE6012002F096FE60
:103570002548B968814207DAD8F80810814203DA91
:103580006570E078401CE07084F801B01F48B968AD
:10359000814285DCD8F80810814284DC6570E078CF
:1035A000401CE070F1E5627084F803A0EDE5657001
:1035B000C82005F015F8E078401CE070E5E5022031
:1035C000FFF7EAFB89F800000028A7D16670E078D1
:1035D000401CE070D9E5022002F060FE0C48B9689A
:1035E00081429BDCD8F80810814297DCE078401CCF
:1035F000E070CAE50F216170E070C6E5657084F87F
:1036000003C0C2E500000C420000704200005041BF
:103610000000544210B50224154803C8FCF758FEB8
:103620001449884209DD0C210120FEF795FE052191
:103630000120FEF7F3FE012418E00F49884209D962
:1036400005210120FEF788FE0C210120FEF7E6FE91
:1036500001240BE010F0FF4F08D014210120FEF7E9
:103660007BFE14210120FEF7D9FE0024204610BD68
:103670003800002000002041000020C108B505F0FE
:1036800077FA00900121684604F0D4FF02F0B6FCFE
:10369000F8E700002DE9F05F6F4C704FDFF8C08154
:1036A000204694F80AE001261523B968C0786D4DCC
:1036B000DFF8B4B1D8F808204FF014094FF0050C2A
:1036C0004FF0080ABEF1010F14D0032877D077DC41
:1036D000002876D0012875D0022809D1637063488C
:1036E000814205DA824203DA0E2060700320E07026
:1036F000BDE8F09F05284ED006DC0528F8D2DFE8AB
:1037000000F0151D2A33460006284ED007285AD04F
:10371000082860D06328EBD1207D012866D084F88A
:1037200007A00020E07084F80190E1E70220FFF795
:1037300033FB28700028DBD1E670D9E7022002F0C5
:10374000ADFDB8685845D3DAD8F808005845CFDA47
:103750000220E070CCE7637045488142C8DA8242BB
:10376000C6DA0320E070C3E7FFF754FF2870054670
:1037700084F80190D8F80810B868FCF757FD3D4967
:103780008842B5DA002DB3D10420E070B0E766704E
:1037900084F803C0ACE7FFF78FFC02F043FE28700B
:1037A0000028A5D10620E070A2E70222032196207E
:1037B00001F0B6FA102060700720E07098E73AE058
:1037C00017E023E02AE066704FF4C87004F008FFA9
:1037D00084F803A08CE70220FFF7DEFA287084F853
:1037E0000190002884D16320E07081E70920E07116
:1037F00097E7042823D0052824D0632895D10020FA
:10380000E07084F8019084F807A071E70220FFF7C8
:10381000C3FA2870002888D1E67069E7022002F018
:103820003DFDB868584588DAD8F80800584584DA6C
:103830000220E0705CE766700420E07058E784F8CE
:1038400003C055E70220FFF7A7FA287000288AD1A5
:103850006320E0704CE70000B8040020AC050020B5
:10386000D4050020210000200000484200008841CB
:103870000000D0410000E8412DE9F84FF74801244D
:10388000014690F80DE0CB7891F817B00A7E0092CF
:1038900091F80EC0F249F34A581C1527142689687E
:1038A00092684FF00F0A4FF00E094FF00508C0B2B2
:1038B000BEF1010F03D1E94DBCF1010F04D0E74D7A
:1038C000BEF1010F73D061E1102B71D00BDC102B16
:1038D00026D2DFE803F039484D515D676E7280955E
:1038E000999EA3AFC0C5182B73D009DCA3F11103B7
:1038F000072B15D2DFE803F0CDDAE3E7EAF8F600AC
:103900001C2B67D00EDC192B76D01A2B75D01B2BF5
:1039100006D10321C82001F0B7F9E878401CE8700F
:10392000BDE8F88F1D2B69D01E2B68D0632BF7D113
:10393000BBF1010F71D000980128FBD085F80780FA
:103940006E700020E870EBE74FF08340814203DDAA
:10395000824201DD6F70E3E78142E1DA8242DFDA21
:103960006C70EC70DCE785F801900220E870D7E716
:103970006C700320E870D3E76E700220FFF70CFA3A
:10398000B94908700028CBD1E878401CE870C7E737
:103990006F70B6488142C3DA8242C1DA6C7085F832
:1039A0000380BDE785F801A00620E870B8E7EAE0EB
:1039B0005AE06C700720E870B2E76E700120FFF7E4
:1039C000EBF9A94908700028AAD1E878401CE870F2
:1039D000A6E79EE0C2E06E70012002F05FFCA04806
:1039E0008168A34881429BDA9E498968814297DABF
:1039F000E878401CE87093E78EE0A2E0B2E0B4E023
:103A00006C700A20E8708BE785F801A00B20E87045
:103A100086E76C700C20E87082E7B1E06E700120E0
:103A2000FFF7BAF99049087000288CD1E878401C5B
:103A3000E87075E7012002F031FC894881688D4803
:103A4000814288DA87498968814284DA6C70E87833
:103A5000401CE87064E70D20687085F803A05FE7FC
:103A60006C701020E8705BE7FFF7D4FD7E490870AA
:103A70006E7000288BD17A4881687F48814286DA4F
:103A80007849896881428CDA6C70E878401CE8706B
:103A900046E76E70FFF710FB02F0C4FC7249087035
:103AA000002889D1E878401CE87039E703214FF4F9
:103AB000167001F0E9F8E878401CE87030E7112151
:103AC0006970E8702CE76C70E87029E76E7001206F
:103AD000FFF762F96449087000288CD1E878401C2F
:103AE000E8701DE711E0FFE7022002F0D7FB5C4819
:103AF00081686248814286DA5A498968814287DA58
:103B00006C70E878401CE8700AE70D216970E87075
:103B100006E76C70E87003E7FFF77CFD5249087018
:103B20006E70002885D14E4881685548814291DAEF
:103B30004C49896881428DDA6C70E878401CE870E5
:103B4000EEE66E70FFF7B8FA02F06CFC46490870BA
:103B5000002884D1E878401CE870E1E61021697003
:103B6000E870DDE66C70E870DAE66E700220FFF750
:103B700013F93D49087000288AD16320E870CFE628
:103B80000920E871DCE6BCF1000F0FD0BEF1000F98
:103B90008BD1BCF1010F75D0062B74D074DC062BD1
:103BA0008CD2DFE803F0F3F2F1F0EFEE0D2B6CD0E6
:103BB0000ADC0D2B86D2DFE803F02D3C414569730A
:103BC000797D8D9EA2A7AB00142B6ED008DCA3F1EB
:103BD0000E03062B85D2DFE803F0B8BCBFDAE7F1AD
:103BE000182B73D009DC152B71D0162B70D0172B26
:103BF0008AD185F80190E87092E6192B69D0632B81
:103C000086D1BBF1010F75D085F807806E7000205A
:103C1000E87085E64FF08340814203DD824201DD9A
:103C20006F707DE681428BDA824289DA6C70EC70CB
:103C300076E685F801900220E87071E66C7003204A
:103C4000E8706DE66E700220FFF7A6F8064908706E
:103C5000002886D1E878401CE87061E6B8040020AE
:103C6000AC050020D4050020210000200000904178
:103C7000000034420000F0410000D04100000C423E
:103C80000000C041CFE00CE295E14DE06F70F848D4
:103C90008142B1DA8242AFDA6C7085F803803FE688
:103CA00085F801A00620E8703AE68BE06C700720EA
:103CB000E87035E66E700120FFF76EF8ED49087088
:103CC000002899D1E878401CE87029E69AE07CE069
:103CD00087E09AE0012002F0E1FAE7488168E748CE
:103CE000814289DAE6498968814285DAE878401CB0
:103CF000E87015E694E06C700A20E87010E685F82C
:103D000001A00B20E8700BE66C700C20E87007E651
:103D10006E700120FFF740F8D6490870002887D15F
:103D2000E878401CE870FBE5012002F0B7FAD248C1
:103D30008168D448814284DAD149896881428CDA29
:103D40006C70E878401CE870EAE50D216970E87055
:103D5000E6E56C70E870E3E5FFF75CFCC5490870C8
:103D60006E7000289BD1C4488168C748814296DAAA
:103D7000C3498968814292DA6C70E878401CE87027
:103D8000CEE560E14EE141E13CE136E126E16E70D5
:103D9000FFF792F902F046FBB6490870002888D177
:103DA000E878401CE870BBE503214FF4167000F082
:103DB0006BFFE878401CE870B2E5FFE711216970FD
:103DC000E870ADE56C70E870AAE56E700120FEF752
:103DD000E3FFA849087000288BD1E878401CE87000
:103DE0009EE5022002F05AFAA3488168A748814262
:103DF00084DAA3498968814285DA6C70E878401CCE
:103E0000E8708DE56C70E8708AE56E700220FEF750
:103E1000C3FF98490870002885D16320E8707FE5CA
:103E20000920E871F2E6092B7ED008DC092B8BD241
:103E3000DFE803F027363B3F4B555A5E6A000E2BF6
:103E400073D00FDC0A2B77D00B2B79D00C2B6FD0D3
:103E50000D2B95D10321962000F016FFE878401C29
:103E6000E8705DE50F2B7DD0102B7CD0632B87D1C4
:103E70000098012878D085F807806E700020E870DF
:103E80004EE54FF08340814203DD824201DD6F70D9
:103E900046E5814287DA824285DA6C70EC703FE554
:103EA00085F801900220E8703AE56C700320E87014
:103EB00036E56E700220FEF76FFF6E49087000282D
:103EC0008ED1E878401CE8702AE56F70684881421E
:103ED00086DA824284DA6C7085F8038020E585F802
:103EE00001A00620E8701BE56C700720E87017E55C
:103EF0006E700120FEF750FF5E49087000288ED1D9
:103F0000E878401CE8700BE5012002F0C7F95A4838
:103F100081685F488142A4DA594989688142A0DA00
:103F2000E878401CE870FBE403E02FE004E007E0E1
:103F30001FE06C70E870F3E40C216970E870EFE446
:103F4000FFF768FB4B4908706E70002889D14A481A
:103F500081685048814284DA4949896881428FDA10
:103F60006C7002E016E018E022E0E878401CE8708F
:103F7000D6E46E70FFF7A0F802F054FA3D490870DD
:103F8000002885D1E878401CE870C9E410216970E8
:103F9000E870C5E46C70E870C2E46E700220FEF751
:103FA000FBFE3449087000288ED16320E870B7E426
:103FB0000920E87161E7092B70D007DC072B7ED060
:103FC000082B8BD110216970E870A9E40A2B67D007
:103FD000632B88D1687E012870D088E04FF0834041
:103FE000814203DD824201DD6F7099E481428ADA09
:103FF000824288DA6C70EC7092E485F801900220BD
:10400000E8708DE46C700320E87089E46E70022023
:10401000FEF7C2FE17490870002884D1E878401CDA
:10402000E8707DE4012002F039F9134881681748EF
:10403000814284DA12498968814299DA6C70E878A1
:10404000401CE8706CE4FFF7E5FA0A4908706E70EE
:1040500000288DD1084881680F48814288DA0849D4
:104060008968814284DA6C70E878401CE87057E413
:104070000000904121000020AC05002000003442E7
:10408000D40500200000F0410000D0410000A04114
:1040900000000C420000D8410000E04117E00EE0B3
:1040A00018E0FFF709F86E7002F0BCF912490870C9
:1040B00000288AD1E878401CE87031E415E003213B
:1040C000B42000F0E1FDE878401CE87028E46C7052
:1040D000E87025E46E700220FEF75EFE0649087067
:1040E000002889D16320E8701AE40920E8716E7015
:1040F0000020E87014E40000210000202DE9F05FAA
:104100008A4C00222046A77C01250221DFF820B23C
:1041100014266323C078012F09D0022875D075DCDE
:10412000002874D0012800D1E170BDE8F09F814FD4
:10413000DFF80482DFF80492DFF804A20A2867D0CF
:104140000ADC4FF006020A28EFD2DFE800F0222551
:10415000273545494C62667A4FF00E0C10286FD017
:1041600008DCA0F10B000528DFD2DFE800F07C8F2F
:104170009498A200112872D0122871D0132870D000
:104180006328D2D1207F01286CD0E171E270667083
:10419000CBE76570E570C8E7E170C6E7022002F082
:1041A0007DF8DBF808004045BFDA66488068404586
:1041B000BBDA0320E070B8E7022002F06FF8624932
:1041C000DBF808008842B0DD5E48604980688842BC
:1041D000ABDA0420E070A8E762700520E070A4E785
:1041E0006570E270A1E7FFF715FA38700546667052
:1041F000DAF80810D9F80800FCF718F8404594DA06
:10420000002D92D10720E0708FE77CE071E078E02C
:104210001BE065700820E07087E7FEF74DFF02F0B5
:1042200001F93870022203214FF4C87000F078FDC4
:1042300038780028ACD1112060700920E07074E754
:1042400045E065700A20E0706FE70120FEF7A4FDED
:104250003870667000289BD10B20E07065E73BE06A
:104260003EE040E042E0012002F018F8D9F80800F2
:1042700040458DDDDAF80810414589DD344A904229
:1042800086DA914284DA0C20E0704EE704206070F8
:104290000D20E07049E7657084F803C045E7012010
:1042A000FEF77AFD38706670002884D10F20E07028
:1042B0003BE7152060702748D9F8081081428ADA58
:1042C000DAF80810814286DA1020E0702DE784F8D1
:1042D00001C01120E07028E765701220E07024E72B
:1042E0001320E07021E76670E3701EE70920E0719B
:1042F0004CE7032817D0632886D1E2706670E1711D
:1043000013E7E57011E7022001F0C8FF1248DBF85F
:104310000810814293DD0B49896881428FDA65700C
:104320000320E07001E7E370FFE60000B80400201E
:10433000FC050020210000200000C841AC05002041
:10434000D405002024060020000048420000F0416F
:1043500000000C4200008841000020422DE9F04797
:10436000434CE07A012823D1E0780125414E4FF0FB
:104370001408612865D031DC3F4FDFF80091022836
:1043800055D017DCB8B3012812D1FFF743F93070CC
:10439000064684F80180D9F80810B868FBF746FF94
:1043A0003749884204DA002E02D165700220E0709D
:1043B000BDE8F08703284FD04D28F9D1012001F046
:1043C0006DFF3048B9688142F2DAD9F808108142AD
:1043D000EEDA0D2060706220E070E9E7622823D0F9
:1043E00063283DD0762815D07A28E1D10F2060705F
:1043F0007620E070DCE7FFE7152060702248B9689E
:104400008142D5DAD9F808108142D1DA7A20E070F9
:104410006570CDE70120FEF7BFFC307065700028A5
:10442000C6D14D20E070C3E76570E570C0E7FEF7C8
:1044300043FE01F0F7FF30700028B9D16120E07031
:10444000B6E7022203214FF4487000F069FC102007
:1044500060700320E070ABE765706320E070A7E751
:104460000020E07084F801800920E071A0E70000DE
:10447000B804002021000020AC050020D405002055
:104480000000C841000048420000A0412DE9F05F53
:104490009B4C9C4E20469C4FC07894F810E0411CE9
:1044A0000125DFF86892B268BB684FF0030C4FF04B
:1044B00014084FF0150AC9B24FF0834BBEF1010F3B
:1044C0000FD0042877D077DC002876D0012875D06B
:1044D000022874D0032802D10E206070E170BDE87C
:1044E000F09F08286CD007DC0828F8D2DFE800F03D
:1044F0002E3C415569727A820C2870D012DC092852
:104500006ED00A286DD00B28E9D184F801800220F2
:10451000FEF742FC89F800000028E0D1E078401C5A
:10452000E070DCE70D2873D00E2872D06328D6D156
:10453000A07E01286ED084F807C084F80180002096
:10454000E070BDE8F05FC82004F04AB8012001F037
:10455000A5FE6F48B1688142C1DAB9688142BEDA0E
:10456000E078401CE070BAE70C2060700220E07038
:10457000B5E7FFF74FF889F8000084F801800028BC
:10458000ADD16448B1688142A9DAB9688142A6DA3E
:104590006570E078401CE070A1E7FEF78DFD84F8BF
:1045A000018001F03FFF89F80000002897D1E078F2
:1045B000401CE07093E77AE054E062E065E067E079
:1045C00029E003214FF4487000F05EFBE078401CC6
:1045D000E07084E7102060700620E0707FE724E040
:1045E0001CE01FE06570C82003F0FAFFE078401C73
:1045F000E07074E7022001F051FE4748B168814243
:104600008FDAB96881428CDAE078401CE07066E7A6
:1046100019E020E023E06570E17060E70E20607033
:10462000E1705CE76570E17059E7022001F036FE49
:104630003A48B168814296DCB968814293DCE078FF
:10464000401CE0704BE784F801A05A458BDA5B45CB
:1046500089DAE17043E765706320E0703FE7092085
:10466000E0716AE7052825D0062830D007283DD01C
:10467000632891D184F807C084F801800020E0709D
:104680002DE713206070E17029E76570E17026E77F
:10469000022001F003FE2248B16881428ADAB9683B
:1046A000814287DA6570E078401CE07017E765703A
:1046B000E17014E784F801800220FEF76DFB89F8B1
:1046C0000000002885D1E078401CE07007E7022058
:1046D00001F0E4FD1348B16881428ADAB968814289
:1046E00087DA6570E078401CE070F8E684F801A095
:1046F0005A458CDC5B458ADC65706320E070EEE631
:10470000B8040020AC050020D405002021000020C2
:104710000000D0410000B041000060410000824232
:1047200000004041000070422DE9F047394CE07B29
:1047300001281AD1E0780127411C1425364EC9B250
:10474000042850D013DCDFF8D480DFF8D490C0B157
:10475000012828D002283AD0032806D1032164205A
:1047600000F092FAE078401CE070BDE8F087052880
:104770003DD006283ED06328F7D1607E012842D084
:1047800043E06570022001F089FD2648D8F8081042
:104790008142EADAD9F808108142E6DA6770E078F7
:1047A000401CE070E1E7FEF735FF307065700028CF
:1047B000DBD11D48D8F808108142D6DAD9F80810A4
:1047C0008142D2DA6770E078401CE070CDE7657016
:1047D000FEF772FC01F026FE30700028C5D1E078AB
:1047E000401CE070C1E710206070E170BDE76770A9
:1047F000E170BAE70220FEF7CFFA30700028B4D19A
:104800006320E070B1E70920E07165700020E0707E
:10481000ABE70000B804002021000020AC05002018
:10482000D40500200000C8410000E0412DE9F05F00
:10483000DE480A230927047B042602221521DFF81B
:104840007093C07801254FF0000C4FF008084FF02E
:10485000070A4FF0030B012C0BD0D44C072871D062
:1048600071DC072836D2DFE800F0F0EFEEEDECEB7C
:10487000EA00CE4C0B28A6469EF803E00EF1010E8E
:104880000EF0FF0E70D009DC0B2823D2DFE800F019
:1048900029404347525C6D717A7D8100112870D0A8
:1048A00008DCA0F10C00052814D2DFE800F08B90A2
:1048B00094A1B100142870D00EDC12286ED01328F9
:1048C00008D1022203214FF4FA7000F029FAE078AF
:1048D000401CE070BDE8F09F612809D06328F9D141
:1048E000D6E06170C82003F07BFE6120E070F1E744
:1048F000022001F0D3FCAF484FF084418068884229
:10490000E8DAAD4880688842E4DA6570E570E1E78E
:104910006270E270DEE7657084F803B0DAE70220C7
:10492000FEF73AFAA5490870142161700028D1D128
:10493000E670CFE761704FF47A7003F051FE052006
:10494000E070C7E70AE1AEE0012001F0A7FC9C4956
:10495000D9F808008842BDDD9A4880688842B9DAF3
:1049600066700620E070B5E719E0657084F803A072
:10497000B0E761704FF4617003F032FE84F8038099
:10498000A8E763E06570E770A4E70F206070E3704C
:10499000A0E765700B20E0709CE776E068E0854852
:1049A000894B826884489A42806803DD984201DD21
:1049B00061708FE79A428DDA98428BDA657084F8DD
:1049C00003E087E70E20607084F803E082E76570FB
:1049D00084F803E07EE7142060700220FEF7DCF923
:1049E00076490870002892D1E078401CE07071E7A9
:1049F000012001F053FC6F4881687448814286DAD7
:104A00006D498968814285DAE078401CE07061E791
:104A1000FEF700FE6949064608701420607066487B
:104A2000816864488068FBF701FC6949884288DA3C
:104A3000002E86D16570E078401CE0704AE789E07E
:104A400078E06FE063E05EE05AE042E0FEF734FBBE
:104A500001F0E8FC59490870002884D102220121A4
:104A60004FF4167000F05CF9E078401CE07031E71C
:104A70000120FEF791F95149087014216170002856
:104A800086D1E078401CE07024E765706320E07018
:104A9000A07D012805D0E57184F803C01420607062
:104AA00018E7E771F8E70B2872D008DC08285DD01A
:104AB000092869D00A2884D10B20E0700AE7612810
:104AC0000ED0632886D184F803C014206070E5718D
:104AD00000E76170C82003F083FD6120E070F9E613
:104AE000022001F0DBFB33484FF0844180688842AC
:104AF0008DDA31488068884289DA6570E570E9E6C8
:104B00006270E270E6E6657084F803B0E2E60220C7
:104B1000FEF742F9294908701421617000288DD1EF
:104B2000E670D7E661704FF4487003F059FD052038
:104B3000E070CFE6012001F0B1FB2148D9F8081060
:104B4000814294DD1F498968814290DA66700620AF
:104B5000E070BFE6657084F803A0BBE661704FF4B7
:104B6000617003F03DFD84F80380B3E6012001F09D
:104B700095FB104881681748814285DA0E4989689B
:104B800081428DDAE770A5E66570E370A2E6FFE783
:104B90000120FEF701F9094908701421617000280D
:104BA0008CD16320E070657094E60000B8040020AA
:104BB0004C060020AC050020D40500202100002078
:104BC00000002042740600200000304100000C422A
:104BD0000000C8410000904138B50A46294C012820
:104BE00013D0022810D120462D2AD0E9131341D02A
:104BF0005A2A31D0872A36D0B42A05D1E069012259
:104C00000090104601F06EF838BD1E482D2AD0E9FC
:104C100011131AD05A2A0AD0872A0FD0B42AF3D1F6
:104C2000A06801220090104601F05CF838BD606871
:104C300001220090104601F055F838BDE0680122CD
:104C40000090104601F04EF838BD20690122009016
:104C5000104601F047F838BDA069012200901046C7
:104C600001F040F838BD206A01220090104601F0A2
:104C700039F838BD606A01220090104601F032F820
:104C800038BD0000F004002070B50546234C0A46EC
:104C9000012A616E17D0022A2AD0032A3DD10220B0
:104CA000FDF75AFB0220A16EFDF7B8FB284603F082
:104CB00097FC0220E16EFDF74FFB216FBDE87040CD
:104CC0000220FDF7ABBB0A390220FDF745FB0220AD
:104CD000A16EFDF7A3FB284603F082FC0220E16EE3
:104CE000FDF73AFB216FBDE870400220FDF796BB4F
:104CF0000220FDF731FBA16E02200A39FDF78EFB81
:104D0000284603F06DFC0220E16EFDF725FB216FC4
:104D1000BDE870400220FDF781BB70BDF0040020AB
:104D200070B506460B46494C012A616EA1F10A0591
:104D30001BD0022A7ED1012B5BD0022B6ED0032B1D
:104D400078D10220FDF708FB0220A16EFDF766FB7B
:104D5000304603F045FC0220E16EFDF7FDFA216FBD
:104D6000BDE870400220FDF759BB012B17D0022B84
:104D70002AD0032B69D10120FDF7EEFA0120A16EA4
:104D8000FDF74CFB304603F02BFC0120E16EFDF7F4
:104D9000E3FA216FBDE870400120FDF73FBB2946D3
:104DA0000120FDF7D9FA0120A16EFDF737FB30464F
:104DB00003F016FC0120E16EFDF7CEFA216FBDE88D
:104DC00070400120FDF72ABB0120FDF7C5FAA16E56
:104DD00001200A39FDF722FB304603F001FC0120D7
:104DE000E16EFDF7B9FA216FBDE870400120FDF7D3
:104DF00015BB29460220FDF7AFFA0220A16EFDF790
:104E00000DFB304603F0ECFB0220E16EFDF7A4FA47
:104E1000216FBDE870400220FDF700BB0220FDF7C6
:104E20009BFAA16E02200A39FDF7F8FA304603F02A
:104E3000D7FB00E009E00220E16EFDF78DFA216F5B
:104E4000BDE870400220FDF7E9BA70BDF004002013
:104E500010B50848807815280AD0074C0120616EEB
:104E6000FDF77AFAA16EBDE810400120FDF7D6BA31
:104E700010BD0000B8040020F004002008B503F0C5
:104E800077FE00900521684603F0D4FB00F01AF885
:104E9000F8E700001FB500200649CDE90110062201
:104EA0000346009203904FF4007203A1044803F0FC
:104EB000E5FD1FBD70050020494E5055540000000F
:104EC0007D4E000810B501F077FB01F039FB024878
:104ED0008168491D816010BD7005002070B52648AD
:104EE0000121264D0078002802D001281BD039E08E
:104EF0002248AB7C027BC07A1BB912B908B9AC7AE4
:104F00000CB113B103E069772CE002B908B112B11A
:104F100002E0297526E010B118B1697522E0297701
:104F200020E0A9751EE015486E7C047C437B827BE3
:104F3000C07B1EB914B90BB902B908B114B104E0B1
:104F400069770FE00BB902B908B113B103E0E97654
:104F500008E002B908B112B102E0A97602E038B166
:104F600040B16976687F012801D10920E87170BDE0
:104F7000E975F7E72976F5E729000020B804002055
:104F800007484079002805D0012805D0022805D11E
:104F900000F008B8FDF7AEBC00F022B87047000082
:104FA000B80400200D488179012916D1017A002921
:104FB00013D0C0790A2810D2DFE800F0050B090FE2
:104FC0000F0F0F0F070DFEF765BBFFF797B8FFF741
:104FD0002DBCFFF7C3B900F0C7BB7047B804002071
:104FE00010B50D4C207A01280ED1FFF777FF607FB6
:104FF00000220121022340B1012805D10920E071DE
:105000006371E2706170A17110BDE2716371E27051
:105010006170A17110BD0000B804002007484079FC
:10502000002805D0012805D0022805D100F008B8D5
:10503000FDF760BC00F024B870470000B804002001
:105040000E488179012917D1017A002914D0C0793D
:10505000C01E072810D2DFE800F0060F040A080F70
:105060000C00FFF761BBFEF707BCFEF73DB8FFF78A
:105070000DBA024802F03ABE70470000B8040020A2
:1050800010B50D4C207A01280ED1FFF727FF607F65
:1050900000230121022240B1012805D10920E0713D
:1050A0006271E3706170A17110BD0720E0716271DF
:1050B000E3706170A17110BDB80400200748007949
:1050C000002805D0012805D0022805D100F024B819
:1050D00000F006B800F066B870470000E004002059
:1050E00009493020087009490120C87014224A700B
:1050F000087048710022CA7108710549087048702B
:10510000887004480270704747000020E0040020C7
:10511000350000202800002070B51A4D1A4CA968EF
:10512000A068FDF7A5FB1948816819488068FDF75C
:10513000AFFB1848816818488068FDF7B9FBA9687B
:10514000A068FDF7C7FB15484179012918D1C1793D
:10515000002915D0807A40B101280BD002280FD148
:10516000BDE870400D4802F0EDBDBDE870400B4851
:1051700002F0D6BD0A480078BDE8704003F0FABAE4
:1051800070BD0000D4050020AC05002024060020DE
:10519000FC050020740600204C060020E0040020DE
:1051A000470000200548C179022906D1017100217C
:1051B000817081720249302008707047E00400203D
:1051C000470000202DE9F041494C05230125E078F6
:1051D000484F411CDFF820811422484EC9B20728ED
:1051E0005FD007DC072817D2DFE800F024282C3C2A
:1051F00041444F000B285DD010DC082854D009280A
:1052000055D00A2808D1152060704FF4487003F07B
:10521000E7F9E078401CE070BDE8F0810C284CD044
:105220000D2855D06328F7D16270032060710020EB
:10523000E070F1E713206070E570EDE76570022023
:10524000E070E9E7022001F029F82D48B9688142B1
:10525000E2DAD8F808108142DEDA6570E078401CA6
:10526000E070D9E70E2060700420E070D4E765702C
:10527000E370D1E762700220FDF78EFD30700028E8
:10528000CAD1E078401CE070C6E7022001F006F8C1
:105290001C481D4980688842BEDDE078401CE070F3
:1052A000BAE76570E170B7E76370E170B4E7657005
:1052B000E170B1E76570E170AEE762700220FDF762
:1052C0006BFD30700028A7D1E078401CE070A3E7A8
:1052D000022000F0E3FFB8684FF0844188429BDA77
:1052E000D8F80800884297DA65706320E07093E789
:1052F000B8040020AC050020D405002021000020C7
:10530000000020414C060020000048422DE9F047F3
:105310006E4C01251422E0786D4E411C15236D4F13
:10532000DFF8B4814FF0030CC9B20A2873D00ADC4D
:105330004FF00E010A281FD2DFE800F02030343889
:1053400043505B5F6376102873D008DCA0F10B003C
:10535000052811D2DFE800F0737F8A8D91001128B3
:1053600068D0122867D0132874D0632804D16270E3
:1053700084F805C00020E070BDE8F087022000F04E
:105380008DFF5648B9688142F6DCD8F80810814292
:10539000F2DC6570E078401CE070EDE7617002209F
:1053A000E070E9E7657084F803C0E5E76270022009
:1053B000FDF7F2FC30700028DED1E078401CE07090
:1053C000DAE7022000F06AFF4548464980688842D3
:1053D000D2DD6570E078401CE070CDE7627001209E
:1053E000FDF7DAFC30700028C6D1E078401CE07090
:1053F000C2E761700720E070BEE765700820E070CA
:10540000BAE73548384AB9688068914204DD90426D
:1054100002DD6370B0E70FE09142ADDA9042ABDAA3
:1054200065700920E070A7E70F2060700A20E07027
:10543000A2E725E02DE02FE06570E1709CE7627047
:105440000120FDF7A9FC3070002895D1E078401CC0
:10545000E07091E72AE0012000F020FF4FF4E160C6
:1054600003F0BEF8E078401CE07085E76570E170FD
:1054700082E704206070E1707EE76570E1707BE791
:1054800063704FF47A7003F0ABF8E078401CE07082
:1054900072E76570E1706FE70120FDF77DFC307009
:1054A00000288DD1E078401CE07065E76270022032
:1054B00000F0F4FE0D48B96881428EDAD8F8081081
:1054C00081428ADA65706320E07055E7B8040020F5
:1054D00021000020AC050020D40500200000404140
:1054E00074060020000020420000304100003442D9
:1054F00070B5324C01251522E078411CC9B205284F
:105500003BD006DC052812D2DFE800F012161E2977
:105510003200062834D007283BD0142108283BD07D
:10552000632804D16170032060710020E07070BDB9
:105530000F206070E57070BD6570C82003F050F8F2
:10554000E078401CE07070BD0120FDF725FC1C498F
:1055500008700028F7D1E078401CE07070BD6270E0
:1055600040F2DC5003F03CF8E078401CE07070BD85
:10557000042060700520E07070BD6570E17070BD42
:1055800062704FF4167003F02BF8E078401CE07066
:1055900070BD6570E17070BD6170022000F07EFE2C
:1055A0000848816808488142F5DA084989688142DB
:1055B000F1DA65706320E07070BD0000B80400206F
:1055C00021000020AC05002000003442D40500205A
:1055D0002DE9F0475C4C01251422E0785B4E152341
:1055E0005B4FDFF870814FF0040C4FF0030908287F
:1055F00075D007DC08281CD2DFE800F029364146C8
:105600004A5C61655049C978491CC9B20D287DD0F2
:1056100011DC092870D00A2871D00B2873D00C280F
:1056200007D163704FF47A7002F0DAFFE078401C23
:10563000E070BDE8F0870E286BD00F2874D0632887
:10564000F7D1627084F805900020E070F1E7012046
:1056500000F024FE4048414980688842E9DD6570D9
:10566000E078401CE070E4E762700120FDF794FBF5
:1056700030700028DDD1E078401CE070D9E70E20C2
:10568000607084F80390D4E7657084F803C0D0E7B5
:105690003048334AB9688068914203DD904201DDA9
:1056A0006370C6E79142C4DA9042C2DA65700520A1
:1056B000E070BEE70F2060700620E070B9E765700B
:1056C0000720E070B5E762700120FDF765FB3070E0
:1056D0000028AED1E078401CE070AAE7FFE76370D5
:1056E0004FF4E16002F07CFFE078401CE070A0E73E
:1056F0000CE001E003E006E06570E17099E784F8F2
:1057000001C0E17095E76570E17092E76570E17046
:105710008FE70120FDF740FB3070002889D1E07849
:10572000401CE07085E7FFE76270022000F0B6FDE4
:105730000C48B968814289DAD8F80810814285DAC4
:1057400065706320E07074E7B80400202100002039
:10575000AC050020D4050020740600200000204283
:1057600000005041000034422DE9F05FF84C012662
:105770002146227DDFF8DC931425F74FDFF8DC8328
:10578000C9784FF0030A4FF44870012A1ED03A46F8
:10579000434694F815E092689B684FF0040B4FF075
:1057A000150CBEF1010F46D094F816E01320BEF19F
:1057B000010F7CD0227F012A7AD0607F012803D19B
:1057C0000020E07084F805A0BDE8F09F02291BD0FE
:1057D0000DDCA9B10129F7D10120FDF7DDFA89F827
:1057E000000065700028EFD10220E070ECE703298B
:1057F00011D06329E8D10020E07084F805A0E3E728
:105800000E206070E670DFE701220321FFF788FABF
:1058100084F803A0D8E7012000F040FD6570D0486F
:10582000B9688142D0DAD8F808108142CCDA6670C3
:105830006320E070C8E709297CD009DC0929C3D2BC
:10584000DFE801F00F2305485F6679849400BBE729
:1058500061390729B8D2DFE801F0332CB872154955
:105860009800022000F01AFDB8684FF08441884289
:10587000AADAD8F808008842A6DA0220607065200B
:10588000E070A1E76670E6709EE7022000F006FD7A
:105890006570B8684FF08441884295DAD8F80800FE
:1058A000884291DA022060706220E0708CE791E01B
:1058B00061E16670C82002F093FE6120E07083E72A
:1058C0000220FDF769FA89F8000000288ED184F8DB
:1058D00003A079E784F801C0A248824286DA8342B5
:1058E00084DA022060706620E0706DE70220FDF728
:1058F00053FA89F800006570002884D184F803B059
:1059000062E784F801C002F06BFE0520E0705BE7FF
:10591000012000F0C3FC6570B8684FF084418842F4
:1059200088DAD8F80800884284DA84F801B00620C2
:10593000E07049E739E066706420E07044E784F87D
:1059400001C002F04DFE0720E0703DE7012000F0AD
:10595000A5FC65708448B968814292DAD8F80810CD
:1059600081428EDA66700820E0702DE784F801C06D
:105970007C48824285DA834286DA84F801B0C82006
:1059800002F02EFE6720E0701EE70120FDF704FA0A
:1059900089F800006570002888D10920E070BDE812
:1059A000F05F4FF4C87002F01BBE012000F076FCDF
:1059B00065706B48B96881428BDAD8F8081081426B
:1059C00087DA66706320E070FEE60020E07084F8FD
:1059D00005A0F9E6092974D009DC092985D2DFE898
:1059E00001F021240535555E71758700ECE66629C6
:1059F00041D00DDC61291FD0632977D0642986D17D
:105A000084F801C0880002F0EBFD0720E070DBE6BF
:105A100067297DD0732925D076298AD166707320B5
:105A2000E070D1E66070E670CEE66670C82002F0E5
:105A3000D7FD6120E070C7E60220FDF7ADF989F8D7
:105A40000000002891D184F803A0BDE684F801C0CD
:105A50004448824289DA834287DA022060707620E5
:105A6000E070B1E684F801C04FF4967002F0B8FD22
:105A70006620E070A8E60220FDF78EF989F80000A4
:105A800065700028A0D184F803B09DE684F801C0B9
:105A90004FF4C87002F0A4FD0520E07094E60120E8
:105AA00000F0FCFB6570B8684FF0844188428BDAE7
:105AB000D8F80800884287DA84F801B00620E07040
:105AC00082E635E066706420E0707DE6012000F03B
:105AD000E5FB65702448B968814287DAD8F8081078
